{"abi":[{"type":"constructor","inputs":[{"name":"_decrypter","type":"address","internalType":"address"},{"name":"_biddingDuration","type":"uint256","internalType":"uint256"},{"name":"_revealDuration","type":"uint256","internalType":"uint256"},{"name":"_repaymentDuration","type":"uint256","internalType":"uint256"},{"name":"_id","type":"string","internalType":"string"},{"name":"_token","type":"address","internalType":"address"},{"name":"_fee","type":"uint256","internalType":"uint256"},{"name":"_auctionToken","type":"address","internalType":"address"},{"name":"_auctionTokenAmount","type":"uint256","internalType":"uint256"}],"stateMutability":"nonpayable"},{"type":"function","name":"auctionCancelled","inputs":[],"outputs":[{"name":"","type":"bool","internalType":"bool"}],"stateMutability":"view"},{"type":"function","name":"auctionClearingRate","inputs":[],"outputs":[{"name":"","type":"uint256","internalType":"UD60x18"}],"stateMutability":"view"},{"type":"function","name":"auctionID","inputs":[],"outputs":[{"name":"","type":"string","internalType":"string"}],"stateMutability":"view"},{"type":"function","name":"auctionToken","inputs":[],"outputs":[{"name":"","type":"address","internalType":"contract AuctionToken"}],"stateMutability":"view"},{"type":"function","name":"auctionTokenAmount","inputs":[],"outputs":[{"name":"","type":"uint256","internalType":"uint256"}],"stateMutability":"view"},{"type":"function","name":"auctionTokenRedeem","inputs":[{"name":"to","type":"address","internalType":"address"},{"name":"amount","type":"uint256","internalType":"uint256"}],"outputs":[],"stateMutability":"nonpayable"},{"type":"function","name":"auctionVolume","inputs":[],"outputs":[{"name":"","type":"uint256","internalType":"uint256"}],"stateMutability":"view"},{"type":"function","name":"batchEarlyLiquidation","inputs":[{"name":"participant","type":"address","internalType":"address"},{"name":"collateralTokens","type":"address[]","internalType":"address[]"},{"name":"coverageAmounts","type":"uint256[]","internalType":"uint256[]"}],"outputs":[],"stateMutability":"nonpayable"},{"type":"function","name":"batchLateLiquidation","inputs":[{"name":"participant","type":"address","internalType":"address"},{"name":"collateralTokens","type":"address[]","internalType":"address[]"},{"name":"coverageAmounts","type":"uint256[]","internalType":"uint256[]"}],"outputs":[],"stateMutability":"nonpayable"},{"type":"function","name":"bidManager","inputs":[],"outputs":[{"name":"","type":"address","internalType":"contract BidManager"}],"stateMutability":"view"},{"type":"function","name":"biddingEnd","inputs":[],"outputs":[{"name":"","type":"uint256","internalType":"uint256"}],"stateMutability":"view"},{"type":"function","name":"biddingStart","inputs":[],"outputs":[{"name":"","type":"uint256","internalType":"uint256"}],"stateMutability":"view"},{"type":"function","name":"bidsDecrypted","inputs":[],"outputs":[{"name":"","type":"uint256","internalType":"uint256"}],"stateMutability":"view"},{"type":"function","name":"bidsRevealed","inputs":[{"name":"","type":"uint256","internalType":"uint256"}],"outputs":[{"name":"bidder","type":"address","internalType":"address"},{"name":"quantity","type":"uint256","internalType":"uint256"},{"name":"rate","type":"uint256","internalType":"UD60x18"}],"stateMutability":"view"},{"type":"function","name":"bidsRevealedLength","inputs":[],"outputs":[{"name":"","type":"uint256","internalType":"uint256"}],"stateMutability":"view"},{"type":"function","name":"cancelAuction","inputs":[{"name":"reason","type":"string","internalType":"string"}],"outputs":[],"stateMutability":"nonpayable"},{"type":"function","name":"creator","inputs":[],"outputs":[{"name":"","type":"address","internalType":"address"}],"stateMutability":"view"},{"type":"function","name":"decryptBidsBatch","inputs":[{"name":"batchSize","type":"uint256","internalType":"uint256"},{"name":"decryptionKey","type":"uint8[]","internalType":"uint8[]"}],"outputs":[],"stateMutability":"nonpayable"},{"type":"function","name":"decryptOffersBatch","inputs":[{"name":"batchSize","type":"uint256","internalType":"uint256"},{"name":"decryptionKey","type":"uint8[]","internalType":"uint8[]"}],"outputs":[],"stateMutability":"nonpayable"},{"type":"function","name":"decrypter","inputs":[],"outputs":[{"name":"","type":"address","internalType":"contract IDecrypter"}],"stateMutability":"view"},{"type":"function","name":"endTimestamp","inputs":[],"outputs":[{"name":"","type":"uint256","internalType":"uint256"}],"stateMutability":"view"},{"type":"function","name":"fee","inputs":[],"outputs":[{"name":"","type":"uint256","internalType":"uint256"}],"stateMutability":"view"},{"type":"function","name":"finalBidAllocation","inputs":[{"name":"","type":"address","internalType":"address"}],"outputs":[{"name":"","type":"uint256","internalType":"uint256"}],"stateMutability":"view"},{"type":"function","name":"finalOfferAllocation","inputs":[{"name":"","type":"address","internalType":"address"}],"outputs":[{"name":"","type":"uint256","internalType":"uint256"}],"stateMutability":"view"},{"type":"function","name":"finalizeAuction","inputs":[],"outputs":[],"stateMutability":"nonpayable"},{"type":"function","name":"fraction","inputs":[],"outputs":[{"name":"","type":"uint256","internalType":"UD60x18"}],"stateMutability":"view"},{"type":"function","name":"getAuctionPhase","inputs":[],"outputs":[{"name":"","type":"uint8","internalType":"enum AuctionEngine.AuctionPhase"}],"stateMutability":"view"},{"type":"function","name":"isFinalized","inputs":[],"outputs":[{"name":"","type":"bool","internalType":"bool"}],"stateMutability":"view"},{"type":"function","name":"maxAllowedRate","inputs":[],"outputs":[{"name":"","type":"uint256","internalType":"UD60x18"}],"stateMutability":"view"},{"type":"function","name":"maxBids","inputs":[],"outputs":[{"name":"","type":"uint256","internalType":"uint256"}],"stateMutability":"view"},{"type":"function","name":"maxOffers","inputs":[],"outputs":[{"name":"","type":"uint256","internalType":"uint256"}],"stateMutability":"view"},{"type":"function","name":"offerManager","inputs":[],"outputs":[{"name":"","type":"address","internalType":"contract OfferManager"}],"stateMutability":"view"},{"type":"function","name":"offersDecrypted","inputs":[],"outputs":[{"name":"","type":"uint256","internalType":"uint256"}],"stateMutability":"view"},{"type":"function","name":"offersRevealed","inputs":[{"name":"","type":"uint256","internalType":"uint256"}],"outputs":[{"name":"offerer","type":"address","internalType":"address"},{"name":"quantity","type":"uint256","internalType":"uint256"},{"name":"rate","type":"uint256","internalType":"UD60x18"}],"stateMutability":"view"},{"type":"function","name":"offersRevealedLength","inputs":[],"outputs":[{"name":"","type":"uint256","internalType":"uint256"}],"stateMutability":"view"},{"type":"function","name":"pauseAuction","inputs":[],"outputs":[],"stateMutability":"nonpayable"},{"type":"function","name":"paused","inputs":[],"outputs":[{"name":"","type":"bool","internalType":"bool"}],"stateMutability":"view"},{"type":"function","name":"repay","inputs":[{"name":"repaymentAmount","type":"uint256","internalType":"uint256"}],"outputs":[],"stateMutability":"nonpayable"},{"type":"function","name":"repaymentDue","inputs":[],"outputs":[{"name":"","type":"uint256","internalType":"uint256"}],"stateMutability":"view"},{"type":"function","name":"repaymentTotal","inputs":[],"outputs":[{"name":"","type":"uint256","internalType":"uint256"}],"stateMutability":"view"},{"type":"function","name":"repayments","inputs":[{"name":"","type":"address","internalType":"address"}],"outputs":[{"name":"","type":"uint256","internalType":"uint256"}],"stateMutability":"view"},{"type":"function","name":"revealEnd","inputs":[],"outputs":[{"name":"","type":"uint256","internalType":"uint256"}],"stateMutability":"view"},{"type":"function","name":"setManagers","inputs":[{"name":"_bidManager","type":"address","internalType":"address"},{"name":"_offerManager","type":"address","internalType":"address"}],"outputs":[],"stateMutability":"nonpayable"},{"type":"function","name":"token","inputs":[],"outputs":[{"name":"","type":"address","internalType":"address"}],"stateMutability":"view"},{"type":"function","name":"transferCreator","inputs":[{"name":"newCreator","type":"address","internalType":"address"}],"outputs":[],"stateMutability":"nonpayable"},{"type":"function","name":"unpauseAuction","inputs":[],"outputs":[],"stateMutability":"nonpayable"},{"type":"event","name":"AuctionCancelled","inputs":[{"name":"reason","type":"string","indexed":false,"internalType":"string"}],"anonymous":false},{"type":"event","name":"AuctionFinalized","inputs":[{"name":"clearingRate","type":"uint256","indexed":false,"internalType":"uint256"},{"name":"clearedVolume","type":"uint256","indexed":false,"internalType":"uint256"}],"anonymous":false},{"type":"event","name":"AuctionPaused","inputs":[],"anonymous":false},{"type":"event","name":"AuctionUnpaused","inputs":[],"anonymous":false},{"type":"error","name":"PRBMath_MulDiv18_Overflow","inputs":[{"name":"x","type":"uint256","internalType":"uint256"},{"name":"y","type":"uint256","internalType":"uint256"}]},{"type":"error","name":"PRBMath_MulDiv_Overflow","inputs":[{"name":"x","type":"uint256","internalType":"uint256"},{"name":"y","type":"uint256","internalType":"uint256"},{"name":"denominator","type":"uint256","internalType":"uint256"}]},{"type":"error","name":"ReentrancyGuardReentrantCall","inputs":[]}],"bytecode":{"object":"0x608060405260646014556064601555348015610019575f80fd5b50604051614725380380614725833981016040819052610038916101a1565b60015f556001600160a01b0389166100855760405162461bcd60e51b815260206004820152600c60248201526b5a65726f206164647265737360a01b604482015260640160405180910390fd5b600280546001600160a01b0319166001600160a01b038b1617905542600d8190556100b19089906102cc565b600e8190556100c19088906102cc565b600f8190556100d19087906102cc565b6010819055600d545f916100e591906102e5565b905061010e6301da9c0061010183670de0b6b3a76400006102f8565b61010b919061030f565b90565b601255600a8054336001600160a01b0319918216179091556004805482166001600160a01b0386811691909117909155600f54600755600b8054909216908716179055600361015d87826103b2565b5050600c55506013555061046c945050505050565b80516001600160a01b0381168114610188575f80fd5b919050565b634e487b7160e01b5f52604160045260245ffd5b5f805f805f805f805f6101208a8c0312156101ba575f80fd5b6101c38a610172565b60208b015160408c015160608d015160808e0151939c50919a50985096506001600160401b038111156101f4575f80fd5b8a01601f81018c13610204575f80fd5b80516001600160401b0381111561021d5761021d61018d565b604051601f8201601f19908116603f011681016001600160401b038111828210171561024b5761024b61018d565b6040528181528282016020018e1015610262575f80fd5b8160208401602083015e5f6020838301015280975050505061028660a08b01610172565b60c08b0151909450925061029c60e08b01610172565b91505f6101008b01519050809150509295985092959850929598565b634e487b7160e01b5f52601160045260245ffd5b808201808211156102df576102df6102b8565b92915050565b818103818111156102df576102df6102b8565b80820281158282048414176102df576102df6102b8565b5f8261032957634e487b7160e01b5f52601260045260245ffd5b500490565b600181811c9082168061034257607f821691505b60208210810361036057634e487b7160e01b5f52602260045260245ffd5b50919050565b601f8211156103ad57805f5260205f20601f840160051c8101602085101561038b5750805b601f840160051c820191505b818110156103aa575f8155600101610397565b50505b505050565b81516001600160401b038111156103cb576103cb61018d565b6103df816103d9845461032e565b84610366565b6020601f821160018114610411575f83156103fa5750848201515b5f19600385901b1c1916600184901b1784556103aa565b5f84815260208120601f198516915b828110156104405787850151825560209485019460019092019101610420565b508482101561045d57868401515f19600387901b60f8161c191681555b50505050600190811b01905550565b6142ac806104795f395ff3fe608060405234801561000f575f80fd5b5060043610610281575f3560e01c806399fdb32011610156578063d8894bb5116100ca578063f77282ab11610084578063f77282ab14610532578063f80fec1a1461053a578063fa3fa19614610559578063fc0c546a1461056c578063fc519f151461057f578063fca375c314610594575f80fd5b8063d8894bb5146104eb578063dd1b4a37146104f4578063dd58302e146104fc578063ddca3f431461050e578063e757a42714610517578063e981d43e1461051f575f80fd5b8063a85adeab1161011b578063a85adeab14610499578063a92e29bc146104a2578063b60e7a3b146104b5578063b7c9b6fb146104c8578063b9ae7364146104db578063ceb16419146104e3575f80fd5b806399fdb3201461044e5780639cb0b1c1146104615780639f235ccd14610474578063a087c4cd1461047d578063a6e6647714610490575f80fd5b806350dc7eb1116101f85780638384b9b5116101b25780638384b9b5146103e857806384e1009914610407578063854172351461041057806387aaee75146104195780638d4e4083146104225780638ee4d24b1461042f575f80fd5b806350dc7eb1146103765780635c975abb1461038957806361eec263146103a657806365ceb2f4146103b957806369b70afe146103c25780637c989eec146103d5575f80fd5b80632a52d53f116102495780632a52d53f146103165780632d07091f1461032b578063371fd8e614610340578063423b217f1461035357806347060ba21461035c5780634b3ec1f814610365575f80fd5b8063022a6fae1461028557806302d05d3f146102a15780630596dc2f146102cc5780631b44b6a814610304578063255ef5c91461030d575b5f80fd5b61028e600d5481565b6040519081526020015b60405180910390f35b600a546102b4906001600160a01b031681565b6040516001600160a01b039091168152602001610298565b6102df6102da36600461385e565b61059d565b604080516001600160a01b039094168452602084019290925290820152606001610298565b61028e601d5481565b61028e60095481565b610329610324366004613889565b6105d8565b005b610333610690565b60405161029891906138b3565b61032961034e36600461385e565b61071c565b61028e600e5481565b61028e60185481565b61028e69043c33c193756480000081565b6002546102b4906001600160a01b031681565b6011546103969060ff1681565b6040519015158152602001610298565b6103296103b436600461392f565b6109ca565b61028e60195481565b6005546102b4906001600160a01b031681565b6103296103e33660046139af565b610e8e565b61028e6103f63660046139f6565b601b6020525f908152604090205481565b61028e60065481565b61028e600c5481565b61028e60105481565b6008546103969060ff1681565b61028e61043d3660046139f6565b601c6020525f908152604090205481565b6004546102b4906001600160a01b031681565b6102df61046f36600461385e565b61121e565b61028e60145481565b61032961048b3660046139af565b61122d565b61028e600f5481565b61028e60075481565b6103296104b0366004613a11565b6115bf565b6103296104c3366004613a48565b611672565b6103296104d636600461392f565b61188c565b610329611e2a565b610329611e8b565b61028e60125481565b60175461028e565b60085461039690610100900460ff1681565b61028e60135481565b60165461028e565b6001546102b4906001600160a01b031681565b610329611ee9565b61028e6105483660046139f6565b601a6020525f908152604090205481565b6103296105673660046139f6565b6122b6565b600b546102b4906001600160a01b031681565b610587612347565b6040516102989190613ab4565b61028e60155481565b601781815481106105ac575f80fd5b5f9182526020909120600390910201805460018201546002909201546001600160a01b03909116925083565b6004546001600160a01b0316331461062b5760405162461bcd60e51b81526020600482015260116024820152702737ba1030bab1ba34b7b7103a37b5b2b760791b60448201526064015b60405180910390fd5b60015460405163a9059cbb60e01b81526001600160a01b038481166004830152602482018490529091169063a9059cbb906044015f604051808303815f87803b158015610676575f80fd5b505af1158015610688573d5f803e3d5ffd5b505050505050565b6003805461069d90613ada565b80601f01602080910402602001604051908101604052809291908181526020018280546106c990613ada565b80156107145780601f106106eb57610100808354040283529160200191610714565b820191905f5260205f20905b8154815290600101906020018083116106f757829003601f168201915b505050505081565b6107246123ea565b335f908152601c60205260409020548061076f5760405162461bcd60e51b815260206004820152600c60248201526b139bdd1a1a5b99c81bddd95960a21b6044820152606401610622565b808211156107bf5760405162461bcd60e51b815260206004820152601f60248201527f526570617920616d6f756e742065786365656473206f626c69676174696f6e006044820152606401610622565b6107c98282613b20565b335f908152601c6020526040812091909155601d80548492906107ed908490613b20565b9091555050600b546040805163313ce56760e01b815290515f926001600160a01b03169163313ce5679160048083019260209291908290030181865afa158015610839573d5f803e3d5ffd5b505050506040513d601f19601f8201168201806040525081019061085d9190613b41565b600b54600154604080516365c62d1d60e11b815290519394506001600160a01b03928316936323b872dd933393169163cb8c5a3a9160048083019260209291908290030181865afa1580156108b4573d5f803e3d5ffd5b505050506040513d601f19601f820116820180604052508101906108d89190613b5c565b6040516001600160e01b031960e085901b1681526001600160a01b03928316600482015291166024820152604481018690526064016020604051808303815f875af1158015610929573d5f803e3d5ffd5b505050506040513d601f19601f8201168201806040525081019061094d9190613b77565b50335f908152601c602052604081205490036109bc57600554604051633f001fd960e01b81523360048201526001600160a01b0390911690633f001fd9906024015f604051808303815f87803b1580156109a5575f80fd5b505af11580156109b7573d5f803e3d5ffd5b505050505b50506109c760015f55565b50565b6109d26123ea565b6010546109e2906202a300613b96565b421015610a315760405162461bcd60e51b815260206004820152601960248201527f5573652062617463684561726c794c69717569646174696f6e000000000000006044820152606401610622565b828114610a715760405162461bcd60e51b815260206004820152600e60248201526d082e4e4c2f240dad2e6dac2e8c6d60931b6044820152606401610622565b6001600160a01b0385165f908152601c602052604090205480610ac05760405162461bcd60e51b8152602060048201526007602482015266139bc81919589d60ca1b6044820152606401610622565b5f805b83811015610af957848482818110610add57610add613ba9565b9050602002013582610aef9190613b96565b9150600101610ac3565b5081811115610b395760405162461bcd60e51b815260206004820152600c60248201526b115e18d959591cc81919589d60a21b6044820152606401610622565b600b546040805163313ce56760e01b815290515f926001600160a01b03169163313ce5679160048083019260209291908290030181865afa158015610b80573d5f803e3d5ffd5b505050506040513d601f19601f82011682018060405250810190610ba49190613b41565b600b54600154604080516365c62d1d60e11b815290519394506001600160a01b03928316936323b872dd933393169163cb8c5a3a9160048083019260209291908290030181865afa158015610bfb573d5f803e3d5ffd5b505050506040513d601f19601f82011682018060405250810190610c1f9190613b5c565b610c2a85600a613ca0565b610c349087613cae565b6040516001600160e01b031960e086901b1681526001600160a01b03938416600482015292909116602483015260448201526064016020604051808303815f875af1158015610c85573d5f803e3d5ffd5b505050506040513d601f19601f82011682018060405250810190610ca99190613b77565b50610cb48284613b20565b6001600160a01b0389165f908152601c6020526040812091909155601d8054849290610ce1908490613b20565b909155505f90505b84811015610e7a576005545f9081906001600160a01b0316637c8c237d898986818110610d1857610d18613ba9565b905060200201358c8c87818110610d3157610d31613ba9565b9050602002016020810190610d4691906139f6565b6013546040516001600160e01b031960e086901b16815260048101939093526001600160a01b03909116602483015260448201526064016040805180830381865afa158015610d97573d5f803e3d5ffd5b505050506040513d601f19601f82011682018060405250810190610dbb9190613cc5565b60055491935091506001600160a01b0316632fb665fe8c338d8d88818110610de557610de5613ba9565b9050602002016020810190610dfa91906139f6565b60405160e085901b6001600160e01b03191681526001600160a01b03938416600482015291831660248301529091166044820152606481018590526084810184905260a4015f604051808303815f87803b158015610e56575f80fd5b505af1158015610e68573d5f803e3d5ffd5b505060019094019350610ce992505050565b50505050610e8760015f55565b5050505050565b600a546001600160a01b03163314610eb85760405162461bcd60e51b815260040161062290613ce7565b60015460408051631f74c97760e11b815290515f926001600160a01b031691633ee992ee91600480830192869291908290030181865afa158015610efe573d5f803e3d5ffd5b505050506040513d5f823e601f3d908101601f19168201604052610f259190810190613e2f565b8051601954919250905f905b8281108015610f3f57508682105b15611215575f6001600160a01b0316848281518110610f6057610f60613ba9565b60200260200101515f01516001600160a01b031603610f925760198054905f610f8883613f38565b9190505550611203565b60025484515f916001600160a01b03169063e33daa2c90610fd090889086908110610fbf57610fbf613ba9565b602002602001015160400151612412565b89896040518463ffffffff1660e01b8152600401610ff093929190613f50565b5f604051808303815f875af115801561100b573d5f803e3d5ffd5b505050506040513d5f823e601f3d908101601f191682016040526110329190810190613fda565b905060015f5b825181101561109d57603083828151811061105557611055613ba9565b602002602001015160ff1610806110885750603983828151811061107b5761107b613ba9565b602002602001015160ff16115b15611095575f915061109d565b600101611038565b50806110cc5760198054905f6110b283613f38565b919050555083806110c290613f38565b9450505050611203565b5f6110d6836124b8565b90505f6110f16110ee83670de0b6b3a7640000613cae565b90565b905069043c33c19375648000008111156111305760198054905f61111483613f38565b9190505550858061112490613f38565b96505050505050611203565b601760405180606001604052808a888151811061114f5761114f613ba9565b60200260200101515f01516001600160a01b031681526020018a888151811061117a5761117a613ba9565b60209081029190910181015181015182529081018490528254600180820185555f948552828520845160039093020180546001600160a01b0319166001600160a01b03909316929092178255918301519181019190915560409091015160029091015560198054916111eb83613f38565b919050555085806111fb90613f38565b965050505050505b8061120d81613f38565b915050610f31565b50505050505050565b601681815481106105ac575f80fd5b600a546001600160a01b031633146112575760405162461bcd60e51b815260040161062290613ce7565b60055460408051632e071e3b60e21b815290515f926001600160a01b03169163b81c78ec91600480830192869291908290030181865afa15801561129d573d5f803e3d5ffd5b505050506040513d5f823e601f3d908101601f191682016040526112c49190810190614073565b8051601854919250905f905b82811080156112de57508682105b15611215575f6001600160a01b03168482815181106112ff576112ff613ba9565b6020026020010151604001516001600160a01b0316036113405760188054905f61132883613f38565b9190505550818061133890613f38565b9250506115ad565b60025484515f916001600160a01b03169063e33daa2c9061137e9088908690811061136d5761136d613ba9565b602002602001015160200151612412565b89896040518463ffffffff1660e01b815260040161139e93929190613f50565b5f604051808303815f875af11580156113b9573d5f803e3d5ffd5b505050506040513d5f823e601f3d908101601f191682016040526113e09190810190613fda565b905060015f5b825181101561144b57603083828151811061140357611403613ba9565b602002602001015160ff1610806114365750603983828151811061142957611429613ba9565b602002602001015160ff16115b15611443575f915061144b565b6001016113e6565b508061147a5760188054905f61146083613f38565b9190505550838061147090613f38565b94505050506115ad565b5f611484836124b8565b90505f61149c6110ee83670de0b6b3a7640000613cae565b905069043c33c19375648000008111156114db5760188054905f6114bf83613f38565b919050555085806114cf90613f38565b965050505050506115ad565b601660405180606001604052808a88815181106114fa576114fa613ba9565b6020026020010151604001516001600160a01b031681526020018a888151811061152657611526613ba9565b6020908102919091018101515182529081018490528254600180820185555f948552828520845160039093020180546001600160a01b0319166001600160a01b039093169290921782559183015191810191909155604090910151600290910155601880549161159583613f38565b919050555085806115a590613f38565b965050505050505b806115b781613f38565b9150506112d0565b600a546001600160a01b031633146115e95760405162461bcd60e51b815260040161062290613ce7565b6001600160a01b0382161580159061160957506001600160a01b03811615155b6116445760405162461bcd60e51b815260206004820152600c60248201526b5a65726f206164647265737360a01b6044820152606401610622565b600580546001600160a01b039384166001600160a01b03199182161790915560018054929093169116179055565b600a546001600160a01b0316331461169c5760405162461bcd60e51b815260040161062290613ce7565b6116a46123ea565b60085460ff16156116eb5760405162461bcd60e51b8152602060048201526011602482015270105b1c9958591e48199a5b985b1a5e9959607a1b6044820152606401610622565b600854610100900460ff16156117375760405162461bcd60e51b8152602060048201526011602482015270105b1c9958591e4818d85b98d95b1b1959607a1b6044820152606401610622565b600e54421061177b5760405162461bcd60e51b815260206004820152601060248201526f105b1c9958591e48199a5b9a5cda195960821b6044820152606401610622565b6008805461ff00191661010017905560015460408051633a5937f760e21b815290516001600160a01b039092169163e964dfdc916004808201925f9290919082900301818387803b1580156117ce575f80fd5b505af11580156117e0573d5f803e3d5ffd5b5050505060055f9054906101000a90046001600160a01b03166001600160a01b031663fd6962626040518163ffffffff1660e01b81526004015f604051808303815f87803b158015611830575f80fd5b505af1158015611842573d5f803e3d5ffd5b505050507f8491f144dda005dc8140735549d904900585c1cbe24e47da9dcbf67a8b7233d582826040516118779291906141fc565b60405180910390a161188860015f55565b5050565b6118946123ea565b6010546118a4906202a300613b96565b42106118f25760405162461bcd60e51b815260206004820152601860248201527f5573652062617463684c6174654c69717569646174696f6e00000000000000006044820152606401610622565b8281146119325760405162461bcd60e51b815260206004820152600e60248201526d082e4e4c2f240dad2e6dac2e8c6d60931b6044820152606401610622565b6001600160a01b0385165f908152601c6020526040902054806119815760405162461bcd60e51b8152602060048201526007602482015266139bc81919589d60ca1b6044820152606401610622565b600554604051630647ff2360e11b81526001600160a01b038881166004830152602482018490525f921690630c8ffe4690604401602060405180830381865afa1580156119d0573d5f803e3d5ffd5b505050506040513d601f19601f820116820180604052508101906119f49190613b77565b905080611a435760405162461bcd60e51b815260206004820152601760248201527f4e6f7420756e646572636f6c6c61746572616c697a65640000000000000000006044820152606401610622565b5f805b84811015611a7c57858582818110611a6057611a60613ba9565b9050602002013582611a729190613b96565b9150600101611a46565b5082811115611abc5760405162461bcd60e51b815260206004820152600c60248201526b115e18d959591cc81919589d60a21b6044820152606401610622565b600b546040805163313ce56760e01b815290515f926001600160a01b03169163313ce5679160048083019260209291908290030181865afa158015611b03573d5f803e3d5ffd5b505050506040513d601f19601f82011682018060405250810190611b279190613b41565b600b54600154604080516365c62d1d60e11b815290519394506001600160a01b03928316936323b872dd933393169163cb8c5a3a9160048083019260209291908290030181865afa158015611b7e573d5f803e3d5ffd5b505050506040513d601f19601f82011682018060405250810190611ba29190613b5c565b611bad85600a613ca0565b611bb79087613cae565b6040516001600160e01b031960e086901b1681526001600160a01b03938416600482015292909116602483015260448201526064016020604051808303815f875af1158015611c08573d5f803e3d5ffd5b505050506040513d601f19601f82011682018060405250810190611c2c9190613b77565b50611c3f82670de0b6b3a7640000613cae565b611c499085613b20565b6001600160a01b038a165f908152601c6020526040902055611c7382670de0b6b3a7640000613cae565b601d5f828254611c839190613b20565b909155505f90505b85811015611e1c576005545f9081906001600160a01b0316637c8c237d8a8a86818110611cba57611cba613ba9565b905060200201358d8d87818110611cd357611cd3613ba9565b9050602002016020810190611ce891906139f6565b6013546040516001600160e01b031960e086901b16815260048101939093526001600160a01b03909116602483015260448201526064016040805180830381865afa158015611d39573d5f803e3d5ffd5b505050506040513d601f19601f82011682018060405250810190611d5d9190613cc5565b60055491935091506001600160a01b0316632fb665fe8d338e8e88818110611d8757611d87613ba9565b9050602002016020810190611d9c91906139f6565b60405160e085901b6001600160e01b03191681526001600160a01b03938416600482015291831660248301529091166044820152606481018590526084810184905260a4015f604051808303815f87803b158015611df8575f80fd5b505af1158015611e0a573d5f803e3d5ffd5b505060019094019350611c8b92505050565b5050505050610e8760015f55565b600a546001600160a01b03163314611e545760405162461bcd60e51b815260040161062290613ce7565b6011805460ff191660011790556040517f749d6d79623c8cbd2345906702c70ae75d4254a6c409047c16d52fa5a37ef698905f90a1565b600a546001600160a01b03163314611eb55760405162461bcd60e51b815260040161062290613ce7565b6011805460ff191690556040517f0b9df0b08ead374f8471e246d9c188a0c536a8de366f90ca4a202e0221d72df8905f90a1565b600a546001600160a01b03163314611f135760405162461bcd60e51b815260040161062290613ce7565b60115460ff1615611f5a5760405162461bcd60e51b8152602060048201526011602482015270105d58dd1a5bdb881a5cc81c185d5cd959607a1b6044820152606401610622565b611f626123ea565b60085460ff1615611fa95760405162461bcd60e51b8152602060048201526011602482015270105b1c9958591e48199a5b985b1a5e9959607a1b6044820152606401610622565b600854610100900460ff1615611ff55760405162461bcd60e51b8152602060048201526011602482015270105d58dd1a5bdb8818d85b98d95b1b1959607a1b6044820152606401610622565b60055f9054906101000a90046001600160a01b03166001600160a01b031663b81c78ec6040518163ffffffff1660e01b81526004015f60405180830381865afa158015612044573d5f803e3d5ffd5b505050506040513d5f823e601f3d908101601f1916820160405261206b9190810190614073565b5160185410156120b65760405162461bcd60e51b8152602060048201526016602482015275139bdd08185b1b08189a591cc8191958dc9e5c1d195960521b6044820152606401610622565b60015f9054906101000a90046001600160a01b03166001600160a01b0316633ee992ee6040518163ffffffff1660e01b81526004015f60405180830381865afa158015612105573d5f803e3d5ffd5b505050506040513d5f823e601f3d908101601f1916820160405261212c9190810190613e2f565b51601954101561217e5760405162461bcd60e51b815260206004820152601860248201527f4e6f7420616c6c206f66666572732064656372797074656400000000000000006044820152606401610622565b60145460165411156121d25760405162461bcd60e51b815260206004820152601960248201527f4578636565646564206d6178206269647320616c6c6f776564000000000000006044820152606401610622565b60155460175411156122265760405162461bcd60e51b815260206004820152601b60248201527f4578636565646564206d6178206f666665727320616c6c6f77656400000000006044820152606401610622565b61222e612596565b612236612777565b5f80612240612958565b6006829055600981905590925090506122598282612c8f565b612263828261300e565b6008805460ff1916600117905560408051838152602081018390527f878175d6894f965b46049cdadea9efcc83bffb98ab4b9cb359e0c67757944778910160405180910390a150506122b460015f55565b565b600a546001600160a01b031633146122e05760405162461bcd60e51b815260040161062290613ce7565b6001600160a01b0381166123255760405162461bcd60e51b815260206004820152600c60248201526b5a65726f206164647265737360a01b6044820152606401610622565b600a80546001600160a01b0319166001600160a01b0392909216919091179055565b5f600d54421015801561235b5750600e5442105b1561236557505f90565b600e5442101580156123785750600f5442105b156123835750600190565b600f54421015801561239757506010544211155b156123a25750600290565b60405162461bcd60e51b815260206004820152601760248201527f41756374696f6e20706861736520756e646566696e65640000000000000000006044820152606401610622565b60025f540361240c57604051633ee5aeb560e01b815260040160405180910390fd5b60025f55565b60605f82516001600160401b0381111561242e5761242e613d14565b604051908082528060200260200182016040528015612457578160200160208202803683370190505b5090505f5b83518110156124b15783818151811061247757612477613ba9565b602001015160f81c60f81b60f81c82828151811061249757612497613ba9565b60ff9092166020928302919091019091015260010161245c565b5092915050565b5f805b82518110156125905760308382815181106124d8576124d8613ba9565b602002602001015160ff161015801561250e5750603983828151811061250057612500613ba9565b602002602001015160ff1611155b6125485760405162461bcd60e51b815260206004820152600b60248201526a4e6f6e2d6e756d6572696360a81b6044820152606401610622565b603083828151811061255c5761255c613ba9565b602002602001015161256e919061422a565b60ff1661257c83600a613cae565b6125869190613b96565b91506001016124bb565b50919050565b6016545f5b81811015611888575f5b816125b1600185613b20565b6125bb9190613b20565b81101561276e5761262360166125d2836001613b96565b815481106125e2576125e2613ba9565b905f5260205f209060030201600201546016838154811061260557612605613ba9565b905f5260205f2090600302016002015461342090919063ffffffff16565b15612766575f6016828154811061263c5761263c613ba9565b5f91825260209182902060408051606081018252600390930290910180546001600160a01b03168352600180820154948401949094526002015490820152915060169061268a908490613b96565b8154811061269a5761269a613ba9565b905f5260205f209060030201601683815481106126b9576126b9613ba9565b5f9182526020909120825460039092020180546001600160a01b0319166001600160a01b03909216919091178155600180830154818301556002928301549290910191909155819060169061270f908590613b96565b8154811061271f5761271f613ba9565b5f91825260209182902083516003929092020180546001600160a01b0319166001600160a01b03909216919091178155908201516001820155604090910151600290910155505b6001016125a5565b5060010161259b565b6017545f5b81811015611888575f5b81612792600185613b20565b61279c9190613b20565b81101561294f5761280460176127b3836001613b96565b815481106127c3576127c3613ba9565b905f5260205f20906003020160020154601783815481106127e6576127e6613ba9565b905f5260205f2090600302016002015461342490919063ffffffff16565b15612947575f6017828154811061281d5761281d613ba9565b5f91825260209182902060408051606081018252600390930290910180546001600160a01b03168352600180820154948401949094526002015490820152915060179061286b908490613b96565b8154811061287b5761287b613ba9565b905f5260205f2090600302016017838154811061289a5761289a613ba9565b5f9182526020909120825460039092020180546001600160a01b0319166001600160a01b0390921691909117815560018083015481830155600292830154929091019190915581906017906128f0908590613b96565b8154811061290057612900613ba9565b5f91825260209182902083516003929092020180546001600160a01b0319166001600160a01b03909216919091178155908201516001820155604090910151600290910155505b600101612786565b5060010161277c565b5f808080805f805b601754811015612ae9575f6017828154811061297e5761297e613ba9565b905f5260205f2090600302016002015490505f5b601754831080156129d357506129d382601785815481106129b5576129b5613ba9565b905f5260205f2090600302016002015461342890919063ffffffff16565b15612a1a57601783815481106129eb576129eb613ba9565b905f5260205f2090600302016001015481612a069190613b96565b905082612a1281613f38565b935050612992565b612a248188613b96565b96505f805b601654811015612aaf57612a688460168381548110612a4a57612a4a613ba9565b905f5260205f2090600302016002015461342c90919063ffffffff16565b15612aa25760168181548110612a8057612a80613ba9565b905f5260205f2090600302016001015482612a9b9190613b96565b9150612aa7565b612aaf565b600101612a29565b505f818910612abe5781612ac0565b885b905087811115612ae057809750839650600185612add9190613b20565b95505b50505050612960565b505f805b601654811015612b2857612b0e8460168381548110612a4a57612a4a613ba9565b15612b1b57809150612b20565b612b28565b600101612aed565b505f60168281548110612b3d57612b3d613ba9565b5f918252602082206002600390920201015491508490612b73612b608385613431565b671bc16d674ec80000613446565b613446565b90505f805b601654811015612be057612b998360168381548110612a4a57612a4a613ba9565b15612bd35760168181548110612bb157612bb1613ba9565b905f5260205f2090600302016001015482612bcc9190613b96565b9150612bd8565b612be0565b600101612b78565b505f805b601754811015612c6a57612c238460178381548110612c0557612c05613ba9565b905f5260205f2090600302016002015461345d90919063ffffffff16565b15612c5d5760178181548110612c3b57612c3b613ba9565b905f5260205f2090600302016001015482612c569190613b96565b9150612c62565b612c6a565b600101612be4565b505f818310612c795781612c7b565b825b939d939c50929a5050505050505050505050565b60165481905f5b8181108015612ca457505f83115b15612f5a57612cc0856016838154811061260557612605613ba9565b612f5a575f612cd0826001613b96565b90505b8281108015612d165750612d1660168381548110612cf357612cf3613ba9565b905f5260205f20906003020160020154601683815481106129b5576129b5613ba9565b15612d2d5780612d2581613f38565b915050612cd3565b5f825b82811015612d705760168181548110612d4b57612d4b613ba9565b905f5260205f2090600302016001015482612d669190613b96565b9150600101612d30565b50848111612e3c57825b82811015612e36575f60168281548110612d9657612d96613ba9565b905f5260205f20906003020160010154905080601a5f60168581548110612dbf57612dbf613ba9565b5f91825260208083206003909202909101546001600160a01b0316835282019290925260400190205560168054612e21919084908110612e0157612e01613ba9565b5f9182526020909120600390910201546001600160a01b0316828b613462565b612e2b8188613b20565b965050600101612d7a565b50612f52565b84835b83811015612f4c575f60168281548110612e5b57612e5b613ba9565b905f5260205f2090600302016001015490505f600186612e7b9190613b20565b8310612e875783612e9c565b84612e928386613cae565b612e9c9190614257565b905080601a5f60168681548110612eb557612eb5613ba9565b5f91825260208083206003909202909101546001600160a01b0316835282019290925260400190205560168054612f17919085908110612ef757612ef7613ba9565b5f9182526020909120600390910201546001600160a01b0316828d613462565b612f22600187613b20565b831015612f4257612f338185613b20565b9350612f3f8286613b20565b94505b5050600101612e3f565b505f9550505b509050612c96565b505f5b81811015610e87575f60168281548110612f7957612f79613ba9565b5f91825260208083206003909202909101546001600160a01b0316808352601a9091526040822054909250900361300557600554604051633f001fd960e01b81526001600160a01b03838116600483015290911690633f001fd9906024015f604051808303815f87803b158015612fee575f80fd5b505af1158015613000573d5f803e3d5ffd5b505050505b50600101612f5d565b60175481905f5b818110801561302357505f83115b1561332f5761303f85601783815481106127e6576127e6613ba9565b61332f575f61304f826001613b96565b90505b828110801561309557506130956017838154811061307257613072613ba9565b905f5260205f20906003020160020154601783815481106129b5576129b5613ba9565b156130ac57806130a481613f38565b915050613052565b5f825b828110156130ef57601781815481106130ca576130ca613ba9565b905f5260205f20906003020160010154826130e59190613b96565b91506001016130af565b508481116131e657825b828110156131e0575f6017828154811061311557613115613ba9565b905f5260205f20906003020160010154905080601b5f6017858154811061313e5761313e613ba9565b5f91825260208083206003909202909101546001600160a01b03168352820192909252604001902055601780546131cb91908490811061318057613180613ba9565b905f5260205f2090600302015f015f9054906101000a90046001600160a01b031682601785815481106131b5576131b5613ba9565b905f5260205f209060030201600101548c6135f4565b6131d58188613b20565b9650506001016130f9565b50613327565b84835b83811015613321575f6017828154811061320557613205613ba9565b905f5260205f2090600302016001015490505f6001866132259190613b20565b83106132315783613246565b8461323c8386613cae565b6132469190614257565b905080601b5f6017868154811061325f5761325f613ba9565b5f91825260208083206003909202909101546001600160a01b03168352820192909252604001902055601780546132ec9190859081106132a1576132a1613ba9565b905f5260205f2090600302015f015f9054906101000a90046001600160a01b031682601786815481106132d6576132d6613ba9565b905f5260205f209060030201600101548e6135f4565b6132f7600187613b20565b831015613317576133088185613b20565b93506133148286613b20565b94505b50506001016131e9565b505f9550505b509050613015565b505f5b81811015610e87575f6017828154811061334e5761334e613ba9565b5f91825260208083206003909202909101546001600160a01b0316808352601b9091526040822054909250900361341757600154601780546001600160a01b0390921691638a75eb04918491869081106133aa576133aa613ba9565b5f9182526020909120600160039092020101546040516001600160e01b031960e085901b1681526001600160a01b03909216600483015260248201526044015f604051808303815f87803b158015613400575f80fd5b505af1158015613412573d5f803e3d5ffd5b505050505b50600101613332565b1190565b1090565b1490565b111590565b5f61343f6110ee8385613b96565b9392505050565b5f61343f6110ee84670de0b6b3a7640000856136d4565b101590565b5f61348368056bc75e2d631000005b60125461347e90856137a2565b613431565b90505f6134b76134a8836134a26110ee88670de0b6b3a7640000613cae565b906137a2565b68056bc75e2d63100000613446565b6001600160a01b0386165f908152601c60205260408120805492935083928392906134e3908490613b96565b9250508190555080601d5f8282546134fb9190613b96565b90915550506013545f9061350f9087613cae565b600154600a5460405163a9059cbb60e01b81526001600160a01b03918216600482015260248101849052929350169063a9059cbb906044015f604051808303815f87803b15801561355e575f80fd5b505af1158015613570573d5f803e3d5ffd5b50506001546001600160a01b0316915063a9059cbb905088613592848a613b20565b6040516001600160e01b031960e085901b1681526001600160a01b03909216600483015260248201526044015f604051808303815f87803b1580156135d5575f80fd5b505af11580156135e7573d5f803e3d5ffd5b5050505050505050505050565b5f61360768056bc75e2d63100000613471565b90505f6136266134a8836134a26110ee89670de0b6b3a7640000613cae565b90505f61363682612b6e600c5490565b6001549091506001600160a01b0316638a75eb04886136558989613b20565b6040516001600160e01b031960e085901b1681526001600160a01b03909216600483015260248201526044015f604051808303815f87803b158015613698575f80fd5b505af11580156136aa573d5f803e3d5ffd5b50506004546001600160a01b03169150632f479075905088613592670de0b6b3a764000085614257565b5f80805f19858709858702925082811083820303915050805f0361370b5783828161370157613701614243565b049250505061343f565b83811061373c57604051630c740aef60e31b8152600481018790526024810186905260448101859052606401610622565b5f84868809600260036001881981018916988990049182028318808302840302808302840302808302840302808302840302808302840302918202909203025f889003889004909101858311909403939093029303949094049190911702949350505050565b5f61343f6110ee84845f80805f19848609848602925082811083820303915050805f036137dc5750670de0b6b3a764000090049050613858565b670de0b6b3a7640000811061380e57604051635173648d60e01b81526004810186905260248101859052604401610622565b5f670de0b6b3a764000085870962040000818503049310909103600160ee1b02919091177faccb18165bd6fe31ae1cf318dc5b51eee0e1ba569b88cd74c1773b91fac10669029150505b92915050565b5f6020828403121561386e575f80fd5b5035919050565b6001600160a01b03811681146109c7575f80fd5b5f806040838503121561389a575f80fd5b82356138a581613875565b946020939093013593505050565b602081525f82518060208401528060208501604085015e5f604082850101526040601f19601f83011684010191505092915050565b5f8083601f8401126138f8575f80fd5b5081356001600160401b0381111561390e575f80fd5b6020830191508360208260051b8501011115613928575f80fd5b9250929050565b5f805f805f60608688031215613943575f80fd5b853561394e81613875565b945060208601356001600160401b03811115613968575f80fd5b613974888289016138e8565b90955093505060408601356001600160401b03811115613992575f80fd5b61399e888289016138e8565b969995985093965092949392505050565b5f805f604084860312156139c1575f80fd5b8335925060208401356001600160401b038111156139dd575f80fd5b6139e9868287016138e8565b9497909650939450505050565b5f60208284031215613a06575f80fd5b813561343f81613875565b5f8060408385031215613a22575f80fd5b8235613a2d81613875565b91506020830135613a3d81613875565b809150509250929050565b5f8060208385031215613a59575f80fd5b82356001600160401b03811115613a6e575f80fd5b8301601f81018513613a7e575f80fd5b80356001600160401b03811115613a93575f80fd5b856020828401011115613aa4575f80fd5b6020919091019590945092505050565b6020810160038310613ad457634e487b7160e01b5f52602160045260245ffd5b91905290565b600181811c90821680613aee57607f821691505b60208210810361259057634e487b7160e01b5f52602260045260245ffd5b634e487b7160e01b5f52601160045260245ffd5b8181038181111561385857613858613b0c565b60ff811681146109c7575f80fd5b5f60208284031215613b51575f80fd5b815161343f81613b33565b5f60208284031215613b6c575f80fd5b815161343f81613875565b5f60208284031215613b87575f80fd5b8151801515811461343f575f80fd5b8082018082111561385857613858613b0c565b634e487b7160e01b5f52603260045260245ffd5b6001815b6001841115613bf857808504811115613bdc57613bdc613b0c565b6001841615613bea57908102905b60019390931c928002613bc1565b935093915050565b5f82613c0e57506001613858565b81613c1a57505f613858565b8160018114613c305760028114613c3a57613c56565b6001915050613858565b60ff841115613c4b57613c4b613b0c565b50506001821b613858565b5060208310610133831016604e8410600b8410161715613c79575081810a613858565b613c855f198484613bbd565b805f1904821115613c9857613c98613b0c565b029392505050565b5f61343f60ff841683613c00565b808202811582820484141761385857613858613b0c565b5f8060408385031215613cd6575f80fd5b505080516020909101519092909150565b6020808252601390820152722737ba1030bab1ba34b7b71031b932b0ba37b960691b604082015260600190565b634e487b7160e01b5f52604160045260245ffd5b604051606081016001600160401b0381118282101715613d4a57613d4a613d14565b60405290565b604051608081016001600160401b0381118282101715613d4a57613d4a613d14565b604051601f8201601f191681016001600160401b0381118282101715613d9a57613d9a613d14565b604052919050565b5f6001600160401b03821115613dba57613dba613d14565b5060051b60200190565b5f82601f830112613dd3575f80fd5b81516001600160401b03811115613dec57613dec613d14565b613dff601f8201601f1916602001613d72565b818152846020838601011115613e13575f80fd5b8160208501602083015e5f918101602001919091529392505050565b5f60208284031215613e3f575f80fd5b81516001600160401b03811115613e54575f80fd5b8201601f81018413613e64575f80fd5b8051613e77613e7282613da2565b613d72565b8082825260208201915060208360051b850101925086831115613e98575f80fd5b602084015b83811015613f2d5780516001600160401b03811115613eba575f80fd5b85016060818a03601f19011215613ecf575f80fd5b613ed7613d28565b6020820151613ee581613875565b81526040820151602082015260608201516001600160401b03811115613f09575f80fd5b613f188b602083860101613dc4565b60408301525084525060209283019201613e9d565b509695505050505050565b5f60018201613f4957613f49613b0c565b5060010190565b604080825284519082018190525f9060208601906060840190835b81811015613f8c57835160ff16835260209384019390920191600101613f6b565b5050838103602080860191909152858252019050845f5b85811015613fce578135613fb681613b33565b60ff1683526020928301929190910190600101613fa3565b50909695505050505050565b5f60208284031215613fea575f80fd5b81516001600160401b03811115613fff575f80fd5b8201601f8101841361400f575f80fd5b805161401d613e7282613da2565b8082825260208201915060208360051b85010192508683111561403e575f80fd5b6020840193505b8284101561406957835161405881613b33565b825260209384019390910190614045565b9695505050505050565b5f60208284031215614083575f80fd5b81516001600160401b03811115614098575f80fd5b8201601f810184136140a8575f80fd5b80516140b6613e7282613da2565b8082825260208201915060208360051b8501019250868311156140d7575f80fd5b602084015b83811015613f2d5780516001600160401b038111156140f9575f80fd5b85016080818a03601f1901121561410e575f80fd5b614116613d50565b6020820151815260408201516001600160401b03811115614135575f80fd5b6141448b602083860101613dc4565b602083015250606082015161415881613875565b604082015260808201516001600160401b03811115614175575f80fd5b60208184010192505089601f83011261418c575f80fd5b815161419a613e7282613da2565b8082825260208201915060208360051b86010192508c8311156141bb575f80fd5b6020850194505b828510156141e65784516141d581613875565b8252602094850194909101906141c2565b60608401525050845250602092830192016140dc565b60208152816020820152818360408301375f818301604090810191909152601f909201601f19160101919050565b60ff828116828216039081111561385857613858613b0c565b634e487b7160e01b5f52601260045260245ffd5b5f8261427157634e487b7160e01b5f52601260045260245ffd5b50049056fea26469706673582212204ba8e07da92760f05bcad37cc169abf40ea440d025b595fbe95b0cb195654ee464736f6c634300081a0033","linkReferences":{}},"methodIdentifiers":{"auctionCancelled()":"dd58302e","auctionClearingRate()":"84e10099","auctionID()":"2d07091f","auctionToken()":"99fdb320","auctionTokenAmount()":"85417235","auctionTokenRedeem(address,uint256)":"2a52d53f","auctionVolume()":"255ef5c9","batchEarlyLiquidation(address,address[],uint256[])":"b7c9b6fb","batchLateLiquidation(address,address[],uint256[])":"61eec263","bidManager()":"69b70afe","biddingEnd()":"423b217f","biddingStart()":"022a6fae","bidsDecrypted()":"47060ba2","bidsRevealed(uint256)":"9cb0b1c1","bidsRevealedLength()":"e757a427","cancelAuction(string)":"b60e7a3b","creator()":"02d05d3f","decryptBidsBatch(uint256,uint8[])":"a087c4cd","decryptOffersBatch(uint256,uint8[])":"7c989eec","decrypter()":"50dc7eb1","endTimestamp()":"a85adeab","fee()":"ddca3f43","finalBidAllocation(address)":"f80fec1a","finalOfferAllocation(address)":"8384b9b5","finalizeAuction()":"f77282ab","fraction()":"d8894bb5","getAuctionPhase()":"fc519f15","isFinalized()":"8d4e4083","maxAllowedRate()":"4b3ec1f8","maxBids()":"9f235ccd","maxOffers()":"fca375c3","offerManager()":"e981d43e","offersDecrypted()":"65ceb2f4","offersRevealed(uint256)":"0596dc2f","offersRevealedLength()":"dd1b4a37","pauseAuction()":"b9ae7364","paused()":"5c975abb","repay(uint256)":"371fd8e6","repaymentDue()":"87aaee75","repaymentTotal()":"1b44b6a8","repayments(address)":"8ee4d24b","revealEnd()":"a6e66477","setManagers(address,address)":"a92e29bc","token()":"fc0c546a","transferCreator(address)":"fa3fa196","unpauseAuction()":"ceb16419"},"id":0}