{"abi":[{"type":"constructor","inputs":[{"name":"_decrypter","type":"address","internalType":"address"},{"name":"_biddingDuration","type":"uint256","internalType":"uint256"},{"name":"_revealDuration","type":"uint256","internalType":"uint256"},{"name":"_loanDuration","type":"uint256","internalType":"uint256"},{"name":"_id","type":"string","internalType":"string"},{"name":"_token","type":"address","internalType":"address"},{"name":"_fee","type":"uint256","internalType":"uint256"},{"name":"_liquidationFee","type":"uint256","internalType":"uint256"},{"name":"_protocolLiquidationfee","type":"uint256","internalType":"uint256"},{"name":"_auctionToken","type":"address","internalType":"address"},{"name":"_auctionTokenAmount","type":"uint256","internalType":"uint256"}],"stateMutability":"nonpayable"},{"type":"function","name":"allBidsDecrypted","inputs":[],"outputs":[{"name":"","type":"bool","internalType":"bool"}],"stateMutability":"view"},{"type":"function","name":"allOffersDecrypted","inputs":[],"outputs":[{"name":"","type":"bool","internalType":"bool"}],"stateMutability":"view"},{"type":"function","name":"auctionCancelled","inputs":[],"outputs":[{"name":"","type":"bool","internalType":"bool"}],"stateMutability":"view"},{"type":"function","name":"auctionClearingRate","inputs":[],"outputs":[{"name":"","type":"uint256","internalType":"UD60x18"}],"stateMutability":"view"},{"type":"function","name":"auctionID","inputs":[],"outputs":[{"name":"","type":"string","internalType":"string"}],"stateMutability":"view"},{"type":"function","name":"auctionToken","inputs":[],"outputs":[{"name":"","type":"address","internalType":"contract AuctionToken"}],"stateMutability":"view"},{"type":"function","name":"auctionTokenAmount","inputs":[],"outputs":[{"name":"","type":"uint256","internalType":"uint256"}],"stateMutability":"view"},{"type":"function","name":"auctionTokenRedeem","inputs":[{"name":"to","type":"address","internalType":"address"},{"name":"auctionAmount","type":"uint256","internalType":"uint256"}],"outputs":[],"stateMutability":"nonpayable"},{"type":"function","name":"auctionVolume","inputs":[],"outputs":[{"name":"","type":"uint256","internalType":"uint256"}],"stateMutability":"view"},{"type":"function","name":"batchEarlyLiquidation","inputs":[{"name":"participant","type":"address","internalType":"address"},{"name":"collateralTokens","type":"address[]","internalType":"address[]"},{"name":"coverageAmounts","type":"uint256[]","internalType":"uint256[]"}],"outputs":[],"stateMutability":"nonpayable"},{"type":"function","name":"batchLateLiquidation","inputs":[{"name":"participant","type":"address","internalType":"address"},{"name":"collateralTokens","type":"address[]","internalType":"address[]"},{"name":"coverageAmounts","type":"uint256[]","internalType":"uint256[]"}],"outputs":[],"stateMutability":"nonpayable"},{"type":"function","name":"bidManager","inputs":[],"outputs":[{"name":"","type":"address","internalType":"contract BidManager"}],"stateMutability":"view"},{"type":"function","name":"biddingEnd","inputs":[],"outputs":[{"name":"","type":"uint256","internalType":"uint256"}],"stateMutability":"view"},{"type":"function","name":"biddingStart","inputs":[],"outputs":[{"name":"","type":"uint256","internalType":"uint256"}],"stateMutability":"view"},{"type":"function","name":"bidsDecrypted","inputs":[],"outputs":[{"name":"","type":"uint256","internalType":"uint256"}],"stateMutability":"view"},{"type":"function","name":"bidsRevealed","inputs":[{"name":"","type":"uint256","internalType":"uint256"}],"outputs":[{"name":"bidder","type":"address","internalType":"address"},{"name":"quantity","type":"uint256","internalType":"uint256"},{"name":"rate","type":"uint256","internalType":"UD60x18"}],"stateMutability":"view"},{"type":"function","name":"bidsRevealedLength","inputs":[],"outputs":[{"name":"","type":"uint256","internalType":"uint256"}],"stateMutability":"view"},{"type":"function","name":"cancelAuction","inputs":[{"name":"reason","type":"string","internalType":"string"}],"outputs":[],"stateMutability":"nonpayable"},{"type":"function","name":"decryptBidsBatch","inputs":[{"name":"batchSize","type":"uint256","internalType":"uint256"},{"name":"decryptionKey","type":"uint8[]","internalType":"uint8[]"}],"outputs":[],"stateMutability":"nonpayable"},{"type":"function","name":"decryptOffersBatch","inputs":[{"name":"batchSize","type":"uint256","internalType":"uint256"},{"name":"decryptionKey","type":"uint8[]","internalType":"uint8[]"}],"outputs":[],"stateMutability":"nonpayable"},{"type":"function","name":"decrypter","inputs":[],"outputs":[{"name":"","type":"address","internalType":"contract IDecrypter"}],"stateMutability":"view"},{"type":"function","name":"endTimestamp","inputs":[],"outputs":[{"name":"","type":"uint256","internalType":"uint256"}],"stateMutability":"view"},{"type":"function","name":"fee","inputs":[],"outputs":[{"name":"","type":"uint256","internalType":"uint256"}],"stateMutability":"view"},{"type":"function","name":"finalBidAllocation","inputs":[{"name":"","type":"address","internalType":"address"}],"outputs":[{"name":"","type":"uint256","internalType":"uint256"}],"stateMutability":"view"},{"type":"function","name":"finalOfferAllocation","inputs":[{"name":"","type":"address","internalType":"address"}],"outputs":[{"name":"","type":"uint256","internalType":"uint256"}],"stateMutability":"view"},{"type":"function","name":"finalizeAuction","inputs":[],"outputs":[],"stateMutability":"nonpayable"},{"type":"function","name":"fraction","inputs":[],"outputs":[{"name":"","type":"uint256","internalType":"UD60x18"}],"stateMutability":"view"},{"type":"function","name":"getAuctionPhase","inputs":[],"outputs":[{"name":"","type":"uint8","internalType":"enum AuctionEngine.AuctionPhase"}],"stateMutability":"view"},{"type":"function","name":"isFinalized","inputs":[],"outputs":[{"name":"","type":"bool","internalType":"bool"}],"stateMutability":"view"},{"type":"function","name":"liquidationFee","inputs":[],"outputs":[{"name":"","type":"uint256","internalType":"uint256"}],"stateMutability":"view"},{"type":"function","name":"maxAllowedRate","inputs":[],"outputs":[{"name":"","type":"uint256","internalType":"UD60x18"}],"stateMutability":"view"},{"type":"function","name":"maxBids","inputs":[],"outputs":[{"name":"","type":"uint256","internalType":"uint256"}],"stateMutability":"view"},{"type":"function","name":"maxOffers","inputs":[],"outputs":[{"name":"","type":"uint256","internalType":"uint256"}],"stateMutability":"view"},{"type":"function","name":"offerManager","inputs":[],"outputs":[{"name":"","type":"address","internalType":"contract OfferManager"}],"stateMutability":"view"},{"type":"function","name":"offersDecrypted","inputs":[],"outputs":[{"name":"","type":"uint256","internalType":"uint256"}],"stateMutability":"view"},{"type":"function","name":"offersRevealed","inputs":[{"name":"","type":"uint256","internalType":"uint256"}],"outputs":[{"name":"offerer","type":"address","internalType":"address"},{"name":"quantity","type":"uint256","internalType":"uint256"},{"name":"rate","type":"uint256","internalType":"UD60x18"}],"stateMutability":"view"},{"type":"function","name":"offersRevealedLength","inputs":[],"outputs":[{"name":"","type":"uint256","internalType":"uint256"}],"stateMutability":"view"},{"type":"function","name":"owner","inputs":[],"outputs":[{"name":"","type":"address","internalType":"address"}],"stateMutability":"view"},{"type":"function","name":"pauseAuction","inputs":[],"outputs":[],"stateMutability":"nonpayable"},{"type":"function","name":"paused","inputs":[],"outputs":[{"name":"","type":"bool","internalType":"bool"}],"stateMutability":"view"},{"type":"function","name":"protocolLiquidationFee","inputs":[],"outputs":[{"name":"","type":"uint256","internalType":"uint256"}],"stateMutability":"view"},{"type":"function","name":"renounceOwnership","inputs":[],"outputs":[],"stateMutability":"nonpayable"},{"type":"function","name":"repay","inputs":[{"name":"amountRaw","type":"uint256","internalType":"uint256"}],"outputs":[],"stateMutability":"nonpayable"},{"type":"function","name":"repayWithAuctionToken","inputs":[{"name":"auctionAmount","type":"uint256","internalType":"uint256"}],"outputs":[],"stateMutability":"nonpayable"},{"type":"function","name":"repaymentDecimals","inputs":[],"outputs":[{"name":"","type":"uint8","internalType":"uint8"}],"stateMutability":"view"},{"type":"function","name":"repaymentDue","inputs":[],"outputs":[{"name":"","type":"uint256","internalType":"uint256"}],"stateMutability":"view"},{"type":"function","name":"repaymentToken","inputs":[],"outputs":[{"name":"","type":"address","internalType":"contract IERC20"}],"stateMutability":"view"},{"type":"function","name":"repaymentTotal","inputs":[],"outputs":[{"name":"","type":"uint256","internalType":"uint256"}],"stateMutability":"view"},{"type":"function","name":"repayments","inputs":[{"name":"","type":"address","internalType":"address"}],"outputs":[{"name":"","type":"uint256","internalType":"uint256"}],"stateMutability":"view"},{"type":"function","name":"revealEnd","inputs":[],"outputs":[{"name":"","type":"uint256","internalType":"uint256"}],"stateMutability":"view"},{"type":"function","name":"setManagers","inputs":[{"name":"_bidManager","type":"address","internalType":"address"},{"name":"_offerManager","type":"address","internalType":"address"}],"outputs":[],"stateMutability":"nonpayable"},{"type":"function","name":"totalRepayed","inputs":[],"outputs":[{"name":"","type":"uint256","internalType":"uint256"}],"stateMutability":"view"},{"type":"function","name":"transferOwnership","inputs":[{"name":"newOwner","type":"address","internalType":"address"}],"outputs":[],"stateMutability":"nonpayable"},{"type":"function","name":"unpauseAuction","inputs":[],"outputs":[],"stateMutability":"nonpayable"},{"type":"event","name":"AuctionCancelled","inputs":[{"name":"reason","type":"string","indexed":false,"internalType":"string"}],"anonymous":false},{"type":"event","name":"AuctionFinalized","inputs":[{"name":"clearingRate","type":"uint256","indexed":false,"internalType":"uint256"},{"name":"clearedVolume","type":"uint256","indexed":false,"internalType":"uint256"}],"anonymous":false},{"type":"event","name":"AuctionPaused","inputs":[],"anonymous":false},{"type":"event","name":"AuctionUnpaused","inputs":[],"anonymous":false},{"type":"event","name":"OwnershipTransferred","inputs":[{"name":"previousOwner","type":"address","indexed":true,"internalType":"address"},{"name":"newOwner","type":"address","indexed":true,"internalType":"address"}],"anonymous":false},{"type":"error","name":"OwnableInvalidOwner","inputs":[{"name":"owner","type":"address","internalType":"address"}]},{"type":"error","name":"OwnableUnauthorizedAccount","inputs":[{"name":"account","type":"address","internalType":"address"}]},{"type":"error","name":"PRBMath_MulDiv18_Overflow","inputs":[{"name":"x","type":"uint256","internalType":"uint256"},{"name":"y","type":"uint256","internalType":"uint256"}]},{"type":"error","name":"PRBMath_MulDiv_Overflow","inputs":[{"name":"x","type":"uint256","internalType":"uint256"},{"name":"y","type":"uint256","internalType":"uint256"},{"name":"denominator","type":"uint256","internalType":"uint256"}]},{"type":"error","name":"ReentrancyGuardReentrantCall","inputs":[]},{"type":"error","name":"SafeERC20FailedOperation","inputs":[{"name":"token","type":"address","internalType":"address"}]}],"bytecode":{"object":"0x60c060405260646016556064601755348015610019575f80fd5b50604051614e7c380380614e7c833981016040819052610038916102b4565b60015f55338061006257604051631e4fbdf760e01b81525f60048201526024015b60405180910390fd5b61006b81610234565b506001600160a01b038b166100b15760405162461bcd60e51b815260206004820152600c60248201526b5a65726f206164647265737360a01b6044820152606401610059565b6001600160a01b0386166100f65760405162461bcd60e51b815260206004820152600c60248201526b5a65726f206164647265737360a01b6044820152606401610059565b600380546001600160a01b0319166001600160a01b038d1617905542600c819055610122908b90610403565b600d819055610132908a90610403565b600e819055610142908990610403565b600f5561016c6301da9c0061015f8a670de0b6b3a764000061041c565b6101699190610433565b90565b601255600580546001600160a01b0319166001600160a01b038416179055600e54600855600461019c88826104d6565b50600b8190556013859055601484905560158390556001600160a01b03861660808190526040805163313ce56760e01b8152905163313ce567916004808201926020929091908290030181865afa1580156101f9573d5f803e3d5ffd5b505050506040513d601f19601f8201168201806040525081019061021d9190610590565b60ff1660a052506105b79950505050505050505050565b600180546001600160a01b038381166001600160a01b0319831681179093556040519116919082907f8be0079c531659141344cd1fd0a4f28419497f9722a3daafe3b4186f6b6457e0905f90a35050565b80516001600160a01b038116811461029b575f80fd5b919050565b634e487b7160e01b5f52604160045260245ffd5b5f805f805f805f805f805f6101608c8e0312156102cf575f80fd5b6102d88c610285565b9a505f60208d01519050809a50505f60408d01519050809950505f60608d015190508098505060808c015160018060401b03811115610315575f80fd5b8c01601f81018e13610325575f80fd5b80516001600160401b0381111561033e5761033e6102a0565b604051601f8201601f19908116603f011681016001600160401b038111828210171561036c5761036c6102a0565b80604052508181528f6020838501011115610385575f80fd5b8160208401602083015e5f602083830101528099505050506103a960a08d01610285565b60c08d015160e08e01516101008f0151929850909650945092506103d06101208d01610285565b91505f6101408d01519050809150509295989b509295989b9093969950565b634e487b7160e01b5f52601160045260245ffd5b80820180821115610416576104166103ef565b92915050565b8082028115828204841417610416576104166103ef565b5f8261044d57634e487b7160e01b5f52601260045260245ffd5b500490565b600181811c9082168061046657607f821691505b60208210810361048457634e487b7160e01b5f52602260045260245ffd5b50919050565b601f8211156104d157805f5260205f20601f840160051c810160208510156104af5750805b601f840160051c820191505b818110156104ce575f81556001016104bb565b50505b505050565b81516001600160401b038111156104ef576104ef6102a0565b610503816104fd8454610452565b8461048a565b6020601f821160018114610535575f831561051e5750848201515b5f19600385901b1c1916600184901b1784556104ce565b5f84815260208120601f198516915b828110156105645787850151825560209485019460019092019101610544565b508482101561058157868401515f19600387901b60f8161c191681555b50505050600190811b01905550565b5f602082840312156105a0575f80fd5b815160ff811681146105b0575f80fd5b9392505050565b60805160a0516148816105fb5f395f8181610402015281816138ea01528181613ac00152613cba01525f818161061801528181610a080152610d5501526148815ff3fe608060405234801561000f575f80fd5b5060043610610333575f3560e01c80639f235ccd116101af578063d6939ce0116100fe578063e981d43e1161009e578063f77282ab11610079578063f77282ab146106b0578063f80fec1a146106b8578063fc519f15146106d7578063fca375c3146106ec575f80fd5b8063e981d43e14610681578063eafecffa14610694578063f2fde38b1461069d575f80fd5b8063dd1b4a37116100d9578063dd1b4a3714610656578063dd58302e1461065e578063ddca3f4314610670578063e757a42714610679575f80fd5b8063d6939ce014610613578063d8894bb51461063a578063dc704d7714610643575f80fd5b8063aecd1ee011610169578063b9ae736411610144578063b9ae7364146105e7578063ba5e96be146105ef578063cdb1a30d146105f8578063ceb164191461060b575f80fd5b8063aecd1ee0146105af578063b60e7a3b146105c1578063b7c9b6fb146105d4575f80fd5b80639f235ccd14610565578063a087c4cd1461056e578063a36a363014610581578063a6e664771461058a578063a85adeab14610593578063a92e29bc1461059c575f80fd5b806361eec2631161028557806385417235116102255780638da5cb5b116102005780638da5cb5b1461050f5780638ee4d24b1461052057806399fdb3201461053f5780639cb0b1c114610552575f80fd5b806385417235146104f057806387aaee75146104f95780638d4e408314610502575f80fd5b8063715018a611610260578063715018a6146104ad5780637c989eec146104b55780638384b9b5146104c857806384e10099146104e7575f80fd5b806361eec2631461047e57806365ceb2f41461049157806369b70afe1461049a575f80fd5b8063371fd8e6116102f05780634b3ec1f8116102cb5780634b3ec1f8146103ec5780634ff7dd28146103fd57806350dc7eb1146104365780635c975abb14610461575f80fd5b8063371fd8e6146103c7578063423b217f146103da57806347060ba2146103e3575f80fd5b8063022a6fae146103375780630596dc2f146103535780631b44b6a81461038b578063255ef5c9146103945780632a52d53f1461039d5780632d07091f146103b2575b5f80fd5b610340600c5481565b6040519081526020015b60405180910390f35b610366610361366004613e5b565b6106f5565b604080516001600160a01b03909416845260208401929092529082015260600161034a565b610340601f5481565b610340600a5481565b6103b06103ab366004613e86565b610730565b005b6103ba610827565b60405161034a9190613eb0565b6103b06103d5366004613e5b565b6108b3565b610340600d5481565b610340601a5481565b61034069043c33c193756480000081565b6104247f000000000000000000000000000000000000000000000000000000000000000081565b60405160ff909116815260200161034a565b600354610449906001600160a01b031681565b6040516001600160a01b03909116815260200161034a565b60115461046e9060ff1681565b604051901515815260200161034a565b6103b061048c366004613f2c565b610aab565b610340601b5481565b600654610449906001600160a01b031681565b6103b0610f2a565b6103b06104c3366004613fac565b610f3d565b6103406104d6366004613ff3565b601d6020525f908152604090205481565b61034060075481565b610340600b5481565b610340600f5481565b60095461046e9060ff1681565b6001546001600160a01b0316610449565b61034061052e366004613ff3565b601e6020525f908152604090205481565b600554610449906001600160a01b031681565b610366610560366004613e5b565b61140b565b61034060165481565b6103b061057c366004613fac565b61141a565b61034060145481565b610340600e5481565b61034060085481565b6103b06105aa36600461400e565b6118c8565b60115461046e90610100900460ff1681565b6103b06105cf366004614045565b611959565b6103b06105e2366004613f2c565b611b51565b6103b0611f66565b61034060105481565b60115461046e9062010000900460ff1681565b6103b0611fa5565b6104497f000000000000000000000000000000000000000000000000000000000000000081565b61034060125481565b6103b0610651366004613e5b565b611fe1565b601954610340565b60095461046e90610100900460ff1681565b61034060135481565b601854610340565b600254610449906001600160a01b031681565b61034060155481565b6103b06106ab366004613ff3565b612265565b6103b061229f565b6103406106c6366004613ff3565b601c6020525f908152604090205481565b6106df612543565b60405161034a91906140c5565b61034060175481565b60198181548110610704575f80fd5b5f9182526020909120600390910201805460018201546002909201546001600160a01b03909116925083565b6005546001600160a01b031633146107835760405162461bcd60e51b81526020600482015260116024820152702737ba1030bab1ba34b7b7103a37b5b2b760791b60448201526064015b60405180910390fd5b60115460ff16156107a65760405162461bcd60e51b815260040161077a906140eb565b600b545f906107bf908390670de0b6b3a764000061262d565b60025460405163990dc9db60e01b81526001600160a01b0386811660048301526024820184905292935091169063990dc9db906044015f604051808303815f87803b15801561080c575f80fd5b505af115801561081e573d5f803e3d5ffd5b50505050505050565b6004805461083490614116565b80601f016020809104026020016040519081016040528092919081815260200182805461086090614116565b80156108ab5780601f10610882576101008083540402835291602001916108ab565b820191905f5260205f20905b81548152906001019060200180831161088e57829003601f168201915b505050505081565b6108bb6126e4565b60115460ff16156108de5760405162461bcd60e51b815260040161077a906140eb565b335f908152601e602052604090205480158015906108fc5750808211155b6109395760405162461bcd60e51b815260206004820152600e60248201526d1a5b9d985b1a5908185b5bdd5b9d60921b604482015260640161077a565b610943828261415c565b335f908152601e6020526040812091909155601f805484929061096790849061415c565b925050819055508160105f82825461097f919061416f565b92505081905550610a303360025f9054906101000a90046001600160a01b03166001600160a01b031663cb8c5a3a6040518163ffffffff1660e01b8152600401602060405180830381865afa1580156109da573d5f803e3d5ffd5b505050506040513d601f19601f820116820180604052508101906109fe9190614182565b6001600160a01b037f00000000000000000000000000000000000000000000000000000000000000001691908561270c565b335f908152601e60205260408120549003610a9e57600654604051633f001fd960e01b81523360048201526001600160a01b0390911690633f001fd9906024015f604051808303815f87803b158015610a87575f80fd5b505af1158015610a99573d5f803e3d5ffd5b505050505b50610aa860015f55565b50565b610ab36126e4565b60115460ff1615610ad65760405162461bcd60e51b815260040161077a906140eb565b600f54610ae6906202a30061416f565b421015610b355760405162461bcd60e51b815260206004820152601960248201527f5573652062617463684561726c794c69717569646174696f6e00000000000000604482015260640161077a565b828114610b755760405162461bcd60e51b815260206004820152600e60248201526d082e4e4c2f240dad2e6dac2e8c6d60931b604482015260640161077a565b6001600160a01b0385163303610bcd5760405162461bcd60e51b815260206004820152601d60248201527f53656c66206c69717569646174696f6e206e6f7420616c6c6f77656421000000604482015260640161077a565b6001600160a01b0385165f908152601e602052604090205480610c1c5760405162461bcd60e51b8152602060048201526007602482015266139bc81919589d60ca1b604482015260640161077a565b5f805b83811015610c5557848482818110610c3957610c3961419d565b9050602002013582610c4b919061416f565b9150600101610c1f565b5081811115610c955760405162461bcd60e51b815260206004820152600c60248201526b115e18d959591cc81919589d60a21b604482015260640161077a565b610c9f818361415c565b6001600160a01b0388165f908152601e6020526040812091909155601f8054839290610ccc90849061415c565b92505081905550610d7d3360025f9054906101000a90046001600160a01b03166001600160a01b031663cb8c5a3a6040518163ffffffff1660e01b8152600401602060405180830381865afa158015610d27573d5f803e3d5ffd5b505050506040513d601f19601f82011682018060405250810190610d4b9190614182565b6001600160a01b037f00000000000000000000000000000000000000000000000000000000000000001691908461270c565b5f5b83811015610f17576006545f9081906001600160a01b0316630e9ae9b6888886818110610dae57610dae61419d565b905060200201358b8b87818110610dc757610dc761419d565b9050602002016020810190610ddc9190613ff3565b6014546015546040516001600160e01b031960e087901b16815260048101949094526001600160a01b039092166024840152604483015260648201526084016040805180830381865afa158015610e35573d5f803e3d5ffd5b505050506040513d601f19601f82011682018060405250810190610e5991906141b1565b60065491935091506001600160a01b0316632fb665fe8b338c8c88818110610e8357610e8361419d565b9050602002016020810190610e989190613ff3565b60405160e085901b6001600160e01b03191681526001600160a01b03938416600482015291831660248301529091166044820152606481018590526084810184905260a4015f604051808303815f87803b158015610ef4575f80fd5b505af1158015610f06573d5f803e3d5ffd5b505050505050806001019050610d7f565b505050610f2360015f55565b5050505050565b610f3261276c565b610f3b5f612799565b565b610f4561276c565b60115460ff1615610f685760405162461bcd60e51b815260040161077a906140eb565b60115462010000900460ff1615610fb85760405162461bcd60e51b8152602060048201526014602482015273105b1b081bd999995c9cc8191958dc9e5c1d195960621b604482015260640161077a565b60025460408051631f74c97760e11b815290515f926001600160a01b031691633ee992ee91600480830192869291908290030181865afa158015610ffe573d5f803e3d5ffd5b505050506040513d5f823e601f3d908101601f1916820160405261102591908101906142ee565b80519091505f81900361104a5750506011805462ff0000191662010000179055505050565b601b545f905b828110801561105e57508682105b156113e7575f6001600160a01b031684828151811061107f5761107f61419d565b60200260200101515f01516001600160a01b0316036110b157601b8054905f6110a7836143f7565b91905055506113d7565b60035484515f916001600160a01b03169063e33daa2c906110ef908890869081106110de576110de61419d565b6020026020010151604001516127ea565b89896040518463ffffffff1660e01b815260040161110f9392919061441d565b5f604051808303815f875af115801561112a573d5f803e3d5ffd5b505050506040513d5f823e601f3d908101601f1916820160405261115191908101906144a7565b905060015f5b82518110156111bc5760308382815181106111745761117461419d565b602002602001015160ff1610806111a75750603983828151811061119a5761119a61419d565b602002602001015160ff16115b156111b4575f91506111bc565b600101611157565b508061129a57601b8054905f6111d1836143f7565b919050555083806111e1906143f7565b60025488519196506001600160a01b03169150638a75eb049088908690811061120c5761120c61419d565b60200260200101515f01518886815181106112295761122961419d565b6020026020010151602001516040518363ffffffff1660e01b81526004016112669291906001600160a01b03929092168252602082015260400190565b5f604051808303815f87803b15801561127d575f80fd5b505af115801561128f573d5f803e3d5ffd5b5050505050506113d7565b5f6112a483612890565b90505f6112bf6112bc83670de0b6b3a7640000614540565b90565b90506112d48169043c33c19375648000001090565b1561130457601b8054905f6112e8836143f7565b919050555085806112f8906143f7565b965050505050506113d7565b601960405180606001604052808a88815181106113235761132361419d565b60200260200101515f01516001600160a01b031681526020018a888151811061134e5761134e61419d565b60209081029190910181015181015182529081018490528254600180820185555f948552828520845160039093020180546001600160a01b0319166001600160a01b039093169290921782559183015191810191909155604090910151600290910155601b8054916113bf836143f7565b919050555085806113cf906143f7565b965050505050505b6113e0816143f7565b9050611050565b5081601b5403611403576011805462ff00001916620100001790555b505050505050565b60188181548110610704575f80fd5b61142261276c565b60115460ff16156114455760405162461bcd60e51b815260040161077a906140eb565b601154610100900460ff16156114925760405162461bcd60e51b8152602060048201526012602482015271105b1b08189a591cc8191958dc9e5c1d195960721b604482015260640161077a565b60065460408051632e071e3b60e21b815290515f926001600160a01b03169163b81c78ec91600480830192869291908290030181865afa1580156114d8573d5f803e3d5ffd5b505050506040513d5f823e601f3d908101601f191682016040526114ff9190810190614557565b80519091505f8190036115225750506011805461ff001916610100179055505050565b601a545f905b828110801561153657508682105b156118a7575f6001600160a01b03168482815181106115575761155761419d565b6020026020010151604001516001600160a01b03160361159857601a8054905f611580836143f7565b91905055508180611590906143f7565b925050611897565b60035484515f916001600160a01b03169063e33daa2c906115d6908890869081106115c5576115c561419d565b6020026020010151602001516127ea565b89896040518463ffffffff1660e01b81526004016115f69392919061441d565b5f604051808303815f875af1158015611611573d5f803e3d5ffd5b505050506040513d5f823e601f3d908101601f1916820160405261163891908101906144a7565b905060015f5b82518110156116a357603083828151811061165b5761165b61419d565b602002602001015160ff16108061168e575060398382815181106116815761168161419d565b602002602001015160ff16115b1561169b575f91506116a3565b60010161163e565b508061175e57601a8054905f6116b8836143f7565b919050555083806116c8906143f7565b60065488519196506001600160a01b03169150633f001fd9908890869081106116f3576116f361419d565b6020026020010151604001516040518263ffffffff1660e01b815260040161172a91906001600160a01b0391909116815260200190565b5f604051808303815f87803b158015611741575f80fd5b505af1158015611753573d5f803e3d5ffd5b505050505050611897565b5f61176883612890565b90505f6117806112bc83670de0b6b3a7640000614540565b90506117958169043c33c19375648000001090565b156117c557601a8054905f6117a9836143f7565b919050555085806117b9906143f7565b96505050505050611897565b601860405180606001604052808a88815181106117e4576117e461419d565b6020026020010151604001516001600160a01b031681526020018a88815181106118105761181061419d565b6020908102919091018101515182529081018490528254600180820185555f948552828520845160039093020180546001600160a01b0319166001600160a01b039093169290921782559183015191810191909155604090910151600290910155601a80549161187f836143f7565b9190505550858061188f906143f7565b965050505050505b6118a0816143f7565b9050611528565b5081601a5403611403576011805461ff001916610100179055505050505050565b6118d061276c565b6001600160a01b038216158015906118f057506001600160a01b03811615155b61192b5760405162461bcd60e51b815260206004820152600c60248201526b5a65726f206164647265737360a01b604482015260640161077a565b600680546001600160a01b039384166001600160a01b03199182161790915560028054929093169116179055565b61196161276c565b6119696126e4565b60095460ff16156119b05760405162461bcd60e51b8152602060048201526011602482015270105b1c9958591e48199a5b985b1a5e9959607a1b604482015260640161077a565b600954610100900460ff16156119fc5760405162461bcd60e51b8152602060048201526011602482015270105b1c9958591e4818d85b98d95b1b1959607a1b604482015260640161077a565b600d544210611a405760405162461bcd60e51b815260206004820152601060248201526f105b1c9958591e48199a5b9a5cda195960821b604482015260640161077a565b6009805461ff00191661010017905560025460408051633a5937f760e21b815290516001600160a01b039092169163e964dfdc916004808201925f9290919082900301818387803b158015611a93575f80fd5b505af1158015611aa5573d5f803e3d5ffd5b5050505060065f9054906101000a90046001600160a01b03166001600160a01b031663fd6962626040518163ffffffff1660e01b81526004015f604051808303815f87803b158015611af5575f80fd5b505af1158015611b07573d5f803e3d5ffd5b505050507f8491f144dda005dc8140735549d904900585c1cbe24e47da9dcbf67a8b7233d58282604051611b3c9291906146e0565b60405180910390a1611b4d60015f55565b5050565b611b596126e4565b60115460ff1615611b7c5760405162461bcd60e51b815260040161077a906140eb565b600f54611b8c906202a30061416f565b4210611bda5760405162461bcd60e51b815260206004820152601860248201527f5573652062617463684c6174654c69717569646174696f6e0000000000000000604482015260640161077a565b828114611c1a5760405162461bcd60e51b815260206004820152600e60248201526d082e4e4c2f240dad2e6dac2e8c6d60931b604482015260640161077a565b6001600160a01b0385163303611c725760405162461bcd60e51b815260206004820152601d60248201527f53656c66206c69717569646174696f6e206e6f7420616c6c6f77656421000000604482015260640161077a565b6001600160a01b0385165f908152601e602052604090205480611cc15760405162461bcd60e51b8152602060048201526007602482015266139bc81919589d60ca1b604482015260640161077a565b5f805b83811015611cfa57848482818110611cde57611cde61419d565b9050602002013582611cf0919061416f565b9150600101611cc4565b5081811115611d3a5760405162461bcd60e51b815260206004820152600c60248201526b115e18d959591cc81919589d60a21b604482015260640161077a565b611d44818361415c565b6001600160a01b0388165f908152601e6020526040812091909155601f8054839290611d7190849061415c565b92505081905550611dcc3360025f9054906101000a90046001600160a01b03166001600160a01b031663cb8c5a3a6040518163ffffffff1660e01b8152600401602060405180830381865afa158015610d27573d5f803e3d5ffd5b5f5b83811015610f17576006545f9081906001600160a01b0316630e9ae9b6888886818110611dfd57611dfd61419d565b905060200201358b8b87818110611e1657611e1661419d565b9050602002016020810190611e2b9190613ff3565b6014546015546040516001600160e01b031960e087901b16815260048101949094526001600160a01b039092166024840152604483015260648201526084016040805180830381865afa158015611e84573d5f803e3d5ffd5b505050506040513d601f19601f82011682018060405250810190611ea891906141b1565b60065491935091506001600160a01b0316632fb665fe8b338c8c88818110611ed257611ed261419d565b9050602002016020810190611ee79190613ff3565b60405160e085901b6001600160e01b03191681526001600160a01b03938416600482015291831660248301529091166044820152606481018590526084810184905260a4015f604051808303815f87803b158015611f43575f80fd5b505af1158015611f55573d5f803e3d5ffd5b505050505050806001019050611dce565b611f6e61276c565b6011805460ff191660011790556040517f749d6d79623c8cbd2345906702c70ae75d4254a6c409047c16d52fa5a37ef698905f90a1565b611fad61276c565b6011805460ff191690556040517f0b9df0b08ead374f8471e246d9c188a0c536a8de366f90ca4a202e0221d72df8905f90a1565b611fe96126e4565b60115460ff161561200c5760405162461bcd60e51b815260040161077a906140eb565b335f908152601e6020526040902054806120575760405162461bcd60e51b815260206004820152600c60248201526b139bdd1a1a5b99c81bddd95960a21b604482015260640161077a565b6002612061612543565b6004811115612072576120726140b1565b148061209657506004612083612543565b6004811115612094576120946140b1565b145b6120d95760405162461bcd60e51b81526020600482015260146024820152734e6f7420696e20636f727265637420706861736560601b604482015260640161077a565b600b545f906120f2908490670de0b6b3a764000061262d565b9050818111156121395760405162461bcd60e51b815260206004820152601260248201527114995c185e48195e18d959591cc81919589d60721b604482015260640161077a565b600554604051632770a7eb60e21b8152336004820152602481018590526001600160a01b0390911690639dc29fac906044015f604051808303815f87803b158015612182575f80fd5b505af1158015612194573d5f803e3d5ffd5b5050335f908152601e6020526040812080548594509092506121b790849061415c565b9250508190555080601f5f8282546121cf919061415c565b925050819055508060105f8282546121e7919061416f565b9091555050335f908152601e6020526040812054900361225a57600654604051633f001fd960e01b81523360048201526001600160a01b0390911690633f001fd9906024015f604051808303815f87803b158015612243575f80fd5b505af1158015612255573d5f803e3d5ffd5b505050505b5050610aa860015f55565b61226d61276c565b6001600160a01b03811661229657604051631e4fbdf760e01b81525f600482015260240161077a565b610aa881612799565b6122a761276c565b60115460ff16156122ca5760405162461bcd60e51b815260040161077a906140eb565b6122d26126e4565b60095460ff16156123195760405162461bcd60e51b8152602060048201526011602482015270105b1c9958591e48199a5b985b1a5e9959607a1b604482015260640161077a565b600954610100900460ff16156123655760405162461bcd60e51b8152602060048201526011602482015270105d58dd1a5bdb8818d85b98d95b1b1959607a1b604482015260640161077a565b601154610100900460ff166123b55760405162461bcd60e51b8152602060048201526016602482015275139bdd08185b1b08189a591cc8191958dc9e5c1d195960521b604482015260640161077a565b60115462010000900460ff1661240d5760405162461bcd60e51b815260206004820152601860248201527f4e6f7420616c6c206f6666657273206465637279707465640000000000000000604482015260640161077a565b60165460185411156124615760405162461bcd60e51b815260206004820152601960248201527f4578636565646564206d6178206269647320616c6c6f77656400000000000000604482015260640161077a565b60175460195411156124b55760405162461bcd60e51b815260206004820152601b60248201527f4578636565646564206d6178206f666665727320616c6c6f7765640000000000604482015260640161077a565b6124bd612972565b6124c5612b53565b5f806124cf612d34565b6007829055600a81905590925090506124e88282613053565b6124f282826133d0565b6009805460ff1916600117905560408051838152602081018390527f878175d6894f965b46049cdadea9efcc83bffb98ab4b9cb359e0c67757944778910160405180910390a15050610f3b60015f55565b5f600c5442101580156125575750600d5442105b1561256157505f90565b600d5442101580156125745750600e5442105b1561257f5750600190565b600e5442101580156125935750600f544211155b1561259e5750600490565b600f5442101580156125be5750600f546125bb906202a30061416f565b42105b156125c95750600290565b600f546125d9906202a30061416f565b42106125e55750600390565b60405162461bcd60e51b815260206004820152601760248201527f41756374696f6e20706861736520756e646566696e6564000000000000000000604482015260640161077a565b5f838302815f1985870982811083820303915050805f03612661578382816126575761265761470e565b04925050506126dd565b8084116126785761267860038515026011186137e0565b5f848688095f868103871696879004966002600389028118808a02820302808a02820302808a02820302808a02820302808a02820302808a02909103029181900381900460010186841190950394909402919094039290920491909117919091029150505b9392505050565b60025f540361270657604051633ee5aeb560e01b815260040160405180910390fd5b60025f55565b604080516001600160a01b0385811660248301528416604482015260648082018490528251808303909101815260849091019091526020810180516001600160e01b03166323b872dd60e01b1790526127669085906137f1565b50505050565b6001546001600160a01b03163314610f3b5760405163118cdaa760e01b815233600482015260240161077a565b600180546001600160a01b038381166001600160a01b0319831681179093556040519116919082907f8be0079c531659141344cd1fd0a4f28419497f9722a3daafe3b4186f6b6457e0905f90a35050565b60605f82516001600160401b03811115612806576128066141d3565b60405190808252806020026020018201604052801561282f578160200160208202803683370190505b5090505f5b83518110156128895783818151811061284f5761284f61419d565b602001015160f81c60f81b60f81c82828151811061286f5761286f61419d565b60ff90921660209283029190910190910152600101612834565b5092915050565b5f805b82518110156129685760308382815181106128b0576128b061419d565b602002602001015160ff16101580156128e6575060398382815181106128d8576128d861419d565b602002602001015160ff1611155b6129205760405162461bcd60e51b815260206004820152600b60248201526a4e6f6e2d6e756d6572696360a81b604482015260640161077a565b60308382815181106129345761293461419d565b60200260200101516129469190614722565b60ff1661295483600a614540565b61295e919061416f565b9150600101612893565b50919050565b1090565b6018545f5b81811015611b4d575f5b8161298d60018561415c565b612997919061415c565b811015612b4a576129ff60186129ae83600161416f565b815481106129be576129be61419d565b905f5260205f20906003020160020154601883815481106129e1576129e161419d565b905f5260205f2090600302016002015461385d90919063ffffffff16565b15612b42575f60188281548110612a1857612a1861419d565b5f91825260209182902060408051606081018252600390930290910180546001600160a01b031683526001808201549484019490945260020154908201529150601890612a6690849061416f565b81548110612a7657612a7661419d565b905f5260205f20906003020160188381548110612a9557612a9561419d565b5f9182526020909120825460039092020180546001600160a01b0319166001600160a01b039092169190911781556001808301548183015560029283015492909101919091558190601890612aeb90859061416f565b81548110612afb57612afb61419d565b5f91825260209182902083516003929092020180546001600160a01b0319166001600160a01b03909216919091178155908201516001820155604090910151600290910155505b600101612981565b50600101612977565b6019545f5b81811015611b4d575f5b81612b6e60018561415c565b612b78919061415c565b811015612d2b57612be06019612b8f83600161416f565b81548110612b9f57612b9f61419d565b905f5260205f2090600302016002015460198381548110612bc257612bc261419d565b905f5260205f2090600302016002015461296e90919063ffffffff16565b15612d23575f60198281548110612bf957612bf961419d565b5f91825260209182902060408051606081018252600390930290910180546001600160a01b031683526001808201549484019490945260020154908201529150601990612c4790849061416f565b81548110612c5757612c5761419d565b905f5260205f20906003020160198381548110612c7657612c7661419d565b5f9182526020909120825460039092020180546001600160a01b0319166001600160a01b039092169190911781556001808301548183015560029283015492909101919091558190601990612ccc90859061416f565b81548110612cdc57612cdc61419d565b5f91825260209182902083516003929092020180546001600160a01b0319166001600160a01b03909216919091178155908201516001820155604090910151600290910155505b600101612b62565b50600101612b58565b5f805f805f805b601954811015612eb3575f60198281548110612d5957612d5961419d565b905f5260205f2090600302016002015490505f5b60195483108015612dae5750612dae8260198581548110612d9057612d9061419d565b905f5260205f2090600302016002015461386190919063ffffffff16565b15612df35760198381548110612dc657612dc661419d565b905f5260205f2090600302016001015481612de1919061416f565b9050612dec836143f7565b9250612d6d565b612dfd818761416f565b95505f805b601854811015612e8857612e418460188381548110612e2357612e2361419d565b905f5260205f2090600302016002015461386590919063ffffffff16565b15612e7b5760188181548110612e5957612e5961419d565b905f5260205f2090600302016001015482612e74919061416f565b9150612e80565b612e88565b600101612e02565b505f818810612e975781612e99565b875b905086811115612eaa578096508395505b50505050612d3b565b505f805b601854811015612ef257612ed88360188381548110612e2357612e2361419d565b15612ee557809150612eea565b612ef2565b600101612eb7565b505f60188281548110612f0757612f0761419d565b5f918252602082206002600390920201015491508390612f38612f2a848461386a565b671bc16d674ec80000613878565b90505f805b601854811015612fa557612f5e8360188381548110612e2357612e2361419d565b15612f985760188181548110612f7657612f7661419d565b905f5260205f2090600302016001015482612f91919061416f565b9150612f9d565b612fa5565b600101612f3d565b505f805b60195481101561302f57612fe88460198381548110612fca57612fca61419d565b905f5260205f2090600302016002015461388f90919063ffffffff16565b1561302257601981815481106130005761300061419d565b905f5260205f209060030201600101548261301b919061416f565b9150613027565b61302f565b600101612fa9565b505f81831061303e5781613040565b825b939c939b50929950505050505050505050565b60185481905f5b818110801561306857505f83115b1561331c5761308485601883815481106129e1576129e161419d565b61331c575f61309482600161416f565b90505b82811080156130da57506130da601883815481106130b7576130b761419d565b905f5260205f2090600302016002015460188381548110612d9057612d9061419d565b156130ef576130e8816143f7565b9050613097565b5f825b82811015613132576018818154811061310d5761310d61419d565b905f5260205f2090600302016001015482613128919061416f565b91506001016130f2565b508481116131fe57825b828110156131f8575f601882815481106131585761315861419d565b905f5260205f20906003020160010154905080601c5f601885815481106131815761318161419d565b5f91825260208083206003909202909101546001600160a01b03168352820192909252604001902055601880546131e39190849081106131c3576131c361419d565b5f9182526020909120600390910201546001600160a01b0316828b613894565b6131ed818861415c565b96505060010161313c565b50613314565b84835b8381101561330e575f6018828154811061321d5761321d61419d565b905f5260205f2090600302016001015490505f60018661323d919061415c565b8310613249578361325e565b846132548386614540565b61325e919061473b565b905080601c5f601886815481106132775761327761419d565b5f91825260208083206003909202909101546001600160a01b03168352820192909252604001902055601880546132d99190859081106132b9576132b961419d565b5f9182526020909120600390910201546001600160a01b0316828d613894565b6132e460018761415c565b831015613304576132f5818561415c565b9350613301828661415c565b94505b5050600101613201565b505f9550505b50905061305a565b505f5b81811015610f23575f6018828154811061333b5761333b61419d565b5f91825260208083206003909202909101546001600160a01b0316808352601c909152604082205490925090036133c757600654604051633f001fd960e01b81526001600160a01b03838116600483015290911690633f001fd9906024015f604051808303815f87803b1580156133b0575f80fd5b505af11580156133c2573d5f803e3d5ffd5b505050505b5060010161331f565b60195481905f5b81811080156133e557505f83115b156136ef576134018560198381548110612bc257612bc261419d565b6136ef575f61341182600161416f565b90505b82811080156134575750613457601983815481106134345761343461419d565b905f5260205f2090600302016002015460198381548110612d9057612d9061419d565b1561346c57613465816143f7565b9050613414565b5f825b828110156134af576019818154811061348a5761348a61419d565b905f5260205f20906003020160010154826134a5919061416f565b915060010161346f565b508481116135a657825b828110156135a0575f601982815481106134d5576134d561419d565b905f5260205f20906003020160010154905080601d5f601985815481106134fe576134fe61419d565b5f91825260208083206003909202909101546001600160a01b031683528201929092526040019020556019805461358b9190849081106135405761354061419d565b905f5260205f2090600302015f015f9054906101000a90046001600160a01b031682601985815481106135755761357561419d565b905f5260205f209060030201600101548c613a8d565b613595818861415c565b9650506001016134b9565b506136e7565b84835b838110156136e1575f601982815481106135c5576135c561419d565b905f5260205f2090600302016001015490505f6001866135e5919061415c565b83106135f15783613606565b846135fc8386614540565b613606919061473b565b905080601d5f6019868154811061361f5761361f61419d565b5f91825260208083206003909202909101546001600160a01b03168352820192909252604001902055601980546136ac9190859081106136615761366161419d565b905f5260205f2090600302015f015f9054906101000a90046001600160a01b031682601986815481106136965761369661419d565b905f5260205f209060030201600101548e613a8d565b6136b760018761415c565b8310156136d7576136c8818561415c565b93506136d4828661415c565b94505b50506001016135a9565b505f9550505b5090506133d7565b505f5b81811015610f23575f6019828154811061370e5761370e61419d565b5f91825260208083206003909202909101546001600160a01b0316808352601d909152604082205490925090036137d757600254601980546001600160a01b0390921691638a75eb049184918690811061376a5761376a61419d565b5f9182526020909120600160039092020101546040516001600160e01b031960e085901b1681526001600160a01b03909216600483015260248201526044015f604051808303815f87803b1580156137c0575f80fd5b505af11580156137d2573d5f803e3d5ffd5b505050505b506001016136f2565b634e487b715f52806020526024601cfd5b5f8060205f8451602086015f885af180613810576040513d5f823e3d81fd5b50505f513d91508115613827578060011415613834565b6001600160a01b0384163b155b1561276657604051635274afe760e01b81526001600160a01b038516600482015260240161077a565b1190565b1490565b111590565b5f6126dd6112bc838561416f565b5f6126dd6112bc84670de0b6b3a764000085613be0565b101590565b5f6138b568056bc75e2d631000005b6012546138b09085613ca5565b61386a565b90505f6138e06138d1836138cb6112bc88613cb3565b90613ca5565b68056bc75e2d63100000613878565b9050805f61390e827f0000000000000000000000000000000000000000000000000000000000000000613ce4565b6001600160a01b0388165f908152601e602052604081208054929350839290919061393a90849061416f565b9250508190555080601f5f828254613952919061416f565b925050819055505f61396f87601354670de0b6b3a764000061262d565b6012549091505f6139898383670de0b6b3a764000061262d565b6002549091506001600160a01b031663990dc9db6139af6001546001600160a01b031690565b6040516001600160e01b031960e084901b1681526001600160a01b039091166004820152602481018490526044015f604051808303815f87803b1580156139f4575f80fd5b505af1158015613a06573d5f803e3d5ffd5b50506002546001600160a01b0316915063990dc9db90508b613a28848d61415c565b6040516001600160e01b031960e085901b1681526001600160a01b03909216600483015260248201526044015f604051808303815f87803b158015613a6b575f80fd5b505af1158015613a7d573d5f803e3d5ffd5b5050505050505050505050505050565b5f613aa068056bc75e2d631000006138a3565b90505f613ab66138d1836138cb6112bc89613cb3565b9050805f613ae4827f0000000000000000000000000000000000000000000000000000000000000000613ce4565b6002549091506001600160a01b0316638a75eb0489613b038a8a61415c565b6040516001600160e01b031960e085901b1681526001600160a01b03909216600483015260248201526044015f604051808303815f87803b158015613b46575f80fd5b505af1158015613b58573d5f803e3d5ffd5b505050505f613b7282670de0b6b3a7640000600b5461262d565b600554604051632f47907560e01b81526001600160a01b038c8116600483015260248201849052929350911690632f479075906044015f604051808303815f87803b158015613bbf575f80fd5b505af1158015613bd1573d5f803e3d5ffd5b50505050505050505050505050565b5f80805f19858709858702925082811083820303915050805f03613c0d578382816126575761265761470e565b838110613c3e57604051630c740aef60e31b815260048101879052602481018690526044810185905260640161077a565b5f8486880960026001871981018816978890046003810283188082028403028082028403028082028403028082028403028082028403029081029092039091025f889003889004909101858311909403939093029303949094049190911702949350505050565b5f6126dd6112bc8484613d4a565b5f613cde827f0000000000000000000000000000000000000000000000000000000000000000613dfc565b92915050565b5f8160ff16601203613cf7575081613cde565b60128260ff161015613d2a57613d0e826012614722565b613d1990600a61483d565b613d23908461473b565b9050613cde565b613d35601283614722565b613d4090600a61483d565b6126dd9084614540565b5f80805f19848609848602925082811083820303915050805f03613d7b5750670de0b6b3a764000090049050613cde565b670de0b6b3a76400008110613dad57604051635173648d60e01b8152600481018690526024810185905260440161077a565b5f670de0b6b3a764000085870962040000818503049310909103600160ee1b02919091177faccb18165bd6fe31ae1cf318dc5b51eee0e1ba569b88cd74c1773b91fac106690291505092915050565b5f8160ff16601203613e0f575081613cde565b60128260ff161015613e3b57613e26826012614722565b613e3190600a61483d565b613d239084614540565b613e46601283614722565b613e5190600a61483d565b6126dd908461473b565b5f60208284031215613e6b575f80fd5b5035919050565b6001600160a01b0381168114610aa8575f80fd5b5f8060408385031215613e97575f80fd5b8235613ea281613e72565b946020939093013593505050565b602081525f82518060208401528060208501604085015e5f604082850101526040601f19601f83011684010191505092915050565b5f8083601f840112613ef5575f80fd5b5081356001600160401b03811115613f0b575f80fd5b6020830191508360208260051b8501011115613f25575f80fd5b9250929050565b5f805f805f60608688031215613f40575f80fd5b8535613f4b81613e72565b945060208601356001600160401b03811115613f65575f80fd5b613f7188828901613ee5565b90955093505060408601356001600160401b03811115613f8f575f80fd5b613f9b88828901613ee5565b969995985093965092949392505050565b5f805f60408486031215613fbe575f80fd5b8335925060208401356001600160401b03811115613fda575f80fd5b613fe686828701613ee5565b9497909650939450505050565b5f60208284031215614003575f80fd5b81356126dd81613e72565b5f806040838503121561401f575f80fd5b823561402a81613e72565b9150602083013561403a81613e72565b809150509250929050565b5f8060208385031215614056575f80fd5b82356001600160401b0381111561406b575f80fd5b8301601f8101851361407b575f80fd5b80356001600160401b03811115614090575f80fd5b8560208284010111156140a1575f80fd5b6020919091019590945092505050565b634e487b7160e01b5f52602160045260245ffd5b60208101600583106140e557634e487b7160e01b5f52602160045260245ffd5b91905290565b602080825260119082015270105d58dd1a5bdb881a5cc81c185d5cd959607a1b604082015260600190565b600181811c9082168061412a57607f821691505b60208210810361296857634e487b7160e01b5f52602260045260245ffd5b634e487b7160e01b5f52601160045260245ffd5b81810381811115613cde57613cde614148565b80820180821115613cde57613cde614148565b5f60208284031215614192575f80fd5b81516126dd81613e72565b634e487b7160e01b5f52603260045260245ffd5b5f80604083850312156141c2575f80fd5b505080516020909101519092909150565b634e487b7160e01b5f52604160045260245ffd5b604051606081016001600160401b0381118282101715614209576142096141d3565b60405290565b604051608081016001600160401b0381118282101715614209576142096141d3565b604051601f8201601f191681016001600160401b0381118282101715614259576142596141d3565b604052919050565b5f6001600160401b03821115614279576142796141d3565b5060051b60200190565b5f82601f830112614292575f80fd5b81516001600160401b038111156142ab576142ab6141d3565b6142be601f8201601f1916602001614231565b8181528460208386010111156142d2575f80fd5b8160208501602083015e5f918101602001919091529392505050565b5f602082840312156142fe575f80fd5b81516001600160401b03811115614313575f80fd5b8201601f81018413614323575f80fd5b805161433661433182614261565b614231565b8082825260208201915060208360051b850101925086831115614357575f80fd5b602084015b838110156143ec5780516001600160401b03811115614379575f80fd5b85016060818a03601f1901121561438e575f80fd5b6143966141e7565b60208201516143a481613e72565b81526040820151602082015260608201516001600160401b038111156143c8575f80fd5b6143d78b602083860101614283565b6040830152508452506020928301920161435c565b509695505050505050565b5f6001820161440857614408614148565b5060010190565b60ff81168114610aa8575f80fd5b604080825284519082018190525f9060208601906060840190835b8181101561445957835160ff16835260209384019390920191600101614438565b5050838103602080860191909152858252019050845f5b8581101561449b5781356144838161440f565b60ff1683526020928301929190910190600101614470565b50909695505050505050565b5f602082840312156144b7575f80fd5b81516001600160401b038111156144cc575f80fd5b8201601f810184136144dc575f80fd5b80516144ea61433182614261565b8082825260208201915060208360051b85010192508683111561450b575f80fd5b6020840193505b828410156145365783516145258161440f565b825260209384019390910190614512565b9695505050505050565b8082028115828204841417613cde57613cde614148565b5f60208284031215614567575f80fd5b81516001600160401b0381111561457c575f80fd5b8201601f8101841361458c575f80fd5b805161459a61433182614261565b8082825260208201915060208360051b8501019250868311156145bb575f80fd5b602084015b838110156143ec5780516001600160401b038111156145dd575f80fd5b85016080818a03601f190112156145f2575f80fd5b6145fa61420f565b6020820151815260408201516001600160401b03811115614619575f80fd5b6146288b602083860101614283565b602083015250606082015161463c81613e72565b604082015260808201516001600160401b03811115614659575f80fd5b60208184010192505089601f830112614670575f80fd5b815161467e61433182614261565b8082825260208201915060208360051b86010192508c83111561469f575f80fd5b6020850194505b828510156146ca5784516146b981613e72565b8252602094850194909101906146a6565b60608401525050845250602092830192016145c0565b60208152816020820152818360408301375f818301604090810191909152601f909201601f19160101919050565b634e487b7160e01b5f52601260045260245ffd5b60ff8281168282160390811115613cde57613cde614148565b5f8261475557634e487b7160e01b5f52601260045260245ffd5b500490565b6001815b60018411156147955780850481111561477957614779614148565b600184161561478757908102905b60019390931c92800261475e565b935093915050565b5f826147ab57506001613cde565b816147b757505f613cde565b81600181146147cd57600281146147d7576147f3565b6001915050613cde565b60ff8411156147e8576147e8614148565b50506001821b613cde565b5060208310610133831016604e8410600b8410161715614816575081810a613cde565b6148225f19848461475a565b805f190482111561483557614835614148565b029392505050565b5f6126dd60ff84168361479d56fea264697066735822122038b15131788ac391df825afcba1e45c69804941a4e7071ea03bbe17f4866459e64736f6c634300081a0033","linkReferences":{}},"methodIdentifiers":{"allBidsDecrypted()":"aecd1ee0","allOffersDecrypted()":"cdb1a30d","auctionCancelled()":"dd58302e","auctionClearingRate()":"84e10099","auctionID()":"2d07091f","auctionToken()":"99fdb320","auctionTokenAmount()":"85417235","auctionTokenRedeem(address,uint256)":"2a52d53f","auctionVolume()":"255ef5c9","batchEarlyLiquidation(address,address[],uint256[])":"b7c9b6fb","batchLateLiquidation(address,address[],uint256[])":"61eec263","bidManager()":"69b70afe","biddingEnd()":"423b217f","biddingStart()":"022a6fae","bidsDecrypted()":"47060ba2","bidsRevealed(uint256)":"9cb0b1c1","bidsRevealedLength()":"e757a427","cancelAuction(string)":"b60e7a3b","decryptBidsBatch(uint256,uint8[])":"a087c4cd","decryptOffersBatch(uint256,uint8[])":"7c989eec","decrypter()":"50dc7eb1","endTimestamp()":"a85adeab","fee()":"ddca3f43","finalBidAllocation(address)":"f80fec1a","finalOfferAllocation(address)":"8384b9b5","finalizeAuction()":"f77282ab","fraction()":"d8894bb5","getAuctionPhase()":"fc519f15","isFinalized()":"8d4e4083","liquidationFee()":"a36a3630","maxAllowedRate()":"4b3ec1f8","maxBids()":"9f235ccd","maxOffers()":"fca375c3","offerManager()":"e981d43e","offersDecrypted()":"65ceb2f4","offersRevealed(uint256)":"0596dc2f","offersRevealedLength()":"dd1b4a37","owner()":"8da5cb5b","pauseAuction()":"b9ae7364","paused()":"5c975abb","protocolLiquidationFee()":"eafecffa","renounceOwnership()":"715018a6","repay(uint256)":"371fd8e6","repayWithAuctionToken(uint256)":"dc704d77","repaymentDecimals()":"4ff7dd28","repaymentDue()":"87aaee75","repaymentToken()":"d6939ce0","repaymentTotal()":"1b44b6a8","repayments(address)":"8ee4d24b","revealEnd()":"a6e66477","setManagers(address,address)":"a92e29bc","totalRepayed()":"ba5e96be","transferOwnership(address)":"f2fde38b","unpauseAuction()":"ceb16419"},"id":0}