{"abi":[{"type":"constructor","inputs":[{"name":"_decrypter","type":"address","internalType":"address"},{"name":"_biddingDuration","type":"uint256","internalType":"uint256"},{"name":"_revealDuration","type":"uint256","internalType":"uint256"},{"name":"_repaymentDuration","type":"uint256","internalType":"uint256"},{"name":"_id","type":"string","internalType":"string"},{"name":"_token","type":"address","internalType":"address"},{"name":"_fee","type":"uint256","internalType":"uint256"},{"name":"_auctionToken","type":"address","internalType":"address"},{"name":"_auctionTokenAmount","type":"uint256","internalType":"uint256"}],"stateMutability":"nonpayable"},{"type":"function","name":"auctionCancelled","inputs":[],"outputs":[{"name":"","type":"bool","internalType":"bool"}],"stateMutability":"view"},{"type":"function","name":"auctionClearingRate","inputs":[],"outputs":[{"name":"","type":"uint256","internalType":"UD60x18"}],"stateMutability":"view"},{"type":"function","name":"auctionID","inputs":[],"outputs":[{"name":"","type":"string","internalType":"string"}],"stateMutability":"view"},{"type":"function","name":"auctionToken","inputs":[],"outputs":[{"name":"","type":"address","internalType":"contract AuctionToken"}],"stateMutability":"view"},{"type":"function","name":"auctionTokenAmount","inputs":[],"outputs":[{"name":"","type":"uint256","internalType":"uint256"}],"stateMutability":"view"},{"type":"function","name":"auctionTokenRedeem","inputs":[{"name":"to","type":"address","internalType":"address"},{"name":"amount","type":"uint256","internalType":"uint256"}],"outputs":[],"stateMutability":"nonpayable"},{"type":"function","name":"auctionVolume","inputs":[],"outputs":[{"name":"","type":"uint256","internalType":"uint256"}],"stateMutability":"view"},{"type":"function","name":"batchEarlyLiquidation","inputs":[{"name":"participant","type":"address","internalType":"address"},{"name":"collateralTokens","type":"address[]","internalType":"address[]"},{"name":"coverageAmounts","type":"uint256[]","internalType":"uint256[]"}],"outputs":[],"stateMutability":"nonpayable"},{"type":"function","name":"batchLateLiquidation","inputs":[{"name":"participant","type":"address","internalType":"address"},{"name":"collateralTokens","type":"address[]","internalType":"address[]"},{"name":"coverageAmounts","type":"uint256[]","internalType":"uint256[]"}],"outputs":[],"stateMutability":"nonpayable"},{"type":"function","name":"bidManager","inputs":[],"outputs":[{"name":"","type":"address","internalType":"contract BidManager"}],"stateMutability":"view"},{"type":"function","name":"biddingEnd","inputs":[],"outputs":[{"name":"","type":"uint256","internalType":"uint256"}],"stateMutability":"view"},{"type":"function","name":"biddingStart","inputs":[],"outputs":[{"name":"","type":"uint256","internalType":"uint256"}],"stateMutability":"view"},{"type":"function","name":"bidsDecrypted","inputs":[],"outputs":[{"name":"","type":"uint256","internalType":"uint256"}],"stateMutability":"view"},{"type":"function","name":"bidsRevealed","inputs":[{"name":"","type":"uint256","internalType":"uint256"}],"outputs":[{"name":"bidder","type":"address","internalType":"address"},{"name":"quantity","type":"uint256","internalType":"uint256"},{"name":"rate","type":"uint256","internalType":"UD60x18"}],"stateMutability":"view"},{"type":"function","name":"cancelAuction","inputs":[{"name":"reason","type":"string","internalType":"string"}],"outputs":[],"stateMutability":"nonpayable"},{"type":"function","name":"creator","inputs":[],"outputs":[{"name":"","type":"address","internalType":"address"}],"stateMutability":"view"},{"type":"function","name":"decryptBidsBatch","inputs":[{"name":"batchSize","type":"uint256","internalType":"uint256"},{"name":"decryptionKey","type":"uint8[]","internalType":"uint8[]"}],"outputs":[],"stateMutability":"nonpayable"},{"type":"function","name":"decryptOffersBatch","inputs":[{"name":"batchSize","type":"uint256","internalType":"uint256"},{"name":"decryptionKey","type":"uint8[]","internalType":"uint8[]"}],"outputs":[],"stateMutability":"nonpayable"},{"type":"function","name":"decrypter","inputs":[],"outputs":[{"name":"","type":"address","internalType":"contract IDecrypter"}],"stateMutability":"view"},{"type":"function","name":"endTimestamp","inputs":[],"outputs":[{"name":"","type":"uint256","internalType":"uint256"}],"stateMutability":"view"},{"type":"function","name":"fee","inputs":[],"outputs":[{"name":"","type":"uint256","internalType":"uint256"}],"stateMutability":"view"},{"type":"function","name":"finalBidAllocation","inputs":[{"name":"","type":"address","internalType":"address"}],"outputs":[{"name":"","type":"uint256","internalType":"uint256"}],"stateMutability":"view"},{"type":"function","name":"finalOfferAllocation","inputs":[{"name":"","type":"address","internalType":"address"}],"outputs":[{"name":"","type":"uint256","internalType":"uint256"}],"stateMutability":"view"},{"type":"function","name":"finalizeAuction","inputs":[],"outputs":[],"stateMutability":"nonpayable"},{"type":"function","name":"fraction","inputs":[],"outputs":[{"name":"","type":"uint256","internalType":"UD60x18"}],"stateMutability":"view"},{"type":"function","name":"getAuctionPhase","inputs":[],"outputs":[{"name":"","type":"uint8","internalType":"enum AuctionEngine.AuctionPhase"}],"stateMutability":"view"},{"type":"function","name":"isFinalized","inputs":[],"outputs":[{"name":"","type":"bool","internalType":"bool"}],"stateMutability":"view"},{"type":"function","name":"maxAllowedRate","inputs":[],"outputs":[{"name":"","type":"uint256","internalType":"UD60x18"}],"stateMutability":"view"},{"type":"function","name":"maxBids","inputs":[],"outputs":[{"name":"","type":"uint256","internalType":"uint256"}],"stateMutability":"view"},{"type":"function","name":"maxOffers","inputs":[],"outputs":[{"name":"","type":"uint256","internalType":"uint256"}],"stateMutability":"view"},{"type":"function","name":"offerManager","inputs":[],"outputs":[{"name":"","type":"address","internalType":"contract OfferManager"}],"stateMutability":"view"},{"type":"function","name":"offersDecrypted","inputs":[],"outputs":[{"name":"","type":"uint256","internalType":"uint256"}],"stateMutability":"view"},{"type":"function","name":"offersRevealed","inputs":[{"name":"","type":"uint256","internalType":"uint256"}],"outputs":[{"name":"offerer","type":"address","internalType":"address"},{"name":"quantity","type":"uint256","internalType":"uint256"},{"name":"rate","type":"uint256","internalType":"UD60x18"}],"stateMutability":"view"},{"type":"function","name":"pauseAuction","inputs":[],"outputs":[],"stateMutability":"nonpayable"},{"type":"function","name":"paused","inputs":[],"outputs":[{"name":"","type":"bool","internalType":"bool"}],"stateMutability":"view"},{"type":"function","name":"repay","inputs":[{"name":"repaymentAmount","type":"uint256","internalType":"uint256"}],"outputs":[],"stateMutability":"nonpayable"},{"type":"function","name":"repaymentDue","inputs":[],"outputs":[{"name":"","type":"uint256","internalType":"uint256"}],"stateMutability":"view"},{"type":"function","name":"repaymentTotal","inputs":[],"outputs":[{"name":"","type":"uint256","internalType":"uint256"}],"stateMutability":"view"},{"type":"function","name":"repayments","inputs":[{"name":"","type":"address","internalType":"address"}],"outputs":[{"name":"","type":"uint256","internalType":"uint256"}],"stateMutability":"view"},{"type":"function","name":"revealEnd","inputs":[],"outputs":[{"name":"","type":"uint256","internalType":"uint256"}],"stateMutability":"view"},{"type":"function","name":"setManagers","inputs":[{"name":"_bidManager","type":"address","internalType":"address"},{"name":"_offerManager","type":"address","internalType":"address"}],"outputs":[],"stateMutability":"nonpayable"},{"type":"function","name":"token","inputs":[],"outputs":[{"name":"","type":"address","internalType":"address"}],"stateMutability":"view"},{"type":"function","name":"transferCreator","inputs":[{"name":"newCreator","type":"address","internalType":"address"}],"outputs":[],"stateMutability":"nonpayable"},{"type":"function","name":"unpauseAuction","inputs":[],"outputs":[],"stateMutability":"nonpayable"},{"type":"event","name":"AuctionCancelled","inputs":[{"name":"reason","type":"string","indexed":false,"internalType":"string"}],"anonymous":false},{"type":"event","name":"AuctionFinalized","inputs":[{"name":"clearingRate","type":"uint256","indexed":false,"internalType":"uint256"},{"name":"clearedVolume","type":"uint256","indexed":false,"internalType":"uint256"}],"anonymous":false},{"type":"event","name":"AuctionPaused","inputs":[],"anonymous":false},{"type":"event","name":"AuctionUnpaused","inputs":[],"anonymous":false},{"type":"error","name":"PRBMath_MulDiv18_Overflow","inputs":[{"name":"x","type":"uint256","internalType":"uint256"},{"name":"y","type":"uint256","internalType":"uint256"}]},{"type":"error","name":"PRBMath_MulDiv_Overflow","inputs":[{"name":"x","type":"uint256","internalType":"uint256"},{"name":"y","type":"uint256","internalType":"uint256"},{"name":"denominator","type":"uint256","internalType":"uint256"}]},{"type":"error","name":"ReentrancyGuardReentrantCall","inputs":[]}],"bytecode":{"object":"0x608060405260646014556064601555348015610019575f80fd5b50604051614749380380614749833981016040819052610038916101a1565b60015f556001600160a01b0389166100855760405162461bcd60e51b815260206004820152600c60248201526b5a65726f206164647265737360a01b604482015260640160405180910390fd5b600280546001600160a01b0319166001600160a01b038b1617905542600d8190556100b19089906102cc565b600e8190556100c19088906102cc565b600f8190556100d19087906102cc565b6010819055600d545f916100e591906102e5565b905061010e6301da9c0061010183670de0b6b3a76400006102f8565b61010b919061030f565b90565b601255600a8054336001600160a01b0319918216179091556004805482166001600160a01b0386811691909117909155600f54600755600b8054909216908716179055600361015d87826103b2565b5050600c55506013555061046c945050505050565b80516001600160a01b0381168114610188575f80fd5b919050565b634e487b7160e01b5f52604160045260245ffd5b5f805f805f805f805f6101208a8c0312156101ba575f80fd5b6101c38a610172565b60208b015160408c015160608d015160808e0151939c50919a50985096506001600160401b038111156101f4575f80fd5b8a01601f81018c13610204575f80fd5b80516001600160401b0381111561021d5761021d61018d565b604051601f8201601f19908116603f011681016001600160401b038111828210171561024b5761024b61018d565b6040528181528282016020018e1015610262575f80fd5b8160208401602083015e5f6020838301015280975050505061028660a08b01610172565b60c08b0151909450925061029c60e08b01610172565b91505f6101008b01519050809150509295985092959850929598565b634e487b7160e01b5f52601160045260245ffd5b808201808211156102df576102df6102b8565b92915050565b818103818111156102df576102df6102b8565b80820281158282048414176102df576102df6102b8565b5f8261032957634e487b7160e01b5f52601260045260245ffd5b500490565b600181811c9082168061034257607f821691505b60208210810361036057634e487b7160e01b5f52602260045260245ffd5b50919050565b601f8211156103ad57805f5260205f20601f840160051c8101602085101561038b5750805b601f840160051c820191505b818110156103aa575f8155600101610397565b50505b505050565b81516001600160401b038111156103cb576103cb61018d565b6103df816103d9845461032e565b84610366565b6020601f821160018114610411575f83156103fa5750848201515b5f19600385901b1c1916600184901b1784556103aa565b5f84815260208120601f198516915b828110156104405787850151825560209485019460019092019101610420565b508482101561045d57868401515f19600387901b60f8161c191681555b50505050600190811b01905550565b6142d0806104795f395ff3fe608060405234801561000f575f80fd5b506004361061026b575f3560e01c80638ee4d24b1161014b578063ceb16419116100bf578063f77282ab11610084578063f77282ab1461050c578063f80fec1a14610514578063fa3fa19614610533578063fc0c546a14610546578063fc519f1514610559578063fca375c31461056e575f80fd5b8063ceb16419146104cd578063d8894bb5146104d5578063dd58302e146104de578063ddca3f43146104f0578063e981d43e146104f9575f80fd5b8063a6e6647711610110578063a6e664771461047a578063a85adeab14610483578063a92e29bc1461048c578063b60e7a3b1461049f578063b7c9b6fb146104b2578063b9ae7364146104c5575f80fd5b80638ee4d24b1461041957806399fdb320146104385780639cb0b1c11461044b5780639f235ccd1461045e578063a087c4cd14610467575f80fd5b806350dc7eb1116101e25780637c989eec116101a75780637c989eec146103bf5780638384b9b5146103d257806384e10099146103f157806385417235146103fa57806387aaee75146104035780638d4e40831461040c575f80fd5b806350dc7eb1146103605780635c975abb1461037357806361eec2631461039057806365ceb2f4146103a357806369b70afe146103ac575f80fd5b80632a52d53f116102335780632a52d53f146103005780632d07091f14610315578063371fd8e61461032a578063423b217f1461033d57806347060ba2146103465780634b3ec1f81461034f575f80fd5b8063022a6fae1461026f57806302d05d3f1461028b5780630596dc2f146102b65780631b44b6a8146102ee578063255ef5c9146102f7575b5f80fd5b610278600d5481565b6040519081526020015b60405180910390f35b600a5461029e906001600160a01b031681565b6040516001600160a01b039091168152602001610282565b6102c96102c4366004613882565b610577565b604080516001600160a01b039094168452602084019290925290820152606001610282565b610278601d5481565b61027860095481565b61031361030e3660046138ad565b6105b2565b005b61031d61066a565b60405161028291906138d7565b610313610338366004613882565b6106f6565b610278600e5481565b61027860185481565b61027869043c33c193756480000081565b60025461029e906001600160a01b031681565b6011546103809060ff1681565b6040519015158152602001610282565b61031361039e366004613953565b6109a4565b61027860195481565b60055461029e906001600160a01b031681565b6103136103cd3660046139d3565b610e68565b6102786103e0366004613a1a565b601b6020525f908152604090205481565b61027860065481565b610278600c5481565b61027860105481565b6008546103809060ff1681565b610278610427366004613a1a565b601c6020525f908152604090205481565b60045461029e906001600160a01b031681565b6102c9610459366004613882565b61116c565b61027860145481565b6103136104753660046139d3565b61117b565b610278600f5481565b61027860075481565b61031361049a366004613a35565b611473565b6103136104ad366004613a6c565b611526565b6103136104c0366004613953565b6115e4565b610313611b82565b610313611be3565b61027860125481565b60085461038090610100900460ff1681565b61027860135481565b60015461029e906001600160a01b031681565b610313611c41565b610278610522366004613a1a565b601a6020525f908152604090205481565b610313610541366004613a1a565b61200f565b600b5461029e906001600160a01b031681565b6105616120a0565b6040516102829190613ad8565b61027860155481565b60178181548110610586575f80fd5b5f9182526020909120600390910201805460018201546002909201546001600160a01b03909116925083565b6004546001600160a01b031633146106055760405162461bcd60e51b81526020600482015260116024820152702737ba1030bab1ba34b7b7103a37b5b2b760791b60448201526064015b60405180910390fd5b60015460405163a9059cbb60e01b81526001600160a01b038481166004830152602482018490529091169063a9059cbb906044015f604051808303815f87803b158015610650575f80fd5b505af1158015610662573d5f803e3d5ffd5b505050505050565b6003805461067790613afe565b80601f01602080910402602001604051908101604052809291908181526020018280546106a390613afe565b80156106ee5780601f106106c5576101008083540402835291602001916106ee565b820191905f5260205f20905b8154815290600101906020018083116106d157829003601f168201915b505050505081565b6106fe612153565b335f908152601c6020526040902054806107495760405162461bcd60e51b815260206004820152600c60248201526b139bdd1a1a5b99c81bddd95960a21b60448201526064016105fc565b808211156107995760405162461bcd60e51b815260206004820152601f60248201527f526570617920616d6f756e742065786365656473206f626c69676174696f6e0060448201526064016105fc565b6107a38282613b44565b335f908152601c6020526040812091909155601d80548492906107c7908490613b44565b9091555050600b546040805163313ce56760e01b815290515f926001600160a01b03169163313ce5679160048083019260209291908290030181865afa158015610813573d5f803e3d5ffd5b505050506040513d601f19601f820116820180604052508101906108379190613b65565b600b54600154604080516365c62d1d60e11b815290519394506001600160a01b03928316936323b872dd933393169163cb8c5a3a9160048083019260209291908290030181865afa15801561088e573d5f803e3d5ffd5b505050506040513d601f19601f820116820180604052508101906108b29190613b80565b6040516001600160e01b031960e085901b1681526001600160a01b03928316600482015291166024820152604481018690526064016020604051808303815f875af1158015610903573d5f803e3d5ffd5b505050506040513d601f19601f820116820180604052508101906109279190613b9b565b50335f908152601c6020526040812054900361099657600554604051633f001fd960e01b81523360048201526001600160a01b0390911690633f001fd9906024015f604051808303815f87803b15801561097f575f80fd5b505af1158015610991573d5f803e3d5ffd5b505050505b50506109a160015f55565b50565b6109ac612153565b6010546109bc906202a300613bba565b421015610a0b5760405162461bcd60e51b815260206004820152601960248201527f5573652062617463684561726c794c69717569646174696f6e0000000000000060448201526064016105fc565b828114610a4b5760405162461bcd60e51b815260206004820152600e60248201526d082e4e4c2f240dad2e6dac2e8c6d60931b60448201526064016105fc565b6001600160a01b0385165f908152601c602052604090205480610a9a5760405162461bcd60e51b8152602060048201526007602482015266139bc81919589d60ca1b60448201526064016105fc565b5f805b83811015610ad357848482818110610ab757610ab7613bcd565b9050602002013582610ac99190613bba565b9150600101610a9d565b5081811115610b135760405162461bcd60e51b815260206004820152600c60248201526b115e18d959591cc81919589d60a21b60448201526064016105fc565b600b546040805163313ce56760e01b815290515f926001600160a01b03169163313ce5679160048083019260209291908290030181865afa158015610b5a573d5f803e3d5ffd5b505050506040513d601f19601f82011682018060405250810190610b7e9190613b65565b600b54600154604080516365c62d1d60e11b815290519394506001600160a01b03928316936323b872dd933393169163cb8c5a3a9160048083019260209291908290030181865afa158015610bd5573d5f803e3d5ffd5b505050506040513d601f19601f82011682018060405250810190610bf99190613b80565b610c0485600a613cc4565b610c0e9087613cd2565b6040516001600160e01b031960e086901b1681526001600160a01b03938416600482015292909116602483015260448201526064016020604051808303815f875af1158015610c5f573d5f803e3d5ffd5b505050506040513d601f19601f82011682018060405250810190610c839190613b9b565b50610c8e8284613b44565b6001600160a01b0389165f908152601c6020526040812091909155601d8054849290610cbb908490613b44565b909155505f90505b84811015610e54576005545f9081906001600160a01b0316637c8c237d898986818110610cf257610cf2613bcd565b905060200201358c8c87818110610d0b57610d0b613bcd565b9050602002016020810190610d209190613a1a565b6013546040516001600160e01b031960e086901b16815260048101939093526001600160a01b03909116602483015260448201526064016040805180830381865afa158015610d71573d5f803e3d5ffd5b505050506040513d601f19601f82011682018060405250810190610d959190613ce9565b60055491935091506001600160a01b0316632fb665fe8c338d8d88818110610dbf57610dbf613bcd565b9050602002016020810190610dd49190613a1a565b60405160e085901b6001600160e01b03191681526001600160a01b03938416600482015291831660248301529091166044820152606481018590526084810184905260a4015f604051808303815f87803b158015610e30575f80fd5b505af1158015610e42573d5f803e3d5ffd5b505060019094019350610cc392505050565b50505050610e6160015f55565b5050505050565b600a546001600160a01b03163314610e925760405162461bcd60e51b81526004016105fc90613d0b565b60015460408051631f74c97760e11b815290515f926001600160a01b031691633ee992ee91600480830192869291908290030181865afa158015610ed8573d5f803e3d5ffd5b505050506040513d5f823e601f3d908101601f19168201604052610eff9190810190613e53565b8051601954919250905f905b8281108015610f1957508682105b15611163575f6001600160a01b0316848281518110610f3a57610f3a613bcd565b60200260200101515f01516001600160a01b031603610f6c5760198054905f610f6283613f5c565b9190505550611151565b60025484515f916001600160a01b03169063e33daa2c90610faa90889086908110610f9957610f99613bcd565b60200260200101516040015161217b565b89896040518463ffffffff1660e01b8152600401610fca93929190613f74565b5f604051808303815f875af1158015610fe5573d5f803e3d5ffd5b505050506040513d5f823e601f3d908101601f1916820160405261100c9190810190613ffe565b90505f61101882612221565b90505f61103361103083670de0b6b3a7640000613cd2565b90565b905069043c33c193756480000081111561107f5760405162461bcd60e51b815260206004820152600d60248201526c0a4c2e8ca40e8dede40d0d2ced609b1b60448201526064016105fc565b6017604051806060016040528089878151811061109e5761109e613bcd565b60200260200101515f01516001600160a01b031681526020018987815181106110c9576110c9613bcd565b60209081029190910181015181015182529081018490528254600180820185555f948552828520845160039093020180546001600160a01b0319166001600160a01b039093169290921782559183015191810191909155604090910151600290910155601980549161113a83613f5c565b9190505550848061114a90613f5c565b9550505050505b8061115b81613f5c565b915050610f0b565b50505050505050565b60168181548110610586575f80fd5b600a546001600160a01b031633146111a55760405162461bcd60e51b81526004016105fc90613d0b565b60055460408051632e071e3b60e21b815290515f926001600160a01b03169163b81c78ec91600480830192869291908290030181865afa1580156111eb573d5f803e3d5ffd5b505050506040513d5f823e601f3d908101601f191682016040526112129190810190614097565b8051601854919250905f905b828110801561122c57508682105b15611163575f6001600160a01b031684828151811061124d5761124d613bcd565b6020026020010151604001516001600160a01b0316036112805760188054905f61127683613f5c565b9190505550611461565b60025484515f916001600160a01b03169063e33daa2c906112be908890869081106112ad576112ad613bcd565b60200260200101516020015161217b565b89896040518463ffffffff1660e01b81526004016112de93929190613f74565b5f604051808303815f875af11580156112f9573d5f803e3d5ffd5b505050506040513d5f823e601f3d908101601f191682016040526113209190810190613ffe565b90505f61132c82612221565b90505f61134461103083670de0b6b3a7640000613cd2565b905069043c33c19375648000008111156113905760405162461bcd60e51b815260206004820152600d60248201526c0a4c2e8ca40e8dede40d0d2ced609b1b60448201526064016105fc565b601660405180606001604052808987815181106113af576113af613bcd565b6020026020010151604001516001600160a01b031681526020018987815181106113db576113db613bcd565b6020908102919091018101515182529081018490528254600180820185555f948552828520845160039093020180546001600160a01b0319166001600160a01b039093169290921782559183015191810191909155604090910151600290910155601880549161144a83613f5c565b9190505550848061145a90613f5c565b9550505050505b8061146b81613f5c565b91505061121e565b600a546001600160a01b0316331461149d5760405162461bcd60e51b81526004016105fc90613d0b565b6001600160a01b038216158015906114bd57506001600160a01b03811615155b6114f85760405162461bcd60e51b815260206004820152600c60248201526b5a65726f206164647265737360a01b60448201526064016105fc565b600580546001600160a01b039384166001600160a01b03199182161790915560018054929093169116179055565b600a546001600160a01b031633146115505760405162461bcd60e51b81526004016105fc90613d0b565b60085460ff16156115975760405162461bcd60e51b8152602060048201526011602482015270105b1c9958591e48199a5b985b1a5e9959607a1b60448201526064016105fc565b6008805461ff0019166101001790556040517f8491f144dda005dc8140735549d904900585c1cbe24e47da9dcbf67a8b7233d5906115d89084908490614220565b60405180910390a15050565b6115ec612153565b6010546115fc906202a300613bba565b421061164a5760405162461bcd60e51b815260206004820152601860248201527f5573652062617463684c6174654c69717569646174696f6e000000000000000060448201526064016105fc565b82811461168a5760405162461bcd60e51b815260206004820152600e60248201526d082e4e4c2f240dad2e6dac2e8c6d60931b60448201526064016105fc565b6001600160a01b0385165f908152601c6020526040902054806116d95760405162461bcd60e51b8152602060048201526007602482015266139bc81919589d60ca1b60448201526064016105fc565b600554604051630647ff2360e11b81526001600160a01b038881166004830152602482018490525f921690630c8ffe4690604401602060405180830381865afa158015611728573d5f803e3d5ffd5b505050506040513d601f19601f8201168201806040525081019061174c9190613b9b565b90508061179b5760405162461bcd60e51b815260206004820152601760248201527f4e6f7420756e646572636f6c6c61746572616c697a656400000000000000000060448201526064016105fc565b5f805b848110156117d4578585828181106117b8576117b8613bcd565b90506020020135826117ca9190613bba565b915060010161179e565b50828111156118145760405162461bcd60e51b815260206004820152600c60248201526b115e18d959591cc81919589d60a21b60448201526064016105fc565b600b546040805163313ce56760e01b815290515f926001600160a01b03169163313ce5679160048083019260209291908290030181865afa15801561185b573d5f803e3d5ffd5b505050506040513d601f19601f8201168201806040525081019061187f9190613b65565b600b54600154604080516365c62d1d60e11b815290519394506001600160a01b03928316936323b872dd933393169163cb8c5a3a9160048083019260209291908290030181865afa1580156118d6573d5f803e3d5ffd5b505050506040513d601f19601f820116820180604052508101906118fa9190613b80565b61190585600a613cc4565b61190f9087613cd2565b6040516001600160e01b031960e086901b1681526001600160a01b03938416600482015292909116602483015260448201526064016020604051808303815f875af1158015611960573d5f803e3d5ffd5b505050506040513d601f19601f820116820180604052508101906119849190613b9b565b5061199782670de0b6b3a7640000613cd2565b6119a19085613b44565b6001600160a01b038a165f908152601c60205260409020556119cb82670de0b6b3a7640000613cd2565b601d5f8282546119db9190613b44565b909155505f90505b85811015611b74576005545f9081906001600160a01b0316637c8c237d8a8a86818110611a1257611a12613bcd565b905060200201358d8d87818110611a2b57611a2b613bcd565b9050602002016020810190611a409190613a1a565b6013546040516001600160e01b031960e086901b16815260048101939093526001600160a01b03909116602483015260448201526064016040805180830381865afa158015611a91573d5f803e3d5ffd5b505050506040513d601f19601f82011682018060405250810190611ab59190613ce9565b60055491935091506001600160a01b0316632fb665fe8d338e8e88818110611adf57611adf613bcd565b9050602002016020810190611af49190613a1a565b60405160e085901b6001600160e01b03191681526001600160a01b03938416600482015291831660248301529091166044820152606481018590526084810184905260a4015f604051808303815f87803b158015611b50575f80fd5b505af1158015611b62573d5f803e3d5ffd5b5050600190940193506119e392505050565b5050505050610e6160015f55565b600a546001600160a01b03163314611bac5760405162461bcd60e51b81526004016105fc90613d0b565b6011805460ff191660011790556040517f749d6d79623c8cbd2345906702c70ae75d4254a6c409047c16d52fa5a37ef698905f90a1565b600a546001600160a01b03163314611c0d5760405162461bcd60e51b81526004016105fc90613d0b565b6011805460ff191690556040517f0b9df0b08ead374f8471e246d9c188a0c536a8de366f90ca4a202e0221d72df8905f90a1565b600a546001600160a01b03163314611c6b5760405162461bcd60e51b81526004016105fc90613d0b565b60115460ff1615611cb25760405162461bcd60e51b8152602060048201526011602482015270105d58dd1a5bdb881a5cc81c185d5cd959607a1b60448201526064016105fc565b611cba612153565b60085460ff1615611d015760405162461bcd60e51b8152602060048201526011602482015270105b1c9958591e48199a5b985b1a5e9959607a1b60448201526064016105fc565b600854610100900460ff1615611d4d5760405162461bcd60e51b8152602060048201526011602482015270105d58dd1a5bdb8818d85b98d95b1b1959607a1b60448201526064016105fc565b60055f9054906101000a90046001600160a01b03166001600160a01b031663b81c78ec6040518163ffffffff1660e01b81526004015f60405180830381865afa158015611d9c573d5f803e3d5ffd5b505050506040513d5f823e601f3d908101601f19168201604052611dc39190810190614097565b516018541015611e0e5760405162461bcd60e51b8152602060048201526016602482015275139bdd08185b1b08189a591cc8191958dc9e5c1d195960521b60448201526064016105fc565b60015f9054906101000a90046001600160a01b03166001600160a01b0316633ee992ee6040518163ffffffff1660e01b81526004015f60405180830381865afa158015611e5d573d5f803e3d5ffd5b505050506040513d5f823e601f3d908101601f19168201604052611e849190810190613e53565b516019541015611ed65760405162461bcd60e51b815260206004820152601860248201527f4e6f7420616c6c206f666665727320646563727970746564000000000000000060448201526064016105fc565b6014546016541115611f2a5760405162461bcd60e51b815260206004820152601960248201527f4578636565646564206d6178206269647320616c6c6f7765640000000000000060448201526064016105fc565b6015546017541115611f7e5760405162461bcd60e51b815260206004820152601b60248201527f4578636565646564206d6178206f666665727320616c6c6f776564000000000060448201526064016105fc565b611f866122ff565b611f8e6124e4565b5f80611f995f6126c5565b600682905560098190559092509050611fb28282612b55565b611fbc8282613063565b6008805460ff1916600117905560408051838152602081018390527f878175d6894f965b46049cdadea9efcc83bffb98ab4b9cb359e0c67757944778910160405180910390a1505061200d60015f55565b565b600a546001600160a01b031633146120395760405162461bcd60e51b81526004016105fc90613d0b565b6001600160a01b03811661207e5760405162461bcd60e51b815260206004820152600c60248201526b5a65726f206164647265737360a01b60448201526064016105fc565b600a80546001600160a01b0319166001600160a01b0392909216919091179055565b5f600d544210156120b15750600290565b600d5442101580156120c45750600e5442105b156120ce57505f90565b600e5442101580156120e15750600f5442105b156120ec5750600190565b600f54421015801561210057506010544211155b1561210b5750600390565b60405162461bcd60e51b815260206004820152601760248201527f41756374696f6e20706861736520756e646566696e656400000000000000000060448201526064016105fc565b60025f540361217557604051633ee5aeb560e01b815260040160405180910390fd5b60025f55565b60605f82516001600160401b0381111561219757612197613d38565b6040519080825280602002602001820160405280156121c0578160200160208202803683370190505b5090505f5b835181101561221a578381815181106121e0576121e0613bcd565b602001015160f81c60f81b60f81c82828151811061220057612200613bcd565b60ff909216602092830291909101909101526001016121c5565b5092915050565b5f805b82518110156122f957603083828151811061224157612241613bcd565b602002602001015160ff16101580156122775750603983828151811061226957612269613bcd565b602002602001015160ff1611155b6122b15760405162461bcd60e51b815260206004820152600b60248201526a4e6f6e2d6e756d6572696360a81b60448201526064016105fc565b60308382815181106122c5576122c5613bcd565b60200260200101516122d7919061424e565b60ff166122e583600a613cd2565b6122ef9190613bba565b9150600101612224565b50919050565b6016545f5b818110156124e0575f5b8161231a600185613b44565b6123249190613b44565b8110156124d75761238c601661233b836001613bba565b8154811061234b5761234b613bcd565b905f5260205f209060030201600201546016838154811061236e5761236e613bcd565b905f5260205f2090600302016002015461344490919063ffffffff16565b156124cf575f601682815481106123a5576123a5613bcd565b5f91825260209182902060408051606081018252600390930290910180546001600160a01b0316835260018082015494840194909452600201549082015291506016906123f3908490613bba565b8154811061240357612403613bcd565b905f5260205f2090600302016016838154811061242257612422613bcd565b5f9182526020909120825460039092020180546001600160a01b0319166001600160a01b039092169190911781556001808301548183015560029283015492909101919091558190601690612478908590613bba565b8154811061248857612488613bcd565b5f91825260209182902083516003929092020180546001600160a01b0319166001600160a01b03909216919091178155908201516001820155604090910151600290910155505b60010161230e565b50600101612304565b5050565b6017545f5b818110156124e0575f5b816124ff600185613b44565b6125099190613b44565b8110156126bc576125716017612520836001613bba565b8154811061253057612530613bcd565b905f5260205f209060030201600201546017838154811061255357612553613bcd565b905f5260205f2090600302016002015461344890919063ffffffff16565b156126b4575f6017828154811061258a5761258a613bcd565b5f91825260209182902060408051606081018252600390930290910180546001600160a01b0316835260018082015494840194909452600201549082015291506017906125d8908490613bba565b815481106125e8576125e8613bcd565b905f5260205f2090600302016017838154811061260757612607613bcd565b5f9182526020909120825460039092020180546001600160a01b0319166001600160a01b03909216919091178155600180830154818301556002928301549290910191909155819060179061265d908590613bba565b8154811061266d5761266d613bcd565b5f91825260209182902083516003929092020180546001600160a01b0319166001600160a01b03909216919091178155908201516001820155604090910151600290910155505b6001016124f3565b506001016124e9565b6016545f908190158015906126db575060175415155b6127135760405162461bcd60e51b81526020600482015260096024820152684e6f206f726465727360b81b60448201526064016105fc565b8215806127205750826001145b6127645760405162461bcd60e51b81526020600482015260156024820152744f6666736574206d7573742062652030206f72203160581b60448201526064016105fc565b5f80805f805b6017548110156128f3575f6017828154811061278857612788613bcd565b905f5260205f2090600302016002015490505f5b601754831080156127dd57506127dd82601785815481106127bf576127bf613bcd565b905f5260205f2090600302016002015461344c90919063ffffffff16565b1561282457601783815481106127f5576127f5613bcd565b905f5260205f20906003020160010154816128109190613bba565b90508261281c81613f5c565b93505061279c565b61282e8188613bba565b96505f805b6016548110156128b957612872846016838154811061285457612854613bcd565b905f5260205f2090600302016002015461345090919063ffffffff16565b156128ac576016818154811061288a5761288a613bcd565b905f5260205f20906003020160010154826128a59190613bba565b91506128b1565b6128b9565b600101612833565b505f8189106128c857816128ca565b885b9050878111156128ea578097508396506001856128e79190613b44565b95505b5050505061276a565b505f805b60165481101561293257612918846016838154811061285457612854613bcd565b156129255780915061292a565b612932565b6001016128f7565b505f6016828154811061294757612947613bcd565b905f5260205f2090600302016002015490505f8490505f8a600103612a2a57601754829061297790600190613b44565b8610156129ae57601761298b876001613bba565b8154811061299b5761299b613bcd565b905f5260205f2090600302016002015490505b8385158015906129cc57506016546129c890600190613b44565b8611155b15612a015760166129de600188613b44565b815481106129ee576129ee613bcd565b905f5260205f2090600302016002015490505b612a21612a0e8383613455565b671bc16d674ec8000061346a565b61346a565b92505050612a3a565b612a37612a0e8385613455565b90505b5f805b601654811015612aa557612a5e836016838154811061285457612854613bcd565b15612a985760168181548110612a7657612a76613bcd565b905f5260205f2090600302016001015482612a919190613bba565b9150612a9d565b612aa5565b600101612a3d565b505f805b601754811015612b2f57612ae88460178381548110612aca57612aca613bcd565b905f5260205f2090600302016002015461348190919063ffffffff16565b15612b225760178181548110612b0057612b00613bcd565b905f5260205f2090600302016001015482612b1b9190613bba565b9150612b27565b612b2f565b600101612aa9565b505f818310612b3e5781612b40565b825b939e939d50929b505050505050505050505050565b5f805f5b601654811015612d4f57612b7a856016838154811061255357612553613bcd565b8015612b8557508383105b15612d47575f612b958486613b44565b90505f60168381548110612bab57612bab613bcd565b905f5260205f20906003020160010154905081811115612bc85750805b600554601680545f926001600160a01b0316916368a78f989187908110612bf157612bf1613bcd565b5f91825260209091206003909102015460405160e083901b6001600160e01b03191681526001600160a01b03909116600482015260248101859052604481018b9052606401602060405180830381865afa158015612c51573d5f803e3d5ffd5b505050506040513d601f19601f82011682018060405250810190612c759190613b9b565b905080612cc1575f601a5f60168781548110612c9357612c93613bcd565b5f91825260208083206003909202909101546001600160a01b03168352820192909252604001902055612d43565b81601a5f60168781548110612cd857612cd8613bcd565b5f91825260208083206003909202909101546001600160a01b03168352820192909252604001902055612d0b8287613bba565b9550612d4360168581548110612d2357612d23613bcd565b5f9182526020909120600390910201546001600160a01b0316838a613486565b5050505b600101612b59565b505f5b601654811015612db157612d7385601683815481106127bf576127bf613bcd565b15612da95760168181548110612d8b57612d8b613bcd565b905f5260205f2090600302016001015482612da69190613bba565b91505b600101612d52565b505f828411612dc0575f612dca565b612dca8385613b44565b90505f82118015612dda57505f81115b15612f76575f5b601654811015612f7457612e0286601683815481106127bf576127bf613bcd565b15612f6c575f838360168481548110612e1d57612e1d613bcd565b905f5260205f20906003020160010154612e379190613cd2565b612e41919061427b565b600554601680549293505f926001600160a01b03909216916368a78f98919086908110612e7057612e70613bcd565b5f91825260209091206003909102015460405160e083901b6001600160e01b03191681526001600160a01b03909116600482015260248101859052604481018b9052606401602060405180830381865afa158015612ed0573d5f803e3d5ffd5b505050506040513d601f19601f82011682018060405250810190612ef49190613b9b565b905080612f01575f612f03565b815b601a5f60168681548110612f1957612f19613bcd565b5f91825260208083206003909202909101546001600160a01b03168352820192909252604001902055808015612f4e57505f82115b15612f6957612f6960168481548110612d2357612d23613bcd565b50505b600101612de1565b505b5f5b601654811015610662575f601a5f60168481548110612f9957612f99613bcd565b5f91825260208083206003909202909101546001600160a01b03168352820192909252604001812054915081900361305a57600554601680546001600160a01b0390921691633f001fd9919085908110612ff557612ff5613bcd565b5f91825260209091206003909102015460405160e083901b6001600160e01b03191681526001600160a01b0390911660048201526024015f604051808303815f87803b158015613043575f80fd5b505af1158015613055573d5f803e3d5ffd5b505050505b50600101612f78565b5f805f5b60175481101561318e57613088856017838154811061236e5761236e613bcd565b801561309357508383105b15613186575f6130a38486613b44565b90505f601783815481106130b9576130b9613bcd565b905f5260205f209060030201600101549050818111156130d65750805b80601b5f601786815481106130ed576130ed613bcd565b5f91825260208083206003909202909101546001600160a01b031683528201929092526040019020556131208186613bba565b94506131836017848154811061313857613138613bcd565b905f5260205f2090600302015f015f9054906101000a90046001600160a01b0316826017868154811061316d5761316d613bcd565b905f5260205f209060030201600101548a613618565b50505b600101613067565b505f5b6017548110156131f0576131b285601783815481106127bf576127bf613bcd565b156131e857601781815481106131ca576131ca613bcd565b905f5260205f20906003020160010154826131e59190613bba565b91505b600101613191565b505f8284116131ff575f613209565b6132098385613b44565b90505f8211801561321957505f81115b1561331f575f5b60175481101561331d5761324186601783815481106127bf576127bf613bcd565b15613315575f83836017848154811061325c5761325c613bcd565b905f5260205f209060030201600101546132769190613cd2565b613280919061427b565b905080601b5f6017858154811061329957613299613bcd565b5f91825260208083206003909202909101546001600160a01b03168352820192909252604001902055801561331357613313601783815481106132de576132de613bcd565b905f5260205f2090600302015f015f9054906101000a90046001600160a01b0316826017858154811061316d5761316d613bcd565b505b600101613220565b505b5f5b601754811015610662575f601b5f6017848154811061334257613342613bcd565b5f91825260208083206003909202909101546001600160a01b03168352820192909252604001812054915081900361343b57600154601780546001600160a01b0390921691638a75eb0491908590811061339e5761339e613bcd565b5f918252602090912060039091020154601780546001600160a01b0390921691869081106133ce576133ce613bcd565b5f9182526020909120600160039092020101546040516001600160e01b031960e085901b1681526001600160a01b03909216600483015260248201526044015f604051808303815f87803b158015613424575f80fd5b505af1158015613436573d5f803e3d5ffd5b505050505b50600101613321565b1190565b1090565b1490565b111590565b5f6134636110308385613bba565b9392505050565b5f61346361103084670de0b6b3a7640000856136f8565b101590565b5f6134a768056bc75e2d631000005b6012546134a290856137c6565b613455565b90505f6134db6134cc836134c661103088670de0b6b3a7640000613cd2565b906137c6565b68056bc75e2d6310000061346a565b6001600160a01b0386165f908152601c6020526040812080549293508392839290613507908490613bba565b9250508190555080601d5f82825461351f9190613bba565b90915550506013545f906135339087613cd2565b600154600a5460405163a9059cbb60e01b81526001600160a01b03918216600482015260248101849052929350169063a9059cbb906044015f604051808303815f87803b158015613582575f80fd5b505af1158015613594573d5f803e3d5ffd5b50506001546001600160a01b0316915063a9059cbb9050886135b6848a613b44565b6040516001600160e01b031960e085901b1681526001600160a01b03909216600483015260248201526044015f604051808303815f87803b1580156135f9575f80fd5b505af115801561360b573d5f803e3d5ffd5b5050505050505050505050565b5f61362b68056bc75e2d63100000613495565b90505f61364a6134cc836134c661103089670de0b6b3a7640000613cd2565b90505f61365a82612a1c600c5490565b6001549091506001600160a01b0316638a75eb04886136798989613b44565b6040516001600160e01b031960e085901b1681526001600160a01b03909216600483015260248201526044015f604051808303815f87803b1580156136bc575f80fd5b505af11580156136ce573d5f803e3d5ffd5b50506004546001600160a01b03169150632f4790759050886135b6670de0b6b3a76400008561427b565b5f80805f19858709858702925082811083820303915050805f0361372f5783828161372557613725614267565b0492505050613463565b83811061376057604051630c740aef60e31b81526004810187905260248101869052604481018590526064016105fc565b5f84868809600260036001881981018916988990049182028318808302840302808302840302808302840302808302840302808302840302918202909203025f889003889004909101858311909403939093029303949094049190911702949350505050565b5f61346361103084845f80805f19848609848602925082811083820303915050805f036138005750670de0b6b3a76400009004905061387c565b670de0b6b3a7640000811061383257604051635173648d60e01b815260048101869052602481018590526044016105fc565b5f670de0b6b3a764000085870962040000818503049310909103600160ee1b02919091177faccb18165bd6fe31ae1cf318dc5b51eee0e1ba569b88cd74c1773b91fac10669029150505b92915050565b5f60208284031215613892575f80fd5b5035919050565b6001600160a01b03811681146109a1575f80fd5b5f80604083850312156138be575f80fd5b82356138c981613899565b946020939093013593505050565b602081525f82518060208401528060208501604085015e5f604082850101526040601f19601f83011684010191505092915050565b5f8083601f84011261391c575f80fd5b5081356001600160401b03811115613932575f80fd5b6020830191508360208260051b850101111561394c575f80fd5b9250929050565b5f805f805f60608688031215613967575f80fd5b853561397281613899565b945060208601356001600160401b0381111561398c575f80fd5b6139988882890161390c565b90955093505060408601356001600160401b038111156139b6575f80fd5b6139c28882890161390c565b969995985093965092949392505050565b5f805f604084860312156139e5575f80fd5b8335925060208401356001600160401b03811115613a01575f80fd5b613a0d8682870161390c565b9497909650939450505050565b5f60208284031215613a2a575f80fd5b813561346381613899565b5f8060408385031215613a46575f80fd5b8235613a5181613899565b91506020830135613a6181613899565b809150509250929050565b5f8060208385031215613a7d575f80fd5b82356001600160401b03811115613a92575f80fd5b8301601f81018513613aa2575f80fd5b80356001600160401b03811115613ab7575f80fd5b856020828401011115613ac8575f80fd5b6020919091019590945092505050565b6020810160048310613af857634e487b7160e01b5f52602160045260245ffd5b91905290565b600181811c90821680613b1257607f821691505b6020821081036122f957634e487b7160e01b5f52602260045260245ffd5b634e487b7160e01b5f52601160045260245ffd5b8181038181111561387c5761387c613b30565b60ff811681146109a1575f80fd5b5f60208284031215613b75575f80fd5b815161346381613b57565b5f60208284031215613b90575f80fd5b815161346381613899565b5f60208284031215613bab575f80fd5b81518015158114613463575f80fd5b8082018082111561387c5761387c613b30565b634e487b7160e01b5f52603260045260245ffd5b6001815b6001841115613c1c57808504811115613c0057613c00613b30565b6001841615613c0e57908102905b60019390931c928002613be5565b935093915050565b5f82613c325750600161387c565b81613c3e57505f61387c565b8160018114613c545760028114613c5e57613c7a565b600191505061387c565b60ff841115613c6f57613c6f613b30565b50506001821b61387c565b5060208310610133831016604e8410600b8410161715613c9d575081810a61387c565b613ca95f198484613be1565b805f1904821115613cbc57613cbc613b30565b029392505050565b5f61346360ff841683613c24565b808202811582820484141761387c5761387c613b30565b5f8060408385031215613cfa575f80fd5b505080516020909101519092909150565b6020808252601390820152722737ba1030bab1ba34b7b71031b932b0ba37b960691b604082015260600190565b634e487b7160e01b5f52604160045260245ffd5b604051606081016001600160401b0381118282101715613d6e57613d6e613d38565b60405290565b604051608081016001600160401b0381118282101715613d6e57613d6e613d38565b604051601f8201601f191681016001600160401b0381118282101715613dbe57613dbe613d38565b604052919050565b5f6001600160401b03821115613dde57613dde613d38565b5060051b60200190565b5f82601f830112613df7575f80fd5b81516001600160401b03811115613e1057613e10613d38565b613e23601f8201601f1916602001613d96565b818152846020838601011115613e37575f80fd5b8160208501602083015e5f918101602001919091529392505050565b5f60208284031215613e63575f80fd5b81516001600160401b03811115613e78575f80fd5b8201601f81018413613e88575f80fd5b8051613e9b613e9682613dc6565b613d96565b8082825260208201915060208360051b850101925086831115613ebc575f80fd5b602084015b83811015613f515780516001600160401b03811115613ede575f80fd5b85016060818a03601f19011215613ef3575f80fd5b613efb613d4c565b6020820151613f0981613899565b81526040820151602082015260608201516001600160401b03811115613f2d575f80fd5b613f3c8b602083860101613de8565b60408301525084525060209283019201613ec1565b509695505050505050565b5f60018201613f6d57613f6d613b30565b5060010190565b604080825284519082018190525f9060208601906060840190835b81811015613fb057835160ff16835260209384019390920191600101613f8f565b5050838103602080860191909152858252019050845f5b85811015613ff2578135613fda81613b57565b60ff1683526020928301929190910190600101613fc7565b50909695505050505050565b5f6020828403121561400e575f80fd5b81516001600160401b03811115614023575f80fd5b8201601f81018413614033575f80fd5b8051614041613e9682613dc6565b8082825260208201915060208360051b850101925086831115614062575f80fd5b6020840193505b8284101561408d57835161407c81613b57565b825260209384019390910190614069565b9695505050505050565b5f602082840312156140a7575f80fd5b81516001600160401b038111156140bc575f80fd5b8201601f810184136140cc575f80fd5b80516140da613e9682613dc6565b8082825260208201915060208360051b8501019250868311156140fb575f80fd5b602084015b83811015613f515780516001600160401b0381111561411d575f80fd5b85016080818a03601f19011215614132575f80fd5b61413a613d74565b6020820151815260408201516001600160401b03811115614159575f80fd5b6141688b602083860101613de8565b602083015250606082015161417c81613899565b604082015260808201516001600160401b03811115614199575f80fd5b60208184010192505089601f8301126141b0575f80fd5b81516141be613e9682613dc6565b8082825260208201915060208360051b86010192508c8311156141df575f80fd5b6020850194505b8285101561420a5784516141f981613899565b8252602094850194909101906141e6565b6060840152505084525060209283019201614100565b60208152816020820152818360408301375f818301604090810191909152601f909201601f19160101919050565b60ff828116828216039081111561387c5761387c613b30565b634e487b7160e01b5f52601260045260245ffd5b5f8261429557634e487b7160e01b5f52601260045260245ffd5b50049056fea264697066735822122014c7c392c23e0536acd09a12c2a60d54f60b769ccd50ea60efbff3f8cb588d6764736f6c634300081a0033","linkReferences":{}},"methodIdentifiers":{"auctionCancelled()":"dd58302e","auctionClearingRate()":"84e10099","auctionID()":"2d07091f","auctionToken()":"99fdb320","auctionTokenAmount()":"85417235","auctionTokenRedeem(address,uint256)":"2a52d53f","auctionVolume()":"255ef5c9","batchEarlyLiquidation(address,address[],uint256[])":"b7c9b6fb","batchLateLiquidation(address,address[],uint256[])":"61eec263","bidManager()":"69b70afe","biddingEnd()":"423b217f","biddingStart()":"022a6fae","bidsDecrypted()":"47060ba2","bidsRevealed(uint256)":"9cb0b1c1","cancelAuction(string)":"b60e7a3b","creator()":"02d05d3f","decryptBidsBatch(uint256,uint8[])":"a087c4cd","decryptOffersBatch(uint256,uint8[])":"7c989eec","decrypter()":"50dc7eb1","endTimestamp()":"a85adeab","fee()":"ddca3f43","finalBidAllocation(address)":"f80fec1a","finalOfferAllocation(address)":"8384b9b5","finalizeAuction()":"f77282ab","fraction()":"d8894bb5","getAuctionPhase()":"fc519f15","isFinalized()":"8d4e4083","maxAllowedRate()":"4b3ec1f8","maxBids()":"9f235ccd","maxOffers()":"fca375c3","offerManager()":"e981d43e","offersDecrypted()":"65ceb2f4","offersRevealed(uint256)":"0596dc2f","pauseAuction()":"b9ae7364","paused()":"5c975abb","repay(uint256)":"371fd8e6","repaymentDue()":"87aaee75","repaymentTotal()":"1b44b6a8","repayments(address)":"8ee4d24b","revealEnd()":"a6e66477","setManagers(address,address)":"a92e29bc","token()":"fc0c546a","transferCreator(address)":"fa3fa196","unpauseAuction()":"ceb16419"},"id":0}