{"abi":[{"type":"constructor","inputs":[{"name":"name_","type":"string","internalType":"string"},{"name":"symbol_","type":"string","internalType":"string"}],"stateMutability":"nonpayable"},{"type":"function","name":"allowance","inputs":[{"name":"owner","type":"address","internalType":"address"},{"name":"spender","type":"address","internalType":"address"}],"outputs":[{"name":"","type":"uint256","internalType":"uint256"}],"stateMutability":"view"},{"type":"function","name":"approve","inputs":[{"name":"spender","type":"address","internalType":"address"},{"name":"value","type":"uint256","internalType":"uint256"}],"outputs":[{"name":"","type":"bool","internalType":"bool"}],"stateMutability":"nonpayable"},{"type":"function","name":"auctionContract","inputs":[],"outputs":[{"name":"","type":"address","internalType":"address"}],"stateMutability":"view"},{"type":"function","name":"balanceOf","inputs":[{"name":"account","type":"address","internalType":"address"}],"outputs":[{"name":"","type":"uint256","internalType":"uint256"}],"stateMutability":"view"},{"type":"function","name":"decimals","inputs":[],"outputs":[{"name":"","type":"uint8","internalType":"uint8"}],"stateMutability":"view"},{"type":"function","name":"mintForOffer","inputs":[{"name":"to","type":"address","internalType":"address"},{"name":"amount","type":"uint256","internalType":"uint256"}],"outputs":[],"stateMutability":"nonpayable"},{"type":"function","name":"name","inputs":[],"outputs":[{"name":"","type":"string","internalType":"string"}],"stateMutability":"view"},{"type":"function","name":"owner","inputs":[],"outputs":[{"name":"","type":"address","internalType":"address"}],"stateMutability":"view"},{"type":"function","name":"redeemToken","inputs":[{"name":"amount","type":"uint256","internalType":"uint256"}],"outputs":[],"stateMutability":"nonpayable"},{"type":"function","name":"renounceOwnership","inputs":[],"outputs":[],"stateMutability":"nonpayable"},{"type":"function","name":"setAuctionContract","inputs":[{"name":"_auctionContract","type":"address","internalType":"address"}],"outputs":[],"stateMutability":"nonpayable"},{"type":"function","name":"symbol","inputs":[],"outputs":[{"name":"","type":"string","internalType":"string"}],"stateMutability":"view"},{"type":"function","name":"totalSupply","inputs":[],"outputs":[{"name":"","type":"uint256","internalType":"uint256"}],"stateMutability":"view"},{"type":"function","name":"transfer","inputs":[{"name":"to","type":"address","internalType":"address"},{"name":"value","type":"uint256","internalType":"uint256"}],"outputs":[{"name":"","type":"bool","internalType":"bool"}],"stateMutability":"nonpayable"},{"type":"function","name":"transferFrom","inputs":[{"name":"from","type":"address","internalType":"address"},{"name":"to","type":"address","internalType":"address"},{"name":"value","type":"uint256","internalType":"uint256"}],"outputs":[{"name":"","type":"bool","internalType":"bool"}],"stateMutability":"nonpayable"},{"type":"function","name":"transferOwnership","inputs":[{"name":"newOwner","type":"address","internalType":"address"}],"outputs":[],"stateMutability":"nonpayable"},{"type":"event","name":"Approval","inputs":[{"name":"owner","type":"address","indexed":true,"internalType":"address"},{"name":"spender","type":"address","indexed":true,"internalType":"address"},{"name":"value","type":"uint256","indexed":false,"internalType":"uint256"}],"anonymous":false},{"type":"event","name":"OwnershipTransferred","inputs":[{"name":"previousOwner","type":"address","indexed":true,"internalType":"address"},{"name":"newOwner","type":"address","indexed":true,"internalType":"address"}],"anonymous":false},{"type":"event","name":"Transfer","inputs":[{"name":"from","type":"address","indexed":true,"internalType":"address"},{"name":"to","type":"address","indexed":true,"internalType":"address"},{"name":"value","type":"uint256","indexed":false,"internalType":"uint256"}],"anonymous":false},{"type":"error","name":"ERC20InsufficientAllowance","inputs":[{"name":"spender","type":"address","internalType":"address"},{"name":"allowance","type":"uint256","internalType":"uint256"},{"name":"needed","type":"uint256","internalType":"uint256"}]},{"type":"error","name":"ERC20InsufficientBalance","inputs":[{"name":"sender","type":"address","internalType":"address"},{"name":"balance","type":"uint256","internalType":"uint256"},{"name":"needed","type":"uint256","internalType":"uint256"}]},{"type":"error","name":"ERC20InvalidApprover","inputs":[{"name":"approver","type":"address","internalType":"address"}]},{"type":"error","name":"ERC20InvalidReceiver","inputs":[{"name":"receiver","type":"address","internalType":"address"}]},{"type":"error","name":"ERC20InvalidSender","inputs":[{"name":"sender","type":"address","internalType":"address"}]},{"type":"error","name":"ERC20InvalidSpender","inputs":[{"name":"spender","type":"address","internalType":"address"}]},{"type":"error","name":"OwnableInvalidOwner","inputs":[{"name":"owner","type":"address","internalType":"address"}]},{"type":"error","name":"OwnableUnauthorizedAccount","inputs":[{"name":"account","type":"address","internalType":"address"}]},{"type":"error","name":"ReentrancyGuardReentrantCall","inputs":[]}],"bytecode":{"object":"0x608060405234801561000f575f80fd5b50604051610ea2380380610ea283398101604081905261002e9161017e565b338282600361003d8382610267565b50600461004a8282610267565b5050506001600160a01b03811661007a57604051631e4fbdf760e01b81525f600482015260240160405180910390fd5b61008381610090565b5050600160065550610321565b600580546001600160a01b038381166001600160a01b0319831681179093556040519116919082907f8be0079c531659141344cd1fd0a4f28419497f9722a3daafe3b4186f6b6457e0905f90a35050565b634e487b7160e01b5f52604160045260245ffd5b5f82601f830112610104575f80fd5b81516001600160401b0381111561011d5761011d6100e1565b604051601f8201601f19908116603f011681016001600160401b038111828210171561014b5761014b6100e1565b604052818152838201602001851015610162575f80fd5b8160208501602083015e5f918101602001919091529392505050565b5f806040838503121561018f575f80fd5b82516001600160401b038111156101a4575f80fd5b6101b0858286016100f5565b602085015190935090506001600160401b038111156101cd575f80fd5b6101d9858286016100f5565b9150509250929050565b600181811c908216806101f757607f821691505b60208210810361021557634e487b7160e01b5f52602260045260245ffd5b50919050565b601f82111561026257805f5260205f20601f840160051c810160208510156102405750805b601f840160051c820191505b8181101561025f575f815560010161024c565b50505b505050565b81516001600160401b03811115610280576102806100e1565b6102948161028e84546101e3565b8461021b565b6020601f8211600181146102c6575f83156102af5750848201515b5f19600385901b1c1916600184901b17845561025f565b5f84815260208120601f198516915b828110156102f557878501518255602094850194600190920191016102d5565b508482101561031257868401515f19600387901b60f8161c191681555b50505050600190811b01905550565b610b748061032e5f395ff3fe608060405234801561000f575f80fd5b50600436106100fb575f3560e01c8063313ce5671161009357806395d89b411161006357806395d89b411461021b578063a9059cbb14610223578063dd62ed3e14610236578063f2fde38b1461026e575f80fd5b8063313ce567146101cb57806370a08231146101da578063715018a6146102025780638da5cb5b1461020a575f80fd5b80630ab8afac116100ce5780630ab8afac1461016857806318160ddd1461019357806323b872dd146101a55780632f479075146101b8575f80fd5b8063013054c2146100ff578063023924c71461011457806306fdde0314610127578063095ea7b314610145575b5f80fd5b61011261010d3660046109b6565b610281565b005b6101126101223660046109e8565b61040b565b61012f610435565b60405161013c9190610a08565b60405180910390f35b610158610153366004610a3d565b6104c5565b604051901515815260200161013c565b60075461017b906001600160a01b031681565b6040516001600160a01b03909116815260200161013c565b6002545b60405190815260200161013c565b6101586101b3366004610a65565b6104de565b6101126101c6366004610a3d565b610501565b6040516012815260200161013c565b6101976101e83660046109e8565b6001600160a01b03165f9081526020819052604090205490565b61011261055a565b6005546001600160a01b031661017b565b61012f61056d565b610158610231366004610a3d565b61057c565b610197610244366004610a9f565b6001600160a01b039182165f90815260016020908152604080832093909416825291909152205490565b61011261027c3660046109e8565b610589565b6102896105c3565b600754604080516387aaee7560e01b815290516001600160a01b0390921691429183916387aaee75916004808201926020929091908290030181865afa1580156102d5573d5f803e3d5ffd5b505050506040513d601f19601f820116820180604052508101906102f99190610ad0565b106103435760405162461bcd60e51b815260206004820152601560248201527414995c185e5b595b9d081b9bdd081cdd185c9d1959605a1b60448201526064015b60405180910390fd5b335f908152602081905260409020548211156103985760405162461bcd60e51b8152602060048201526014602482015273496e73756666696369656e742062616c616e636560601b604482015260640161033a565b6103a233836105ed565b604051632a52d53f60e01b8152336004820152602481018390526001600160a01b03821690632a52d53f906044015f604051808303815f87803b1580156103e7575f80fd5b505af11580156103f9573d5f803e3d5ffd5b50505050506104086001600655565b50565b610413610621565b600780546001600160a01b0319166001600160a01b0392909216919091179055565b60606003805461044490610ae7565b80601f016020809104026020016040519081016040528092919081815260200182805461047090610ae7565b80156104bb5780601f10610492576101008083540402835291602001916104bb565b820191905f5260205f20905b81548152906001019060200180831161049e57829003601f168201915b5050505050905090565b5f336104d281858561064e565b60019150505b92915050565b5f336104eb858285610660565b6104f68585856106dc565b506001949350505050565b6007546001600160a01b0316331461054c5760405162461bcd60e51b815260206004820152600e60248201526d139bdd08185d5d1a1bdc9a5e995960921b604482015260640161033a565b6105568282610739565b5050565b610562610621565b61056b5f61076d565b565b60606004805461044490610ae7565b5f336104d28185856106dc565b610591610621565b6001600160a01b0381166105ba57604051631e4fbdf760e01b81525f600482015260240161033a565b6104088161076d565b6002600654036105e657604051633ee5aeb560e01b815260040160405180910390fd5b6002600655565b6001600160a01b03821661061657604051634b637e8f60e11b81525f600482015260240161033a565b610556825f836107be565b6005546001600160a01b0316331461056b5760405163118cdaa760e01b815233600482015260240161033a565b61065b83838360016108e4565b505050565b6001600160a01b038381165f908152600160209081526040808320938616835292905220545f198110156106d657818110156106c857604051637dc7a0d960e11b81526001600160a01b0384166004820152602481018290526044810183905260640161033a565b6106d684848484035f6108e4565b50505050565b6001600160a01b03831661070557604051634b637e8f60e11b81525f600482015260240161033a565b6001600160a01b03821661072e5760405163ec442f0560e01b81525f600482015260240161033a565b61065b8383836107be565b6001600160a01b0382166107625760405163ec442f0560e01b81525f600482015260240161033a565b6105565f83836107be565b600580546001600160a01b038381166001600160a01b0319831681179093556040519116919082907f8be0079c531659141344cd1fd0a4f28419497f9722a3daafe3b4186f6b6457e0905f90a35050565b6001600160a01b0383166107e8578060025f8282546107dd9190610b1f565b909155506108589050565b6001600160a01b0383165f908152602081905260409020548181101561083a5760405163391434e360e21b81526001600160a01b0385166004820152602481018290526044810183905260640161033a565b6001600160a01b0384165f9081526020819052604090209082900390555b6001600160a01b03821661087457600280548290039055610892565b6001600160a01b0382165f9081526020819052604090208054820190555b816001600160a01b0316836001600160a01b03167fddf252ad1be2c89b69c2b068fc378daa952ba7f163c4a11628f55a4df523b3ef836040516108d791815260200190565b60405180910390a3505050565b6001600160a01b03841661090d5760405163e602df0560e01b81525f600482015260240161033a565b6001600160a01b03831661093657604051634a1406b160e11b81525f600482015260240161033a565b6001600160a01b038085165f90815260016020908152604080832093871683529290522082905580156106d657826001600160a01b0316846001600160a01b03167f8c5be1e5ebec7d5bd14f71427d1e84f3dd0314c0f7b2291e5b200ac8c7c3b925846040516109a891815260200190565b60405180910390a350505050565b5f602082840312156109c6575f80fd5b5035919050565b80356001600160a01b03811681146109e3575f80fd5b919050565b5f602082840312156109f8575f80fd5b610a01826109cd565b9392505050565b602081525f82518060208401528060208501604085015e5f604082850101526040601f19601f83011684010191505092915050565b5f8060408385031215610a4e575f80fd5b610a57836109cd565b946020939093013593505050565b5f805f60608486031215610a77575f80fd5b610a80846109cd565b9250610a8e602085016109cd565b929592945050506040919091013590565b5f8060408385031215610ab0575f80fd5b610ab9836109cd565b9150610ac7602084016109cd565b90509250929050565b5f60208284031215610ae0575f80fd5b5051919050565b600181811c90821680610afb57607f821691505b602082108103610b1957634e487b7160e01b5f52602260045260245ffd5b50919050565b808201808211156104d857634e487b7160e01b5f52601160045260245ffdfea26469706673582212206803eb3a06199dfbfcc568393e6562f5cf0ad1c3b02cadb46120ba91e75b076764736f6c634300081a0033","linkReferences":{}},"methodIdentifiers":{"allowance(address,address)":"dd62ed3e","approve(address,uint256)":"095ea7b3","auctionContract()":"0ab8afac","balanceOf(address)":"70a08231","decimals()":"313ce567","mintForOffer(address,uint256)":"2f479075","name()":"06fdde03","owner()":"8da5cb5b","redeemToken(uint256)":"013054c2","renounceOwnership()":"715018a6","setAuctionContract(address)":"023924c7","symbol()":"95d89b41","totalSupply()":"18160ddd","transfer(address,uint256)":"a9059cbb","transferFrom(address,address,uint256)":"23b872dd","transferOwnership(address)":"f2fde38b"},"id":1}