{"abi":[{"type":"constructor","inputs":[{"name":"name_","type":"string","internalType":"string"},{"name":"symbol_","type":"string","internalType":"string"}],"stateMutability":"nonpayable"},{"type":"function","name":"allowance","inputs":[{"name":"owner","type":"address","internalType":"address"},{"name":"spender","type":"address","internalType":"address"}],"outputs":[{"name":"","type":"uint256","internalType":"uint256"}],"stateMutability":"view"},{"type":"function","name":"approve","inputs":[{"name":"spender","type":"address","internalType":"address"},{"name":"value","type":"uint256","internalType":"uint256"}],"outputs":[{"name":"","type":"bool","internalType":"bool"}],"stateMutability":"nonpayable"},{"type":"function","name":"auctionContract","inputs":[],"outputs":[{"name":"","type":"address","internalType":"address"}],"stateMutability":"view"},{"type":"function","name":"balanceOf","inputs":[{"name":"account","type":"address","internalType":"address"}],"outputs":[{"name":"","type":"uint256","internalType":"uint256"}],"stateMutability":"view"},{"type":"function","name":"decimals","inputs":[],"outputs":[{"name":"","type":"uint8","internalType":"uint8"}],"stateMutability":"view"},{"type":"function","name":"mintForOffer","inputs":[{"name":"to","type":"address","internalType":"address"},{"name":"amount","type":"uint256","internalType":"uint256"}],"outputs":[],"stateMutability":"nonpayable"},{"type":"function","name":"name","inputs":[],"outputs":[{"name":"","type":"string","internalType":"string"}],"stateMutability":"view"},{"type":"function","name":"owner","inputs":[],"outputs":[{"name":"","type":"address","internalType":"address"}],"stateMutability":"view"},{"type":"function","name":"redeemToken","inputs":[{"name":"amount","type":"uint256","internalType":"uint256"}],"outputs":[],"stateMutability":"nonpayable"},{"type":"function","name":"renounceOwnership","inputs":[],"outputs":[],"stateMutability":"nonpayable"},{"type":"function","name":"setAuctionContract","inputs":[{"name":"_auctionContract","type":"address","internalType":"address"}],"outputs":[],"stateMutability":"nonpayable"},{"type":"function","name":"symbol","inputs":[],"outputs":[{"name":"","type":"string","internalType":"string"}],"stateMutability":"view"},{"type":"function","name":"totalSupply","inputs":[],"outputs":[{"name":"","type":"uint256","internalType":"uint256"}],"stateMutability":"view"},{"type":"function","name":"transfer","inputs":[{"name":"to","type":"address","internalType":"address"},{"name":"value","type":"uint256","internalType":"uint256"}],"outputs":[{"name":"","type":"bool","internalType":"bool"}],"stateMutability":"nonpayable"},{"type":"function","name":"transferFrom","inputs":[{"name":"from","type":"address","internalType":"address"},{"name":"to","type":"address","internalType":"address"},{"name":"value","type":"uint256","internalType":"uint256"}],"outputs":[{"name":"","type":"bool","internalType":"bool"}],"stateMutability":"nonpayable"},{"type":"function","name":"transferOwnership","inputs":[{"name":"newOwner","type":"address","internalType":"address"}],"outputs":[],"stateMutability":"nonpayable"},{"type":"event","name":"Approval","inputs":[{"name":"owner","type":"address","indexed":true,"internalType":"address"},{"name":"spender","type":"address","indexed":true,"internalType":"address"},{"name":"value","type":"uint256","indexed":false,"internalType":"uint256"}],"anonymous":false},{"type":"event","name":"OwnershipTransferred","inputs":[{"name":"previousOwner","type":"address","indexed":true,"internalType":"address"},{"name":"newOwner","type":"address","indexed":true,"internalType":"address"}],"anonymous":false},{"type":"event","name":"Transfer","inputs":[{"name":"from","type":"address","indexed":true,"internalType":"address"},{"name":"to","type":"address","indexed":true,"internalType":"address"},{"name":"value","type":"uint256","indexed":false,"internalType":"uint256"}],"anonymous":false},{"type":"error","name":"ERC20InsufficientAllowance","inputs":[{"name":"spender","type":"address","internalType":"address"},{"name":"allowance","type":"uint256","internalType":"uint256"},{"name":"needed","type":"uint256","internalType":"uint256"}]},{"type":"error","name":"ERC20InsufficientBalance","inputs":[{"name":"sender","type":"address","internalType":"address"},{"name":"balance","type":"uint256","internalType":"uint256"},{"name":"needed","type":"uint256","internalType":"uint256"}]},{"type":"error","name":"ERC20InvalidApprover","inputs":[{"name":"approver","type":"address","internalType":"address"}]},{"type":"error","name":"ERC20InvalidReceiver","inputs":[{"name":"receiver","type":"address","internalType":"address"}]},{"type":"error","name":"ERC20InvalidSender","inputs":[{"name":"sender","type":"address","internalType":"address"}]},{"type":"error","name":"ERC20InvalidSpender","inputs":[{"name":"spender","type":"address","internalType":"address"}]},{"type":"error","name":"OwnableInvalidOwner","inputs":[{"name":"owner","type":"address","internalType":"address"}]},{"type":"error","name":"OwnableUnauthorizedAccount","inputs":[{"name":"account","type":"address","internalType":"address"}]},{"type":"error","name":"ReentrancyGuardReentrantCall","inputs":[]}],"bytecode":{"object":"0x608060405234801561000f575f80fd5b50604051610e21380380610e2183398101604081905261002e9161017e565b338282600361003d8382610267565b50600461004a8282610267565b5050506001600160a01b03811661007a57604051631e4fbdf760e01b81525f600482015260240160405180910390fd5b61008381610090565b5050600160065550610321565b600580546001600160a01b038381166001600160a01b0319831681179093556040519116919082907f8be0079c531659141344cd1fd0a4f28419497f9722a3daafe3b4186f6b6457e0905f90a35050565b634e487b7160e01b5f52604160045260245ffd5b5f82601f830112610104575f80fd5b81516001600160401b0381111561011d5761011d6100e1565b604051601f8201601f19908116603f011681016001600160401b038111828210171561014b5761014b6100e1565b604052818152838201602001851015610162575f80fd5b8160208501602083015e5f918101602001919091529392505050565b5f806040838503121561018f575f80fd5b82516001600160401b038111156101a4575f80fd5b6101b0858286016100f5565b602085015190935090506001600160401b038111156101cd575f80fd5b6101d9858286016100f5565b9150509250929050565b600181811c908216806101f757607f821691505b60208210810361021557634e487b7160e01b5f52602260045260245ffd5b50919050565b601f82111561026257805f5260205f20601f840160051c810160208510156102405750805b601f840160051c820191505b8181101561025f575f815560010161024c565b50505b505050565b81516001600160401b03811115610280576102806100e1565b6102948161028e84546101e3565b8461021b565b6020601f8211600181146102c6575f83156102af5750848201515b5f19600385901b1c1916600184901b17845561025f565b5f84815260208120601f198516915b828110156102f557878501518255602094850194600190920191016102d5565b508482101561031257868401515f19600387901b60f8161c191681555b50505050600190811b01905550565b610af38061032e5f395ff3fe608060405234801561000f575f80fd5b50600436106100fb575f3560e01c8063313ce5671161009357806395d89b411161006357806395d89b411461021b578063a9059cbb14610223578063dd62ed3e14610236578063f2fde38b1461026e575f80fd5b8063313ce567146101cb57806370a08231146101da578063715018a6146102025780638da5cb5b1461020a575f80fd5b80630ab8afac116100ce5780630ab8afac1461016857806318160ddd1461019357806323b872dd146101a55780632f479075146101b8575f80fd5b8063013054c2146100ff578063023924c71461011457806306fdde0314610127578063095ea7b314610145575b5f80fd5b61011261010d36600461092d565b610281565b005b61011261012236600461095f565b610382565b61012f6103ac565b60405161013c919061097f565b60405180910390f35b6101586101533660046109b4565b61043c565b604051901515815260200161013c565b60075461017b906001600160a01b031681565b6040516001600160a01b03909116815260200161013c565b6002545b60405190815260200161013c565b6101586101b33660046109dc565b610455565b6101126101c63660046109b4565b610478565b6040516012815260200161013c565b6101976101e836600461095f565b6001600160a01b03165f9081526020819052604090205490565b6101126104d1565b6005546001600160a01b031661017b565b61012f6104e4565b6101586102313660046109b4565b6104f3565b610197610244366004610a16565b6001600160a01b039182165f90815260016020908152604080832093909416825291909152205490565b61011261027c36600461095f565b610500565b61028961053a565b6007546001600160a01b0316816102b4336001600160a01b03165f9081526020819052604090205490565b10156102fe5760405162461bcd60e51b8152602060048201526014602482015273496e73756666696369656e742062616c616e636560601b60448201526064015b60405180910390fd5b6103193361031484670de0b6b3a7640000610a5b565b610564565b604051632a52d53f60e01b8152336004820152602481018390526001600160a01b03821690632a52d53f906044015f604051808303815f87803b15801561035e575f80fd5b505af1158015610370573d5f803e3d5ffd5b505050505061037f6001600655565b50565b61038a610598565b600780546001600160a01b0319166001600160a01b0392909216919091179055565b6060600380546103bb90610a72565b80601f01602080910402602001604051908101604052809291908181526020018280546103e790610a72565b80156104325780601f1061040957610100808354040283529160200191610432565b820191905f5260205f20905b81548152906001019060200180831161041557829003601f168201915b5050505050905090565b5f336104498185856105c5565b60019150505b92915050565b5f336104628582856105d7565b61046d858585610653565b506001949350505050565b6007546001600160a01b031633146104c35760405162461bcd60e51b815260206004820152600e60248201526d139bdd08185d5d1a1bdc9a5e995960921b60448201526064016102f5565b6104cd82826106b0565b5050565b6104d9610598565b6104e25f6106e4565b565b6060600480546103bb90610a72565b5f33610449818585610653565b610508610598565b6001600160a01b03811661053157604051631e4fbdf760e01b81525f60048201526024016102f5565b61037f816106e4565b60026006540361055d57604051633ee5aeb560e01b815260040160405180910390fd5b6002600655565b6001600160a01b03821661058d57604051634b637e8f60e11b81525f60048201526024016102f5565b6104cd825f83610735565b6005546001600160a01b031633146104e25760405163118cdaa760e01b81523360048201526024016102f5565b6105d2838383600161085b565b505050565b6001600160a01b038381165f908152600160209081526040808320938616835292905220545f1981101561064d578181101561063f57604051637dc7a0d960e11b81526001600160a01b038416600482015260248101829052604481018390526064016102f5565b61064d84848484035f61085b565b50505050565b6001600160a01b03831661067c57604051634b637e8f60e11b81525f60048201526024016102f5565b6001600160a01b0382166106a55760405163ec442f0560e01b81525f60048201526024016102f5565b6105d2838383610735565b6001600160a01b0382166106d95760405163ec442f0560e01b81525f60048201526024016102f5565b6104cd5f8383610735565b600580546001600160a01b038381166001600160a01b0319831681179093556040519116919082907f8be0079c531659141344cd1fd0a4f28419497f9722a3daafe3b4186f6b6457e0905f90a35050565b6001600160a01b03831661075f578060025f8282546107549190610aaa565b909155506107cf9050565b6001600160a01b0383165f90815260208190526040902054818110156107b15760405163391434e360e21b81526001600160a01b038516600482015260248101829052604481018390526064016102f5565b6001600160a01b0384165f9081526020819052604090209082900390555b6001600160a01b0382166107eb57600280548290039055610809565b6001600160a01b0382165f9081526020819052604090208054820190555b816001600160a01b0316836001600160a01b03167fddf252ad1be2c89b69c2b068fc378daa952ba7f163c4a11628f55a4df523b3ef8360405161084e91815260200190565b60405180910390a3505050565b6001600160a01b0384166108845760405163e602df0560e01b81525f60048201526024016102f5565b6001600160a01b0383166108ad57604051634a1406b160e11b81525f60048201526024016102f5565b6001600160a01b038085165f908152600160209081526040808320938716835292905220829055801561064d57826001600160a01b0316846001600160a01b03167f8c5be1e5ebec7d5bd14f71427d1e84f3dd0314c0f7b2291e5b200ac8c7c3b9258460405161091f91815260200190565b60405180910390a350505050565b5f6020828403121561093d575f80fd5b5035919050565b80356001600160a01b038116811461095a575f80fd5b919050565b5f6020828403121561096f575f80fd5b61097882610944565b9392505050565b602081525f82518060208401528060208501604085015e5f604082850101526040601f19601f83011684010191505092915050565b5f80604083850312156109c5575f80fd5b6109ce83610944565b946020939093013593505050565b5f805f606084860312156109ee575f80fd5b6109f784610944565b9250610a0560208501610944565b929592945050506040919091013590565b5f8060408385031215610a27575f80fd5b610a3083610944565b9150610a3e60208401610944565b90509250929050565b634e487b7160e01b5f52601160045260245ffd5b808202811582820484141761044f5761044f610a47565b600181811c90821680610a8657607f821691505b602082108103610aa457634e487b7160e01b5f52602260045260245ffd5b50919050565b8082018082111561044f5761044f610a4756fea2646970667358221220d89e37f76c0c4286937bad3d17197394d4c83edd1fdb8eb4c6208876fb634e9664736f6c634300081a0033","linkReferences":{}},"methodIdentifiers":{"allowance(address,address)":"dd62ed3e","approve(address,uint256)":"095ea7b3","auctionContract()":"0ab8afac","balanceOf(address)":"70a08231","decimals()":"313ce567","mintForOffer(address,uint256)":"2f479075","name()":"06fdde03","owner()":"8da5cb5b","redeemToken(uint256)":"013054c2","renounceOwnership()":"715018a6","setAuctionContract(address)":"023924c7","symbol()":"95d89b41","totalSupply()":"18160ddd","transfer(address,uint256)":"a9059cbb","transferFrom(address,address,uint256)":"23b872dd","transferOwnership(address)":"f2fde38b"},"id":1}