{"abi":[{"type":"constructor","inputs":[{"name":"name_","type":"string","internalType":"string"},{"name":"symbol_","type":"string","internalType":"string"}],"stateMutability":"nonpayable"},{"type":"function","name":"allowance","inputs":[{"name":"owner","type":"address","internalType":"address"},{"name":"spender","type":"address","internalType":"address"}],"outputs":[{"name":"","type":"uint256","internalType":"uint256"}],"stateMutability":"view"},{"type":"function","name":"approve","inputs":[{"name":"spender","type":"address","internalType":"address"},{"name":"value","type":"uint256","internalType":"uint256"}],"outputs":[{"name":"","type":"bool","internalType":"bool"}],"stateMutability":"nonpayable"},{"type":"function","name":"auctionContract","inputs":[],"outputs":[{"name":"","type":"address","internalType":"address"}],"stateMutability":"view"},{"type":"function","name":"balanceOf","inputs":[{"name":"account","type":"address","internalType":"address"}],"outputs":[{"name":"","type":"uint256","internalType":"uint256"}],"stateMutability":"view"},{"type":"function","name":"burn","inputs":[{"name":"user","type":"address","internalType":"address"},{"name":"amountRaw","type":"uint256","internalType":"uint256"}],"outputs":[],"stateMutability":"nonpayable"},{"type":"function","name":"decimals","inputs":[],"outputs":[{"name":"","type":"uint8","internalType":"uint8"}],"stateMutability":"view"},{"type":"function","name":"mintForOffer","inputs":[{"name":"to","type":"address","internalType":"address"},{"name":"amountRaw","type":"uint256","internalType":"uint256"}],"outputs":[],"stateMutability":"nonpayable"},{"type":"function","name":"name","inputs":[],"outputs":[{"name":"","type":"string","internalType":"string"}],"stateMutability":"view"},{"type":"function","name":"owner","inputs":[],"outputs":[{"name":"","type":"address","internalType":"address"}],"stateMutability":"view"},{"type":"function","name":"redeemToken","inputs":[{"name":"amountRaw","type":"uint256","internalType":"uint256"}],"outputs":[],"stateMutability":"nonpayable"},{"type":"function","name":"renounceOwnership","inputs":[],"outputs":[],"stateMutability":"nonpayable"},{"type":"function","name":"setAuctionContract","inputs":[{"name":"_auctionContract","type":"address","internalType":"address"}],"outputs":[],"stateMutability":"nonpayable"},{"type":"function","name":"symbol","inputs":[],"outputs":[{"name":"","type":"string","internalType":"string"}],"stateMutability":"view"},{"type":"function","name":"totalSupply","inputs":[],"outputs":[{"name":"","type":"uint256","internalType":"uint256"}],"stateMutability":"view"},{"type":"function","name":"transfer","inputs":[{"name":"to","type":"address","internalType":"address"},{"name":"value","type":"uint256","internalType":"uint256"}],"outputs":[{"name":"","type":"bool","internalType":"bool"}],"stateMutability":"nonpayable"},{"type":"function","name":"transferFrom","inputs":[{"name":"from","type":"address","internalType":"address"},{"name":"to","type":"address","internalType":"address"},{"name":"value","type":"uint256","internalType":"uint256"}],"outputs":[{"name":"","type":"bool","internalType":"bool"}],"stateMutability":"nonpayable"},{"type":"function","name":"transferOwnership","inputs":[{"name":"newOwner","type":"address","internalType":"address"}],"outputs":[],"stateMutability":"nonpayable"},{"type":"event","name":"Approval","inputs":[{"name":"owner","type":"address","indexed":true,"internalType":"address"},{"name":"spender","type":"address","indexed":true,"internalType":"address"},{"name":"value","type":"uint256","indexed":false,"internalType":"uint256"}],"anonymous":false},{"type":"event","name":"OwnershipTransferred","inputs":[{"name":"previousOwner","type":"address","indexed":true,"internalType":"address"},{"name":"newOwner","type":"address","indexed":true,"internalType":"address"}],"anonymous":false},{"type":"event","name":"Transfer","inputs":[{"name":"from","type":"address","indexed":true,"internalType":"address"},{"name":"to","type":"address","indexed":true,"internalType":"address"},{"name":"value","type":"uint256","indexed":false,"internalType":"uint256"}],"anonymous":false},{"type":"error","name":"ERC20InsufficientAllowance","inputs":[{"name":"spender","type":"address","internalType":"address"},{"name":"allowance","type":"uint256","internalType":"uint256"},{"name":"needed","type":"uint256","internalType":"uint256"}]},{"type":"error","name":"ERC20InsufficientBalance","inputs":[{"name":"sender","type":"address","internalType":"address"},{"name":"balance","type":"uint256","internalType":"uint256"},{"name":"needed","type":"uint256","internalType":"uint256"}]},{"type":"error","name":"ERC20InvalidApprover","inputs":[{"name":"approver","type":"address","internalType":"address"}]},{"type":"error","name":"ERC20InvalidReceiver","inputs":[{"name":"receiver","type":"address","internalType":"address"}]},{"type":"error","name":"ERC20InvalidSender","inputs":[{"name":"sender","type":"address","internalType":"address"}]},{"type":"error","name":"ERC20InvalidSpender","inputs":[{"name":"spender","type":"address","internalType":"address"}]},{"type":"error","name":"OwnableInvalidOwner","inputs":[{"name":"owner","type":"address","internalType":"address"}]},{"type":"error","name":"OwnableUnauthorizedAccount","inputs":[{"name":"account","type":"address","internalType":"address"}]},{"type":"error","name":"ReentrancyGuardReentrantCall","inputs":[]}],"bytecode":{"object":"0x608060405234801561000f575f80fd5b5060405161115138038061115183398101604081905261002e9161017e565b338282600361003d8382610267565b50600461004a8282610267565b5050506001600160a01b03811661007a57604051631e4fbdf760e01b81525f600482015260240160405180910390fd5b61008381610090565b5050600160065550610321565b600580546001600160a01b038381166001600160a01b0319831681179093556040519116919082907f8be0079c531659141344cd1fd0a4f28419497f9722a3daafe3b4186f6b6457e0905f90a35050565b634e487b7160e01b5f52604160045260245ffd5b5f82601f830112610104575f80fd5b81516001600160401b0381111561011d5761011d6100e1565b604051601f8201601f19908116603f011681016001600160401b038111828210171561014b5761014b6100e1565b604052818152838201602001851015610162575f80fd5b8160208501602083015e5f918101602001919091529392505050565b5f806040838503121561018f575f80fd5b82516001600160401b038111156101a4575f80fd5b6101b0858286016100f5565b602085015190935090506001600160401b038111156101cd575f80fd5b6101d9858286016100f5565b9150509250929050565b600181811c908216806101f757607f821691505b60208210810361021557634e487b7160e01b5f52602260045260245ffd5b50919050565b601f82111561026257805f5260205f20601f840160051c810160208510156102405750805b601f840160051c820191505b8181101561025f575f815560010161024c565b50505b505050565b81516001600160401b03811115610280576102806100e1565b6102948161028e84546101e3565b8461021b565b6020601f8211600181146102c6575f83156102af5750848201515b5f19600385901b1c1916600184901b17845561025f565b5f84815260208120601f198516915b828110156102f557878501518255602094850194600190920191016102d5565b508482101561031257868401515f19600387901b60f8161c191681555b50505050600190811b01905550565b610e238061032e5f395ff3fe608060405234801561000f575f80fd5b5060043610610106575f3560e01c8063313ce5671161009e57806395d89b411161006e57806395d89b41146102265780639dc29fac1461022e578063a9059cbb14610241578063dd62ed3e14610254578063f2fde38b1461028c575f80fd5b8063313ce567146101d657806370a08231146101e5578063715018a61461020d5780638da5cb5b14610215575f80fd5b80630ab8afac116100d95780630ab8afac1461017357806318160ddd1461019e57806323b872dd146101b05780632f479075146101c3575f80fd5b8063013054c21461010a578063023924c71461011f57806306fdde0314610132578063095ea7b314610150575b5f80fd5b61011d610118366004610bf5565b61029f565b005b61011d61012d366004610c27565b61057f565b61013a6105a9565b6040516101479190610c47565b60405180910390f35b61016361015e366004610c7c565b610639565b6040519015158152602001610147565b600754610186906001600160a01b031681565b6040516001600160a01b039091168152602001610147565b6002545b604051908152602001610147565b6101636101be366004610ca4565b610652565b61011d6101d1366004610c7c565b610675565b60405160128152602001610147565b6101a26101f3366004610c27565b6001600160a01b03165f9081526020819052604090205490565b61011d6106ce565b6005546001600160a01b0316610186565b61013a6106e1565b61011d61023c366004610c7c565b6106f0565b61016361024f366004610c7c565b6107bb565b6101a2610262366004610cde565b6001600160a01b039182165f90815260016020908152604080832093909416825291909152205490565b61011d61029a366004610c27565b6107c8565b6102a7610802565b6007546001600160a01b03166102f65760405162461bcd60e51b815260206004820152600f60248201526e105d58dd1a5bdb881b9bdd081cd95d608a1b60448201526064015b60405180910390fd5b6007546001600160a01b03166003816001600160a01b031663fc519f156040518163ffffffff1660e01b8152600401602060405180830381865afa158015610340573d5f803e3d5ffd5b505050506040513d601f19601f820116820180604052508101906103649190610d23565b600481111561037557610375610d0f565b146103bb5760405162461bcd60e51b8152602060048201526016602482015275149959195b5c1d1a5bdb881b9bdd08185b1b1bddd95960521b60448201526064016102ed565b335f908152602081905260409020548211156104105760405162461bcd60e51b8152602060048201526014602482015273496e73756666696369656e742062616c616e636560601b60448201526064016102ed565b5f61041a60025490565b90505f826001600160a01b031663ba5e96be6040518163ffffffff1660e01b8152600401602060405180830381865afa158015610459573d5f803e3d5ffd5b505050506040513d601f19601f8201168201806040525081019061047d9190610d41565b90508082116104f057610490338561082c565b604051632a52d53f60e01b8152336004820152602481018590526001600160a01b03841690632a52d53f906044015f604051808303815f87803b1580156104d5575f80fd5b505af11580156104e7573d5f803e3d5ffd5b5050505061056f565b5f826104fc8387610d6c565b6105069190610d83565b9050610512338261082c565b604051632a52d53f60e01b8152336004820152602481018290526001600160a01b03851690632a52d53f906044015f604051808303815f87803b158015610557575f80fd5b505af1158015610569573d5f803e3d5ffd5b50505050505b50505061057c6001600655565b50565b610587610860565b600780546001600160a01b0319166001600160a01b0392909216919091179055565b6060600380546105b890610da2565b80601f01602080910402602001604051908101604052809291908181526020018280546105e490610da2565b801561062f5780601f106106065761010080835404028352916020019161062f565b820191905f5260205f20905b81548152906001019060200180831161061257829003601f168201915b5050505050905090565b5f3361064681858561088d565b60019150505b92915050565b5f3361065f85828561089f565b61066a85858561091b565b506001949350505050565b6007546001600160a01b031633146106c05760405162461bcd60e51b815260206004820152600e60248201526d139bdd08185d5d1a1bdc9a5e995960921b60448201526064016102ed565b6106ca8282610978565b5050565b6106d6610860565b6106df5f6109ac565b565b6060600480546105b890610da2565b6106f8610802565b6007546001600160a01b031633146107435760405162461bcd60e51b815260206004820152600e60248201526d139bdd08185d5d1a1bdc9a5e995960921b60448201526064016102ed565b80610762836001600160a01b03165f9081526020819052604090205490565b10156107a75760405162461bcd60e51b8152602060048201526014602482015273496e73756666696369656e742062616c616e636560601b60448201526064016102ed565b6107b1828261082c565b6106ca6001600655565b5f3361064681858561091b565b6107d0610860565b6001600160a01b0381166107f957604051631e4fbdf760e01b81525f60048201526024016102ed565b61057c816109ac565b60026006540361082557604051633ee5aeb560e01b815260040160405180910390fd5b6002600655565b6001600160a01b03821661085557604051634b637e8f60e11b81525f60048201526024016102ed565b6106ca825f836109fd565b6005546001600160a01b031633146106df5760405163118cdaa760e01b81523360048201526024016102ed565b61089a8383836001610b23565b505050565b6001600160a01b038381165f908152600160209081526040808320938616835292905220545f19811015610915578181101561090757604051637dc7a0d960e11b81526001600160a01b038416600482015260248101829052604481018390526064016102ed565b61091584848484035f610b23565b50505050565b6001600160a01b03831661094457604051634b637e8f60e11b81525f60048201526024016102ed565b6001600160a01b03821661096d5760405163ec442f0560e01b81525f60048201526024016102ed565b61089a8383836109fd565b6001600160a01b0382166109a15760405163ec442f0560e01b81525f60048201526024016102ed565b6106ca5f83836109fd565b600580546001600160a01b038381166001600160a01b0319831681179093556040519116919082907f8be0079c531659141344cd1fd0a4f28419497f9722a3daafe3b4186f6b6457e0905f90a35050565b6001600160a01b038316610a27578060025f828254610a1c9190610dda565b90915550610a979050565b6001600160a01b0383165f9081526020819052604090205481811015610a795760405163391434e360e21b81526001600160a01b038516600482015260248101829052604481018390526064016102ed565b6001600160a01b0384165f9081526020819052604090209082900390555b6001600160a01b038216610ab357600280548290039055610ad1565b6001600160a01b0382165f9081526020819052604090208054820190555b816001600160a01b0316836001600160a01b03167fddf252ad1be2c89b69c2b068fc378daa952ba7f163c4a11628f55a4df523b3ef83604051610b1691815260200190565b60405180910390a3505050565b6001600160a01b038416610b4c5760405163e602df0560e01b81525f60048201526024016102ed565b6001600160a01b038316610b7557604051634a1406b160e11b81525f60048201526024016102ed565b6001600160a01b038085165f908152600160209081526040808320938716835292905220829055801561091557826001600160a01b0316846001600160a01b03167f8c5be1e5ebec7d5bd14f71427d1e84f3dd0314c0f7b2291e5b200ac8c7c3b92584604051610be791815260200190565b60405180910390a350505050565b5f60208284031215610c05575f80fd5b5035919050565b80356001600160a01b0381168114610c22575f80fd5b919050565b5f60208284031215610c37575f80fd5b610c4082610c0c565b9392505050565b602081525f82518060208401528060208501604085015e5f604082850101526040601f19601f83011684010191505092915050565b5f8060408385031215610c8d575f80fd5b610c9683610c0c565b946020939093013593505050565b5f805f60608486031215610cb6575f80fd5b610cbf84610c0c565b9250610ccd60208501610c0c565b929592945050506040919091013590565b5f8060408385031215610cef575f80fd5b610cf883610c0c565b9150610d0660208401610c0c565b90509250929050565b634e487b7160e01b5f52602160045260245ffd5b5f60208284031215610d33575f80fd5b815160058110610c40575f80fd5b5f60208284031215610d51575f80fd5b5051919050565b634e487b7160e01b5f52601160045260245ffd5b808202811582820484141761064c5761064c610d58565b5f82610d9d57634e487b7160e01b5f52601260045260245ffd5b500490565b600181811c90821680610db657607f821691505b602082108103610dd457634e487b7160e01b5f52602260045260245ffd5b50919050565b8082018082111561064c5761064c610d5856fea26469706673582212209f20a39c5ecacaf0ded6d16b4b4f4c11ba078dfcce6e3032e4dab9e60008598d64736f6c634300081a0033","linkReferences":{}},"methodIdentifiers":{"allowance(address,address)":"dd62ed3e","approve(address,uint256)":"095ea7b3","auctionContract()":"0ab8afac","balanceOf(address)":"70a08231","burn(address,uint256)":"9dc29fac","decimals()":"313ce567","mintForOffer(address,uint256)":"2f479075","name()":"06fdde03","owner()":"8da5cb5b","redeemToken(uint256)":"013054c2","renounceOwnership()":"715018a6","setAuctionContract(address)":"023924c7","symbol()":"95d89b41","totalSupply()":"18160ddd","transfer(address,uint256)":"a9059cbb","transferFrom(address,address,uint256)":"23b872dd","transferOwnership(address)":"f2fde38b"},"id":1}