{"abi":[{"type":"constructor","inputs":[{"name":"_collatMgr","type":"address","internalType":"address"},{"name":"_auctionEngine","type":"address","internalType":"address"},{"name":"_maxBidAmount","type":"uint256","internalType":"uint256"},{"name":"_token","type":"address","internalType":"address"},{"name":"_minimumBidAmount","type":"uint256","internalType":"uint256"},{"name":"_maxNumBids","type":"uint256","internalType":"uint256"}],"stateMutability":"nonpayable"},{"type":"function","name":"auctionEngine","inputs":[],"outputs":[{"name":"","type":"address","internalType":"contract AuctionEngine"}],"stateMutability":"view"},{"type":"function","name":"bidSubmitted","inputs":[{"name":"","type":"address","internalType":"address"}],"outputs":[{"name":"","type":"uint256","internalType":"uint256"}],"stateMutability":"view"},{"type":"function","name":"bids","inputs":[{"name":"","type":"uint256","internalType":"uint256"}],"outputs":[{"name":"quantity","type":"uint256","internalType":"uint256"},{"name":"encryptedRate","type":"bytes","internalType":"bytes"},{"name":"submitter","type":"address","internalType":"address"}],"stateMutability":"view"},{"type":"function","name":"calculateEquivalentAmount","inputs":[{"name":"coveragePaid","type":"uint256","internalType":"uint256"},{"name":"collateralToken","type":"address","internalType":"address"},{"name":"feeRate","type":"uint256","internalType":"uint256"}],"outputs":[{"name":"netCollateral","type":"uint256","internalType":"uint256"},{"name":"feeCollateral","type":"uint256","internalType":"uint256"}],"stateMutability":"view"},{"type":"function","name":"checkMaintenanceRatio","inputs":[{"name":"bidder","type":"address","internalType":"address"},{"name":"assignedAmount","type":"uint256","internalType":"uint256"},{"name":"clearingRate","type":"uint256","internalType":"UD60x18"}],"outputs":[{"name":"","type":"bool","internalType":"bool"}],"stateMutability":"view"},{"type":"function","name":"collatMgr","inputs":[],"outputs":[{"name":"","type":"address","internalType":"contract CollateralManager"}],"stateMutability":"view"},{"type":"function","name":"collateralLocked","inputs":[{"name":"","type":"address","internalType":"address"}],"outputs":[{"name":"","type":"bool","internalType":"bool"}],"stateMutability":"view"},{"type":"function","name":"getBids","inputs":[],"outputs":[{"name":"","type":"tuple[]","internalType":"struct BidManager.EncryptedBid[]","components":[{"name":"quantity","type":"uint256","internalType":"uint256"},{"name":"encryptedRate","type":"bytes","internalType":"bytes"},{"name":"submitter","type":"address","internalType":"address"},{"name":"collateralTokens","type":"address[]","internalType":"address[]"}]}],"stateMutability":"view"},{"type":"function","name":"isInShortFall","inputs":[{"name":"borrower","type":"address","internalType":"address"},{"name":"owedAmountScaled","type":"uint256","internalType":"uint256"}],"outputs":[{"name":"","type":"bool","internalType":"bool"}],"stateMutability":"view"},{"type":"function","name":"maxBidAmount","inputs":[],"outputs":[{"name":"","type":"uint256","internalType":"uint256"}],"stateMutability":"view"},{"type":"function","name":"maxNumBids","inputs":[],"outputs":[{"name":"","type":"uint256","internalType":"uint256"}],"stateMutability":"view"},{"type":"function","name":"minimumBidAmount","inputs":[],"outputs":[{"name":"","type":"uint256","internalType":"uint256"}],"stateMutability":"view"},{"type":"function","name":"oracle","inputs":[],"outputs":[{"name":"","type":"address","internalType":"contract IOracle"}],"stateMutability":"view"},{"type":"function","name":"removeBid","inputs":[{"name":"collateralTokens","type":"address[]","internalType":"address[]"}],"outputs":[],"stateMutability":"nonpayable"},{"type":"function","name":"submitBid","inputs":[{"name":"bidAmount","type":"uint256","internalType":"uint256"},{"name":"encryptedRate","type":"bytes","internalType":"bytes"},{"name":"collateralTokens","type":"address[]","internalType":"address[]"},{"name":"collateralAmounts","type":"uint256[]","internalType":"uint256[]"},{"name":"baseToken","type":"address","internalType":"address"}],"outputs":[],"stateMutability":"nonpayable"},{"type":"function","name":"token","inputs":[],"outputs":[{"name":"","type":"address","internalType":"address"}],"stateMutability":"view"},{"type":"function","name":"transferCollateral","inputs":[{"name":"borrower","type":"address","internalType":"address"},{"name":"liquidator","type":"address","internalType":"address"},{"name":"collateralToken","type":"address","internalType":"address"},{"name":"amount","type":"uint256","internalType":"uint256"},{"name":"fee","type":"uint256","internalType":"uint256"}],"outputs":[],"stateMutability":"nonpayable"},{"type":"function","name":"unlockAllBids","inputs":[],"outputs":[],"stateMutability":"nonpayable"},{"type":"function","name":"unlockCollateral","inputs":[{"name":"borrower","type":"address","internalType":"address"}],"outputs":[],"stateMutability":"nonpayable"},{"type":"event","name":"BidCollateralUnlocked","inputs":[{"name":"bidder","type":"address","indexed":true,"internalType":"address"},{"name":"collateralToken","type":"address","indexed":false,"internalType":"address"},{"name":"amount","type":"uint256","indexed":false,"internalType":"uint256"}],"anonymous":false},{"type":"event","name":"BidCreated","inputs":[{"name":"submitter","type":"address","indexed":true,"internalType":"address"},{"name":"quantity","type":"uint256","indexed":false,"internalType":"uint256"}],"anonymous":false},{"type":"error","name":"ReentrancyGuardReentrantCall","inputs":[]}],"bytecode":{"object":"0x608060405234801561000f575f80fd5b5060405161402938038061402983398101604081905261002e916102ab565b60015f556001600160a01b03861661007c5760405162461bcd60e51b815260206004820152600c60248201526b5a65726f206164647265737360a01b60448201526064015b60405180910390fd5b6001600160a01b0385166100d25760405162461bcd60e51b815260206004820152601f60248201527f5a65726f206164647265737320666f722061756374696f6e20656e67696e65006044820152606401610073565b5f84116101215760405162461bcd60e51b815260206004820152601660248201527f496e76616c6964206d61782062696420616d6f756e74000000000000000000006044820152606401610073565b8184116101705760405162461bcd60e51b815260206004820152601660248201527f496e76616c6964206d696e2062696420616d6f756e74000000000000000000006044820152606401610073565b6001600160a01b0383166101c65760405162461bcd60e51b815260206004820152601660248201527f5a65726f206164647265737320666f7220746f6b656e000000000000000000006044820152606401610073565b600580546001600160a01b038089166001600160a01b031992831681179093556006805491891691909216179055604080516307dc0d1d60e41b81529051637dc0d1d0916004808201926020929091908290030181865afa15801561022d573d5f803e3d5ffd5b505050506040513d601f19601f820116820180604052508101906102519190610310565b600780546001600160a01b03199081166001600160a01b0393841617909155600895909555600a8054909516931692909217909255600b55600955506103329050565b6001600160a01b03811681146102a8575f80fd5b50565b5f805f805f8060c087890312156102c0575f80fd5b86516102cb81610294565b60208801519096506102dc81610294565b6040880151606089015191965094506102f481610294565b608088015160a090980151969995985093969395939492505050565b5f60208284031215610320575f80fd5b815161032b81610294565b9392505050565b613cea8061033f5f395ff3fe608060405234801561000f575f80fd5b506004361061011c575f3560e01c80634c9981f6116100a95780637dc0d1d01161006e5780637dc0d1d0146102925780638a70e154146102a5578063b81c78ec146102ae578063fc0c546a146102c3578063fd696262146102d6575f80fd5b80634c9981f61461022857806368a78f981461023157806374dc3cbb146102445780637a0d1aca146102575780637c8c237d1461026a575f80fd5b80632fb665fe116100ef5780632fb665fe146101a85780633f001fd9146101bd5780634423c5f1146101d057806344b8f8ed146101f2578063493997291461021f575f80fd5b80630c8ffe461461012057806317cc0d75146101485780631fb321411461017357806324a045ca14610186575b5f80fd5b61013361012e3660046133f7565b6102de565b60405190151581526020015b60405180910390f35b60055461015b906001600160a01b031681565b6040516001600160a01b03909116815260200161013f565b60065461015b906001600160a01b031681565b610133610194366004613421565b60036020525f908152604090205460ff1681565b6101bb6101b636600461343c565b61077b565b005b6101bb6101cb366004613421565b610afa565b6101e36101de366004613493565b610fb9565b60405161013f939291906134d8565b610211610200366004613421565b60026020525f908152604090205481565b60405190815260200161013f565b61021160095481565b61021160085481565b61013361023f366004613508565b611069565b6101bb610252366004613582565b611502565b6101bb610265366004613669565b611fd3565b61027d6102783660046136a8565b612463565b6040805192835260208301919091520161013f565b60075461015b906001600160a01b031681565b610211600b5481565b6102b6612715565b60405161013f91906136dd565b600a5461015b906001600160a01b031681565b6101bb612919565b6001600160a01b0382165f9081526002602052604081205461033a5760405162461bcd60e51b815260206004820152601060248201526f139bc8189a59081cdd589b5a5d1d195960821b60448201526064015b60405180910390fd5b600754600a546040805163313ce56760e01b815290515f936001600160a01b039081169362279d4e93911691670de0b6b3a764000091839163313ce567916004808201926020929091908290030181865afa15801561039b573d5f803e3d5ffd5b505050506040513d601f19601f820116820180604052508101906103bf91906137b8565b6103ca90600a6138cf565b6103d490886138dd565b6103de91906138f4565b6040518363ffffffff1660e01b81526004016103fb929190613913565b602060405180830381865afa158015610416573d5f803e3d5ffd5b505050506040513d601f19601f8201168201806040525081019061043a919061392c565b6001600160a01b0385165f908152600260205260408120549192509081906001908290610468908390613943565b81526020019081526020015f206003018054806020026020016040519081016040528092919081815260200182805480156104ca57602002820191905f5260205f20905b81546001600160a01b031681526001909101906020018083116104ac575b505050505090505f5b815181101561076f5760075482515f916001600160a01b03169062279d4e9085908590811061050457610504613956565b602002602001015185858151811061051e5761051e613956565b60200260200101516001600160a01b031663313ce5676040518163ffffffff1660e01b8152600401602060405180830381865afa158015610561573d5f803e3d5ffd5b505050506040513d601f19601f8201168201806040525081019061058591906137b8565b61059090600a6138cf565b60055487516001600160a01b0390911690635c2549ee908e908a908a9081106105bb576105bb613956565b60200260200101516040518363ffffffff1660e01b81526004016105f59291906001600160a01b0392831681529116602082015260400190565b602060405180830381865afa158015610610573d5f803e3d5ffd5b505050506040513d601f19601f82011682018060405250810190610634919061392c565b61063e91906138dd565b6040518363ffffffff1660e01b815260040161065b929190613913565b602060405180830381865afa158015610676573d5f803e3d5ffd5b505050506040513d601f19601f8201168201806040525081019061069a919061392c565b60055484519192505f916001600160a01b0390911690638b70c70f908690869081106106c8576106c8613956565b60200260200101516040518263ffffffff1660e01b81526004016106fb91906001600160a01b0391909116815260200190565b602060405180830381865afa158015610716573d5f803e3d5ffd5b505050506040513d601f19601f8201168201806040525081019061073a919061392c565b9050805f0361074a575050610767565b5f61075582846138f4565b9050610761818761396a565b95505050505b6001016104d3565b50501090505b92915050565b6006546001600160a01b031633146107a55760405162461bcd60e51b81526004016103319061397d565b6107ad612da9565b60065f9054906101000a90046001600160a01b03166001600160a01b0316635c975abb6040518163ffffffff1660e01b8152600401602060405180830381865afa1580156107fd573d5f803e3d5ffd5b505050506040513d601f19601f8201168201806040525081019061082191906139a9565b1561083e5760405162461bcd60e51b8152600401610331906139c8565b6005546040516306cbcdb960e51b81526001600160a01b0385811660048301529091169063d979b72090602401602060405180830381865afa158015610886573d5f803e3d5ffd5b505050506040513d601f19601f820116820180604052508101906108aa91906139a9565b6108eb5760405162461bcd60e51b8152602060048201526012602482015271125b9d985b1a590818dbdb1b185d195c985b60721b6044820152606401610331565b5f821161092b5760405162461bcd60e51b815260206004820152600e60248201526d125b9d985b1a5908185b5bdd5b9d60921b6044820152606401610331565b8181111561097b5760405162461bcd60e51b815260206004820152601d60248201527f466565206578636565647320636f6c6c61746572616c20616d6f756e740000006044820152606401610331565b6005546001600160a01b031663f18d03cc8686866109998688613943565b6040516001600160e01b031960e087901b1681526001600160a01b03948516600482015292841660248401529216604482015260648101919091526084015f604051808303815f87803b1580156109ee575f80fd5b505af1158015610a00573d5f803e3d5ffd5b5050600554600654604080516302d05d3f60e01b815290516001600160a01b03938416955063f18d03cc94508a93909216916302d05d3f916004808201926020929091908290030181865afa158015610a5b573d5f803e3d5ffd5b505050506040513d601f19601f82011682018060405250810190610a7f91906139fb565b6040516001600160e01b031960e085901b1681526001600160a01b03928316600482015290821660248201529086166044820152606481018490526084015f604051808303815f87803b158015610ad4575f80fd5b505af1158015610ae6573d5f803e3d5ffd5b50505050610af360015f55565b5050505050565b6006546001600160a01b03163314610b245760405162461bcd60e51b81526004016103319061397d565b610b2c612da9565b60065f9054906101000a90046001600160a01b03166001600160a01b0316635c975abb6040518163ffffffff1660e01b8152600401602060405180830381865afa158015610b7c573d5f803e3d5ffd5b505050506040513d601f19601f82011682018060405250810190610ba091906139a9565b15610bbd5760405162461bcd60e51b8152600401610331906139c8565b6001600160a01b0381165f9081526003602052604090205460ff16610c1b5760405162461bcd60e51b8152602060048201526014602482015273139bc81b1bd8dad9590818dbdb1b185d195c985b60621b6044820152606401610331565b6001600160a01b0381165f9081526002602052604081205490600181610c418285613943565b81526020019081526020015f206040518060800160405290815f8201548152602001600182018054610c7290613a16565b80601f0160208091040260200160405190810160405280929190818152602001828054610c9e90613a16565b8015610ce95780601f10610cc057610100808354040283529160200191610ce9565b820191905f5260205f20905b815481529060010190602001808311610ccc57829003601f168201915b505050918352505060028201546001600160a01b03166020808301919091526003830180546040805182850281018501825282815294019392830182828015610d5957602002820191905f5260205f20905b81546001600160a01b03168152600190910190602001808311610d3b575b50505050508152505090505f5b816060015151811015610f0f57600554606083015180515f926001600160a01b031691633419d6ef9188919086908110610da257610da2613956565b60200260200101516040518363ffffffff1660e01b8152600401610ddc9291906001600160a01b0392831681529116602082015260400190565b602060405180830381865afa158015610df7573d5f803e3d5ffd5b505050506040513d601f19601f82011682018060405250810190610e1b919061392c565b90508015610f0657600554606084015180516001600160a01b03909216916359508f8f91889186908110610e5157610e51613956565b6020026020010151846040518463ffffffff1660e01b8152600401610e7893929190613a4e565b5f604051808303815f87803b158015610e8f575f80fd5b505af1158015610ea1573d5f803e3d5ffd5b50505050846001600160a01b03167fada6ecc2efcee2260ecda786d52ce36d8730a774aeac7cbdca7212296857b20284606001518481518110610ee657610ee6613956565b602002602001015183604051610efd929190613913565b60405180910390a25b50600101610d66565b506001600160a01b0383165f908152600360205260408120805460ff19169055600190610f3c8285613943565b815260208101919091526040015f90812081815590610f5e600183018261330a565b6002820180546001600160a01b0319169055610f7d600383015f613341565b5050600c8054905f610f8e83613a72565b9091555050506001600160a01b0382165f9081526002602052604081205550610fb660015f55565b50565b600160208190525f918252604090912080549181018054610fd990613a16565b80601f016020809104026020016040519081016040528092919081815260200182805461100590613a16565b80156110505780601f1061102757610100808354040283529160200191611050565b820191905f5260205f20905b81548152906001019060200180831161103357829003601f168201915b505050600290930154919250506001600160a01b031683565b5f825f03611079575060016114fb565b5f61108c83670de0b6b3a764000061396a565b90505f670de0b6b3a76400006110a283876138dd565b6110ac91906138f4565b600754600a546040805163313ce56760e01b815290519394505f936001600160a01b039384169362279d4e931691829163313ce567916004808201926020929091908290030181865afa158015611105573d5f803e3d5ffd5b505050506040513d601f19601f8201168201806040525081019061112991906137b8565b61113490600a6138cf565b61113e90866138dd565b6040518363ffffffff1660e01b815260040161115b929190613913565b602060405180830381865afa158015611176573d5f803e3d5ffd5b505050506040513d601f19601f8201168201806040525081019061119a919061392c565b90505f60055f9054906101000a90046001600160a01b03166001600160a01b031663b72a7e2e6040518163ffffffff1660e01b81526004015f60405180830381865afa1580156111ec573d5f803e3d5ffd5b505050506040513d5f823e601f3d908101601f191682016040526112139190810190613a9b565b90505f805b82518110156114ef5760055483515f916001600160a01b031690635c2549ee908d9087908690811061124c5761124c613956565b60200260200101516040518363ffffffff1660e01b81526004016112869291906001600160a01b0392831681529116602082015260400190565b602060405180830381865afa1580156112a1573d5f803e3d5ffd5b505050506040513d601f19601f820116820180604052508101906112c5919061392c565b9050805f036112d457506114e7565b60055484515f916001600160a01b031690638b70c70f908790869081106112fd576112fd613956565b60200260200101516040518263ffffffff1660e01b815260040161133091906001600160a01b0391909116815260200190565b602060405180830381865afa15801561134b573d5f803e3d5ffd5b505050506040513d601f19601f8201168201806040525081019061136f919061392c565b90505f81116113ad5760405162461bcd60e51b815260206004820152600a6024820152695a65726f20726174696f60b01b6044820152606401610331565b60075485515f916001600160a01b03169062279d4e908890879081106113d5576113d5613956565b60200260200101518887815181106113ef576113ef613956565b60200260200101516001600160a01b031663313ce5676040518163ffffffff1660e01b8152600401602060405180830381865afa158015611432573d5f803e3d5ffd5b505050506040513d601f19601f8201168201806040525081019061145691906137b8565b61146190600a6138cf565b61146b90876138dd565b6040518363ffffffff1660e01b8152600401611488929190613913565b602060405180830381865afa1580156114a3573d5f803e3d5ffd5b505050506040513d601f19601f820116820180604052508101906114c7919061392c565b90505f6114d483836138f4565b90506114e0818761396a565b9550505050505b600101611218565b50919091101593505050505b9392505050565b61150a612da9565b60065f9054906101000a90046001600160a01b03166001600160a01b0316635c975abb6040518163ffffffff1660e01b8152600401602060405180830381865afa15801561155a573d5f803e3d5ffd5b505050506040513d601f19601f8201168201806040525081019061157e91906139a9565b1561159b5760405162461bcd60e51b8152600401610331906139c8565b600a546001600160a01b038281169116146115e85760405162461bcd60e51b815260206004820152600d60248201526c24b73b30b634b2103a37b5b2b760991b6044820152606401610331565b8382146116375760405162461bcd60e51b815260206004820152601860248201527f4d69736d61746368656420696e707574206c656e6774687300000000000000006044820152606401610331565b5f5b8481101561170d575f61164d82600161396a565b90505b858110156117045786868281811061166a5761166a613956565b905060200201602081019061167f9190613421565b6001600160a01b031687878481811061169a5761169a613956565b90506020020160208101906116af9190613421565b6001600160a01b0316036116fc5760405162461bcd60e51b8152602060048201526014602482015273111d5c1b1a58d85d194818dbdb1b185d195c985b60621b6044820152606401610331565b600101611650565b50600101611639565b506006546040805163fc519f1560e01b815290515f926001600160a01b03169163fc519f159160048083019260209291908290030181865afa158015611755573d5f803e3d5ffd5b505050506040513d601f19601f820116820180604052508101906117799190613b7a565b600281111561178a5761178a613b66565b146117d75760405162461bcd60e51b815260206004820152601a60248201527f41756374696f6e206e6f7420616363657074696e6720626964730000000000006044820152606401610331565b5f881180156117e857506008548811155b6118295760405162461bcd60e51b8152602060048201526012602482015271125b9d985b1a5908189a5908185b5bdd5b9d60721b6044820152606401610331565b60095488101561187b5760405162461bcd60e51b815260206004820152601860248201527f42696420616d6f756e742062656c6f77206d696e696d756d00000000000000006044820152606401610331565b60065f9054906101000a90046001600160a01b03166001600160a01b031663dd58302e6040518163ffffffff1660e01b8152600401602060405180830381865afa1580156118cb573d5f803e3d5ffd5b505050506040513d601f19601f820116820180604052508101906118ef91906139a9565b156119305760405162461bcd60e51b8152602060048201526011602482015270105d58dd1a5bdb8818d85b98d95b1b1959607a1b6044820152606401610331565b61193d8886868686612dd1565b156119815760405162461bcd60e51b8152602060048201526014602482015273125b881a5b9a5d1a585b081cda1bdc9d19985b1b60621b6044820152606401610331565b335f9081526002602052604090205480158015611c3257600b54600c546119a990600161396a565b11156119ea5760405162461bcd60e51b815260206004820152601060248201526f13585e08189a591cc81c995858da195960821b6044820152606401610331565b5f5b86811015611a9d576005546001600160a01b0316637750c9f0338a8a85818110611a1857611a18613956565b9050602002016020810190611a2d9190613421565b898986818110611a3f57611a3f613956565b905060200201356040518463ffffffff1660e01b8152600401611a6493929190613a4e565b5f604051808303815f87803b158015611a7b575f80fd5b505af1158015611a8d573d5f803e3d5ffd5b5050600190920191506119ec9050565b5060405180608001604052808b81526020018a8a8080601f0160208091040260200160405190810160405280939291908181526020018383808284375f9201919091525050509082525033602080830191909152604080518a8302818101840183528b82529190930192918b918b918291908501908490808284375f92018290525093909452505060045481526001602081815260409092208451815591840151919250820190611b4e9082613be1565b5060408201516002820180546001600160a01b0319166001600160a01b0390921691909117905560608201518051611b9091600384019160209091019061335c565b5050600454611ba19150600161396a565b335f908152600260205260408120919091556004805491611bc183613c9c565b9091555050600c8054905f611bd583613c9c565b9091555050335f8181526003602052604090819020805460ff19166001179055517fff2d32ce56b0b5d23a2d2e0fa74261ef152c762e716daa7e6eb1cc0fafa0a4e890611c25908d815260200190565b60405180910390a2611fbe565b5f5b86811015611e85576005545f906001600160a01b0316633419d6ef338b8b86818110611c6257611c62613956565b9050602002016020810190611c779190613421565b6040516001600160e01b031960e085901b1681526001600160a01b03928316600482015291166024820152604401602060405180830381865afa158015611cc0573d5f803e3d5ffd5b505050506040513d601f19601f82011682018060405250810190611ce4919061392c565b905080878784818110611cf957611cf9613956565b905060200201351115611db3576005546001600160a01b0316637750c9f0338b8b86818110611d2a57611d2a613956565b9050602002016020810190611d3f9190613421565b848b8b88818110611d5257611d52613956565b90506020020135611d639190613943565b6040518463ffffffff1660e01b8152600401611d8193929190613a4e565b5f604051808303815f87803b158015611d98575f80fd5b505af1158015611daa573d5f803e3d5ffd5b50505050611e7c565b868683818110611dc557611dc5613956565b90506020020135811115611e7c576005546001600160a01b03166359508f8f338b8b86818110611df757611df7613956565b9050602002016020810190611e0c9190613421565b8a8a87818110611e1e57611e1e613956565b9050602002013585611e309190613943565b6040518463ffffffff1660e01b8152600401611e4e93929190613a4e565b5f604051808303815f87803b158015611e65575f80fd5b505af1158015611e77573d5f803e3d5ffd5b505050505b50600101611c34565b5060405180608001604052808b81526020018a8a8080601f0160208091040260200160405190810160405280939291908181526020018383808284375f9201919091525050509082525033602080830191909152604080518a8302818101840183528b82529190930192918b918b918291908501908490808284375f920182905250939094525060019250611f1c90508286613943565b81526020808201929092526040015f2082518155908201516001820190611f439082613be1565b5060408201516002820180546001600160a01b0319166001600160a01b0390921691909117905560608201518051611f8591600384019160209091019061335c565b50506040518b81523391507fff2d32ce56b0b5d23a2d2e0fa74261ef152c762e716daa7e6eb1cc0fafa0a4e89060200160405180910390a25b5050611fc960015f55565b5050505050505050565b611fdb612da9565b60065f9054906101000a90046001600160a01b03166001600160a01b0316635c975abb6040518163ffffffff1660e01b8152600401602060405180830381865afa15801561202b573d5f803e3d5ffd5b505050506040513d601f19601f8201168201806040525081019061204f91906139a9565b1561206c5760405162461bcd60e51b8152600401610331906139c8565b60065f9054906101000a90046001600160a01b03166001600160a01b031663dd58302e6040518163ffffffff1660e01b8152600401602060405180830381865afa1580156120bc573d5f803e3d5ffd5b505050506040513d601f19601f820116820180604052508101906120e091906139a9565b156121215760405162461bcd60e51b8152602060048201526011602482015270105d58dd1a5bdb8818d85b98d95b1b1959607a1b6044820152606401610331565b335f90815260026020526040902054806121705760405162461bcd60e51b815260206004820152601060248201526f139bc8189a59081cdd589b5a5d1d195960821b6044820152606401610331565b6006546040805163fc519f1560e01b815290515f926001600160a01b03169163fc519f159160048083019260209291908290030181865afa1580156121b7573d5f803e3d5ffd5b505050506040513d601f19601f820116820180604052508101906121db9190613b7a565b60028111156121ec576121ec613b66565b1461222d5760405162461bcd60e51b815260206004820152601160248201527010d85b9b9bdd081c995b5bdd9948189a59607a1b6044820152606401610331565b335f9081526003602052604090205460ff166122825760405162461bcd60e51b8152602060048201526014602482015273139bc81b1bd8dad9590818dbdb1b185d195c985b60621b6044820152606401610331565b5f5b828110156123cb576005545f906001600160a01b0316633419d6ef338787868181106122b2576122b2613956565b90506020020160208101906122c79190613421565b6040516001600160e01b031960e085901b1681526001600160a01b03928316600482015291166024820152604401602060405180830381865afa158015612310573d5f803e3d5ffd5b505050506040513d601f19601f82011682018060405250810190612334919061392c565b905080156123c2576005546001600160a01b03166359508f8f3387878681811061236057612360613956565b90506020020160208101906123759190613421565b846040518463ffffffff1660e01b815260040161239493929190613a4e565b5f604051808303815f87803b1580156123ab575f80fd5b505af11580156123bd573d5f803e3d5ffd5b505050505b50600101612284565b50335f908152600360205260408120805460ff191690556001906123ef8284613943565b815260208101919091526040015f90812081815590612411600183018261330a565b6002820180546001600160a01b0319169055612430600383015f613341565b5050600c8054905f61244183613a72565b9091555050335f908152600260205260408120555061245f60015f55565b5050565b5f805f600a5f9054906101000a90046001600160a01b03166001600160a01b031663313ce5676040518163ffffffff1660e01b8152600401602060405180830381865afa1580156124b6573d5f803e3d5ffd5b505050506040513d601f19601f820116820180604052508101906124da91906137b8565b6124e590600a6138cf565b6124ef90876138dd565b600754600a546040516213cea760e11b81529293505f926001600160a01b039283169262279d4e92612528929116908690600401613913565b602060405180830381865afa158015612543573d5f803e3d5ffd5b505050506040513d601f19601f82011682018060405250810190612567919061392c565b90505f60075f9054906101000a90046001600160a01b03166001600160a01b031662279d4e88896001600160a01b031663313ce5676040518163ffffffff1660e01b8152600401602060405180830381865afa1580156125c9573d5f803e3d5ffd5b505050506040513d601f19601f820116820180604052508101906125ed91906137b8565b6125f890600a6138cf565b6040518363ffffffff1660e01b8152600401612615929190613913565b602060405180830381865afa158015612630573d5f803e3d5ffd5b505050506040513d601f19601f82011682018060405250810190612654919061392c565b90505f81116126a05760405162461bcd60e51b8152602060048201526018602482015277496e76616c696420636f6c6c61746572616c20707269636560401b6044820152606401610331565b5f816126b484670de0b6b3a76400006138dd565b6126be91906138f4565b90505f670de0b6b3a76400006126d489846138dd565b6126de91906138f4565b90506126f2670de0b6b3a7640000836138f4565b9650612706670de0b6b3a7640000826138f4565b95505050505050935093915050565b60605f600c5467ffffffffffffffff81111561273357612733613a87565b60405190808252806020026020018201604052801561279657816020015b61278360405180608001604052805f8152602001606081526020015f6001600160a01b03168152602001606081525090565b8152602001906001900390816127515790505b5090505f805b600454811015612911575f818152600160205260409020600201546001600160a01b031615612909575f81815260016020818152604092839020835160808101909452805484529182018054918401916127f590613a16565b80601f016020809104026020016040519081016040528092919081815260200182805461282190613a16565b801561286c5780601f106128435761010080835404028352916020019161286c565b820191905f5260205f20905b81548152906001019060200180831161284f57829003601f168201915b505050918352505060028201546001600160a01b031660208083019190915260038301805460408051828502810185018252828152940193928301828280156128dc57602002820191905f5260205f20905b81546001600160a01b031681526001909101906020018083116128be575b5050505050815250508383815181106128f7576128f7613956565b60200260200101819052508160010191505b60010161279c565b509092915050565b6006546001600160a01b031633146129435760405162461bcd60e51b81526004016103319061397d565b61294b612da9565b60065f9054906101000a90046001600160a01b03166001600160a01b0316635c975abb6040518163ffffffff1660e01b8152600401602060405180830381865afa15801561299b573d5f803e3d5ffd5b505050506040513d601f19601f820116820180604052508101906129bf91906139a9565b156129dc5760405162461bcd60e51b8152600401610331906139c8565b5f5b600454811015612d9d575f818152600160208181526040808420815160808101909252805482529283018054919392840191612a1990613a16565b80601f0160208091040260200160405190810160405280929190818152602001828054612a4590613a16565b8015612a905780601f10612a6757610100808354040283529160200191612a90565b820191905f5260205f20905b815481529060010190602001808311612a7357829003601f168201915b505050918352505060028201546001600160a01b03166020808301919091526003830180546040805182850281018501825282815294019392830182828015612b0057602002820191905f5260205f20905b81546001600160a01b03168152600190910190602001808311612ae2575b5050509190925250505060408101519091506001600160a01b031615612d94575f5b816060015151811015612cd8576005546040830151606084015180515f936001600160a01b031692633419d6ef92909186908110612b6257612b62613956565b60200260200101516040518363ffffffff1660e01b8152600401612b9c9291906001600160a01b0392831681529116602082015260400190565b602060405180830381865afa158015612bb7573d5f803e3d5ffd5b505050506040513d601f19601f82011682018060405250810190612bdb919061392c565b90508015612ccf576005546040840151606085015180516001600160a01b03909316926359508f8f92919086908110612c1657612c16613956565b6020026020010151846040518463ffffffff1660e01b8152600401612c3d93929190613a4e565b5f604051808303815f87803b158015612c54575f80fd5b505af1158015612c66573d5f803e3d5ffd5b5050505082604001516001600160a01b03167fada6ecc2efcee2260ecda786d52ce36d8730a774aeac7cbdca7212296857b20284606001518481518110612caf57612caf613956565b602002602001015183604051612cc6929190613913565b60405180910390a25b50600101612b22565b50604080820180516001600160a01b039081165f90815260036020908152848220805460ff191690559251909116815260029091529081205460019190612d20908390613943565b815260208101919091526040015f90812081815590612d42600183018261330a565b6002820180546001600160a01b0319169055612d61600383015f613341565b5050600c8054905f612d7283613a72565b90915550506040808201516001600160a01b03165f9081526002602052908120555b506001016129de565b50612da760015f55565b565b60025f5403612dcb57604051633ee5aeb560e01b815260040160405180910390fd5b60025f55565b5f80600a5f9054906101000a90046001600160a01b03166001600160a01b031663313ce5676040518163ffffffff1660e01b8152600401602060405180830381865afa158015612e23573d5f803e3d5ffd5b505050506040513d601f19601f82011682018060405250810190612e4791906137b8565b612e5290600a6138cf565b612e5c90886138dd565b600754600a546040516213cea760e11b81529293505f926001600160a01b039283169262279d4e92612e95929116908690600401613913565b602060405180830381865afa158015612eb0573d5f803e3d5ffd5b505050506040513d601f19601f82011682018060405250810190612ed4919061392c565b90505f8111612f195760405162461bcd60e51b8152602060048201526011602482015270496e76616c69642062696420707269636560781b6044820152606401610331565b5f805b8781101561300b576005546001600160a01b031663d979b7208a8a84818110612f4757612f47613956565b9050602002016020810190612f5c9190613421565b6040516001600160e01b031960e084901b1681526001600160a01b039091166004820152602401602060405180830381865afa158015612f9e573d5f803e3d5ffd5b505050506040513d601f19601f82011682018060405250810190612fc291906139a9565b6130035760405162461bcd60e51b8152602060048201526012602482015271125b9d985b1a590818dbdb1b185d195c985b60721b6044820152606401610331565b600101612f1c565b505f5b878110156132ea5786868281811061302857613028613956565b905060200201355f03156132e2576005545f906001600160a01b0316632a1e8cdb8b8b8581811061305b5761305b613956565b90506020020160208101906130709190613421565b6040516001600160e01b031960e084901b1681526001600160a01b039091166004820152602401602060405180830381865afa1580156130b2573d5f803e3d5ffd5b505050506040513d601f19601f820116820180604052508101906130d6919061392c565b90505f81116131175760405162461bcd60e51b815260206004820152600d60248201526c526174696f206973207a65726f60981b6044820152606401610331565b5f8a8a8481811061312a5761312a613956565b905060200201602081019061313f9190613421565b6001600160a01b031663313ce5676040518163ffffffff1660e01b8152600401602060405180830381865afa15801561317a573d5f803e3d5ffd5b505050506040513d601f19601f8201168201806040525081019061319e91906137b8565b6131a990600a6138cf565b8989858181106131bb576131bb613956565b905060200201356131cc91906138dd565b6007549091505f906001600160a01b031662279d4e8d8d878181106131f3576131f3613956565b90506020020160208101906132089190613421565b846040518363ffffffff1660e01b8152600401613226929190613913565b602060405180830381865afa158015613241573d5f803e3d5ffd5b505050506040513d601f19601f82011682018060405250810190613265919061392c565b90505f81116132b15760405162461bcd60e51b8152602060048201526018602482015277496e76616c696420636f6c6c61746572616c20707269636560401b6044820152606401610331565b5f836132c583670de0b6b3a76400006138dd565b6132cf91906138f4565b90506132db818761396a565b9550505050505b60010161300e565b506132fd82670de0b6b3a76400006138dd565b1198975050505050505050565b50805461331690613a16565b5f825580601f10613325575050565b601f0160209004905f5260205f2090810190610fb691906133bf565b5080545f8255905f5260205f2090810190610fb691906133bf565b828054828255905f5260205f209081019282156133af579160200282015b828111156133af57825182546001600160a01b0319166001600160a01b0390911617825560209092019160019091019061337a565b506133bb9291506133bf565b5090565b5b808211156133bb575f81556001016133c0565b6001600160a01b0381168114610fb6575f80fd5b80356133f2816133d3565b919050565b5f8060408385031215613408575f80fd5b8235613413816133d3565b946020939093013593505050565b5f60208284031215613431575f80fd5b81356114fb816133d3565b5f805f805f60a08688031215613450575f80fd5b853561345b816133d3565b9450602086013561346b816133d3565b9350604086013561347b816133d3565b94979396509394606081013594506080013592915050565b5f602082840312156134a3575f80fd5b5035919050565b5f81518084528060208401602086015e5f602082860101526020601f19601f83011685010191505092915050565b838152606060208201525f6134f060608301856134aa565b905060018060a01b0383166040830152949350505050565b5f805f6060848603121561351a575f80fd5b8335613525816133d3565b95602085013595506040909401359392505050565b5f8083601f84011261354a575f80fd5b50813567ffffffffffffffff811115613561575f80fd5b6020830191508360208260051b850101111561357b575f80fd5b9250929050565b5f805f805f805f8060a0898b031215613599575f80fd5b88359750602089013567ffffffffffffffff8111156135b6575f80fd5b8901601f81018b136135c6575f80fd5b803567ffffffffffffffff8111156135dc575f80fd5b8b60208284010111156135ed575f80fd5b60209190910197509550604089013567ffffffffffffffff811115613610575f80fd5b61361c8b828c0161353a565b909650945050606089013567ffffffffffffffff81111561363b575f80fd5b6136478b828c0161353a565b909450925061365a905060808a016133e7565b90509295985092959890939650565b5f806020838503121561367a575f80fd5b823567ffffffffffffffff811115613690575f80fd5b61369c8582860161353a565b90969095509350505050565b5f805f606084860312156136ba575f80fd5b8335925060208401356136cc816133d3565b929592945050506040919091013590565b5f602082016020835280845180835260408501915060408160051b8601019250602086015f5b828110156137ac57603f1987860301845281518051865260208101516080602088015261373360808801826134aa565b6040838101516001600160a01b0316908901526060928301518882039389019390935282518082526020938401935f9350909101905b808310156137945783516001600160a01b031682526020938401936001939093019290910190613769565b50965050506020938401939190910190600101613703565b50929695505050505050565b5f602082840312156137c8575f80fd5b815160ff811681146114fb575f80fd5b634e487b7160e01b5f52601160045260245ffd5b6001815b60018411156138275780850481111561380b5761380b6137d8565b600184161561381957908102905b60019390931c9280026137f0565b935093915050565b5f8261383d57506001610775565b8161384957505f610775565b816001811461385f576002811461386957613885565b6001915050610775565b60ff84111561387a5761387a6137d8565b50506001821b610775565b5060208310610133831016604e8410600b84101617156138a8575081810a610775565b6138b45f1984846137ec565b805f19048211156138c7576138c76137d8565b029392505050565b5f6114fb60ff84168361382f565b8082028115828204841417610775576107756137d8565b5f8261390e57634e487b7160e01b5f52601260045260245ffd5b500490565b6001600160a01b03929092168252602082015260400190565b5f6020828403121561393c575f80fd5b5051919050565b81810381811115610775576107756137d8565b634e487b7160e01b5f52603260045260245ffd5b80820180821115610775576107756137d8565b6020808252601290820152714e6f742061756374696f6e20656e67696e6560701b604082015260600190565b5f602082840312156139b9575f80fd5b815180151581146114fb575f80fd5b6020808252600e908201526d105d58dd1a5bdb881c185d5cd95960921b604082015260600190565b80516133f2816133d3565b5f60208284031215613a0b575f80fd5b81516114fb816133d3565b600181811c90821680613a2a57607f821691505b602082108103613a4857634e487b7160e01b5f52602260045260245ffd5b50919050565b6001600160a01b039384168152919092166020820152604081019190915260600190565b5f81613a8057613a806137d8565b505f190190565b634e487b7160e01b5f52604160045260245ffd5b5f60208284031215613aab575f80fd5b815167ffffffffffffffff811115613ac1575f80fd5b8201601f81018413613ad1575f80fd5b805167ffffffffffffffff811115613aeb57613aeb613a87565b8060051b604051601f19603f830116810181811067ffffffffffffffff82111715613b1857613b18613a87565b604052918252602081840181019290810187841115613b35575f80fd5b6020850194505b83851015613b5b57613b4d856139f0565b815260209485019401613b3c565b509695505050505050565b634e487b7160e01b5f52602160045260245ffd5b5f60208284031215613b8a575f80fd5b8151600381106114fb575f80fd5b601f821115613bdc57805f5260205f20601f840160051c81016020851015613bbd5750805b601f840160051c820191505b81811015610af3575f8155600101613bc9565b505050565b815167ffffffffffffffff811115613bfb57613bfb613a87565b613c0f81613c098454613a16565b84613b98565b6020601f821160018114613c41575f8315613c2a5750848201515b5f19600385901b1c1916600184901b178455610af3565b5f84815260208120601f198516915b82811015613c705787850151825560209485019460019092019101613c50565b5084821015613c8d57868401515f19600387901b60f8161c191681555b50505050600190811b01905550565b5f60018201613cad57613cad6137d8565b506001019056fea2646970667358221220197b76d93c313e1dba582b3ed0e86d7178bd3f0c6649fce792ea5b6ba969c2c864736f6c634300081a0033","linkReferences":{}},"methodIdentifiers":{"auctionEngine()":"1fb32141","bidSubmitted(address)":"44b8f8ed","bids(uint256)":"4423c5f1","calculateEquivalentAmount(uint256,address,uint256)":"7c8c237d","checkMaintenanceRatio(address,uint256,uint256)":"68a78f98","collatMgr()":"17cc0d75","collateralLocked(address)":"24a045ca","getBids()":"b81c78ec","isInShortFall(address,uint256)":"0c8ffe46","maxBidAmount()":"4c9981f6","maxNumBids()":"8a70e154","minimumBidAmount()":"49399729","oracle()":"7dc0d1d0","removeBid(address[])":"7a0d1aca","submitBid(uint256,bytes,address[],uint256[],address)":"74dc3cbb","token()":"fc0c546a","transferCollateral(address,address,address,uint256,uint256)":"2fb665fe","unlockAllBids()":"fd696262","unlockCollateral(address)":"3f001fd9"},"id":2}