{"abi":[{"type":"constructor","inputs":[{"name":"_collatMgr","type":"address","internalType":"address"},{"name":"_auctionEngine","type":"address","internalType":"address"},{"name":"_maxBidAmount","type":"uint256","internalType":"uint256"},{"name":"_token","type":"address","internalType":"address"},{"name":"_minimumBidAmount","type":"uint256","internalType":"uint256"},{"name":"_maxNumBids","type":"uint256","internalType":"uint256"}],"stateMutability":"nonpayable"},{"type":"function","name":"auctionEngine","inputs":[],"outputs":[{"name":"","type":"address","internalType":"contract AuctionEngine"}],"stateMutability":"view"},{"type":"function","name":"bidSubmitted","inputs":[{"name":"","type":"address","internalType":"address"}],"outputs":[{"name":"","type":"uint256","internalType":"uint256"}],"stateMutability":"view"},{"type":"function","name":"bids","inputs":[{"name":"","type":"uint256","internalType":"uint256"}],"outputs":[{"name":"quantity","type":"uint256","internalType":"uint256"},{"name":"encryptedRate","type":"bytes","internalType":"bytes"},{"name":"submitter","type":"address","internalType":"address"}],"stateMutability":"view"},{"type":"function","name":"calculateEquivalentAmount","inputs":[{"name":"coveragePaid","type":"uint256","internalType":"uint256"},{"name":"collateralToken","type":"address","internalType":"address"},{"name":"liquidatorfeeRate","type":"uint256","internalType":"uint256"},{"name":"protocolFeeRate","type":"uint256","internalType":"uint256"}],"outputs":[{"name":"netCollateral","type":"uint256","internalType":"uint256"},{"name":"feeCollateral","type":"uint256","internalType":"uint256"}],"stateMutability":"view"},{"type":"function","name":"collatMgr","inputs":[],"outputs":[{"name":"","type":"address","internalType":"contract CollateralManager"}],"stateMutability":"view"},{"type":"function","name":"collateralLocked","inputs":[{"name":"","type":"address","internalType":"address"}],"outputs":[{"name":"","type":"bool","internalType":"bool"}],"stateMutability":"view"},{"type":"function","name":"externalLockCollateral","inputs":[{"name":"tokens","type":"address[]","internalType":"address[]"},{"name":"amounts","type":"uint256[]","internalType":"uint256[]"}],"outputs":[],"stateMutability":"nonpayable"},{"type":"function","name":"externalUnlockCollateral","inputs":[{"name":"tokens","type":"address[]","internalType":"address[]"},{"name":"amounts","type":"uint256[]","internalType":"uint256[]"}],"outputs":[],"stateMutability":"nonpayable"},{"type":"function","name":"getBids","inputs":[],"outputs":[{"name":"","type":"tuple[]","internalType":"struct BidManager.EncryptedBid[]","components":[{"name":"quantity","type":"uint256","internalType":"uint256"},{"name":"encryptedRate","type":"bytes","internalType":"bytes"},{"name":"submitter","type":"address","internalType":"address"},{"name":"collateralTokens","type":"address[]","internalType":"address[]"}]}],"stateMutability":"view"},{"type":"function","name":"isAboveMaintenance","inputs":[{"name":"bidder","type":"address","internalType":"address"},{"name":"assignedAmount","type":"uint256","internalType":"uint256"},{"name":"clearingRate","type":"uint256","internalType":"UD60x18"}],"outputs":[{"name":"","type":"bool","internalType":"bool"}],"stateMutability":"view"},{"type":"function","name":"isInShortFall","inputs":[{"name":"borrower","type":"address","internalType":"address"},{"name":"owedRaw","type":"uint256","internalType":"uint256"}],"outputs":[{"name":"","type":"bool","internalType":"bool"}],"stateMutability":"view"},{"type":"function","name":"maxBidAmount","inputs":[],"outputs":[{"name":"","type":"uint256","internalType":"uint256"}],"stateMutability":"view"},{"type":"function","name":"maxNumBids","inputs":[],"outputs":[{"name":"","type":"uint256","internalType":"uint256"}],"stateMutability":"view"},{"type":"function","name":"minimumBidAmount","inputs":[],"outputs":[{"name":"","type":"uint256","internalType":"uint256"}],"stateMutability":"view"},{"type":"function","name":"owner","inputs":[],"outputs":[{"name":"","type":"address","internalType":"address"}],"stateMutability":"view"},{"type":"function","name":"removeBid","inputs":[],"outputs":[],"stateMutability":"nonpayable"},{"type":"function","name":"renounceOwnership","inputs":[],"outputs":[],"stateMutability":"nonpayable"},{"type":"function","name":"submitBid","inputs":[{"name":"bidAmount","type":"uint256","internalType":"uint256"},{"name":"encryptedRate","type":"bytes","internalType":"bytes"},{"name":"collateralTokens","type":"address[]","internalType":"address[]"},{"name":"collateralAmounts","type":"uint256[]","internalType":"uint256[]"},{"name":"baseToken","type":"address","internalType":"address"}],"outputs":[],"stateMutability":"nonpayable"},{"type":"function","name":"token","inputs":[],"outputs":[{"name":"","type":"address","internalType":"address"}],"stateMutability":"view"},{"type":"function","name":"tokenDecimals","inputs":[],"outputs":[{"name":"","type":"uint8","internalType":"uint8"}],"stateMutability":"view"},{"type":"function","name":"transferCollateral","inputs":[{"name":"borrower","type":"address","internalType":"address"},{"name":"liquidator","type":"address","internalType":"address"},{"name":"collateralToken","type":"address","internalType":"address"},{"name":"amount","type":"uint256","internalType":"uint256"},{"name":"fee","type":"uint256","internalType":"uint256"}],"outputs":[],"stateMutability":"nonpayable"},{"type":"function","name":"transferOwnership","inputs":[{"name":"newOwner","type":"address","internalType":"address"}],"outputs":[],"stateMutability":"nonpayable"},{"type":"function","name":"unlockAllBids","inputs":[],"outputs":[],"stateMutability":"nonpayable"},{"type":"function","name":"unlockCollateral","inputs":[{"name":"borrower","type":"address","internalType":"address"}],"outputs":[],"stateMutability":"nonpayable"},{"type":"event","name":"BidCollateralUnlocked","inputs":[{"name":"bidder","type":"address","indexed":true,"internalType":"address"},{"name":"collateralToken","type":"address","indexed":false,"internalType":"address"},{"name":"amount","type":"uint256","indexed":false,"internalType":"uint256"}],"anonymous":false},{"type":"event","name":"BidCreated","inputs":[{"name":"submitter","type":"address","indexed":true,"internalType":"address"},{"name":"quantity","type":"uint256","indexed":false,"internalType":"uint256"}],"anonymous":false},{"type":"event","name":"ExternalCollateralLocked","inputs":[{"name":"borrower","type":"address","indexed":true,"internalType":"address"},{"name":"token","type":"address","indexed":true,"internalType":"address"},{"name":"amount","type":"uint256","indexed":false,"internalType":"uint256"}],"anonymous":false},{"type":"event","name":"ExternalCollateralUnlocked","inputs":[{"name":"borrower","type":"address","indexed":true,"internalType":"address"},{"name":"token","type":"address","indexed":true,"internalType":"address"},{"name":"amount","type":"uint256","indexed":false,"internalType":"uint256"}],"anonymous":false},{"type":"event","name":"OwnershipTransferred","inputs":[{"name":"previousOwner","type":"address","indexed":true,"internalType":"address"},{"name":"newOwner","type":"address","indexed":true,"internalType":"address"}],"anonymous":false},{"type":"error","name":"OwnableInvalidOwner","inputs":[{"name":"owner","type":"address","internalType":"address"}]},{"type":"error","name":"OwnableUnauthorizedAccount","inputs":[{"name":"account","type":"address","internalType":"address"}]},{"type":"error","name":"ReentrancyGuardReentrantCall","inputs":[]}],"bytecode":{"object":"0x608060405234801561000f575f80fd5b5060405161510138038061510183398101604081905261002e91610329565b60015f55338061005857604051631e4fbdf760e01b81525f60048201526024015b60405180910390fd5b610061816102bd565b506001600160a01b0386166100a75760405162461bcd60e51b815260206004820152600c60248201526b5a65726f206164647265737360a01b604482015260640161004f565b6001600160a01b0385166100fd5760405162461bcd60e51b815260206004820152601f60248201527f5a65726f206164647265737320666f722061756374696f6e20656e67696e6500604482015260640161004f565b5f821161014c5760405162461bcd60e51b815260206004820152601660248201527f496e76616c6964206d696e2062696420616d6f756e7400000000000000000000604482015260640161004f565b81841161019b5760405162461bcd60e51b815260206004820152601660248201527f496e76616c6964206d61782062696420616d6f756e7400000000000000000000604482015260640161004f565b6001600160a01b0383166101f15760405162461bcd60e51b815260206004820152601660248201527f5a65726f206164647265737320666f7220746f6b656e00000000000000000000604482015260640161004f565b600680546001600160a01b038089166001600160a01b031992831617909255600780548884169083161790556008869055600a805492861692909116821790556040805163313ce56760e01b8152905163313ce567916004808201926020929091908290030181865afa15801561026a573d5f803e3d5ffd5b505050506040513d601f19601f8201168201806040525081019061028e9190610387565b600a805460ff92909216600160a01b0260ff60a01b19909216919091179055600b55600955506103ae92505050565b600180546001600160a01b038381166001600160a01b0319831681179093556040519116919082907f8be0079c531659141344cd1fd0a4f28419497f9722a3daafe3b4186f6b6457e0905f90a35050565b80516001600160a01b0381168114610324575f80fd5b919050565b5f805f805f8060c0878903121561033e575f80fd5b6103478761030e565b95506103556020880161030e565b6040880151909550935061036b6060880161030e565b608088015160a090980151969995985093969395939492505050565b5f60208284031215610397575f80fd5b815160ff811681146103a7575f80fd5b9392505050565b614d46806103bb5f395ff3fe608060405234801561000f575f80fd5b5060043610610153575f3560e01c80634c9981f6116100bf578063947bb56611610079578063947bb56614610311578063a479bc2914610324578063b81c78ec1461032c578063f2fde38b14610341578063fc0c546a14610354578063fd69626214610367575f80fd5b80634c9981f6146102c0578063631825e6146102c9578063715018a6146102dc57806374dc3cbb146102e45780638a70e154146102f75780638da5cb5b14610300575f80fd5b80632fb665fe116101105780632fb665fe1461021c5780633b97e8561461022f5780633f001fd9146102555780634423c5f11461026857806344b8f8ed1461028a57806349399729146102b7575f80fd5b806309814008146101575780630c8ffe461461016c5780630e9ae9b61461019457806317cc0d75146101bc5780631fb32141146101e757806324a045ca146101fa575b5f80fd5b61016a610165366004614421565b61036f565b005b61017f61017a3660046144b1565b610707565b60405190151581526020015b60405180910390f35b6101a76101a23660046144db565b610bfe565b6040805192835260208301919091520161018b565b6006546101cf906001600160a01b031681565b6040516001600160a01b03909116815260200161018b565b6007546101cf906001600160a01b031681565b61017f610208366004614515565b60046020525f908152604090205460ff1681565b61016a61022a366004614530565b610eda565b600a5461024390600160a01b900460ff1681565b60405160ff909116815260200161018b565b61016a610263366004614515565b611259565b61027b610276366004614587565b611705565b60405161018b939291906145cc565b6102a9610298366004614515565b60036020525f908152604090205481565b60405190815260200161018b565b6102a960095481565b6102a960085481565b61017f6102d73660046145fc565b6117b6565b61016a611c9b565b61016a6102f236600461462e565b611cae565b6102a9600b5481565b6001546001600160a01b03166101cf565b61016a61031f366004614421565b6129d0565b61016a61303c565b6103346134f5565b60405161018b9190614715565b61016a61034f366004614515565b6136ff565b600a546101cf906001600160a01b031681565b61016a613739565b610377613bb8565b60075f9054906101000a90046001600160a01b03166001600160a01b0316635c975abb6040518163ffffffff1660e01b8152600401602060405180830381865afa1580156103c7573d5f803e3d5ffd5b505050506040513d601f19601f820116820180604052508101906103eb91906147f0565b156104115760405162461bcd60e51b81526004016104089061480f565b60405180910390fd5b82811461044f5760405162461bcd60e51b815260206004820152600c60248201526b0d8cadc40dad2e6dac2e8c6d60a31b6044820152606401610408565b335f9081526003602052604090205461049a5760405162461bcd60e51b815260206004820152600d60248201526c1b9bc81858dd1a5d9948189a59609a1b6044820152606401610408565b5f5b838110156106f7576006546001600160a01b031663d979b7208686848181106104c7576104c7614837565b90506020020160208101906104dc9190614515565b6040516001600160e01b031960e084901b1681526001600160a01b039091166004820152602401602060405180830381865afa15801561051e573d5f803e3d5ffd5b505050506040513d601f19601f8201168201806040525081019061054291906147f0565b61057e5760405162461bcd60e51b815260206004820152600d60248201526c34b73b30b634b2103a37b5b2b760991b6044820152606401610408565b5f83838381811061059157610591614837565b90506020020135116105d05760405162461bcd60e51b81526020600482015260086024820152671e995c9bc8185b5d60c21b6044820152606401610408565b6006546001600160a01b0316637750c9f0338787858181106105f4576105f4614837565b90506020020160208101906106099190614515565b86868681811061061b5761061b614837565b905060200201356040518463ffffffff1660e01b81526004016106409392919061484b565b5f604051808303815f87803b158015610657575f80fd5b505af1158015610669573d5f803e3d5ffd5b5050505084848281811061067f5761067f614837565b90506020020160208101906106949190614515565b6001600160a01b0316337f4ba35c238ce5deaa5d47bf7b7e207a2f8e11c1a274b77d4f26e82454bbd8f9638585858181106106d1576106d1614837565b905060200201356040516106e791815260200190565b60405180910390a360010161049c565b5061070160015f55565b50505050565b6001600160a01b0382165f9081526003602052604081205461075e5760405162461bcd60e51b815260206004820152601060248201526f139bc8189a59081cdd589b5a5d1d195960821b6044820152606401610408565b600a545f90610778908490600160a01b900460ff16613be0565b90505f60065f9054906101000a90046001600160a01b03166001600160a01b0316637dc0d1d06040518163ffffffff1660e01b8152600401602060405180830381865afa1580156107cb573d5f803e3d5ffd5b505050506040513d601f19601f820116820180604052508101906107ef919061486f565b600a546040516213cea760e11b81526001600160a01b039283169262279d4e9261082092911690869060040161488a565b602060405180830381865afa15801561083b573d5f803e3d5ffd5b505050506040513d601f19601f8201168201806040525081019061085f91906148a3565b6001600160a01b0386165f90815260036020526040812054919250908190600290829061088e906001906148ce565b81526020019081526020015f206003018054806020026020016040519081016040528092919081815260200182805480156108f057602002820191905f5260205f20905b81546001600160a01b031681526001909101906020018083116108d2575b505050505090505f5b8151811015610bf15760065482515f916001600160a01b031690635c2549ee908b9086908690811061092d5761092d614837565b60200260200101516040518363ffffffff1660e01b81526004016109529291906148e1565b602060405180830381865afa15801561096d573d5f803e3d5ffd5b505050506040513d601f19601f8201168201806040525081019061099191906148a3565b90505f8383815181106109a6576109a6614837565b60200260200101516001600160a01b031663313ce5676040518163ffffffff1660e01b8152600401602060405180830381865afa1580156109e9573d5f803e3d5ffd5b505050506040513d601f19601f82011682018060405250810190610a0d91906148fb565b90505f60065f9054906101000a90046001600160a01b03166001600160a01b0316637dc0d1d06040518163ffffffff1660e01b8152600401602060405180830381865afa158015610a60573d5f803e3d5ffd5b505050506040513d601f19601f82011682018060405250810190610a84919061486f565b6001600160a01b031662279d4e868681518110610aa357610aa3614837565b6020026020010151610abe8587613be090919063ffffffff16565b6040518363ffffffff1660e01b8152600401610adb92919061488a565b602060405180830381865afa158015610af6573d5f803e3d5ffd5b505050506040513d601f19601f82011682018060405250810190610b1a91906148a3565b60065486519192505f916001600160a01b0390911690638b70c70f90889088908110610b4857610b48614837565b60200260200101516040518263ffffffff1660e01b8152600401610b7b91906001600160a01b0391909116815260200190565b602060405180830381865afa158015610b96573d5f803e3d5ffd5b505050506040513d601f19601f82011682018060405250810190610bba91906148a3565b9050805f03610bcc5750505050610be9565b610bd882600183613c46565b610be2908861491b565b9650505050505b6001016108f9565b5050109150505b92915050565b5f805f60065f9054906101000a90046001600160a01b03166001600160a01b0316637dc0d1d06040518163ffffffff1660e01b8152600401602060405180830381865afa158015610c51573d5f803e3d5ffd5b505050506040513d601f19601f82011682018060405250810190610c75919061486f565b600a546040516213cea760e11b81526001600160a01b039283169262279d4e92610ca6929116908b9060040161488a565b602060405180830381865afa158015610cc1573d5f803e3d5ffd5b505050506040513d601f19601f82011682018060405250810190610ce591906148a3565b90505f866001600160a01b031663313ce5676040518163ffffffff1660e01b8152600401602060405180830381865afa158015610d24573d5f803e3d5ffd5b505050506040513d601f19601f82011682018060405250810190610d4891906148fb565b90505f610d5682600a614a11565b90505f60065f9054906101000a90046001600160a01b03166001600160a01b0316637dc0d1d06040518163ffffffff1660e01b8152600401602060405180830381865afa158015610da9573d5f803e3d5ffd5b505050506040513d601f19601f82011682018060405250810190610dcd919061486f565b6001600160a01b031662279d4e8a846040518363ffffffff1660e01b8152600401610df992919061488a565b602060405180830381865afa158015610e14573d5f803e3d5ffd5b505050506040513d601f19601f82011682018060405250810190610e3891906148a3565b90505f8111610e845760405162461bcd60e51b8152602060048201526018602482015277496e76616c696420636f6c6c61746572616c20707269636560401b6044820152606401610408565b5f610e90858484613c46565b90505f610ea6828b670de0b6b3a7640000613c46565b90505f610ebc838b670de0b6b3a7640000613c46565b9050610ec8828461491b565b9d909c509a5050505050505050505050565b6007546001600160a01b03163314610f045760405162461bcd60e51b815260040161040890614a1f565b610f0c613bb8565b60075f9054906101000a90046001600160a01b03166001600160a01b0316635c975abb6040518163ffffffff1660e01b8152600401602060405180830381865afa158015610f5c573d5f803e3d5ffd5b505050506040513d601f19601f82011682018060405250810190610f8091906147f0565b15610f9d5760405162461bcd60e51b81526004016104089061480f565b6006546040516306cbcdb960e51b81526001600160a01b0385811660048301529091169063d979b72090602401602060405180830381865afa158015610fe5573d5f803e3d5ffd5b505050506040513d601f19601f8201168201806040525081019061100991906147f0565b61104a5760405162461bcd60e51b8152602060048201526012602482015271125b9d985b1a590818dbdb1b185d195c985b60721b6044820152606401610408565b5f821161108a5760405162461bcd60e51b815260206004820152600e60248201526d125b9d985b1a5908185b5bdd5b9d60921b6044820152606401610408565b818111156110da5760405162461bcd60e51b815260206004820152601d60248201527f466565206578636565647320636f6c6c61746572616c20616d6f756e740000006044820152606401610408565b6006546001600160a01b031663f18d03cc8686866110f886886148ce565b6040516001600160e01b031960e087901b1681526001600160a01b03948516600482015292841660248401529216604482015260648101919091526084015f604051808303815f87803b15801561114d575f80fd5b505af115801561115f573d5f803e3d5ffd5b505060065460075460408051638da5cb5b60e01b815290516001600160a01b03938416955063f18d03cc94508a9390921691638da5cb5b916004808201926020929091908290030181865afa1580156111ba573d5f803e3d5ffd5b505050506040513d601f19601f820116820180604052508101906111de919061486f565b6040516001600160e01b031960e085901b1681526001600160a01b03928316600482015290821660248201529086166044820152606481018490526084015f604051808303815f87803b158015611233575f80fd5b505af1158015611245573d5f803e3d5ffd5b5050505061125260015f55565b5050505050565b6007546001600160a01b031633146112835760405162461bcd60e51b815260040161040890614a1f565b61128b613bb8565b60075f9054906101000a90046001600160a01b03166001600160a01b0316635c975abb6040518163ffffffff1660e01b8152600401602060405180830381865afa1580156112db573d5f803e3d5ffd5b505050506040513d601f19601f820116820180604052508101906112ff91906147f0565b1561131c5760405162461bcd60e51b81526004016104089061480f565b6001600160a01b0381165f9081526004602052604090205460ff1661137a5760405162461bcd60e51b8152602060048201526014602482015273139bc81b1bd8dad9590818dbdb1b185d195c985b60621b6044820152606401610408565b6001600160a01b0381165f90815260036020526040812054906002816113a16001856148ce565b81526020019081526020015f206040518060800160405290815f82015481526020016001820180546113d290614a4b565b80601f01602080910402602001604051908101604052809291908181526020018280546113fe90614a4b565b80156114495780601f1061142057610100808354040283529160200191611449565b820191905f5260205f20905b81548152906001019060200180831161142c57829003601f168201915b505050918352505060028201546001600160a01b031660208083019190915260038301805460408051828502810185018252828152940193928301828280156114b957602002820191905f5260205f20905b81546001600160a01b0316815260019091019060200180831161149b575b50505050508152505090505f5b81606001515181101561165a57600654606083015180515f926001600160a01b031691633419d6ef918891908690811061150257611502614837565b60200260200101516040518363ffffffff1660e01b81526004016115279291906148e1565b602060405180830381865afa158015611542573d5f803e3d5ffd5b505050506040513d601f19601f8201168201806040525081019061156691906148a3565b9050801561165157600654606084015180516001600160a01b03909216916359508f8f9188918690811061159c5761159c614837565b6020026020010151846040518463ffffffff1660e01b81526004016115c39392919061484b565b5f604051808303815f87803b1580156115da575f80fd5b505af11580156115ec573d5f803e3d5ffd5b50505050846001600160a01b03167fada6ecc2efcee2260ecda786d52ce36d8730a774aeac7cbdca7212296857b2028460600151848151811061163157611631614837565b60200260200101518360405161164892919061488a565b60405180910390a25b506001016114c6565b506001600160a01b0383165f908152600460205260408120805460ff191690556002906116886001856148ce565b815260208101919091526040015f908120818155906116aa6001830182614310565b6002820180546001600160a01b03191690556116c9600383015f614347565b5050600c8054905f6116da83614a83565b9091555050506001600160a01b0382165f908152600360205260408120555061170260015f55565b50565b60026020525f90815260409020805460018201805491929161172690614a4b565b80601f016020809104026020016040519081016040528092919081815260200182805461175290614a4b565b801561179d5780601f106117745761010080835404028352916020019161179d565b820191905f5260205f20905b81548152906001019060200180831161178057829003601f168201915b505050600290930154919250506001600160a01b031683565b5f825f036117c657506001611c94565b5f6118056117dc84670de0b6b3a764000061491b565b600a54670de0b6b3a7640000906117fe908890600160a01b900460ff16613be0565b9190613c46565b90505f60065f9054906101000a90046001600160a01b03166001600160a01b0316637dc0d1d06040518163ffffffff1660e01b8152600401602060405180830381865afa158015611858573d5f803e3d5ffd5b505050506040513d601f19601f8201168201806040525081019061187c919061486f565b600a546040516213cea760e11b81526001600160a01b039283169262279d4e926118ad92911690869060040161488a565b602060405180830381865afa1580156118c8573d5f803e3d5ffd5b505050506040513d601f19601f820116820180604052508101906118ec91906148a3565b6001600160a01b0387165f90815260036020526040812054919250819003611919575f9350505050611c94565b5f6002816119286001856148ce565b81526020019081526020015f2060030180548060200260200160405190810160405280929190818152602001828054801561198a57602002820191905f5260205f20905b81546001600160a01b0316815260019091019060200180831161196c575b505050505090505f805f90505b8251811015611c885760065483515f916001600160a01b031690635c2549ee908d908790869081106119cb576119cb614837565b60200260200101516040518363ffffffff1660e01b81526004016119f09291906148e1565b602060405180830381865afa158015611a0b573d5f803e3d5ffd5b505050506040513d601f19601f82011682018060405250810190611a2f91906148a3565b9050805f03611a3e5750611c80565b5f848381518110611a5157611a51614837565b60200260200101516001600160a01b031663313ce5676040518163ffffffff1660e01b8152600401602060405180830381865afa158015611a94573d5f803e3d5ffd5b505050506040513d601f19601f82011682018060405250810190611ab891906148fb565b90505f611ac58383613be0565b90505f60065f9054906101000a90046001600160a01b03166001600160a01b0316637dc0d1d06040518163ffffffff1660e01b8152600401602060405180830381865afa158015611b18573d5f803e3d5ffd5b505050506040513d601f19601f82011682018060405250810190611b3c919061486f565b6001600160a01b031662279d4e888781518110611b5b57611b5b614837565b6020026020010151846040518363ffffffff1660e01b8152600401611b8192919061488a565b602060405180830381865afa158015611b9c573d5f803e3d5ffd5b505050506040513d601f19601f82011682018060405250810190611bc091906148a3565b60065488519192505f916001600160a01b0390911690638b70c70f908a9089908110611bee57611bee614837565b60200260200101516040518263ffffffff1660e01b8152600401611c2191906001600160a01b0391909116815260200190565b602060405180830381865afa158015611c3c573d5f803e3d5ffd5b505050506040513d601f19601f82011682018060405250810190611c6091906148a3565b9050611c6e82600183613c46565b611c78908861491b565b965050505050505b600101611997565b50929092101593505050505b9392505050565b611ca3613cfc565b611cac5f613d29565b565b611cb6613bb8565b60075f9054906101000a90046001600160a01b03166001600160a01b0316635c975abb6040518163ffffffff1660e01b8152600401602060405180830381865afa158015611d06573d5f803e3d5ffd5b505050506040513d601f19601f82011682018060405250810190611d2a91906147f0565b15611d475760405162461bcd60e51b81526004016104089061480f565b600a546001600160a01b03828116911614611d945760405162461bcd60e51b815260206004820152600d60248201526c24b73b30b634b2103a37b5b2b760991b6044820152606401610408565b838214611de35760405162461bcd60e51b815260206004820152601860248201527f4d69736d61746368656420696e707574206c656e6774687300000000000000006044820152606401610408565b5f5b84811015611f78575f868683818110611e0057611e00614837565b9050602002016020810190611e159190614515565b6001600160a01b03166395d89b416040518163ffffffff1660e01b81526004015f60405180830381865afa158015611e4f573d5f803e3d5ffd5b505050506040513d5f823e601f3d908101601f19168201604052611e769190810190614aac565b90505f5b82811015611f6e57878782818110611e9457611e94614837565b9050602002016020810190611ea99190614515565b6001600160a01b03166395d89b416040518163ffffffff1660e01b81526004015f60405180830381865afa158015611ee3573d5f803e3d5ffd5b505050506040513d5f823e601f3d908101601f19168201604052611f0a9190810190614aac565b80519060200120828051906020012003611f665760405162461bcd60e51b815260206004820152601f60248201527f4475706c696361746520756e6465726c79696e6720636f6c6c61746572616c006044820152606401610408565b600101611e7a565b5050600101611de5565b506007546040805163fc519f1560e01b815290515f926001600160a01b03169163fc519f159160048083019260209291908290030181865afa158015611fc0573d5f803e3d5ffd5b505050506040513d601f19601f82011682018060405250810190611fe49190614b73565b6004811115611ff557611ff5614b5f565b146120425760405162461bcd60e51b815260206004820152601a60248201527f41756374696f6e206e6f7420616363657074696e6720626964730000000000006044820152606401610408565b5f8811801561205357506008548811155b6120945760405162461bcd60e51b8152602060048201526012602482015271125b9d985b1a5908189a5908185b5bdd5b9d60721b6044820152606401610408565b6009548810156120e65760405162461bcd60e51b815260206004820152601860248201527f42696420616d6f756e742062656c6f77206d696e696d756d00000000000000006044820152606401610408565b60075f9054906101000a90046001600160a01b03166001600160a01b031663dd58302e6040518163ffffffff1660e01b8152600401602060405180830381865afa158015612136573d5f803e3d5ffd5b505050506040513d601f19601f8201168201806040525081019061215a91906147f0565b1561219b5760405162461bcd60e51b8152602060048201526011602482015270105d58dd1a5bdb8818d85b98d95b1b1959607a1b6044820152606401610408565b6121a88886868686613d7a565b156121ec5760405162461bcd60e51b8152602060048201526014602482015273125b881a5b9a5d1a585b081cda1bdc9d19985b1b60621b6044820152606401610408565b335f908152600360205260409020548015801561249f57600b54600c5461221490600161491b565b11156122555760405162461bcd60e51b815260206004820152601060248201526f13585e08189a591cc81c995858da195960821b6044820152606401610408565b5f5b86811015612308576006546001600160a01b0316637750c9f0338a8a8581811061228357612283614837565b90506020020160208101906122989190614515565b8989868181106122aa576122aa614837565b905060200201356040518463ffffffff1660e01b81526004016122cf9392919061484b565b5f604051808303815f87803b1580156122e6575f80fd5b505af11580156122f8573d5f803e3d5ffd5b5050600190920191506122579050565b5060405180608001604052808b81526020018a8a8080601f0160208091040260200160405190810160405280939291908181526020018383808284375f9201919091525050509082525033602080830191909152604080518a8302818101840183528b82529190930192918b918b918291908501908490808284375f9201829052509390945250506005548152600260209081526040909120835181559083015190915060018201906123bb9082614bda565b5060408201516002820180546001600160a01b0319166001600160a01b03909216919091179055606082015180516123fd916003840191602090910190614362565b505060055461240e9150600161491b565b335f90815260036020526040812091909155600580549161242e83614c95565b9091555050600c8054905f61244283614c95565b9091555050335f8181526004602052604090819020805460ff19166001179055517fff2d32ce56b0b5d23a2d2e0fa74261ef152c762e716daa7e6eb1cc0fafa0a4e890612492908d815260200190565b60405180910390a26129bb565b5f5b868110156126e1576006545f906001600160a01b0316633419d6ef338b8b868181106124cf576124cf614837565b90506020020160208101906124e49190614515565b6040518363ffffffff1660e01b81526004016125019291906148e1565b602060405180830381865afa15801561251c573d5f803e3d5ffd5b505050506040513d601f19601f8201168201806040525081019061254091906148a3565b90508087878481811061255557612555614837565b90506020020135111561260f576006546001600160a01b0316637750c9f0338b8b8681811061258657612586614837565b905060200201602081019061259b9190614515565b848b8b888181106125ae576125ae614837565b905060200201356125bf91906148ce565b6040518463ffffffff1660e01b81526004016125dd9392919061484b565b5f604051808303815f87803b1580156125f4575f80fd5b505af1158015612606573d5f803e3d5ffd5b505050506126d8565b86868381811061262157612621614837565b905060200201358111156126d8576006546001600160a01b03166359508f8f338b8b8681811061265357612653614837565b90506020020160208101906126689190614515565b8a8a8781811061267a5761267a614837565b905060200201358561268c91906148ce565b6040518463ffffffff1660e01b81526004016126aa9392919061484b565b5f604051808303815f87803b1580156126c1575f80fd5b505af11580156126d3573d5f803e3d5ffd5b505050505b506001016124a1565b505f6002816126f16001866148ce565b81526020019081526020015f2090505f5b6003820154811015612880575f82600301828154811061272457612724614837565b5f9182526020822001546001600160a01b03169150805b8a811015612793578b8b8281811061275557612755614837565b905060200201602081019061276a9190614515565b6001600160a01b0316836001600160a01b03160361278b5760019150612793565b60010161273b565b508061287657600654604051633419d6ef60e01b81525f916001600160a01b031690633419d6ef906127cb90339087906004016148e1565b602060405180830381865afa1580156127e6573d5f803e3d5ffd5b505050506040513d601f19601f8201168201806040525081019061280a91906148a3565b90508015612874576006546040516359508f8f60e01b81526001600160a01b03909116906359508f8f906128469033908790869060040161484b565b5f604051808303815f87803b15801561285d575f80fd5b505af115801561286f573d5f803e3d5ffd5b505050505b505b5050600101612702565b5060405180608001604052808c81526020018b8b8080601f0160208091040260200160405190810160405280939291908181526020018383808284375f9201919091525050509082525033602080830191909152604080518b8302818101840183528c82529190930192918c918c918291908501908490808284375f92018290525093909452506002925061291890506001876148ce565b81526020808201929092526040015f208251815590820151600182019061293f9082614bda565b5060408201516002820180546001600160a01b0319166001600160a01b0390921691909117905560608201518051612981916003840191602090910190614362565b50506040518c81523391507fff2d32ce56b0b5d23a2d2e0fa74261ef152c762e716daa7e6eb1cc0fafa0a4e89060200160405180910390a2505b50506129c660015f55565b5050505050505050565b6129d8613bb8565b60075f9054906101000a90046001600160a01b03166001600160a01b0316635c975abb6040518163ffffffff1660e01b8152600401602060405180830381865afa158015612a28573d5f803e3d5ffd5b505050506040513d601f19601f82011682018060405250810190612a4c91906147f0565b15612a695760405162461bcd60e51b81526004016104089061480f565b828114612aa75760405162461bcd60e51b815260206004820152600c60248201526b0d8cadc40dad2e6dac2e8c6d60a31b6044820152606401610408565b335f9081526003602052604090205480612af35760405162461bcd60e51b815260206004820152600d60248201526c1b9bc81858dd1a5d9948189a59609a1b6044820152606401610408565b5f5b84811015612c4a575f848483818110612b1057612b10614837565b9050602002013511612b4f5760405162461bcd60e51b81526020600482015260086024820152671e995c9bc8185b5d60c21b6044820152606401610408565b838382818110612b6157612b61614837565b60065460209091029290920135916001600160a01b03169050633419d6ef33898986818110612b9257612b92614837565b9050602002016020810190612ba79190614515565b6040518363ffffffff1660e01b8152600401612bc49291906148e1565b602060405180830381865afa158015612bdf573d5f803e3d5ffd5b505050506040513d601f19601f82011682018060405250810190612c0391906148a3565b1015612c425760405162461bcd60e51b815260206004820152600e60248201526d195e18d959591cc81b1bd8dad95960921b6044820152606401610408565b600101612af5565b505f600281612c5a6001856148ce565b81526020019081526020015f20600301805480602002602001604051908101604052809291908181526020018280548015612cbc57602002820191905f5260205f20905b81546001600160a01b03168152600190910190602001808311612c9e575b505050505090505f805b8251811015612e125760065483515f916001600160a01b031690635c2549ee903390879086908110612cfa57612cfa614837565b60200260200101516040518363ffffffff1660e01b8152600401612d1f9291906148e1565b602060405180830381865afa158015612d3a573d5f803e3d5ffd5b505050506040513d601f19601f82011682018060405250810190612d5e91906148a3565b90505f5b88811015612df557898982818110612d7c57612d7c614837565b9050602002016020810190612d919190614515565b6001600160a01b0316858481518110612dac57612dac614837565b60200260200101516001600160a01b031603612ded57878782818110612dd457612dd4614837565b9050602002013582612de691906148ce565b9150612df5565b600101612d62565b508015612e0957612e06818461491b565b92505b50600101612cc6565b50600754604051638ee4d24b60e01b81523360048201525f916001600160a01b031690638ee4d24b90602401602060405180830381865afa158015612e59573d5f803e3d5ffd5b505050506040513d601f19601f82011682018060405250810190612e7d91906148a3565b90508015612efd57600a80545f91612e9f91600160a01b900460ff1690614a11565b612ea99083614cc1565b905080831015612efb5760405162461bcd60e51b815260206004820152601860248201527f776f756c6420627265616368206d61696e74656e616e636500000000000000006044820152606401610408565b505b5f5b8781101561302e576006546001600160a01b03166359508f8f338b8b85818110612f2b57612f2b614837565b9050602002016020810190612f409190614515565b8a8a86818110612f5257612f52614837565b905060200201356040518463ffffffff1660e01b8152600401612f779392919061484b565b5f604051808303815f87803b158015612f8e575f80fd5b505af1158015612fa0573d5f803e3d5ffd5b50505050888882818110612fb657612fb6614837565b9050602002016020810190612fcb9190614515565b6001600160a01b0316337f8f1b9121aa1228f0e2ff9a08699c7372bd311e2dc58fea4776fbb70daf4dcb6289898581811061300857613008614837565b9050602002013560405161301e91815260200190565b60405180910390a3600101612eff565b505050505061070160015f55565b613044613bb8565b60075f9054906101000a90046001600160a01b03166001600160a01b0316635c975abb6040518163ffffffff1660e01b8152600401602060405180830381865afa158015613094573d5f803e3d5ffd5b505050506040513d601f19601f820116820180604052508101906130b891906147f0565b156130d55760405162461bcd60e51b81526004016104089061480f565b60075f9054906101000a90046001600160a01b03166001600160a01b031663dd58302e6040518163ffffffff1660e01b8152600401602060405180830381865afa158015613125573d5f803e3d5ffd5b505050506040513d601f19601f8201168201806040525081019061314991906147f0565b1561318a5760405162461bcd60e51b8152602060048201526011602482015270105d58dd1a5bdb8818d85b98d95b1b1959607a1b6044820152606401610408565b335f90815260036020526040902054806131d95760405162461bcd60e51b815260206004820152601060248201526f139bc8189a59081cdd589b5a5d1d195960821b6044820152606401610408565b6007546040805163fc519f1560e01b815290515f926001600160a01b03169163fc519f159160048083019260209291908290030181865afa158015613220573d5f803e3d5ffd5b505050506040513d601f19601f820116820180604052508101906132449190614b73565b600481111561325557613255614b5f565b146132965760405162461bcd60e51b815260206004820152601160248201527010d85b9b9bdd081c995b5bdd9948189a59607a1b6044820152606401610408565b335f9081526004602052604090205460ff166132eb5760405162461bcd60e51b8152602060048201526014602482015273139bc81b1bd8dad9590818dbdb1b185d195c985b60621b6044820152606401610408565b5f6002816132fa6001856148ce565b81526020019081526020015f2090505f5b600382015481101561345e576006546003830180545f926001600160a01b031691633419d6ef913391908690811061334557613345614837565b5f918252602090912001546040516001600160e01b031960e085901b16815261337b92916001600160a01b0316906004016148e1565b602060405180830381865afa158015613396573d5f803e3d5ffd5b505050506040513d601f19601f820116820180604052508101906133ba91906148a3565b90508015613455576006546003840180546001600160a01b03909216916359508f8f913391869081106133ef576133ef614837565b5f918252602090912001546040516001600160e01b031960e085901b16815261342792916001600160a01b031690869060040161484b565b5f604051808303815f87803b15801561343e575f80fd5b505af1158015613450573d5f803e3d5ffd5b505050505b5060010161330b565b50335f908152600460205260408120805460ff191690556002906134836001856148ce565b815260208101919091526040015f908120818155906134a56001830182614310565b6002820180546001600160a01b03191690556134c4600383015f614347565b5050600c8054905f6134d583614a83565b9091555050335f9081526003602052604081205550611cac905060015f55565b60605f600c5467ffffffffffffffff81111561351357613513614a98565b60405190808252806020026020018201604052801561357657816020015b61356360405180608001604052805f8152602001606081526020015f6001600160a01b03168152602001606081525090565b8152602001906001900390816135315790505b5090505f805b6005548110156136f7575f81815260026020819052604090912001546001600160a01b0316156136ef5760025f8281526020019081526020015f206040518060800160405290815f82015481526020016001820180546135db90614a4b565b80601f016020809104026020016040519081016040528092919081815260200182805461360790614a4b565b80156136525780601f1061362957610100808354040283529160200191613652565b820191905f5260205f20905b81548152906001019060200180831161363557829003601f168201915b505050918352505060028201546001600160a01b031660208083019190915260038301805460408051828502810185018252828152940193928301828280156136c257602002820191905f5260205f20905b81546001600160a01b031681526001909101906020018083116136a4575b5050505050815250508383815181106136dd576136dd614837565b60200260200101819052508160010191505b60010161357c565b509092915050565b613707613cfc565b6001600160a01b03811661373057604051631e4fbdf760e01b81525f6004820152602401610408565b61170281613d29565b6007546001600160a01b031633146137635760405162461bcd60e51b815260040161040890614a1f565b61376b613bb8565b60075f9054906101000a90046001600160a01b03166001600160a01b0316635c975abb6040518163ffffffff1660e01b8152600401602060405180830381865afa1580156137bb573d5f803e3d5ffd5b505050506040513d601f19601f820116820180604052508101906137df91906147f0565b156137fc5760405162461bcd60e51b81526004016104089061480f565b5f5b600554811015613bae575f60025f8381526020019081526020015f206040518060800160405290815f820154815260200160018201805461383e90614a4b565b80601f016020809104026020016040519081016040528092919081815260200182805461386a90614a4b565b80156138b55780601f1061388c576101008083540402835291602001916138b5565b820191905f5260205f20905b81548152906001019060200180831161389857829003601f168201915b505050918352505060028201546001600160a01b0316602080830191909152600383018054604080518285028101850182528281529401939283018282801561392557602002820191905f5260205f20905b81546001600160a01b03168152600190910190602001808311613907575b5050509190925250505060408101519091506001600160a01b031615613ba5575f5b816060015151811015613ae8576006546040830151606084015180515f936001600160a01b031692633419d6ef9290918690811061398757613987614837565b60200260200101516040518363ffffffff1660e01b81526004016139ac9291906148e1565b602060405180830381865afa1580156139c7573d5f803e3d5ffd5b505050506040513d601f19601f820116820180604052508101906139eb91906148a3565b90508015613adf576006546040840151606085015180516001600160a01b03909316926359508f8f92919086908110613a2657613a26614837565b6020026020010151846040518463ffffffff1660e01b8152600401613a4d9392919061484b565b5f604051808303815f87803b158015613a64575f80fd5b505af1158015613a76573d5f803e3d5ffd5b5050505082604001516001600160a01b03167fada6ecc2efcee2260ecda786d52ce36d8730a774aeac7cbdca7212296857b20284606001518481518110613abf57613abf614837565b602002602001015183604051613ad692919061488a565b60405180910390a25b50600101613947565b50604080820180516001600160a01b039081165f90815260046020908152848220805460ff191690559251909116815260039091529081205460029190613b31906001906148ce565b815260208101919091526040015f90812081815590613b536001830182614310565b6002820180546001600160a01b0319169055613b72600383015f614347565b5050600c8054905f613b8383614a83565b90915550506040808201516001600160a01b03165f9081526003602052908120555b506001016137fe565b50611cac60015f55565b60025f5403613bda57604051633ee5aeb560e01b815260040160405180910390fd5b60025f55565b5f8160ff16601203613bf3575081610bf8565b60128260ff161015613c2657613c0a826012614ce0565b613c1590600a614a11565b613c1f9084614cf9565b9050610bf8565b613c31601283614ce0565b613c3c90600a614a11565b611c949084614cc1565b5f838302815f1985870982811083820303915050805f03613c7a57838281613c7057613c70614cad565b0492505050611c94565b808411613c9157613c9160038515026011186142ff565b5f848688095f868103871696879004966002600389028118808a02820302808a02820302808a02820302808a02820302808a02820302808a02909103029181900381900460010186841190950394909402919094039290920491909117919091029150509392505050565b6001546001600160a01b03163314611cac5760405163118cdaa760e01b8152336004820152602401610408565b600180546001600160a01b038381166001600160a01b0319831681179093556040519116919082907f8be0079c531659141344cd1fd0a4f28419497f9722a3daafe3b4186f6b6457e0905f90a35050565b600a545f908190613d96908890600160a01b900460ff16613be0565b90505f60065f9054906101000a90046001600160a01b03166001600160a01b0316637dc0d1d06040518163ffffffff1660e01b8152600401602060405180830381865afa158015613de9573d5f803e3d5ffd5b505050506040513d601f19601f82011682018060405250810190613e0d919061486f565b600a546040516213cea760e11b81526001600160a01b039283169262279d4e92613e3e92911690869060040161488a565b602060405180830381865afa158015613e59573d5f803e3d5ffd5b505050506040513d601f19601f82011682018060405250810190613e7d91906148a3565b90505f8111613ec25760405162461bcd60e51b8152602060048201526011602482015270496e76616c69642062696420707269636560781b6044820152606401610408565b5f805b87811015613fb4576006546001600160a01b031663d979b7208a8a84818110613ef057613ef0614837565b9050602002016020810190613f059190614515565b6040516001600160e01b031960e084901b1681526001600160a01b039091166004820152602401602060405180830381865afa158015613f47573d5f803e3d5ffd5b505050506040513d601f19601f82011682018060405250810190613f6b91906147f0565b613fac5760405162461bcd60e51b8152602060048201526012602482015271125b9d985b1a590818dbdb1b185d195c985b60721b6044820152606401610408565b600101613ec5565b505f5b878110156142f257868682818110613fd157613fd1614837565b905060200201355f03156142ea576006545f906001600160a01b0316632a1e8cdb8b8b8581811061400457614004614837565b90506020020160208101906140199190614515565b6040516001600160e01b031960e084901b1681526001600160a01b039091166004820152602401602060405180830381865afa15801561405b573d5f803e3d5ffd5b505050506040513d601f19601f8201168201806040525081019061407f91906148a3565b90505f81116140c05760405162461bcd60e51b815260206004820152600d60248201526c526174696f206973207a65726f60981b6044820152606401610408565b5f8a8a848181106140d3576140d3614837565b90506020020160208101906140e89190614515565b6001600160a01b031663313ce5676040518163ffffffff1660e01b8152600401602060405180830381865afa158015614123573d5f803e3d5ffd5b505050506040513d601f19601f8201168201806040525081019061414791906148fb565b90505f614175828b8b8781811061416057614160614837565b90506020020135613be090919063ffffffff16565b90505f60065f9054906101000a90046001600160a01b03166001600160a01b0316637dc0d1d06040518163ffffffff1660e01b8152600401602060405180830381865afa1580156141c8573d5f803e3d5ffd5b505050506040513d601f19601f820116820180604052508101906141ec919061486f565b6001600160a01b031662279d4e8e8e8881811061420b5761420b614837565b90506020020160208101906142209190614515565b846040518363ffffffff1660e01b815260040161423e92919061488a565b602060405180830381865afa158015614259573d5f803e3d5ffd5b505050506040513d601f19601f8201168201806040525081019061427d91906148a3565b90505f81116142c95760405162461bcd60e51b8152602060048201526018602482015277496e76616c696420636f6c6c61746572616c20707269636560401b6044820152606401610408565b5f6142d682600187613c46565b90506142e2818861491b565b965050505050505b600101613fb7565b5010979650505050505050565b634e487b715f52806020526024601cfd5b50805461431c90614a4b565b5f825580601f1061432b575050565b601f0160209004905f5260205f209081019061170291906143c5565b5080545f8255905f5260205f209081019061170291906143c5565b828054828255905f5260205f209081019282156143b5579160200282015b828111156143b557825182546001600160a01b0319166001600160a01b03909116178255602090920191600190910190614380565b506143c19291506143c5565b5090565b5b808211156143c1575f81556001016143c6565b5f8083601f8401126143e9575f80fd5b50813567ffffffffffffffff811115614400575f80fd5b6020830191508360208260051b850101111561441a575f80fd5b9250929050565b5f805f8060408587031215614434575f80fd5b843567ffffffffffffffff81111561444a575f80fd5b614456878288016143d9565b909550935050602085013567ffffffffffffffff811115614475575f80fd5b614481878288016143d9565b95989497509550505050565b6001600160a01b0381168114611702575f80fd5b80356144ac8161448d565b919050565b5f80604083850312156144c2575f80fd5b82356144cd8161448d565b946020939093013593505050565b5f805f80608085870312156144ee575f80fd5b8435935060208501356145008161448d565b93969395505050506040820135916060013590565b5f60208284031215614525575f80fd5b8135611c948161448d565b5f805f805f60a08688031215614544575f80fd5b853561454f8161448d565b9450602086013561455f8161448d565b9350604086013561456f8161448d565b94979396509394606081013594506080013592915050565b5f60208284031215614597575f80fd5b5035919050565b5f81518084528060208401602086015e5f602082860101526020601f19601f83011685010191505092915050565b838152606060208201525f6145e4606083018561459e565b905060018060a01b0383166040830152949350505050565b5f805f6060848603121561460e575f80fd5b83356146198161448d565b95602085013595506040909401359392505050565b5f805f805f805f8060a0898b031215614645575f80fd5b88359750602089013567ffffffffffffffff811115614662575f80fd5b8901601f81018b13614672575f80fd5b803567ffffffffffffffff811115614688575f80fd5b8b6020828401011115614699575f80fd5b60209190910197509550604089013567ffffffffffffffff8111156146bc575f80fd5b6146c88b828c016143d9565b909650945050606089013567ffffffffffffffff8111156146e7575f80fd5b6146f38b828c016143d9565b9094509250614706905060808a016144a1565b90509295985092959890939650565b5f602082016020835280845180835260408501915060408160051b8601019250602086015f5b828110156147e457603f1987860301845281518051865260208101516080602088015261476b608088018261459e565b6040838101516001600160a01b0316908901526060928301518882039389019390935282518082526020938401935f9350909101905b808310156147cc5783516001600160a01b0316825260209384019360019390930192909101906147a1565b5096505050602093840193919091019060010161473b565b50929695505050505050565b5f60208284031215614800575f80fd5b81518015158114611c94575f80fd5b6020808252600e908201526d105d58dd1a5bdb881c185d5cd95960921b604082015260600190565b634e487b7160e01b5f52603260045260245ffd5b6001600160a01b039384168152919092166020820152604081019190915260600190565b5f6020828403121561487f575f80fd5b8151611c948161448d565b6001600160a01b03929092168252602082015260400190565b5f602082840312156148b3575f80fd5b5051919050565b634e487b7160e01b5f52601160045260245ffd5b81810381811115610bf857610bf86148ba565b6001600160a01b0392831681529116602082015260400190565b5f6020828403121561490b575f80fd5b815160ff81168114611c94575f80fd5b80820180821115610bf857610bf86148ba565b6001815b60018411156149695780850481111561494d5761494d6148ba565b600184161561495b57908102905b60019390931c928002614932565b935093915050565b5f8261497f57506001610bf8565b8161498b57505f610bf8565b81600181146149a157600281146149ab576149c7565b6001915050610bf8565b60ff8411156149bc576149bc6148ba565b50506001821b610bf8565b5060208310610133831016604e8410600b84101617156149ea575081810a610bf8565b6149f65f19848461492e565b805f1904821115614a0957614a096148ba565b029392505050565b5f611c9460ff841683614971565b6020808252601290820152714e6f742061756374696f6e20656e67696e6560701b604082015260600190565b600181811c90821680614a5f57607f821691505b602082108103614a7d57634e487b7160e01b5f52602260045260245ffd5b50919050565b5f81614a9157614a916148ba565b505f190190565b634e487b7160e01b5f52604160045260245ffd5b5f60208284031215614abc575f80fd5b815167ffffffffffffffff811115614ad2575f80fd5b8201601f81018413614ae2575f80fd5b805167ffffffffffffffff811115614afc57614afc614a98565b604051601f8201601f19908116603f0116810167ffffffffffffffff81118282101715614b2b57614b2b614a98565b604052818152828201602001861015614b42575f80fd5b8160208401602083015e5f91810160200191909152949350505050565b634e487b7160e01b5f52602160045260245ffd5b5f60208284031215614b83575f80fd5b815160058110611c94575f80fd5b601f821115614bd557805f5260205f20601f840160051c81016020851015614bb65750805b601f840160051c820191505b81811015611252575f8155600101614bc2565b505050565b815167ffffffffffffffff811115614bf457614bf4614a98565b614c0881614c028454614a4b565b84614b91565b6020601f821160018114614c3a575f8315614c235750848201515b5f19600385901b1c1916600184901b178455611252565b5f84815260208120601f198516915b82811015614c695787850151825560209485019460019092019101614c49565b5084821015614c8657868401515f19600387901b60f8161c191681555b50505050600190811b01905550565b5f60018201614ca657614ca66148ba565b5060010190565b634e487b7160e01b5f52601260045260245ffd5b5f82614cdb57634e487b7160e01b5f52601260045260245ffd5b500490565b60ff8281168282160390811115610bf857610bf86148ba565b8082028115828204841417610bf857610bf86148ba56fea264697066735822122054b9348f36930e20f4916d0a6a22b6148d340fd36ac3e14a632ac791e4ad777264736f6c634300081a0033","linkReferences":{}},"methodIdentifiers":{"auctionEngine()":"1fb32141","bidSubmitted(address)":"44b8f8ed","bids(uint256)":"4423c5f1","calculateEquivalentAmount(uint256,address,uint256,uint256)":"0e9ae9b6","collatMgr()":"17cc0d75","collateralLocked(address)":"24a045ca","externalLockCollateral(address[],uint256[])":"09814008","externalUnlockCollateral(address[],uint256[])":"947bb566","getBids()":"b81c78ec","isAboveMaintenance(address,uint256,uint256)":"631825e6","isInShortFall(address,uint256)":"0c8ffe46","maxBidAmount()":"4c9981f6","maxNumBids()":"8a70e154","minimumBidAmount()":"49399729","owner()":"8da5cb5b","removeBid()":"a479bc29","renounceOwnership()":"715018a6","submitBid(uint256,bytes,address[],uint256[],address)":"74dc3cbb","token()":"fc0c546a","tokenDecimals()":"3b97e856","transferCollateral(address,address,address,uint256,uint256)":"2fb665fe","transferOwnership(address)":"f2fde38b","unlockAllBids()":"fd696262","unlockCollateral(address)":"3f001fd9"},"id":2}