{"abi":[{"type":"constructor","inputs":[{"name":"_collatMgr","type":"address","internalType":"address"},{"name":"_auctionEngine","type":"address","internalType":"address"},{"name":"_maxBidAmount","type":"uint256","internalType":"uint256"},{"name":"_token","type":"address","internalType":"address"}],"stateMutability":"nonpayable"},{"type":"function","name":"auctionEngine","inputs":[],"outputs":[{"name":"","type":"address","internalType":"contract AuctionEngine"}],"stateMutability":"view"},{"type":"function","name":"bidSubmitted","inputs":[{"name":"","type":"address","internalType":"address"}],"outputs":[{"name":"","type":"uint256","internalType":"uint256"}],"stateMutability":"view"},{"type":"function","name":"bids","inputs":[{"name":"","type":"uint256","internalType":"uint256"}],"outputs":[{"name":"quantity","type":"uint256","internalType":"uint256"},{"name":"encryptedRate","type":"bytes","internalType":"bytes"},{"name":"submitter","type":"address","internalType":"address"}],"stateMutability":"view"},{"type":"function","name":"calculateEquivalentAmount","inputs":[{"name":"coveragePaid","type":"uint256","internalType":"uint256"},{"name":"collateralToken","type":"address","internalType":"address"},{"name":"feeRate","type":"uint256","internalType":"uint256"}],"outputs":[{"name":"netCollateral","type":"uint256","internalType":"uint256"},{"name":"feeCollateral","type":"uint256","internalType":"uint256"}],"stateMutability":"view"},{"type":"function","name":"checkMaintenanceRatio","inputs":[{"name":"bidder","type":"address","internalType":"address"},{"name":"assignedAmount","type":"uint256","internalType":"uint256"},{"name":"clearingRate","type":"uint256","internalType":"UD60x18"}],"outputs":[{"name":"","type":"bool","internalType":"bool"}],"stateMutability":"view"},{"type":"function","name":"collatMgr","inputs":[],"outputs":[{"name":"","type":"address","internalType":"contract CollateralManager"}],"stateMutability":"view"},{"type":"function","name":"collateralLocked","inputs":[{"name":"","type":"address","internalType":"address"}],"outputs":[{"name":"","type":"bool","internalType":"bool"}],"stateMutability":"view"},{"type":"function","name":"controller","inputs":[],"outputs":[{"name":"","type":"address","internalType":"address"}],"stateMutability":"view"},{"type":"function","name":"getBids","inputs":[],"outputs":[{"name":"","type":"tuple[]","internalType":"struct BidManager.EncryptedBid[]","components":[{"name":"quantity","type":"uint256","internalType":"uint256"},{"name":"encryptedRate","type":"bytes","internalType":"bytes"},{"name":"submitter","type":"address","internalType":"address"},{"name":"collateralTokens","type":"address[]","internalType":"address[]"}]}],"stateMutability":"view"},{"type":"function","name":"isInShortFall","inputs":[{"name":"borrower","type":"address","internalType":"address"},{"name":"owedAmount","type":"uint256","internalType":"uint256"}],"outputs":[{"name":"","type":"bool","internalType":"bool"}],"stateMutability":"view"},{"type":"function","name":"manager","inputs":[],"outputs":[{"name":"","type":"address","internalType":"address"}],"stateMutability":"view"},{"type":"function","name":"maxBidAmount","inputs":[],"outputs":[{"name":"","type":"uint256","internalType":"uint256"}],"stateMutability":"view"},{"type":"function","name":"oracle","inputs":[],"outputs":[{"name":"","type":"address","internalType":"contract IOracle"}],"stateMutability":"view"},{"type":"function","name":"setController","inputs":[{"name":"newCtrl","type":"address","internalType":"address"}],"outputs":[],"stateMutability":"nonpayable"},{"type":"function","name":"submitBid","inputs":[{"name":"bidAmount","type":"uint256","internalType":"uint256"},{"name":"encryptedRate","type":"bytes","internalType":"bytes"},{"name":"collateralTokens","type":"address[]","internalType":"address[]"},{"name":"collateralAmounts","type":"uint256[]","internalType":"uint256[]"},{"name":"baseToken","type":"address","internalType":"address"}],"outputs":[],"stateMutability":"nonpayable"},{"type":"function","name":"token","inputs":[],"outputs":[{"name":"","type":"address","internalType":"address"}],"stateMutability":"view"},{"type":"function","name":"transferCollateral","inputs":[{"name":"borrower","type":"address","internalType":"address"},{"name":"liquidator","type":"address","internalType":"address"},{"name":"collateralToken","type":"address","internalType":"address"},{"name":"amount","type":"uint256","internalType":"uint256"},{"name":"fee","type":"uint256","internalType":"uint256"}],"outputs":[],"stateMutability":"nonpayable"},{"type":"function","name":"unlockCollateral","inputs":[{"name":"borrower","type":"address","internalType":"address"}],"outputs":[],"stateMutability":"nonpayable"},{"type":"function","name":"unlockMyCollateral","inputs":[{"name":"collateralTokens","type":"address[]","internalType":"address[]"}],"outputs":[],"stateMutability":"nonpayable"},{"type":"event","name":"BidCreated","inputs":[{"name":"submitter","type":"address","indexed":true,"internalType":"address"},{"name":"quantity","type":"uint256","indexed":false,"internalType":"uint256"}],"anonymous":false},{"type":"event","name":"BidForwarded","inputs":[{"name":"bidder","type":"address","indexed":true,"internalType":"address"},{"name":"bidAmount","type":"uint256","indexed":false,"internalType":"uint256"},{"name":"encryptedRate","type":"bytes","indexed":false,"internalType":"bytes"}],"anonymous":false},{"type":"error","name":"ReentrancyGuardReentrantCall","inputs":[]}],"bytecode":{"object":"0x608060405234801561000f575f80fd5b5060405161314438038061314483398101604081905261002e916101b0565b60015f556001600160a01b03841661007c5760405162461bcd60e51b815260206004820152600c60248201526b5a65726f206164647265737360a01b60448201526064015b60405180910390fd5b600680546001600160a01b038087166001600160a01b031992831681179093556007805491871691909216179055604080516307dc0d1d60e41b81529051637dc0d1d0916004808201926020929091908290030181865afa1580156100e3573d5f803e3d5ffd5b505050506040513d601f19601f820116820180604052508101906101079190610202565b600880546001600160a01b039283166001600160a01b03199182161790915560098054821633179055600a849055600b805492841692909116821790556101905760405162461bcd60e51b815260206004820152601660248201527f5a65726f206164647265737320666f7220746f6b656e000000000000000000006044820152606401610073565b50505050610224565b6001600160a01b03811681146101ad575f80fd5b50565b5f805f80608085870312156101c3575f80fd5b84516101ce81610199565b60208601519094506101df81610199565b6040860151606087015191945092506101f781610199565b939692955090935050565b5f60208284031215610212575f80fd5b815161021d81610199565b9392505050565b612f13806102315f395ff3fe608060405234801561000f575f80fd5b506004361061011c575f3560e01c80634c9981f6116100a957806392eefe9b1161006e57806392eefe9b1461029c578063b81c78ec146102af578063d9a03639146102c4578063f77c4791146102d7578063fc0c546a146102ea575f80fd5b80634c9981f61461023257806368a78f981461023b57806374dc3cbb1461024e5780637c8c237d146102615780637dc0d1d014610289575f80fd5b80632fb665fe116100ef5780632fb665fe146101a85780633f001fd9146101bd5780634423c5f1146101d057806344b8f8ed146101f2578063481c6a751461021f575f80fd5b80630c8ffe461461012057806317cc0d75146101485780631fb321411461017357806324a045ca14610186575b5f80fd5b61013361012e366004612697565b6102fd565b60405190151581526020015b60405180910390f35b60065461015b906001600160a01b031681565b6040516001600160a01b03909116815260200161013f565b60075461015b906001600160a01b031681565b6101336101943660046126c1565b60036020525f908152604090205460ff1681565b6101bb6101b63660046126dc565b6106f2565b005b6101bb6101cb3660046126c1565b6109ba565b6101e36101de366004612733565b610d2b565b60405161013f93929190612778565b6102116102003660046126c1565b60026020525f908152604090205481565b60405190815260200161013f565b60055461015b906001600160a01b031681565b610211600a5481565b6101336102493660046127a8565b610ddb565b6101bb61025c366004612822565b6112f3565b61027461026f366004612909565b611d00565b6040805192835260208301919091520161013f565b60085461015b906001600160a01b031681565b6101bb6102aa3660046126c1565b611fc9565b6102b761207b565b60405161013f919061293e565b6101bb6102d2366004612a19565b612276565b60095461015b906001600160a01b031681565b600b5461015b906001600160a01b031681565b600854600b546040516303d3c9db60e21b81526001600160a01b039182166004820152602481018490525f9284928492911690630f4f276c90604401602060405180830381865afa158015610354573d5f803e3d5ffd5b505050506040513d601f19601f820116820180604052508101906103789190612a58565b6001600160a01b0386165f9081526002602052604081205491925090819060019082906103a6908390612a83565b81526020019081526020015f2060030180548060200260200160405190810160405280929190818152602001828054801561040857602002820191905f5260205f20905b81546001600160a01b031681526001909101906020018083116103ea575b505050505090505f5b81518110156106d05760085482515f916001600160a01b031690630f4f276c9085908590811061044357610443612a96565b602002602001015185858151811061045d5761045d612a96565b60200260200101516001600160a01b031663313ce5676040518163ffffffff1660e01b8152600401602060405180830381865afa1580156104a0573d5f803e3d5ffd5b505050506040513d601f19601f820116820180604052508101906104c49190612aaa565b6104cf90600a612bad565b60065487516001600160a01b0390911690635c2549ee908f908a908a9081106104fa576104fa612a96565b60200260200101516040518363ffffffff1660e01b81526004016105349291906001600160a01b0392831681529116602082015260400190565b602060405180830381865afa15801561054f573d5f803e3d5ffd5b505050506040513d601f19601f820116820180604052508101906105739190612a58565b61057d9190612bbb565b6040516001600160e01b031960e085901b1681526001600160a01b0390921660048301526024820152604401602060405180830381865afa1580156105c4573d5f803e3d5ffd5b505050506040513d601f19601f820116820180604052508101906105e89190612a58565b60065484519192505f916001600160a01b0390911690638b70c70f9086908690811061061657610616612a96565b60200260200101516040518263ffffffff1660e01b815260040161064991906001600160a01b0391909116815260200190565b602060405180830381865afa158015610664573d5f803e3d5ffd5b505050506040513d601f19601f820116820180604052508101906106889190612a58565b9050805f036106985750506106c8565b5f816106ac84670de0b6b3a7640000612bbb565b6106b69190612bd2565b90506106c28187612bf1565b95505050505b600101610411565b506106e383670de0b6b3a7640000612bbb565b82109450505050505b92915050565b6007546001600160a01b031633146107465760405162461bcd60e51b81526020600482015260126024820152714e6f742061756374696f6e20656e67696e6560701b60448201526064015b60405180910390fd5b61074e6125d4565b6006546040516306cbcdb960e51b81526001600160a01b0385811660048301529091169063d979b72090602401602060405180830381865afa158015610796573d5f803e3d5ffd5b505050506040513d601f19601f820116820180604052508101906107ba9190612c04565b6107fb5760405162461bcd60e51b8152602060048201526012602482015271125b9d985b1a590818dbdb1b185d195c985b60721b604482015260640161073d565b5f821161083b5760405162461bcd60e51b815260206004820152600e60248201526d125b9d985b1a5908185b5bdd5b9d60921b604482015260640161073d565b6006546001600160a01b031663f18d03cc8686866108598688612a83565b6040516001600160e01b031960e087901b1681526001600160a01b03948516600482015292841660248401529216604482015260648101919091526084015f604051808303815f87803b1580156108ae575f80fd5b505af11580156108c0573d5f803e3d5ffd5b5050600654600754604080516302d05d3f60e01b815290516001600160a01b03938416955063f18d03cc94508a93909216916302d05d3f916004808201926020929091908290030181865afa15801561091b573d5f803e3d5ffd5b505050506040513d601f19601f8201168201806040525081019061093f9190612c2e565b6040516001600160e01b031960e085901b1681526001600160a01b03928316600482015290821660248201529086166044820152606481018490526084015f604051808303815f87803b158015610994575f80fd5b505af11580156109a6573d5f803e3d5ffd5b505050506109b360015f55565b5050505050565b6007546001600160a01b03163314610a095760405162461bcd60e51b81526020600482015260126024820152714e6f742061756374696f6e20656e67696e6560701b604482015260640161073d565b610a116125d4565b6001600160a01b0381165f9081526003602052604090205460ff16610a6f5760405162461bcd60e51b8152602060048201526014602482015273139bc81b1bd8dad9590818dbdb1b185d195c985b60621b604482015260640161073d565b6001600160a01b0381165f9081526002602052604081205490600181610a958285612a83565b81526020019081526020015f206040518060800160405290815f8201548152602001600182018054610ac690612c49565b80601f0160208091040260200160405190810160405280929190818152602001828054610af290612c49565b8015610b3d5780601f10610b1457610100808354040283529160200191610b3d565b820191905f5260205f20905b815481529060010190602001808311610b2057829003601f168201915b505050918352505060028201546001600160a01b03166020808301919091526003830180546040805182850281018501825282815294019392830182828015610bad57602002820191905f5260205f20905b81546001600160a01b03168152600190910190602001808311610b8f575b50505050508152505090505f5b816060015151811015610d1c57600654606083015180515f926001600160a01b031691633419d6ef9188919086908110610bf657610bf6612a96565b60200260200101516040518363ffffffff1660e01b8152600401610c309291906001600160a01b0392831681529116602082015260400190565b602060405180830381865afa158015610c4b573d5f803e3d5ffd5b505050506040513d601f19601f82011682018060405250810190610c6f9190612a58565b90508015610d1357600654606084015180516001600160a01b03909216916359508f8f91889186908110610ca557610ca5612a96565b60209081029190910101516040516001600160e01b031960e085901b1681526001600160a01b03928316600482015291166024820152604481018490526064015f604051808303815f87803b158015610cfc575f80fd5b505af1158015610d0e573d5f803e3d5ffd5b505050505b50600101610bba565b505050610d2860015f55565b50565b600160208190525f918252604090912080549181018054610d4b90612c49565b80601f0160208091040260200160405190810160405280929190818152602001828054610d7790612c49565b8015610dc25780601f10610d9957610100808354040283529160200191610dc2565b820191905f5260205f20905b815481529060010190602001808311610da557829003601f168201915b505050600290930154919250506001600160a01b031683565b5f825f03610deb575060016112ec565b5f610dfe670de0b6b3a764000084612bd2565b90505f8115610e4b57670de0b6b3a7640000610e2083655af3107a4000612bbb565b610e3290670de0b6b3a7640000612bf1565b610e3c9087612bbb565b610e469190612bd2565b610e4d565b845b600854600b546040805163313ce56760e01b815290519394505f936001600160a01b0393841693630f4f276c931691829163313ce567916004808201926020929091908290030181865afa158015610ea7573d5f803e3d5ffd5b505050506040513d601f19601f82011682018060405250810190610ecb9190612aaa565b610ed690600a612bad565b610ee09086612bbb565b6040516001600160e01b031960e085901b1681526001600160a01b0390921660048301526024820152604401602060405180830381865afa158015610f27573d5f803e3d5ffd5b505050506040513d601f19601f82011682018060405250810190610f4b9190612a58565b90505f60065f9054906101000a90046001600160a01b03166001600160a01b031663b72a7e2e6040518163ffffffff1660e01b81526004015f60405180830381865afa158015610f9d573d5f803e3d5ffd5b505050506040513d5f823e601f3d908101601f19168201604052610fc49190810190612c8f565b90505f805b82518110156112d05760065483515f916001600160a01b031690635c2549ee908d90879086908110610ffd57610ffd612a96565b60200260200101516040518363ffffffff1660e01b81526004016110379291906001600160a01b0392831681529116602082015260400190565b602060405180830381865afa158015611052573d5f803e3d5ffd5b505050506040513d601f19601f820116820180604052508101906110769190612a58565b9050805f0361108557506112c8565b60065484515f916001600160a01b031690638b70c70f908790869081106110ae576110ae612a96565b60200260200101516040518263ffffffff1660e01b81526004016110e191906001600160a01b0391909116815260200190565b602060405180830381865afa1580156110fc573d5f803e3d5ffd5b505050506040513d601f19601f820116820180604052508101906111209190612a58565b90505f811161115e5760405162461bcd60e51b815260206004820152600a6024820152695a65726f20726174696f60b01b604482015260640161073d565b5f85848151811061117157611171612a96565b60200260200101516001600160a01b031663313ce5676040518163ffffffff1660e01b8152600401602060405180830381865afa1580156111b4573d5f803e3d5ffd5b505050506040513d601f19601f820116820180604052508101906111d89190612aaa565b6111e390600a612bad565b6111ed9084612bbb565b60085487519192505f916001600160a01b0390911690630f4f276c9089908890811061121b5761121b612a96565b6020026020010151846040518363ffffffff1660e01b81526004016112559291906001600160a01b03929092168252602082015260400190565b602060405180830381865afa158015611270573d5f803e3d5ffd5b505050506040513d601f19601f820116820180604052508101906112949190612a58565b90505f836112aa83670de0b6b3a7640000612bbb565b6112b49190612bd2565b90506112c08188612bf1565b965050505050505b600101610fc9565b506112e383670de0b6b3a7640000612bbb565b11159450505050505b9392505050565b6112fb6125d4565b600b546001600160a01b038281169116146113485760405162461bcd60e51b815260206004820152600d60248201526c24b73b30b634b2103a37b5b2b760991b604482015260640161073d565b8382146113975760405162461bcd60e51b815260206004820152601860248201527f4d69736d61746368656420696e707574206c656e677468730000000000000000604482015260640161073d565b6007546040805163fc519f1560e01b815290515f926001600160a01b03169163fc519f159160048083019260209291908290030181865afa1580156113de573d5f803e3d5ffd5b505050506040513d601f19601f820116820180604052508101906114029190612d6e565b600381111561141357611413612d5a565b146114605760405162461bcd60e51b815260206004820152601a60248201527f41756374696f6e206e6f7420616363657074696e672062696473000000000000604482015260640161073d565b5f881180156114715750600a548811155b6114b25760405162461bcd60e51b8152602060048201526012602482015271125b9d985b1a5908189a5908185b5bdd5b9d60721b604482015260640161073d565b335f90815260026020526040902054156115065760405162461bcd60e51b8152602060048201526015602482015274109a5908185b1c9958591e481cdd589b5a5d1d1959605a1b604482015260640161073d565b60075f9054906101000a90046001600160a01b03166001600160a01b031663dd58302e6040518163ffffffff1660e01b8152600401602060405180830381865afa158015611556573d5f803e3d5ffd5b505050506040513d601f19601f8201168201806040525081019061157a9190612c04565b156115bb5760405162461bcd60e51b8152602060048201526011602482015270105d58dd1a5bdb8818d85b98d95b1b1959607a1b604482015260640161073d565b5f816001600160a01b031663313ce5676040518163ffffffff1660e01b8152600401602060405180830381865afa1580156115f8573d5f803e3d5ffd5b505050506040513d601f19601f8201168201806040525081019061161c9190612aaa565b61162790600a612bad565b611631908a612bbb565b6008546040516303d3c9db60e21b81526001600160a01b038581166004830152602482018490529293505f9290911690630f4f276c90604401602060405180830381865afa158015611685573d5f803e3d5ffd5b505050506040513d601f19601f820116820180604052508101906116a99190612a58565b90505f805b8781101561179d576006546001600160a01b031663d979b7208a8a848181106116d9576116d9612a96565b90506020020160208101906116ee91906126c1565b6040516001600160e01b031960e084901b1681526001600160a01b039091166004820152602401602060405180830381865afa158015611730573d5f803e3d5ffd5b505050506040513d601f19601f820116820180604052508101906117549190612c04565b6117955760405162461bcd60e51b8152602060048201526012602482015271125b9d985b1a590818dbdb1b185d195c985b60721b604482015260640161073d565b6001016116ae565b505f5b87811015611a43578686828181106117ba576117ba612a96565b905060200201355f0315611a3b576006545f906001600160a01b0316632a1e8cdb8b8b858181106117ed576117ed612a96565b905060200201602081019061180291906126c1565b6040516001600160e01b031960e084901b1681526001600160a01b039091166004820152602401602060405180830381865afa158015611844573d5f803e3d5ffd5b505050506040513d601f19601f820116820180604052508101906118689190612a58565b90505f81116118a95760405162461bcd60e51b815260206004820152600d60248201526c526174696f206973207a65726f60981b604482015260640161073d565b5f8a8a848181106118bc576118bc612a96565b90506020020160208101906118d191906126c1565b6001600160a01b031663313ce5676040518163ffffffff1660e01b8152600401602060405180830381865afa15801561190c573d5f803e3d5ffd5b505050506040513d601f19601f820116820180604052508101906119309190612aaa565b61193b90600a612bad565b89898581811061194d5761194d612a96565b9050602002013561195e9190612bbb565b6008549091505f906001600160a01b0316630f4f276c8d8d8781811061198657611986612a96565b905060200201602081019061199b91906126c1565b6040516001600160e01b031960e084901b1681526001600160a01b03909116600482015260248101859052604401602060405180830381865afa1580156119e4573d5f803e3d5ffd5b505050506040513d601f19601f82011682018060405250810190611a089190612a58565b90505f83611a1e83670de0b6b3a7640000612bbb565b611a289190612bd2565b9050611a348187612bf1565b9550505050505b6001016117a0565b50611a5682670de0b6b3a7640000612bbb565b811015611a9c5760405162461bcd60e51b815260206004820152601460248201527310dbdb1b185d195c985b081cda1bdc9d19985b1b60621b604482015260640161073d565b5f5b87811015611b67576006546001600160a01b0316637750c9f0338b8b85818110611aca57611aca612a96565b9050602002016020810190611adf91906126c1565b8a8a86818110611af157611af1612a96565b6040516001600160e01b031960e088901b1681526001600160a01b039586166004820152949093166024850152506020909102013560448201526064015f604051808303815f87803b158015611b45575f80fd5b505af1158015611b57573d5f803e3d5ffd5b505060019092019150611a9e9050565b505f60405180608001604052808d81526020018c8c8080601f0160208091040260200160405190810160405280939291908181526020018383808284375f9201919091525050509082525033602080830191909152604080518c8302818101840183528d82529190930192918d918d918291908501908490808284375f920191909152505050915250600454909150611c01906001612bf1565b335f90815260026020908152604080832093909355600454825260018082529290912083518155908301518392820190611c3b9082612dd5565b5060408201516002820180546001600160a01b0319166001600160a01b0390921691909117905560608201518051611c7d9160038401916020909101906125fc565b50506004805491505f611c8f83612e90565b9091555050335f8181526003602052604090819020805460ff19166001179055517f5649968bc88a37533a14816c147285a4948da864145bd9827d8f67109406e27b90611ce1908f908f908f90612ea8565b60405180910390a250505050611cf660015f55565b5050505050505050565b5f805f600b5f9054906101000a90046001600160a01b03166001600160a01b031663313ce5676040518163ffffffff1660e01b8152600401602060405180830381865afa158015611d53573d5f803e3d5ffd5b505050506040513d601f19601f82011682018060405250810190611d779190612aaa565b611d8290600a612bad565b611d8c9087612bbb565b600854600b546040516303d3c9db60e21b81526001600160a01b039182166004820152602481018490529293505f92911690630f4f276c90604401602060405180830381865afa158015611de2573d5f803e3d5ffd5b505050506040513d601f19601f82011682018060405250810190611e069190612a58565b90505f60085f9054906101000a90046001600160a01b03166001600160a01b0316630f4f276c88896001600160a01b031663313ce5676040518163ffffffff1660e01b8152600401602060405180830381865afa158015611e69573d5f803e3d5ffd5b505050506040513d601f19601f82011682018060405250810190611e8d9190612aaa565b611e9890600a612bad565b6040516001600160e01b031960e085901b1681526001600160a01b0390921660048301526024820152604401602060405180830381865afa158015611edf573d5f803e3d5ffd5b505050506040513d601f19601f82011682018060405250810190611f039190612a58565b90505f8111611f545760405162461bcd60e51b815260206004820152601860248201527f496e76616c696420636f6c6c61746572616c2070726963650000000000000000604482015260640161073d565b5f81611f6884670de0b6b3a7640000612bbb565b611f729190612bd2565b90505f670de0b6b3a7640000611f888984612bbb565b611f929190612bd2565b9050611fa6670de0b6b3a764000083612bd2565b9650611fba670de0b6b3a764000082612bd2565b95505050505050935093915050565b6009546001600160a01b031633146120145760405162461bcd60e51b815260206004820152600e60248201526d2737ba1031b7b73a3937b63632b960911b604482015260640161073d565b6001600160a01b0381166120595760405162461bcd60e51b815260206004820152600c60248201526b5a65726f206164647265737360a01b604482015260640161073d565b600980546001600160a01b0319166001600160a01b0392909216919091179055565b60605f60045467ffffffffffffffff81111561209957612099612c7b565b6040519080825280602002602001820160405280156120fc57816020015b6120e960405180608001604052805f8152602001606081526020015f6001600160a01b03168152602001606081525090565b8152602001906001900390816120b75790505b5090505f5b600454811015612270575f818152600160205260409020600201546001600160a01b031615612268575f818152600160208181526040928390208351608081019094528054845291820180549184019161215a90612c49565b80601f016020809104026020016040519081016040528092919081815260200182805461218690612c49565b80156121d15780601f106121a8576101008083540402835291602001916121d1565b820191905f5260205f20905b8154815290600101906020018083116121b457829003601f168201915b505050918352505060028201546001600160a01b0316602080830191909152600383018054604080518285028101850182528281529401939283018282801561224157602002820191905f5260205f20905b81546001600160a01b03168152600190910190602001808311612223575b50505050508152505082828151811061225c5761225c612a96565b60200260200101819052505b600101612101565b50919050565b61227e6125d4565b60075f9054906101000a90046001600160a01b03166001600160a01b031663dd58302e6040518163ffffffff1660e01b8152600401602060405180830381865afa1580156122ce573d5f803e3d5ffd5b505050506040513d601f19601f820116820180604052508101906122f29190612c04565b6123365760405162461bcd60e51b8152602060048201526015602482015274105d58dd1a5bdb881b9bdd0818d85b98d95b1b1959605a1b604482015260640161073d565b335f9081526003602052604090205460ff1661238b5760405162461bcd60e51b8152602060048201526014602482015273139bc81b1bd8dad9590818dbdb1b185d195c985b60621b604482015260640161073d565b5f5b818110156124ea576006545f906001600160a01b0316633419d6ef338686868181106123bb576123bb612a96565b90506020020160208101906123d091906126c1565b6040516001600160e01b031960e085901b1681526001600160a01b03928316600482015291166024820152604401602060405180830381865afa158015612419573d5f803e3d5ffd5b505050506040513d601f19601f8201168201806040525081019061243d9190612a58565b905080156124e1576006546001600160a01b03166359508f8f3386868681811061246957612469612a96565b905060200201602081019061247e91906126c1565b6040516001600160e01b031960e085901b1681526001600160a01b03928316600482015291166024820152604481018490526064015f604051808303815f87803b1580156124ca575f80fd5b505af11580156124dc573d5f803e3d5ffd5b505050505b5060010161238d565b50335f818152600360209081526040808320805460ff191690558051608081018252838152815180840183528481528184015280820184905281518481528084018352606082015293835260029091528120546001919061254c908390612a83565b81526020808201929092526040015f20825181559082015160018201906125739082612dd5565b5060408201516002820180546001600160a01b0319166001600160a01b03909216919091179055606082015180516125b59160038401916020909101906125fc565b5050335f90815260026020526040812055506125d060015f55565b5050565b60025f54036125f657604051633ee5aeb560e01b815260040160405180910390fd5b60025f55565b828054828255905f5260205f2090810192821561264f579160200282015b8281111561264f57825182546001600160a01b0319166001600160a01b0390911617825560209092019160019091019061261a565b5061265b92915061265f565b5090565b5b8082111561265b575f8155600101612660565b6001600160a01b0381168114610d28575f80fd5b803561269281612673565b919050565b5f80604083850312156126a8575f80fd5b82356126b381612673565b946020939093013593505050565b5f602082840312156126d1575f80fd5b81356112ec81612673565b5f805f805f60a086880312156126f0575f80fd5b85356126fb81612673565b9450602086013561270b81612673565b9350604086013561271b81612673565b94979396509394606081013594506080013592915050565b5f60208284031215612743575f80fd5b5035919050565b5f81518084528060208401602086015e5f602082860101526020601f19601f83011685010191505092915050565b838152606060208201525f612790606083018561274a565b905060018060a01b0383166040830152949350505050565b5f805f606084860312156127ba575f80fd5b83356127c581612673565b95602085013595506040909401359392505050565b5f8083601f8401126127ea575f80fd5b50813567ffffffffffffffff811115612801575f80fd5b6020830191508360208260051b850101111561281b575f80fd5b9250929050565b5f805f805f805f8060a0898b031215612839575f80fd5b88359750602089013567ffffffffffffffff811115612856575f80fd5b8901601f81018b13612866575f80fd5b803567ffffffffffffffff81111561287c575f80fd5b8b602082840101111561288d575f80fd5b60209190910197509550604089013567ffffffffffffffff8111156128b0575f80fd5b6128bc8b828c016127da565b909650945050606089013567ffffffffffffffff8111156128db575f80fd5b6128e78b828c016127da565b90945092506128fa905060808a01612687565b90509295985092959890939650565b5f805f6060848603121561291b575f80fd5b83359250602084013561292d81612673565b929592945050506040919091013590565b5f602082016020835280845180835260408501915060408160051b8601019250602086015f5b82811015612a0d57603f19878603018452815180518652602081015160806020880152612994608088018261274a565b6040838101516001600160a01b0316908901526060928301518882039389019390935282518082526020938401935f9350909101905b808310156129f55783516001600160a01b0316825260209384019360019390930192909101906129ca565b50965050506020938401939190910190600101612964565b50929695505050505050565b5f8060208385031215612a2a575f80fd5b823567ffffffffffffffff811115612a40575f80fd5b612a4c858286016127da565b90969095509350505050565b5f60208284031215612a68575f80fd5b5051919050565b634e487b7160e01b5f52601160045260245ffd5b818103818111156106ec576106ec612a6f565b634e487b7160e01b5f52603260045260245ffd5b5f60208284031215612aba575f80fd5b815160ff811681146112ec575f80fd5b6001815b6001841115612b0557808504811115612ae957612ae9612a6f565b6001841615612af757908102905b60019390931c928002612ace565b935093915050565b5f82612b1b575060016106ec565b81612b2757505f6106ec565b8160018114612b3d5760028114612b4757612b63565b60019150506106ec565b60ff841115612b5857612b58612a6f565b50506001821b6106ec565b5060208310610133831016604e8410600b8410161715612b86575081810a6106ec565b612b925f198484612aca565b805f1904821115612ba557612ba5612a6f565b029392505050565b5f6112ec60ff841683612b0d565b80820281158282048414176106ec576106ec612a6f565b5f82612bec57634e487b7160e01b5f52601260045260245ffd5b500490565b808201808211156106ec576106ec612a6f565b5f60208284031215612c14575f80fd5b815180151581146112ec575f80fd5b805161269281612673565b5f60208284031215612c3e575f80fd5b81516112ec81612673565b600181811c90821680612c5d57607f821691505b60208210810361227057634e487b7160e01b5f52602260045260245ffd5b634e487b7160e01b5f52604160045260245ffd5b5f60208284031215612c9f575f80fd5b815167ffffffffffffffff811115612cb5575f80fd5b8201601f81018413612cc5575f80fd5b805167ffffffffffffffff811115612cdf57612cdf612c7b565b8060051b604051601f19603f830116810181811067ffffffffffffffff82111715612d0c57612d0c612c7b565b604052918252602081840181019290810187841115612d29575f80fd5b6020850194505b83851015612d4f57612d4185612c23565b815260209485019401612d30565b509695505050505050565b634e487b7160e01b5f52602160045260245ffd5b5f60208284031215612d7e575f80fd5b8151600481106112ec575f80fd5b601f821115612dd057805f5260205f20601f840160051c81016020851015612db15750805b601f840160051c820191505b818110156109b3575f8155600101612dbd565b505050565b815167ffffffffffffffff811115612def57612def612c7b565b612e0381612dfd8454612c49565b84612d8c565b6020601f821160018114612e35575f8315612e1e5750848201515b5f19600385901b1c1916600184901b1784556109b3565b5f84815260208120601f198516915b82811015612e645787850151825560209485019460019092019101612e44565b5084821015612e8157868401515f19600387901b60f8161c191681555b50505050600190811b01905550565b5f60018201612ea157612ea1612a6f565b5060010190565b83815260406020820152816040820152818360608301375f818301606090810191909152601f909201601f191601019291505056fea264697066735822122045d9f781e6e01174efffb422a6fc139e8874c57a5216fe3b5b0bfd265e6feae864736f6c634300081a0033","linkReferences":{}},"methodIdentifiers":{"auctionEngine()":"1fb32141","bidSubmitted(address)":"44b8f8ed","bids(uint256)":"4423c5f1","calculateEquivalentAmount(uint256,address,uint256)":"7c8c237d","checkMaintenanceRatio(address,uint256,uint256)":"68a78f98","collatMgr()":"17cc0d75","collateralLocked(address)":"24a045ca","controller()":"f77c4791","getBids()":"b81c78ec","isInShortFall(address,uint256)":"0c8ffe46","manager()":"481c6a75","maxBidAmount()":"4c9981f6","oracle()":"7dc0d1d0","setController(address)":"92eefe9b","submitBid(uint256,bytes,address[],uint256[],address)":"74dc3cbb","token()":"fc0c546a","transferCollateral(address,address,address,uint256,uint256)":"2fb665fe","unlockCollateral(address)":"3f001fd9","unlockMyCollateral(address[])":"d9a03639"},"id":2}