{"abi":[{"type":"constructor","inputs":[{"name":"_oracle","type":"address","internalType":"address"}],"stateMutability":"nonpayable"},{"type":"function","name":"acceptedCollateralTokens","inputs":[{"name":"","type":"uint256","internalType":"uint256"}],"outputs":[{"name":"","type":"address","internalType":"address"}],"stateMutability":"view"},{"type":"function","name":"addAcceptedCollateralToken","inputs":[{"name":"token","type":"address","internalType":"address"},{"name":"initialRatio","type":"uint256","internalType":"uint256"}],"outputs":[],"stateMutability":"nonpayable"},{"type":"function","name":"collateralBalanceOf","inputs":[{"name":"user","type":"address","internalType":"address"},{"name":"token","type":"address","internalType":"address"}],"outputs":[{"name":"","type":"uint256","internalType":"uint256"}],"stateMutability":"view"},{"type":"function","name":"getAcceptedCollateralTokens","inputs":[],"outputs":[{"name":"","type":"address[]","internalType":"address[]"}],"stateMutability":"view"},{"type":"function","name":"initialCollateralRatios","inputs":[{"name":"","type":"address","internalType":"address"}],"outputs":[{"name":"","type":"uint256","internalType":"uint256"}],"stateMutability":"view"},{"type":"function","name":"isAcceptedCollateral","inputs":[{"name":"","type":"address","internalType":"address"}],"outputs":[{"name":"","type":"bool","internalType":"bool"}],"stateMutability":"view"},{"type":"function","name":"lock","inputs":[{"name":"user","type":"address","internalType":"address"},{"name":"token","type":"address","internalType":"address"},{"name":"amount","type":"uint256","internalType":"uint256"}],"outputs":[],"stateMutability":"nonpayable"},{"type":"function","name":"lockedBalance","inputs":[{"name":"user","type":"address","internalType":"address"},{"name":"token","type":"address","internalType":"address"}],"outputs":[{"name":"","type":"uint256","internalType":"uint256"}],"stateMutability":"view"},{"type":"function","name":"maintenanceRatios","inputs":[{"name":"","type":"address","internalType":"address"}],"outputs":[{"name":"","type":"uint256","internalType":"uint256"}],"stateMutability":"view"},{"type":"function","name":"manager","inputs":[],"outputs":[{"name":"","type":"address","internalType":"address"}],"stateMutability":"view"},{"type":"function","name":"oracle","inputs":[],"outputs":[{"name":"","type":"address","internalType":"contract IOracle"}],"stateMutability":"view"},{"type":"function","name":"owner","inputs":[],"outputs":[{"name":"","type":"address","internalType":"address"}],"stateMutability":"view"},{"type":"function","name":"renounceOwnership","inputs":[],"outputs":[],"stateMutability":"nonpayable"},{"type":"function","name":"setMaintenanceRatio","inputs":[{"name":"token","type":"address","internalType":"address"},{"name":"ratioBP","type":"uint256","internalType":"uint256"}],"outputs":[],"stateMutability":"nonpayable"},{"type":"function","name":"setManager","inputs":[{"name":"_manager","type":"address","internalType":"address"}],"outputs":[],"stateMutability":"nonpayable"},{"type":"function","name":"tokenDecimals","inputs":[{"name":"","type":"address","internalType":"address"}],"outputs":[{"name":"","type":"uint8","internalType":"uint8"}],"stateMutability":"view"},{"type":"function","name":"transfer","inputs":[{"name":"from","type":"address","internalType":"address"},{"name":"to","type":"address","internalType":"address"},{"name":"token","type":"address","internalType":"address"},{"name":"amount","type":"uint256","internalType":"uint256"}],"outputs":[],"stateMutability":"nonpayable"},{"type":"function","name":"transferOwnership","inputs":[{"name":"newOwner","type":"address","internalType":"address"}],"outputs":[],"stateMutability":"nonpayable"},{"type":"function","name":"unlock","inputs":[{"name":"user","type":"address","internalType":"address"},{"name":"token","type":"address","internalType":"address"},{"name":"amount","type":"uint256","internalType":"uint256"}],"outputs":[],"stateMutability":"nonpayable"},{"type":"event","name":"CollateralTokenAdded","inputs":[{"name":"token","type":"address","indexed":false,"internalType":"address"}],"anonymous":false},{"type":"event","name":"Locked","inputs":[{"name":"user","type":"address","indexed":true,"internalType":"address"},{"name":"token","type":"address","indexed":true,"internalType":"address"},{"name":"amount","type":"uint256","indexed":false,"internalType":"uint256"}],"anonymous":false},{"type":"event","name":"MaintenanceRatioSet","inputs":[{"name":"token","type":"address","indexed":true,"internalType":"address"},{"name":"ratioBP","type":"uint256","indexed":false,"internalType":"uint256"}],"anonymous":false},{"type":"event","name":"OwnershipTransferred","inputs":[{"name":"previousOwner","type":"address","indexed":true,"internalType":"address"},{"name":"newOwner","type":"address","indexed":true,"internalType":"address"}],"anonymous":false},{"type":"event","name":"Unlocked","inputs":[{"name":"user","type":"address","indexed":true,"internalType":"address"},{"name":"token","type":"address","indexed":true,"internalType":"address"},{"name":"amount","type":"uint256","indexed":false,"internalType":"uint256"}],"anonymous":false},{"type":"event","name":"managerSet","inputs":[{"name":"manager","type":"address","indexed":false,"internalType":"address"}],"anonymous":false},{"type":"error","name":"OwnableInvalidOwner","inputs":[{"name":"owner","type":"address","internalType":"address"}]},{"type":"error","name":"OwnableUnauthorizedAccount","inputs":[{"name":"account","type":"address","internalType":"address"}]},{"type":"error","name":"ReentrancyGuardReentrantCall","inputs":[]}],"bytecode":{"object":"0x608060405234801561000f575f80fd5b506040516111b63803806111b683398101604081905261002e9161011f565b60015f55338061005857604051631e4fbdf760e01b81525f60048201526024015b60405180910390fd5b610061816100ce565b506001600160a01b0381166100a95760405162461bcd60e51b815260206004820152600e60248201526d496e76616c6964206f7261636c6560901b604482015260640161004f565b600280546001600160a01b0319166001600160a01b039290921691909117905561014c565b600180546001600160a01b038381166001600160a01b0319831681179093556040519116919082907f8be0079c531659141344cd1fd0a4f28419497f9722a3daafe3b4186f6b6457e0905f90a35050565b5f6020828403121561012f575f80fd5b81516001600160a01b0381168114610145575f80fd5b9392505050565b61105d806101595f395ff3fe608060405234801561000f575f80fd5b506004361061011c575f3560e01c80638b70c70f116100a9578063d0ebdbe71161006e578063d0ebdbe714610272578063d979b72014610285578063f18d03cc146102b7578063f2fde38b146102ca578063fa768d88146102dd575f80fd5b80638b70c70f146101e65780638da5cb5b146102055780638ee573ac14610216578063b72a7e2e1461024a578063d0e1c2fa1461025f575f80fd5b80635c2549ee116100ef5780635c2549ee146101525780636851d293146101a5578063715018a6146101b85780637750c9f0146101c05780637dc0d1d0146101d3575f80fd5b80632a1e8cdb146101205780633419d6ef14610152578063481c6a751461016557806359508f8f14610190575b5f80fd5b61013f61012e366004610cf8565b60046020525f908152604090205481565b6040519081526020015b60405180910390f35b61013f610160366004610d18565b6102f0565b600354610178906001600160a01b031681565b6040516001600160a01b039091168152602001610149565b6101a361019e366004610d49565b61031c565b005b6101a36101b3366004610d83565b61052c565b6101a361058c565b6101a36101ce366004610d49565b61059f565b600254610178906001600160a01b031681565b61013f6101f4366004610cf8565b60066020525f908152604090205481565b6001546001600160a01b0316610178565b610238610224366004610cf8565b60096020525f908152604090205460ff1681565b60405160ff9091168152602001610149565b6102526107d4565b6040516101499190610dab565b61017861026d366004610df6565b610834565b6101a3610280366004610cf8565b61085c565b6102a7610293366004610cf8565b60086020525f908152604090205460ff1681565b6040519015158152602001610149565b6101a36102c5366004610e0d565b6108b8565b6101a36102d8366004610cf8565b610a73565b6101a36102eb366004610d83565b610ab0565b6001600160a01b038083165f908152600560209081526040808320938516835292905220545b92915050565b6001546001600160a01b031633148061033f57506003546001600160a01b031633145b6103645760405162461bcd60e51b815260040161035b90610e55565b60405180910390fd5b61036c610c37565b6001600160a01b038084165f908152600560209081526040808320938616835292905220548111156103d65760405162461bcd60e51b8152602060048201526013602482015272125b9cdd59999a58da595b9d081b1bd8dad959606a1b604482015260640161035b565b6001600160a01b038084165f9081526005602090815260408083209386168352929052908120805483929061040c908490610e91565b90915550506001600160a01b0382165f8181526009602052604090205463a9059cbb90859061043f9060ff16600a610f87565b6104499085610f95565b6040516001600160e01b031960e085901b1681526001600160a01b03909216600483015260248201526044016020604051808303815f875af1158015610491573d5f803e3d5ffd5b505050506040513d601f19601f820116820180604052508101906104b59190610fac565b6104d15760405162461bcd60e51b815260040161035b90610fcb565b816001600160a01b0316836001600160a01b03167fe6e0ef9cd056ca98561ca60e347ada61e1ede2f1142a078951b7a52e1e508e608360405161051691815260200190565b60405180910390a361052760015f55565b505050565b610534610c5f565b6001600160a01b0382165f8181526006602052604090819020839055517f0300d2cf43b405589d202e7a216c41072aeaf6bb1390e42ca8e4dc88fb30a669906105809084815260200190565b60405180910390a25050565b610594610c5f565b61059d5f610c8c565b565b6001546001600160a01b03163314806105c257506003546001600160a01b031633145b6105de5760405162461bcd60e51b815260040161035b90610e55565b6105e6610c37565b6001600160a01b0382165f9081526008602052604090205460ff166106425760405162461bcd60e51b8152602060048201526012602482015271151bdad95b881b9bdd081858d8d95c1d195960721b604482015260640161035b565b5f81116106875760405162461bcd60e51b8152602060048201526013602482015272125b9cdd59999a58da595b9d08185b5bdd5b9d606a1b604482015260640161035b565b6001600160a01b0382165f818152600960205260409020546323b872dd90859030906106b79060ff16600a610f87565b6106c19086610f95565b6040516001600160e01b031960e086901b1681526001600160a01b03938416600482015292909116602483015260448201526064016020604051808303815f875af1158015610712573d5f803e3d5ffd5b505050506040513d601f19601f820116820180604052508101906107369190610fac565b6107525760405162461bcd60e51b815260040161035b90610fcb565b6001600160a01b038084165f90815260056020908152604080832093861683529290529081208054839290610788908490610ff4565b92505081905550816001600160a01b0316836001600160a01b03167f989eaa915cbb416ea3d6f9a63b1a3de51770c7674b11fe21ecdf76b4e1d139108360405161051691815260200190565b6060600780548060200260200160405190810160405280929190818152602001828054801561082a57602002820191905f5260205f20905b81546001600160a01b0316815260019091019060200180831161080c575b5050505050905090565b60078181548110610843575f80fd5b5f918252602090912001546001600160a01b0316905081565b610864610c5f565b600380546001600160a01b0319166001600160a01b0383169081179091556040519081527f94d3fec728cd645c623d9b6273cc26bd04df2057a0e8895130f6f342a91b01c39060200160405180910390a150565b6001546001600160a01b03163314806108db57506003546001600160a01b031633145b6108f75760405162461bcd60e51b815260040161035b90610e55565b6108ff610c37565b6001600160a01b038085165f908152600560209081526040808320938616835292905220548111156109695760405162461bcd60e51b8152602060048201526013602482015272125b9cdd59999a58da595b9d081b1bd8dad959606a1b604482015260640161035b565b6001600160a01b038085165f9081526005602090815260408083209386168352929052908120805483929061099f908490610e91565b90915550506001600160a01b0382165f8181526009602052604090205463a9059cbb9085906109d29060ff16600a610f87565b6109dc9085610f95565b6040516001600160e01b031960e085901b1681526001600160a01b03909216600483015260248201526044016020604051808303815f875af1158015610a24573d5f803e3d5ffd5b505050506040513d601f19601f82011682018060405250810190610a489190610fac565b610a645760405162461bcd60e51b815260040161035b90610fcb565b610a6d60015f55565b50505050565b610a7b610c5f565b6001600160a01b038116610aa457604051631e4fbdf760e01b81525f600482015260240161035b565b610aad81610c8c565b50565b610ab8610c5f565b6001600160a01b0382165f9081526008602052604090205460ff1615610b135760405162461bcd60e51b815260206004820152601060248201526f105b1c9958591e481858d8d95c1d195960821b604482015260640161035b565b6001600160a01b0382165f818152600860209081526040808320805460ff191660019081179091556007805491820190557fa66cc928b5edb82af9bd49922954155ab7b0942694bea4ce44661d9a8736c6880180546001600160a01b03191685179055600480835292819020859055805163313ce56760e01b8152905163313ce5679382810193928290030181865afa158015610bb2573d5f803e3d5ffd5b505050506040513d601f19601f82011682018060405250810190610bd69190611007565b6001600160a01b0383165f81815260096020908152604091829020805460ff191660ff9590951694909417909355519081527fd61bc477a25fa080e2c32ed9e4417ba4861d11b873216136586ddedadcff2f02910160405180910390a15050565b60025f5403610c5957604051633ee5aeb560e01b815260040160405180910390fd5b60025f55565b6001546001600160a01b0316331461059d5760405163118cdaa760e01b815233600482015260240161035b565b600180546001600160a01b038381166001600160a01b0319831681179093556040519116919082907f8be0079c531659141344cd1fd0a4f28419497f9722a3daafe3b4186f6b6457e0905f90a35050565b80356001600160a01b0381168114610cf3575f80fd5b919050565b5f60208284031215610d08575f80fd5b610d1182610cdd565b9392505050565b5f8060408385031215610d29575f80fd5b610d3283610cdd565b9150610d4060208401610cdd565b90509250929050565b5f805f60608486031215610d5b575f80fd5b610d6484610cdd565b9250610d7260208501610cdd565b929592945050506040919091013590565b5f8060408385031215610d94575f80fd5b610d9d83610cdd565b946020939093013593505050565b602080825282518282018190525f918401906040840190835b81811015610deb5783516001600160a01b0316835260209384019390920191600101610dc4565b509095945050505050565b5f60208284031215610e06575f80fd5b5035919050565b5f805f8060808587031215610e20575f80fd5b610e2985610cdd565b9350610e3760208601610cdd565b9250610e4560408601610cdd565b9396929550929360600135925050565b6020808252600e908201526d139bdd08185d5d1a1bdc9a5e995960921b604082015260600190565b634e487b7160e01b5f52601160045260245ffd5b8181038181111561031657610316610e7d565b6001815b6001841115610edf57808504811115610ec357610ec3610e7d565b6001841615610ed157908102905b60019390931c928002610ea8565b935093915050565b5f82610ef557506001610316565b81610f0157505f610316565b8160018114610f175760028114610f2157610f3d565b6001915050610316565b60ff841115610f3257610f32610e7d565b50506001821b610316565b5060208310610133831016604e8410600b8410161715610f60575081810a610316565b610f6c5f198484610ea4565b805f1904821115610f7f57610f7f610e7d565b029392505050565b5f610d1160ff841683610ee7565b808202811582820484141761031657610316610e7d565b5f60208284031215610fbc575f80fd5b81518015158114610d11575f80fd5b6020808252600f908201526e151c985b9cd9995c8819985a5b1959608a1b604082015260600190565b8082018082111561031657610316610e7d565b5f60208284031215611017575f80fd5b815160ff81168114610d11575f80fdfea2646970667358221220f89e37c1bbe2a097356393f431cf8dee162ca7a1a8571a731c7d388c3ceb06d964736f6c634300081a0033","linkReferences":{}},"methodIdentifiers":{"acceptedCollateralTokens(uint256)":"d0e1c2fa","addAcceptedCollateralToken(address,uint256)":"fa768d88","collateralBalanceOf(address,address)":"5c2549ee","getAcceptedCollateralTokens()":"b72a7e2e","initialCollateralRatios(address)":"2a1e8cdb","isAcceptedCollateral(address)":"d979b720","lock(address,address,uint256)":"7750c9f0","lockedBalance(address,address)":"3419d6ef","maintenanceRatios(address)":"8b70c70f","manager()":"481c6a75","oracle()":"7dc0d1d0","owner()":"8da5cb5b","renounceOwnership()":"715018a6","setMaintenanceRatio(address,uint256)":"6851d293","setManager(address)":"d0ebdbe7","tokenDecimals(address)":"8ee573ac","transfer(address,address,address,uint256)":"f18d03cc","transferOwnership(address)":"f2fde38b","unlock(address,address,uint256)":"59508f8f"},"id":3}