{"abi":[{"type":"constructor","inputs":[{"name":"_oracle","type":"address","internalType":"address"}],"stateMutability":"nonpayable"},{"type":"function","name":"acceptedCollateralTokens","inputs":[{"name":"","type":"uint256","internalType":"uint256"}],"outputs":[{"name":"","type":"address","internalType":"address"}],"stateMutability":"view"},{"type":"function","name":"addAcceptedCollateralToken","inputs":[{"name":"token","type":"address","internalType":"address"},{"name":"initialRatio","type":"uint256","internalType":"uint256"}],"outputs":[],"stateMutability":"nonpayable"},{"type":"function","name":"availableBalance","inputs":[{"name":"user","type":"address","internalType":"address"},{"name":"token","type":"address","internalType":"address"}],"outputs":[{"name":"","type":"uint256","internalType":"uint256"}],"stateMutability":"view"},{"type":"function","name":"collateralBalanceOf","inputs":[{"name":"user","type":"address","internalType":"address"},{"name":"token","type":"address","internalType":"address"}],"outputs":[{"name":"","type":"uint256","internalType":"uint256"}],"stateMutability":"view"},{"type":"function","name":"controller","inputs":[],"outputs":[{"name":"","type":"address","internalType":"address"}],"stateMutability":"view"},{"type":"function","name":"depositCollateral","inputs":[{"name":"token","type":"address","internalType":"address"},{"name":"amount","type":"uint256","internalType":"uint256"}],"outputs":[],"stateMutability":"nonpayable"},{"type":"function","name":"effectiveMaintenanceUSD","inputs":[{"name":"token","type":"address","internalType":"address"},{"name":"amount","type":"uint256","internalType":"uint256"}],"outputs":[{"name":"","type":"uint256","internalType":"uint256"}],"stateMutability":"view"},{"type":"function","name":"getAcceptedCollateralTokens","inputs":[],"outputs":[{"name":"","type":"address[]","internalType":"address[]"}],"stateMutability":"view"},{"type":"function","name":"initialCollateralRatios","inputs":[{"name":"","type":"address","internalType":"address"}],"outputs":[{"name":"","type":"uint256","internalType":"uint256"}],"stateMutability":"view"},{"type":"function","name":"isAcceptedCollateral","inputs":[{"name":"","type":"address","internalType":"address"}],"outputs":[{"name":"","type":"bool","internalType":"bool"}],"stateMutability":"view"},{"type":"function","name":"liquidateCollateral","inputs":[{"name":"borrower","type":"address","internalType":"address"},{"name":"tokens","type":"address[]","internalType":"address[]"},{"name":"seizeAmounts","type":"uint256[]","internalType":"uint256[]"},{"name":"requiredUSD","type":"uint256","internalType":"uint256"}],"outputs":[],"stateMutability":"nonpayable"},{"type":"function","name":"lock","inputs":[{"name":"user","type":"address","internalType":"address"},{"name":"token","type":"address","internalType":"address"},{"name":"amount","type":"uint256","internalType":"uint256"}],"outputs":[],"stateMutability":"nonpayable"},{"type":"function","name":"lockedBalance","inputs":[{"name":"user","type":"address","internalType":"address"},{"name":"token","type":"address","internalType":"address"}],"outputs":[{"name":"","type":"uint256","internalType":"uint256"}],"stateMutability":"view"},{"type":"function","name":"maintenanceRatios","inputs":[{"name":"","type":"address","internalType":"address"}],"outputs":[{"name":"","type":"uint256","internalType":"uint256"}],"stateMutability":"view"},{"type":"function","name":"oracle","inputs":[],"outputs":[{"name":"","type":"address","internalType":"contract IOracle"}],"stateMutability":"view"},{"type":"function","name":"owner","inputs":[],"outputs":[{"name":"","type":"address","internalType":"address"}],"stateMutability":"view"},{"type":"function","name":"renounceOwnership","inputs":[],"outputs":[],"stateMutability":"nonpayable"},{"type":"function","name":"setController","inputs":[{"name":"_controller","type":"address","internalType":"address"}],"outputs":[],"stateMutability":"nonpayable"},{"type":"function","name":"setMaintenanceRatio","inputs":[{"name":"token","type":"address","internalType":"address"},{"name":"ratioBP","type":"uint256","internalType":"uint256"}],"outputs":[],"stateMutability":"nonpayable"},{"type":"function","name":"tokenDecimals","inputs":[{"name":"","type":"address","internalType":"address"}],"outputs":[{"name":"","type":"uint8","internalType":"uint8"}],"stateMutability":"view"},{"type":"function","name":"transfer","inputs":[{"name":"from","type":"address","internalType":"address"},{"name":"to","type":"address","internalType":"address"},{"name":"token","type":"address","internalType":"address"},{"name":"amount","type":"uint256","internalType":"uint256"}],"outputs":[],"stateMutability":"nonpayable"},{"type":"function","name":"transferOwnership","inputs":[{"name":"newOwner","type":"address","internalType":"address"}],"outputs":[],"stateMutability":"nonpayable"},{"type":"function","name":"unlock","inputs":[{"name":"user","type":"address","internalType":"address"},{"name":"token","type":"address","internalType":"address"},{"name":"amount","type":"uint256","internalType":"uint256"}],"outputs":[],"stateMutability":"nonpayable"},{"type":"event","name":"CollateralLiquidated","inputs":[{"name":"borrower","type":"address","indexed":true,"internalType":"address"},{"name":"liquidator","type":"address","indexed":true,"internalType":"address"},{"name":"token","type":"address","indexed":true,"internalType":"address"},{"name":"seizedAmount","type":"uint256","indexed":false,"internalType":"uint256"}],"anonymous":false},{"type":"event","name":"CollateralTokenAdded","inputs":[{"name":"token","type":"address","indexed":false,"internalType":"address"}],"anonymous":false},{"type":"event","name":"ControllerSet","inputs":[{"name":"controller","type":"address","indexed":false,"internalType":"address"}],"anonymous":false},{"type":"event","name":"Deposited","inputs":[{"name":"user","type":"address","indexed":true,"internalType":"address"},{"name":"token","type":"address","indexed":true,"internalType":"address"},{"name":"amount","type":"uint256","indexed":false,"internalType":"uint256"}],"anonymous":false},{"type":"event","name":"InitialRatioSet","inputs":[{"name":"token","type":"address","indexed":true,"internalType":"address"},{"name":"ratioBP","type":"uint256","indexed":false,"internalType":"uint256"}],"anonymous":false},{"type":"event","name":"Locked","inputs":[{"name":"user","type":"address","indexed":true,"internalType":"address"},{"name":"token","type":"address","indexed":true,"internalType":"address"},{"name":"amount","type":"uint256","indexed":false,"internalType":"uint256"}],"anonymous":false},{"type":"event","name":"MaintenanceRatioSet","inputs":[{"name":"token","type":"address","indexed":true,"internalType":"address"},{"name":"ratioBP","type":"uint256","indexed":false,"internalType":"uint256"}],"anonymous":false},{"type":"event","name":"OwnershipTransferred","inputs":[{"name":"previousOwner","type":"address","indexed":true,"internalType":"address"},{"name":"newOwner","type":"address","indexed":true,"internalType":"address"}],"anonymous":false},{"type":"event","name":"Unlocked","inputs":[{"name":"user","type":"address","indexed":true,"internalType":"address"},{"name":"token","type":"address","indexed":true,"internalType":"address"},{"name":"amount","type":"uint256","indexed":false,"internalType":"uint256"}],"anonymous":false},{"type":"event","name":"Withdrawn","inputs":[{"name":"user","type":"address","indexed":true,"internalType":"address"},{"name":"token","type":"address","indexed":true,"internalType":"address"},{"name":"amount","type":"uint256","indexed":false,"internalType":"uint256"}],"anonymous":false},{"type":"error","name":"OwnableInvalidOwner","inputs":[{"name":"owner","type":"address","internalType":"address"}]},{"type":"error","name":"OwnableUnauthorizedAccount","inputs":[{"name":"account","type":"address","internalType":"address"}]},{"type":"error","name":"ReentrancyGuardReentrantCall","inputs":[]}],"bytecode":{"object":"0x608060405234801561000f575f80fd5b50604051611aa2380380611aa283398101604081905261002e9161011f565b60015f55338061005857604051631e4fbdf760e01b81525f60048201526024015b60405180910390fd5b610061816100ce565b506001600160a01b0381166100a95760405162461bcd60e51b815260206004820152600e60248201526d496e76616c6964206f7261636c6560901b604482015260640161004f565b600280546001600160a01b0319166001600160a01b039290921691909117905561014c565b600180546001600160a01b038381166001600160a01b0319831681179093556040519116919082907f8be0079c531659141344cd1fd0a4f28419497f9722a3daafe3b4186f6b6457e0905f90a35050565b5f6020828403121561012f575f80fd5b81516001600160a01b0381168114610145575f80fd5b9392505050565b611949806101595f395ff3fe608060405234801561000f575f80fd5b5060043610610148575f3560e01c80638da5cb5b116100bf578063d979b72011610079578063d979b72014610321578063f18d03cc14610353578063f2fde38b14610366578063f77c479114610379578063fa768d881461038c578063fd9498f31461039f575f80fd5b80638da5cb5b1461028e5780638ee573ac1461029f57806392eefe9b146102d3578063a5d5db0c146102e6578063b72a7e2e146102f9578063d0e1c2fa1461030e575f80fd5b80635c2549ee116101105780635c2549ee146101915780636851d29314610216578063715018a6146102295780637750c9f0146102315780637dc0d1d0146102445780638b70c70f1461026f575f80fd5b806314791d761461014c5780632a1e8cdb146101725780633419d6ef146101915780633ccb64ae146101c957806359508f8f14610201575b5f80fd5b61015f61015a3660046114ca565b6103b2565b6040519081526020015b60405180910390f35b61015f6101803660046114f2565b60046020525f908152604090205481565b61015f61019f366004611512565b6001600160a01b039182165f90815260066020908152604080832093909416825291909152205490565b61015f6101d7366004611512565b6001600160a01b039182165f90815260056020908152604080832093909416825291909152205490565b61021461020f366004611543565b610469565b005b6102146102243660046114ca565b61067d565b6102146106dd565b61021461023f366004611543565b6106f0565b600254610257906001600160a01b031681565b6040516001600160a01b039091168152602001610169565b61015f61027d3660046114f2565b60076020525f908152604090205481565b6001546001600160a01b0316610257565b6102c16102ad3660046114f2565b600a6020525f908152604090205460ff1681565b60405160ff9091168152602001610169565b6102146102e13660046114f2565b610927565b6102146102f43660046114ca565b610983565b610301610b80565b604051610169919061157d565b61025761031c3660046115c8565b610be0565b61034361032f3660046114f2565b60096020525f908152604090205460ff1681565b6040519015158152602001610169565b6102146103613660046115df565b610c08565b6102146103743660046114f2565b610dc7565b600354610257906001600160a01b031681565b61021461039a3660046114ca565b610e04565b6102146103ad36600461166f565b610f8b565b6002546040516303d3c9db60e21b81526001600160a01b038481166004830152602482018490525f928392911690630f4f276c90604401602060405180830381865afa158015610404573d5f803e3d5ffd5b505050506040513d601f19601f8201168201806040525081019061042891906116f7565b6001600160a01b0385165f90815260076020526040812054919250819003610454575f92505050610463565b61045e8183611722565b925050505b92915050565b6001546001600160a01b031633148061048c57506003546001600160a01b031633145b6104b15760405162461bcd60e51b81526004016104a890611741565b60405180910390fd5b6104b9611409565b6001600160a01b038084165f908152600660209081526040808320938616835292905220548111156105235760405162461bcd60e51b8152602060048201526013602482015272125b9cdd59999a58da595b9d081b1bd8dad959606a1b60448201526064016104a8565b6001600160a01b038084165f90815260066020908152604080832093861683529290529081208054839290610559908490611769565b90915550506001600160a01b0382165f818152600a602081905260409091205463a9059cbb9186916105909160ff9091169061185f565b61059a908561186d565b6040516001600160e01b031960e085901b1681526001600160a01b03909216600483015260248201526044016020604051808303815f875af11580156105e2573d5f803e3d5ffd5b505050506040513d601f19601f820116820180604052508101906106069190611884565b6106225760405162461bcd60e51b81526004016104a8906118a3565b816001600160a01b0316836001600160a01b03167fe6e0ef9cd056ca98561ca60e347ada61e1ede2f1142a078951b7a52e1e508e608360405161066791815260200190565b60405180910390a361067860015f55565b505050565b610685611431565b6001600160a01b0382165f8181526007602052604090819020839055517f0300d2cf43b405589d202e7a216c41072aeaf6bb1390e42ca8e4dc88fb30a669906106d19084815260200190565b60405180910390a25050565b6106e5611431565b6106ee5f61145e565b565b6001546001600160a01b031633148061071357506003546001600160a01b031633145b61072f5760405162461bcd60e51b81526004016104a890611741565b610737611409565b6001600160a01b0382165f9081526009602052604090205460ff166107935760405162461bcd60e51b8152602060048201526012602482015271151bdad95b881b9bdd081858d8d95c1d195960721b60448201526064016104a8565b5f81116107d85760405162461bcd60e51b8152602060048201526013602482015272125b9cdd59999a58da595b9d08185b5bdd5b9d606a1b60448201526064016104a8565b6001600160a01b0382165f818152600a60208190526040909120546323b872dd918691309161080a9160ff169061185f565b610814908661186d565b6040516001600160e01b031960e086901b1681526001600160a01b03938416600482015292909116602483015260448201526064016020604051808303815f875af1158015610865573d5f803e3d5ffd5b505050506040513d601f19601f820116820180604052508101906108899190611884565b6108a55760405162461bcd60e51b81526004016104a8906118a3565b6001600160a01b038084165f908152600660209081526040808320938616835292905290812080548392906108db9084906118cc565b92505081905550816001600160a01b0316836001600160a01b03167f989eaa915cbb416ea3d6f9a63b1a3de51770c7674b11fe21ecdf76b4e1d139108360405161066791815260200190565b61092f611431565b600380546001600160a01b0319166001600160a01b0383169081179091556040519081527f79f74fd5964b6943d8a1865abfb7f668c92fa3f32c0a2e3195da7d0946703ad79060200160405180910390a150565b61098b611409565b6001600160a01b0382165f9081526009602052604090205460ff166109f25760405162461bcd60e51b815260206004820152601760248201527f436f6c6c61746572616c206e6f7420616363657074656400000000000000000060448201526064016104a8565b5f8111610a2f5760405162461bcd60e51b815260206004820152600b60248201526a16995c9bc8185b5bdd5b9d60aa1b60448201526064016104a8565b6001600160a01b0382165f818152600a60208190526040909120546323b872dd9133913091610a619160ff169061185f565b610a6b908661186d565b6040516001600160e01b031960e086901b1681526001600160a01b03938416600482015292909116602483015260448201526064016020604051808303815f875af1158015610abc573d5f803e3d5ffd5b505050506040513d601f19601f82011682018060405250810190610ae09190611884565b610afc5760405162461bcd60e51b81526004016104a8906118a3565b335f9081526005602090815260408083206001600160a01b038616845290915281208054839290610b2e9084906118cc565b90915550506040518181526001600160a01b0383169033907f8752a472e571a816aea92eec8dae9baf628e840f4929fbcc2d155e6233ff68a79060200160405180910390a3610b7c60015f55565b5050565b60606008805480602002602001604051908101604052809291908181526020018280548015610bd657602002820191905f5260205f20905b81546001600160a01b03168152600190910190602001808311610bb8575b5050505050905090565b60088181548110610bef575f80fd5b5f918252602090912001546001600160a01b0316905081565b6001546001600160a01b0316331480610c2b57506003546001600160a01b031633145b610c475760405162461bcd60e51b81526004016104a890611741565b610c4f611409565b6001600160a01b038085165f90815260066020908152604080832093861683529290522054811115610cb95760405162461bcd60e51b8152602060048201526013602482015272125b9cdd59999a58da595b9d081b1bd8dad959606a1b60448201526064016104a8565b6001600160a01b038085165f90815260066020908152604080832093861683529290529081208054839290610cef908490611769565b90915550506001600160a01b0382165f818152600a602081905260409091205463a9059cbb918691610d269160ff9091169061185f565b610d30908561186d565b6040516001600160e01b031960e085901b1681526001600160a01b03909216600483015260248201526044016020604051808303815f875af1158015610d78573d5f803e3d5ffd5b505050506040513d601f19601f82011682018060405250810190610d9c9190611884565b610db85760405162461bcd60e51b81526004016104a8906118a3565b610dc160015f55565b50505050565b610dcf611431565b6001600160a01b038116610df857604051631e4fbdf760e01b81525f60048201526024016104a8565b610e018161145e565b50565b610e0c611431565b6001600160a01b0382165f9081526009602052604090205460ff1615610e675760405162461bcd60e51b815260206004820152601060248201526f105b1c9958591e481858d8d95c1d195960821b60448201526064016104a8565b6001600160a01b0382165f818152600960209081526040808320805460ff191660019081179091556008805491820190557ff3f7a9fe364faab93b216da50a3214154f22a0a2b415b23a84c8169e8b636ee30180546001600160a01b03191685179055600480835292819020859055805163313ce56760e01b8152905163313ce5679382810193928290030181865afa158015610f06573d5f803e3d5ffd5b505050506040513d601f19601f82011682018060405250810190610f2a91906118df565b6001600160a01b0383165f818152600a6020908152604091829020805460ff191660ff9590951694909417909355519081527fd61bc477a25fa080e2c32ed9e4417ba4861d11b873216136586ddedadcff2f02910160405180910390a15050565b610f93611409565b838214610fda5760405162461bcd60e51b8152602060048201526015602482015274082e4e4c2f240d8cadccee8d040dad2e6dac2e8c6d605b1b60448201526064016104a8565b5f805b8581101561108757611073878783818110610ffa57610ffa6118ff565b905060200201602081019061100f91906114f2565b6001600160a01b038a165f908152600660205260408120908a8a86818110611039576110396118ff565b905060200201602081019061104e91906114f2565b6001600160a01b03166001600160a01b031681526020019081526020015f20546103b2565b61107d90836118cc565b9150600101610fdd565b508181106110d75760405162461bcd60e51b815260206004820152601a60248201527f436f6c6c61746572616c2061626f7665207468726573686f6c6400000000000060448201526064016104a8565b5f5b858110156113f6576001600160a01b0388165f9081526006602052604081208189898581811061110b5761110b6118ff565b905060200201602081019061112091906114f2565b6001600160a01b03166001600160a01b031681526020019081526020015f20549050858583818110611154576111546118ff565b905060200201358110156111aa5760405162461bcd60e51b815260206004820152601c60248201527f4e6f7420656e6f756768206c6f636b656420636f6c6c61746572616c0000000060448201526064016104a8565b8585838181106111bc576111bc6118ff565b90506020020135816111ce9190611769565b6001600160a01b038a165f908152600660205260408120908a8a868181106111f8576111f86118ff565b905060200201602081019061120d91906114f2565b6001600160a01b0316815260208101919091526040015f2055878783818110611238576112386118ff565b905060200201602081019061124d91906114f2565b6001600160a01b031663a9059cbb33600a5f8c8c88818110611271576112716118ff565b905060200201602081019061128691906114f2565b6001600160a01b0316815260208101919091526040015f20546112ad9060ff16600a61185f565b8989878181106112bf576112bf6118ff565b905060200201356112d0919061186d565b6040516001600160e01b031960e085901b1681526001600160a01b03909216600483015260248201526044016020604051808303815f875af1158015611318573d5f803e3d5ffd5b505050506040513d601f19601f8201168201806040525081019061133c9190611884565b6113585760405162461bcd60e51b81526004016104a8906118a3565b87878381811061136a5761136a6118ff565b905060200201602081019061137f91906114f2565b6001600160a01b0316336001600160a01b03168a6001600160a01b03167f8d9363f2ba0b88780a8d788f62a44fade3302361642a5d5d61ab917a7709b6388989878181106113cf576113cf6118ff565b905060200201356040516113e591815260200190565b60405180910390a4506001016110d9565b505061140160015f55565b505050505050565b60025f540361142b57604051633ee5aeb560e01b815260040160405180910390fd5b60025f55565b6001546001600160a01b031633146106ee5760405163118cdaa760e01b81523360048201526024016104a8565b600180546001600160a01b038381166001600160a01b0319831681179093556040519116919082907f8be0079c531659141344cd1fd0a4f28419497f9722a3daafe3b4186f6b6457e0905f90a35050565b80356001600160a01b03811681146114c5575f80fd5b919050565b5f80604083850312156114db575f80fd5b6114e4836114af565b946020939093013593505050565b5f60208284031215611502575f80fd5b61150b826114af565b9392505050565b5f8060408385031215611523575f80fd5b61152c836114af565b915061153a602084016114af565b90509250929050565b5f805f60608486031215611555575f80fd5b61155e846114af565b925061156c602085016114af565b929592945050506040919091013590565b602080825282518282018190525f918401906040840190835b818110156115bd5783516001600160a01b0316835260209384019390920191600101611596565b509095945050505050565b5f602082840312156115d8575f80fd5b5035919050565b5f805f80608085870312156115f2575f80fd5b6115fb856114af565b9350611609602086016114af565b9250611617604086016114af565b9396929550929360600135925050565b5f8083601f840112611637575f80fd5b50813567ffffffffffffffff81111561164e575f80fd5b6020830191508360208260051b8501011115611668575f80fd5b9250929050565b5f805f805f8060808789031215611684575f80fd5b61168d876114af565b9550602087013567ffffffffffffffff8111156116a8575f80fd5b6116b489828a01611627565b909650945050604087013567ffffffffffffffff8111156116d3575f80fd5b6116df89828a01611627565b979a9699509497949695606090950135949350505050565b5f60208284031215611707575f80fd5b5051919050565b634e487b7160e01b5f52601160045260245ffd5b5f8261173c57634e487b7160e01b5f52601260045260245ffd5b500490565b6020808252600e908201526d139bdd08185d5d1a1bdc9a5e995960921b604082015260600190565b818103818111156104635761046361170e565b6001815b60018411156117b75780850481111561179b5761179b61170e565b60018416156117a957908102905b60019390931c928002611780565b935093915050565b5f826117cd57506001610463565b816117d957505f610463565b81600181146117ef57600281146117f957611815565b6001915050610463565b60ff84111561180a5761180a61170e565b50506001821b610463565b5060208310610133831016604e8410600b8410161715611838575081810a610463565b6118445f19848461177c565b805f19048211156118575761185761170e565b029392505050565b5f61150b60ff8416836117bf565b80820281158282048414176104635761046361170e565b5f60208284031215611894575f80fd5b8151801515811461150b575f80fd5b6020808252600f908201526e151c985b9cd9995c8819985a5b1959608a1b604082015260600190565b808201808211156104635761046361170e565b5f602082840312156118ef575f80fd5b815160ff8116811461150b575f80fd5b634e487b7160e01b5f52603260045260245ffdfea264697066735822122086a28a7135490a85bcb084e5092e239268df561b9952d8a480b6aff7e9176bf064736f6c634300081a0033","linkReferences":{}},"methodIdentifiers":{"acceptedCollateralTokens(uint256)":"d0e1c2fa","addAcceptedCollateralToken(address,uint256)":"fa768d88","availableBalance(address,address)":"3ccb64ae","collateralBalanceOf(address,address)":"5c2549ee","controller()":"f77c4791","depositCollateral(address,uint256)":"a5d5db0c","effectiveMaintenanceUSD(address,uint256)":"14791d76","getAcceptedCollateralTokens()":"b72a7e2e","initialCollateralRatios(address)":"2a1e8cdb","isAcceptedCollateral(address)":"d979b720","liquidateCollateral(address,address[],uint256[],uint256)":"fd9498f3","lock(address,address,uint256)":"7750c9f0","lockedBalance(address,address)":"3419d6ef","maintenanceRatios(address)":"8b70c70f","oracle()":"7dc0d1d0","owner()":"8da5cb5b","renounceOwnership()":"715018a6","setController(address)":"92eefe9b","setMaintenanceRatio(address,uint256)":"6851d293","tokenDecimals(address)":"8ee573ac","transfer(address,address,address,uint256)":"f18d03cc","transferOwnership(address)":"f2fde38b","unlock(address,address,uint256)":"59508f8f"},"id":3}