{"abi":[{"type":"constructor","inputs":[{"name":"_oracle","type":"address","internalType":"address"}],"stateMutability":"nonpayable"},{"type":"function","name":"acceptedCollateralTokens","inputs":[{"name":"","type":"uint256","internalType":"uint256"}],"outputs":[{"name":"","type":"address","internalType":"address"}],"stateMutability":"view"},{"type":"function","name":"addAcceptedCollateralToken","inputs":[{"name":"token","type":"address","internalType":"address"},{"name":"initialRatio","type":"uint256","internalType":"uint256"}],"outputs":[],"stateMutability":"nonpayable"},{"type":"function","name":"collateralBalanceOf","inputs":[{"name":"user","type":"address","internalType":"address"},{"name":"token","type":"address","internalType":"address"}],"outputs":[{"name":"","type":"uint256","internalType":"uint256"}],"stateMutability":"view"},{"type":"function","name":"getAcceptedCollateralTokens","inputs":[],"outputs":[{"name":"","type":"address[]","internalType":"address[]"}],"stateMutability":"view"},{"type":"function","name":"initialCollateralRatios","inputs":[{"name":"","type":"address","internalType":"address"}],"outputs":[{"name":"","type":"uint256","internalType":"uint256"}],"stateMutability":"view"},{"type":"function","name":"isAcceptedCollateral","inputs":[{"name":"","type":"address","internalType":"address"}],"outputs":[{"name":"","type":"bool","internalType":"bool"}],"stateMutability":"view"},{"type":"function","name":"lock","inputs":[{"name":"user","type":"address","internalType":"address"},{"name":"token","type":"address","internalType":"address"},{"name":"amount","type":"uint256","internalType":"uint256"}],"outputs":[],"stateMutability":"nonpayable"},{"type":"function","name":"lockedBalance","inputs":[{"name":"user","type":"address","internalType":"address"},{"name":"token","type":"address","internalType":"address"}],"outputs":[{"name":"","type":"uint256","internalType":"uint256"}],"stateMutability":"view"},{"type":"function","name":"maintenanceRatios","inputs":[{"name":"","type":"address","internalType":"address"}],"outputs":[{"name":"","type":"uint256","internalType":"uint256"}],"stateMutability":"view"},{"type":"function","name":"manager","inputs":[],"outputs":[{"name":"","type":"address","internalType":"address"}],"stateMutability":"view"},{"type":"function","name":"oracle","inputs":[],"outputs":[{"name":"","type":"address","internalType":"contract IOracle"}],"stateMutability":"view"},{"type":"function","name":"owner","inputs":[],"outputs":[{"name":"","type":"address","internalType":"address"}],"stateMutability":"view"},{"type":"function","name":"renounceOwnership","inputs":[],"outputs":[],"stateMutability":"nonpayable"},{"type":"function","name":"setMaintenanceRatio","inputs":[{"name":"token","type":"address","internalType":"address"},{"name":"ratioBP","type":"uint256","internalType":"uint256"}],"outputs":[],"stateMutability":"nonpayable"},{"type":"function","name":"setManager","inputs":[{"name":"_manager","type":"address","internalType":"address"}],"outputs":[],"stateMutability":"nonpayable"},{"type":"function","name":"setOracle","inputs":[{"name":"_oracle","type":"address","internalType":"address"}],"outputs":[],"stateMutability":"nonpayable"},{"type":"function","name":"tokenDecimals","inputs":[{"name":"","type":"address","internalType":"address"}],"outputs":[{"name":"","type":"uint8","internalType":"uint8"}],"stateMutability":"view"},{"type":"function","name":"transfer","inputs":[{"name":"from","type":"address","internalType":"address"},{"name":"to","type":"address","internalType":"address"},{"name":"token","type":"address","internalType":"address"},{"name":"amount","type":"uint256","internalType":"uint256"}],"outputs":[],"stateMutability":"nonpayable"},{"type":"function","name":"transferOwnership","inputs":[{"name":"newOwner","type":"address","internalType":"address"}],"outputs":[],"stateMutability":"nonpayable"},{"type":"function","name":"unlock","inputs":[{"name":"user","type":"address","internalType":"address"},{"name":"token","type":"address","internalType":"address"},{"name":"amount","type":"uint256","internalType":"uint256"}],"outputs":[],"stateMutability":"nonpayable"},{"type":"event","name":"CollateralTokenAdded","inputs":[{"name":"token","type":"address","indexed":false,"internalType":"address"}],"anonymous":false},{"type":"event","name":"Locked","inputs":[{"name":"user","type":"address","indexed":true,"internalType":"address"},{"name":"token","type":"address","indexed":true,"internalType":"address"},{"name":"amount","type":"uint256","indexed":false,"internalType":"uint256"}],"anonymous":false},{"type":"event","name":"MaintenanceRatioSet","inputs":[{"name":"token","type":"address","indexed":true,"internalType":"address"},{"name":"ratioBP","type":"uint256","indexed":false,"internalType":"uint256"}],"anonymous":false},{"type":"event","name":"ManagerSet","inputs":[{"name":"manager","type":"address","indexed":false,"internalType":"address"}],"anonymous":false},{"type":"event","name":"OwnershipTransferred","inputs":[{"name":"previousOwner","type":"address","indexed":true,"internalType":"address"},{"name":"newOwner","type":"address","indexed":true,"internalType":"address"}],"anonymous":false},{"type":"event","name":"Unlocked","inputs":[{"name":"user","type":"address","indexed":true,"internalType":"address"},{"name":"token","type":"address","indexed":true,"internalType":"address"},{"name":"amount","type":"uint256","indexed":false,"internalType":"uint256"}],"anonymous":false},{"type":"error","name":"OwnableInvalidOwner","inputs":[{"name":"owner","type":"address","internalType":"address"}]},{"type":"error","name":"OwnableUnauthorizedAccount","inputs":[{"name":"account","type":"address","internalType":"address"}]},{"type":"error","name":"ReentrancyGuardReentrantCall","inputs":[]},{"type":"error","name":"SafeERC20FailedOperation","inputs":[{"name":"token","type":"address","internalType":"address"}]}],"bytecode":{"object":"0x608060405234801561000f575f80fd5b5060405161108138038061108183398101604081905261002e9161011f565b60015f55338061005857604051631e4fbdf760e01b81525f60048201526024015b60405180910390fd5b610061816100ce565b506001600160a01b0381166100a95760405162461bcd60e51b815260206004820152600e60248201526d496e76616c6964206f7261636c6560901b604482015260640161004f565b600280546001600160a01b0319166001600160a01b039290921691909117905561014c565b600180546001600160a01b038381166001600160a01b0319831681179093556040519116919082907f8be0079c531659141344cd1fd0a4f28419497f9722a3daafe3b4186f6b6457e0905f90a35050565b5f6020828403121561012f575f80fd5b81516001600160a01b0381168114610145575f80fd5b9392505050565b610f28806101595f395ff3fe608060405234801561000f575f80fd5b5060043610610127575f3560e01c80638b70c70f116100a9578063d0ebdbe71161006e578063d0ebdbe714610290578063d979b720146102a3578063f18d03cc146102d5578063f2fde38b146102e8578063fa768d88146102fb575f80fd5b80638b70c70f146102045780638da5cb5b146102235780638ee573ac14610234578063b72a7e2e14610268578063d0e1c2fa1461027d575f80fd5b80636851d293116100ef5780636851d293146101b0578063715018a6146101c35780637750c9f0146101cb5780637adbf973146101de5780637dc0d1d0146101f1575f80fd5b80632a1e8cdb1461012b5780633419d6ef1461015d578063481c6a751461017057806359508f8f1461019b5780635c2549ee1461015d575b5f80fd5b61014a610139366004610d13565b60046020525f908152604090205481565b6040519081526020015b60405180910390f35b61014a61016b366004610d33565b61030e565b600354610183906001600160a01b031681565b6040516001600160a01b039091168152602001610154565b6101ae6101a9366004610d64565b61033a565b005b6101ae6101be366004610d9e565b61049f565b6101ae610538565b6101ae6101d9366004610d64565b61054b565b6101ae6101ec366004610d13565b6106c9565b600254610183906001600160a01b031681565b61014a610212366004610d13565b60066020525f908152604090205481565b6001546001600160a01b0316610183565b610256610242366004610d13565b60096020525f908152604090205460ff1681565b60405160ff9091168152602001610154565b610270610743565b6040516101549190610dc6565b61018361028b366004610e11565b6107a3565b6101ae61029e366004610d13565b6107cb565b6102c56102b1366004610d13565b60086020525f908152604090205460ff1681565b6040519015158152602001610154565b6101ae6102e3366004610e28565b61086c565b6101ae6102f6366004610d13565b61097c565b6101ae610309366004610d9e565b6109b6565b6001600160a01b038083165f908152600560209081526040808320938516835292905220545b92915050565b6001546001600160a01b031633148061035d57506003546001600160a01b031633145b6103825760405162461bcd60e51b815260040161037990610e70565b60405180910390fd5b61038a610b4e565b6001600160a01b038084165f908152600560209081526040808320938616835292905220548111156103f45760405162461bcd60e51b8152602060048201526013602482015272125b9cdd59999a58da595b9d081b1bd8dad959606a1b6044820152606401610379565b6001600160a01b038084165f9081526005602090815260408083209386168352929052908120805483929061042a908490610eac565b9091555061044490506001600160a01b0383168483610b76565b816001600160a01b0316836001600160a01b03167fe6e0ef9cd056ca98561ca60e347ada61e1ede2f1142a078951b7a52e1e508e608360405161048991815260200190565b60405180910390a361049a60015f55565b505050565b6104a7610bd5565b5f81116104e05760405162461bcd60e51b81526020600482015260076024820152660526174696f20360cc1b6044820152606401610379565b6001600160a01b0382165f8181526006602052604090819020839055517f0300d2cf43b405589d202e7a216c41072aeaf6bb1390e42ca8e4dc88fb30a6699061052c9084815260200190565b60405180910390a25050565b610540610bd5565b6105495f610c02565b565b6001546001600160a01b031633148061056e57506003546001600160a01b031633145b61058a5760405162461bcd60e51b815260040161037990610e70565b610592610b4e565b6001600160a01b0382165f9081526008602052604090205460ff166105ee5760405162461bcd60e51b8152602060048201526012602482015271151bdad95b881b9bdd081858d8d95c1d195960721b6044820152606401610379565b5f81116106335760405162461bcd60e51b8152602060048201526013602482015272125b9cdd59999a58da595b9d08185b5bdd5b9d606a1b6044820152606401610379565b6001600160a01b038084165f90815260056020908152604080832093861683529290529081208054839290610669908490610ebf565b9091555061068490506001600160a01b038316843084610c53565b816001600160a01b0316836001600160a01b03167f989eaa915cbb416ea3d6f9a63b1a3de51770c7674b11fe21ecdf76b4e1d139108360405161048991815260200190565b6106d1610bd5565b6106d9610b4e565b6001600160a01b03811661071e5760405162461bcd60e51b815260206004820152600c60248201526b5a65726f206164647265737360a01b6044820152606401610379565b600280546001600160a01b0319166001600160a01b03831617905560015f5550565b50565b6060600780548060200260200160405190810160405280929190818152602001828054801561079957602002820191905f5260205f20905b81546001600160a01b0316815260019091019060200180831161077b575b5050505050905090565b600781815481106107b2575f80fd5b5f918252602090912001546001600160a01b0316905081565b6107d3610bd5565b6001600160a01b0381166108185760405162461bcd60e51b815260206004820152600c60248201526b5a65726f206164647265737360a01b6044820152606401610379565b600380546001600160a01b0319166001600160a01b0383169081179091556040519081527f60a0f5b9f9e81e98216071b85826681c796256fe3d1354ecb675580fba64fa699060200160405180910390a150565b6001546001600160a01b031633148061088f57506003546001600160a01b031633145b6108ab5760405162461bcd60e51b815260040161037990610e70565b6108b3610b4e565b6001600160a01b038085165f9081526005602090815260408083209386168352929052205481111561091d5760405162461bcd60e51b8152602060048201526013602482015272125b9cdd59999a58da595b9d081b1bd8dad959606a1b6044820152606401610379565b6001600160a01b038085165f90815260056020908152604080832093861683529290529081208054839290610953908490610eac565b9091555061096d90506001600160a01b0383168483610b76565b61097660015f55565b50505050565b610984610bd5565b6001600160a01b0381166109ad57604051631e4fbdf760e01b81525f6004820152602401610379565b61074081610c02565b6109be610bd5565b6109c6610b4e565b6001600160a01b0382165f9081526008602052604090205460ff1615610a215760405162461bcd60e51b815260206004820152601060248201526f105b1c9958591e481858d8d95c1d195960821b6044820152606401610379565b6001600160a01b0382165f818152600860209081526040808320805460ff191660019081179091556007805491820190557fa66cc928b5edb82af9bd49922954155ab7b0942694bea4ce44661d9a8736c6880180546001600160a01b03191685179055600480835292819020859055805163313ce56760e01b8152905163313ce5679382810193928290030181865afa158015610ac0573d5f803e3d5ffd5b505050506040513d601f19601f82011682018060405250810190610ae49190610ed2565b6001600160a01b0383165f81815260096020908152604091829020805460ff191660ff9590951694909417909355519081527fd61bc477a25fa080e2c32ed9e4417ba4861d11b873216136586ddedadcff2f02910160405180910390a1610b4a60015f55565b5050565b60025f5403610b7057604051633ee5aeb560e01b815260040160405180910390fd5b60025f55565b6040516001600160a01b0383811660248301526044820183905261049a91859182169063a9059cbb906064015b604051602081830303815290604052915060e01b6020820180516001600160e01b038381831617835250505050610c8c565b6001546001600160a01b031633146105495760405163118cdaa760e01b8152336004820152602401610379565b600180546001600160a01b038381166001600160a01b0319831681179093556040519116919082907f8be0079c531659141344cd1fd0a4f28419497f9722a3daafe3b4186f6b6457e0905f90a35050565b6040516001600160a01b0384811660248301528381166044830152606482018390526109769186918216906323b872dd90608401610ba3565b5f8060205f8451602086015f885af180610cab576040513d5f823e3d81fd5b50505f513d91508115610cc2578060011415610ccf565b6001600160a01b0384163b155b1561097657604051635274afe760e01b81526001600160a01b0385166004820152602401610379565b80356001600160a01b0381168114610d0e575f80fd5b919050565b5f60208284031215610d23575f80fd5b610d2c82610cf8565b9392505050565b5f8060408385031215610d44575f80fd5b610d4d83610cf8565b9150610d5b60208401610cf8565b90509250929050565b5f805f60608486031215610d76575f80fd5b610d7f84610cf8565b9250610d8d60208501610cf8565b929592945050506040919091013590565b5f8060408385031215610daf575f80fd5b610db883610cf8565b946020939093013593505050565b602080825282518282018190525f918401906040840190835b81811015610e065783516001600160a01b0316835260209384019390920191600101610ddf565b509095945050505050565b5f60208284031215610e21575f80fd5b5035919050565b5f805f8060808587031215610e3b575f80fd5b610e4485610cf8565b9350610e5260208601610cf8565b9250610e6060408601610cf8565b9396929550929360600135925050565b6020808252600e908201526d139bdd08185d5d1a1bdc9a5e995960921b604082015260600190565b634e487b7160e01b5f52601160045260245ffd5b8181038181111561033457610334610e98565b8082018082111561033457610334610e98565b5f60208284031215610ee2575f80fd5b815160ff81168114610d2c575f80fdfea264697066735822122004c530be5a5f49f16de1f6e5f966ac66c0bcf96bb30a8dd637689ea8173b171164736f6c634300081a0033","linkReferences":{}},"methodIdentifiers":{"acceptedCollateralTokens(uint256)":"d0e1c2fa","addAcceptedCollateralToken(address,uint256)":"fa768d88","collateralBalanceOf(address,address)":"5c2549ee","getAcceptedCollateralTokens()":"b72a7e2e","initialCollateralRatios(address)":"2a1e8cdb","isAcceptedCollateral(address)":"d979b720","lock(address,address,uint256)":"7750c9f0","lockedBalance(address,address)":"3419d6ef","maintenanceRatios(address)":"8b70c70f","manager()":"481c6a75","oracle()":"7dc0d1d0","owner()":"8da5cb5b","renounceOwnership()":"715018a6","setMaintenanceRatio(address,uint256)":"6851d293","setManager(address)":"d0ebdbe7","setOracle(address)":"7adbf973","tokenDecimals(address)":"8ee573ac","transfer(address,address,address,uint256)":"f18d03cc","transferOwnership(address)":"f2fde38b","unlock(address,address,uint256)":"59508f8f"},"id":3}