{"abi":[{"type":"constructor","inputs":[],"stateMutability":"nonpayable"},{"type":"function","name":"addressGeneralID","inputs":[{"name":"","type":"address","internalType":"address"}],"outputs":[{"name":"","type":"uint256","internalType":"uint256"}],"stateMutability":"view"},{"type":"function","name":"decryptionKeys","inputs":[{"name":"","type":"uint256","internalType":"uint256"}],"outputs":[{"name":"","type":"bytes","internalType":"bytes"}],"stateMutability":"view"},{"type":"function","name":"encryptionKeyExists","inputs":[{"name":"","type":"bytes","internalType":"bytes"}],"outputs":[{"name":"","type":"bool","internalType":"bool"}],"stateMutability":"view"},{"type":"function","name":"generalDecryptionKeys","inputs":[{"name":"","type":"address","internalType":"address"},{"name":"","type":"uint256","internalType":"uint256"}],"outputs":[{"name":"","type":"bytes","internalType":"bytes"}],"stateMutability":"view"},{"type":"function","name":"generalIDRequested","inputs":[{"name":"","type":"address","internalType":"address"},{"name":"","type":"uint256","internalType":"uint256"}],"outputs":[{"name":"","type":"bool","internalType":"bool"}],"stateMutability":"view"},{"type":"function","name":"generalKeyRequested","inputs":[{"name":"","type":"address","internalType":"address"},{"name":"","type":"uint256","internalType":"uint256"}],"outputs":[{"name":"","type":"bool","internalType":"bool"}],"stateMutability":"view"},{"type":"function","name":"getRandomnessByHeight","inputs":[{"name":"height","type":"uint256","internalType":"uint256"}],"outputs":[{"name":"","type":"bytes32","internalType":"bytes32"}],"stateMutability":"view"},{"type":"function","name":"latestEncryptionKey","inputs":[],"outputs":[{"name":"","type":"bytes","internalType":"bytes"}],"stateMutability":"view"},{"type":"function","name":"latestRandomness","inputs":[],"outputs":[{"name":"","type":"bytes32","internalType":"bytes32"},{"name":"","type":"uint256","internalType":"uint256"}],"stateMutability":"view"},{"type":"function","name":"latestRandomnessHashOnly","inputs":[],"outputs":[{"name":"","type":"bytes32","internalType":"bytes32"}],"stateMutability":"view"},{"type":"function","name":"owner","inputs":[],"outputs":[{"name":"","type":"address","internalType":"address"}],"stateMutability":"view"},{"type":"function","name":"renounceOwnership","inputs":[],"outputs":[],"stateMutability":"nonpayable"},{"type":"function","name":"requestGeneralDecryptionKey","inputs":[{"name":"id","type":"uint256","internalType":"uint256"}],"outputs":[],"stateMutability":"nonpayable"},{"type":"function","name":"requestGeneralID","inputs":[],"outputs":[],"stateMutability":"nonpayable"},{"type":"function","name":"setRequestGeneralFee","inputs":[{"name":"newFee","type":"uint256","internalType":"uint256"}],"outputs":[],"stateMutability":"nonpayable"},{"type":"function","name":"submitDecryptionKey","inputs":[{"name":"encryptionKey","type":"bytes","internalType":"bytes"},{"name":"decryptionKey","type":"bytes","internalType":"bytes"},{"name":"height","type":"uint256","internalType":"uint256"}],"outputs":[],"stateMutability":"nonpayable"},{"type":"function","name":"submitEncryptionKey","inputs":[{"name":"encryptionKey","type":"bytes","internalType":"bytes"}],"outputs":[],"stateMutability":"nonpayable"},{"type":"function","name":"submitGeneralDecryptionKeys","inputs":[{"name":"requester","type":"address","internalType":"address"},{"name":"id","type":"uint256","internalType":"uint256"},{"name":"decryptionKey","type":"bytes","internalType":"bytes"}],"outputs":[],"stateMutability":"nonpayable"},{"type":"function","name":"transferOwnership","inputs":[{"name":"newOwner","type":"address","internalType":"address"}],"outputs":[],"stateMutability":"nonpayable"},{"type":"event","name":"OwnershipTransferred","inputs":[{"name":"previousOwner","type":"address","indexed":true,"internalType":"address"},{"name":"newOwner","type":"address","indexed":true,"internalType":"address"}],"anonymous":false},{"type":"event","name":"RequestGeneralID","inputs":[{"name":"requester","type":"address","indexed":true,"internalType":"address"},{"name":"id","type":"uint256","indexed":false,"internalType":"uint256"}],"anonymous":false},{"type":"event","name":"RequestGeneralKey","inputs":[{"name":"requester","type":"address","indexed":true,"internalType":"address"},{"name":"id","type":"uint256","indexed":false,"internalType":"uint256"}],"anonymous":false},{"type":"error","name":"OwnableInvalidOwner","inputs":[{"name":"owner","type":"address","internalType":"address"}]},{"type":"error","name":"OwnableUnauthorizedAccount","inputs":[{"name":"account","type":"address","internalType":"address"}]}],"bytecode":{"object":"0x60806040525f6001555f6005553480156016575f80fd5b503380603b57604051631e4fbdf760e01b81525f600482015260240160405180910390fd5b6042816047565b506096565b5f80546001600160a01b038381166001600160a01b0319831681178455604051919092169283917f8be0079c531659141344cd1fd0a4f28419497f9722a3daafe3b4186f6b6457e09190a35050565b610f49806100a35f395ff3fe608060405234801561000f575f80fd5b506004361061011c575f3560e01c80638da5cb5b116100a9578063da538e411161006e578063da538e4114610286578063edf7399914610299578063ee4d43cf146102ac578063f2fde38b146102bf578063fb42e356146102d2575f80fd5b80638da5cb5b146102105780639c533b8a1461022a578063aa878cf214610258578063b09f544a1461026b578063d0d343a71461027e575f80fd5b806364d0f5d0116100ef57806364d0f5d0146101b85780636702e0f5146101e5578063715018a6146101ed57806374236c86146101f557806380c110e8146101fd575f80fd5b80630d006aa214610120578063111e512e146101355780633095ffdf1461015e5780633b5cd3a81461019b575b5f80fd5b61013361012e366004610b89565b6102ff565b005b610148610143366004610bc3565b6103be565b6040516101559190610bda565b60405180910390f35b61018b61016c366004610c25565b600860209081525f928352604080842090915290825290205460ff1681565b6040519015158152602001610155565b6101a3610455565b60408051928352602083019190915201610155565b6101d76101c6366004610c4d565b60066020525f908152604090205481565b604051908152602001610155565b61013361046d565b6101336104fd565b610148610510565b61014861020b366004610c25565b61051d565b5f546040516001600160a01b039091168152602001610155565b61018b610238366004610b89565b805160208183018101805160038252928201919093012091525460ff1681565b610133610266366004610c6d565b610540565b610133610279366004610bc3565b610654565b6101d7610661565b610133610294366004610cdb565b610672565b6101336102a7366004610bc3565b61088f565b6101d76102ba366004610bc3565b6109cc565b6101336102cd366004610c4d565b6109dc565b61018b6102e0366004610c25565b600760209081525f928352604080842090915290825290205460ff1681565b610307610a19565b6003816040516103179190610d2e565b9081526040519081900360200190205460ff161561037c5760405162461bcd60e51b815260206004820152601d60248201527f656e6372797074696f6e206b657920616c72656164792065786973747300000060448201526064015b60405180910390fd5b60026103888282610dc8565b50600160038260405161039b9190610d2e565b908152604051908190036020019020805491151560ff1990921691909117905550565b60046020525f9081526040902080546103d690610d44565b80601f016020809104026020016040519081016040528092919081815260200182805461040290610d44565b801561044d5780601f106104245761010080835404028352916020019161044d565b820191905f5260205f20905b81548152906001019060200180831161043057829003601f168201915b505050505081565b5f80610462600554610a45565b600554915091509091565b335f8181526006602081815260408084208054600784528286208187528452918520805460ff1916600190811790915595909452919052905490916104b29190610e83565b335f81815260066020908152604091829020939093555183815290917f600710de1dac8e9a1eae6575978854662c36f5f0c8243b13db0ace2f0bf4de4f91015b60405180910390a250565b610505610a19565b61050e5f610a9b565b565b600280546103d690610d44565b600960209081525f9283526040808420909152908252902080546103d690610d44565b610548610a19565b5f818152600460205260409020805461056090610d44565b1590506105c65760405162461bcd60e51b815260206004820152602e60248201527f64656372797074696f6e206b657920666f7220676976656e206865696768742060448201526d616c72656164792065786973747360901b6064820152608401610373565b6003836040516105d69190610d2e565b9081526040519081900360200190205460ff166106355760405162461bcd60e51b815260206004820152601e60248201527f656e6372797074696f6e206b657920646f6573206e6f742065786973747300006044820152606401610373565b5f81815260046020526040902061064c8382610dc8565b506005555050565b61065c610a19565b600155565b5f61066d600554610a45565b905090565b61067a610a19565b6001600160a01b0383165f90815260076020908152604080832085845290915290205460ff16610714576040805162461bcd60e51b81526020600482015260248101919091527f54686520676976656e2072657175657374657220262049442068617665206e6f60448201527f7420726571756573746564207468652067656e6572616c206964656e746974796064820152608401610373565b6001600160a01b0383165f90815260086020908152604080832085845290915290205460ff166107bb5760405162461bcd60e51b815260206004820152604660248201527f54686520676976656e2072657175657374657220262049442068617665206e6f60448201527f7420726571756573746564207468652067656e6572616c2064656372797074696064820152656f6e206b657960d01b608482015260a401610373565b6001600160a01b0383165f908152600960209081526040808320858452909152902080546107e890610d44565b15905061085d5760405162461bcd60e51b815260206004820152603a60248201527f44656372797074696f6e206b657920666f722074686520676976656e2072657160448201527f756573746572202620494420616c7265616479206578697374730000000000006064820152608401610373565b6001600160a01b0383165f90815260096020908152604080832085845290915290206108898282610dc8565b50505050565b335f90815260076020908152604080832084845290915290205460ff166108f85760405162461bcd60e51b815260206004820152601960248201527f476976656e204944206973206e6f7420726571756573746564000000000000006044820152606401610373565b335f90815260086020908152604080832084845290915290205460ff161561097a5760405162461bcd60e51b815260206004820152602f60248201527f416c726561647920726571756573742064656372797074696f6e206b6579206660448201526e1bdc881d1a194819da5d995b881251608a1b6064820152608401610373565b335f818152600860209081526040808320858452825291829020805460ff1916600117905590518381527f901589c3a1797e9706a6e47144e3ef3ef75e1f57718e89f6036c98ee6a6754f791016104f2565b5f6109d682610a45565b92915050565b6109e4610a19565b6001600160a01b038116610a0d57604051631e4fbdf760e01b81525f6004820152602401610373565b610a1681610a9b565b50565b5f546001600160a01b0316331461050e5760405163118cdaa760e01b8152336004820152602401610373565b5f8181526004602052604081208054610a5d90610d44565b90505f03610a6c57505f919050565b5f82815260046020526040908190209051610a879190610ea2565b60405180910390209050919050565b919050565b5f80546001600160a01b038381166001600160a01b0319831681178455604051919092169283917f8be0079c531659141344cd1fd0a4f28419497f9722a3daafe3b4186f6b6457e09190a35050565b634e487b7160e01b5f52604160045260245ffd5b5f82601f830112610b0d575f80fd5b813567ffffffffffffffff811115610b2757610b27610aea565b604051601f8201601f19908116603f0116810167ffffffffffffffff81118282101715610b5657610b56610aea565b604052818152838201602001851015610b6d575f80fd5b816020850160208301375f918101602001919091529392505050565b5f60208284031215610b99575f80fd5b813567ffffffffffffffff811115610baf575f80fd5b610bbb84828501610afe565b949350505050565b5f60208284031215610bd3575f80fd5b5035919050565b602081525f82518060208401528060208501604085015e5f604082850101526040601f19601f83011684010191505092915050565b80356001600160a01b0381168114610a96575f80fd5b5f8060408385031215610c36575f80fd5b610c3f83610c0f565b946020939093013593505050565b5f60208284031215610c5d575f80fd5b610c6682610c0f565b9392505050565b5f805f60608486031215610c7f575f80fd5b833567ffffffffffffffff811115610c95575f80fd5b610ca186828701610afe565b935050602084013567ffffffffffffffff811115610cbd575f80fd5b610cc986828701610afe565b93969395505050506040919091013590565b5f805f60608486031215610ced575f80fd5b610cf684610c0f565b925060208401359150604084013567ffffffffffffffff811115610d18575f80fd5b610d2486828701610afe565b9150509250925092565b5f82518060208501845e5f920191825250919050565b600181811c90821680610d5857607f821691505b602082108103610d7657634e487b7160e01b5f52602260045260245ffd5b50919050565b601f821115610dc357805f5260205f20601f840160051c81016020851015610da15750805b601f840160051c820191505b81811015610dc0575f8155600101610dad565b50505b505050565b815167ffffffffffffffff811115610de257610de2610aea565b610df681610df08454610d44565b84610d7c565b6020601f821160018114610e28575f8315610e115750848201515b5f19600385901b1c1916600184901b178455610dc0565b5f84815260208120601f198516915b82811015610e575787850151825560209485019460019092019101610e37565b5084821015610e7457868401515f19600387901b60f8161c191681555b50505050600190811b01905550565b808201808211156109d657634e487b7160e01b5f52601160045260245ffd5b5f808354610eaf81610d44565b600182168015610ec65760018114610edb57610f08565b60ff1983168652811515820286019350610f08565b865f5260205f205f5b83811015610f0057815488820152600190910190602001610ee4565b505081860193505b50919594505050505056fea2646970667358221220c0daabd2e0baacc23eed0644cc4cc41de1139cfe92ba279d3ae8b20257134f9964736f6c634300081a0033","linkReferences":{}},"methodIdentifiers":{"addressGeneralID(address)":"64d0f5d0","decryptionKeys(uint256)":"111e512e","encryptionKeyExists(bytes)":"9c533b8a","generalDecryptionKeys(address,uint256)":"80c110e8","generalIDRequested(address,uint256)":"fb42e356","generalKeyRequested(address,uint256)":"3095ffdf","getRandomnessByHeight(uint256)":"ee4d43cf","latestEncryptionKey()":"74236c86","latestRandomness()":"3b5cd3a8","latestRandomnessHashOnly()":"d0d343a7","owner()":"8da5cb5b","renounceOwnership()":"715018a6","requestGeneralDecryptionKey(uint256)":"edf73999","requestGeneralID()":"6702e0f5","setRequestGeneralFee(uint256)":"b09f544a","submitDecryptionKey(bytes,bytes,uint256)":"aa878cf2","submitEncryptionKey(bytes)":"0d006aa2","submitGeneralDecryptionKeys(address,uint256,bytes)":"da538e41","transferOwnership(address)":"f2fde38b"},"id":27}