{"abi":[{"type":"constructor","inputs":[],"stateMutability":"nonpayable"},{"type":"function","name":"addressGeneralID","inputs":[{"name":"","type":"address","internalType":"address"}],"outputs":[{"name":"","type":"uint256","internalType":"uint256"}],"stateMutability":"view"},{"type":"function","name":"decryptionKeys","inputs":[{"name":"","type":"uint256","internalType":"uint256"}],"outputs":[{"name":"","type":"bytes","internalType":"bytes"}],"stateMutability":"view"},{"type":"function","name":"encryptionKeyExists","inputs":[{"name":"","type":"bytes","internalType":"bytes"}],"outputs":[{"name":"","type":"bool","internalType":"bool"}],"stateMutability":"view"},{"type":"function","name":"fids","inputs":[{"name":"","type":"address","internalType":"address"},{"name":"","type":"uint256","internalType":"uint256"}],"outputs":[{"name":"","type":"string","internalType":"string"}],"stateMutability":"view"},{"type":"function","name":"generalDecryptionKeys","inputs":[{"name":"","type":"address","internalType":"address"},{"name":"","type":"uint256","internalType":"uint256"}],"outputs":[{"name":"","type":"bytes","internalType":"bytes"}],"stateMutability":"view"},{"type":"function","name":"generalIDRequested","inputs":[{"name":"","type":"address","internalType":"address"},{"name":"","type":"uint256","internalType":"uint256"}],"outputs":[{"name":"","type":"bool","internalType":"bool"}],"stateMutability":"view"},{"type":"function","name":"generalKeyRequested","inputs":[{"name":"","type":"address","internalType":"address"},{"name":"","type":"uint256","internalType":"uint256"}],"outputs":[{"name":"","type":"bool","internalType":"bool"}],"stateMutability":"view"},{"type":"function","name":"getRandomnessByHeight","inputs":[{"name":"height","type":"uint256","internalType":"uint256"}],"outputs":[{"name":"","type":"bytes32","internalType":"bytes32"}],"stateMutability":"view"},{"type":"function","name":"latestEncryptionKey","inputs":[],"outputs":[{"name":"","type":"bytes","internalType":"bytes"}],"stateMutability":"view"},{"type":"function","name":"latestRandomness","inputs":[],"outputs":[{"name":"","type":"bytes32","internalType":"bytes32"},{"name":"","type":"uint256","internalType":"uint256"}],"stateMutability":"view"},{"type":"function","name":"latestRandomnessHashOnly","inputs":[],"outputs":[{"name":"","type":"bytes32","internalType":"bytes32"}],"stateMutability":"view"},{"type":"function","name":"owner","inputs":[],"outputs":[{"name":"","type":"address","internalType":"address"}],"stateMutability":"view"},{"type":"function","name":"renounceOwnership","inputs":[],"outputs":[],"stateMutability":"nonpayable"},{"type":"function","name":"requestGeneralDecryptionKey","inputs":[{"name":"id","type":"uint256","internalType":"uint256"}],"outputs":[],"stateMutability":"nonpayable"},{"type":"function","name":"requestGeneralID","inputs":[],"outputs":[],"stateMutability":"nonpayable"},{"type":"function","name":"setRequestGeneralFee","inputs":[{"name":"newFee","type":"uint256","internalType":"uint256"}],"outputs":[],"stateMutability":"nonpayable"},{"type":"function","name":"submitDecryptionKey","inputs":[{"name":"encryptionKey","type":"bytes","internalType":"bytes"},{"name":"decryptionKey","type":"bytes","internalType":"bytes"},{"name":"height","type":"uint256","internalType":"uint256"}],"outputs":[],"stateMutability":"nonpayable"},{"type":"function","name":"submitEncryptionKey","inputs":[{"name":"encryptionKey","type":"bytes","internalType":"bytes"}],"outputs":[],"stateMutability":"nonpayable"},{"type":"function","name":"submitFID","inputs":[{"name":"_requester","type":"address","internalType":"address"},{"name":"_fid","type":"string","internalType":"string"},{"name":"_id","type":"uint256","internalType":"uint256"}],"outputs":[],"stateMutability":"nonpayable"},{"type":"function","name":"submitGeneralDecryptionKeys","inputs":[{"name":"requester","type":"address","internalType":"address"},{"name":"id","type":"uint256","internalType":"uint256"},{"name":"decryptionKey","type":"bytes","internalType":"bytes"}],"outputs":[],"stateMutability":"nonpayable"},{"type":"function","name":"transferOwnership","inputs":[{"name":"newOwner","type":"address","internalType":"address"}],"outputs":[],"stateMutability":"nonpayable"},{"type":"event","name":"FIDSubmitted","inputs":[{"name":"_requester","type":"address","indexed":true,"internalType":"address"},{"name":"fid","type":"string","indexed":true,"internalType":"string"},{"name":"id","type":"uint256","indexed":true,"internalType":"uint256"}],"anonymous":false},{"type":"event","name":"OwnershipTransferred","inputs":[{"name":"previousOwner","type":"address","indexed":true,"internalType":"address"},{"name":"newOwner","type":"address","indexed":true,"internalType":"address"}],"anonymous":false},{"type":"event","name":"RequestGeneralID","inputs":[{"name":"requester","type":"address","indexed":true,"internalType":"address"},{"name":"id","type":"uint256","indexed":false,"internalType":"uint256"}],"anonymous":false},{"type":"event","name":"RequestGeneralKey","inputs":[{"name":"requester","type":"address","indexed":true,"internalType":"address"},{"name":"id","type":"uint256","indexed":false,"internalType":"uint256"}],"anonymous":false},{"type":"error","name":"OwnableInvalidOwner","inputs":[{"name":"owner","type":"address","internalType":"address"}]},{"type":"error","name":"OwnableUnauthorizedAccount","inputs":[{"name":"account","type":"address","internalType":"address"}]}],"bytecode":{"object":"0x60806040525f6001555f6005553480156016575f80fd5b503380603b57604051631e4fbdf760e01b81525f600482015260240160405180910390fd5b6042816047565b506096565b5f80546001600160a01b038381166001600160a01b0319831681178455604051919092169283917f8be0079c531659141344cd1fd0a4f28419497f9722a3daafe3b4186f6b6457e09190a35050565b6110e9806100a35f395ff3fe608060405234801561000f575f80fd5b5060043610610132575f3560e01c80638da5cb5b116100b4578063d0d343a711610079578063d0d343a7146102ba578063da538e41146102c2578063edf73999146102d5578063ee4d43cf146102e8578063f2fde38b146102fb578063fb42e3561461030e575f80fd5b80638da5cb5b146102395780639c533b8a146102535780639cc8c1e814610281578063aa878cf214610294578063b09f544a146102a7575f80fd5b80636702e0f5116100fa5780636702e0f5146101fb5780636d4c021214610203578063715018a61461021657806374236c861461021e57806380c110e814610226575f80fd5b80630d006aa214610136578063111e512e1461014b5780633095ffdf146101745780633b5cd3a8146101b157806364d0f5d0146101ce575b5f80fd5b610149610144366004610c66565b61033b565b005b61015e610159366004610ca0565b6103fa565b60405161016b9190610ce5565b60405180910390f35b6101a1610182366004610d0d565b600860209081525f928352604080842090915290825290205460ff1681565b604051901515815260200161016b565b6101b9610491565b6040805192835260208301919091520161016b565b6101ed6101dc366004610d35565b60066020525f908152604090205481565b60405190815260200161016b565b6101496104a9565b61015e610211366004610d0d565b610539565b61014961055c565b61015e61056f565b61015e610234366004610d0d565b61057c565b5f546040516001600160a01b03909116815260200161016b565b6101a1610261366004610c66565b805160208183018101805160038252928201919093012091525460ff1681565b61014961028f366004610d4e565b61059f565b6101496102a2366004610db5565b610664565b6101496102b5366004610ca0565b610778565b6101ed610785565b6101496102d0366004610e11565b610796565b6101496102e3366004610ca0565b61095b565b6101ed6102f6366004610ca0565b610a98565b610149610309366004610d35565b610aa8565b6101a161031c366004610d0d565b600760209081525f928352604080842090915290825290205460ff1681565b610343610ae5565b6003816040516103539190610e7b565b9081526040519081900360200190205460ff16156103b85760405162461bcd60e51b815260206004820152601d60248201527f656e6372797074696f6e206b657920616c72656164792065786973747300000060448201526064015b60405180910390fd5b60026103c48282610f0a565b5060016003826040516103d79190610e7b565b908152604051908190036020019020805491151560ff1990921691909117905550565b60046020525f90815260409020805461041290610e86565b80601f016020809104026020016040519081016040528092919081815260200182805461043e90610e86565b80156104895780601f1061046057610100808354040283529160200191610489565b820191905f5260205f20905b81548152906001019060200180831161046c57829003601f168201915b505050505081565b5f8061049e600554610b11565b600554915091509091565b335f8181526006602081815260408084208054600784528286208187528452918520805460ff1916600190811790915595909452919052905490916104ee9190610fc5565b335f81815260066020908152604091829020939093555183815290917f600710de1dac8e9a1eae6575978854662c36f5f0c8243b13db0ace2f0bf4de4f91015b60405180910390a250565b600960209081525f92835260408084209091529082529020805461041290610e86565b610564610ae5565b61056d5f610b67565b565b6002805461041290610e86565b600a60209081525f92835260408084209091529082529020805461041290610e86565b6105a7610ae5565b6001600160a01b0383165f90815260076020908152604080832084845290915290205460ff166105e95760405162461bcd60e51b81526004016103af90610fe4565b6001600160a01b0383165f90815260096020908152604080832084845290915290206106158382610f0a565b5080826040516106259190610e7b565b604051908190038120906001600160a01b038616907f1cb0a3e71b09453c250a1f0ee46e90780c08d698ebed04ac4f0509b168fce7df905f90a4505050565b61066c610ae5565b5f818152600460205260409020805461068490610e86565b1590506106ea5760405162461bcd60e51b815260206004820152602e60248201527f64656372797074696f6e206b657920666f7220676976656e206865696768742060448201526d616c72656164792065786973747360901b60648201526084016103af565b6003836040516106fa9190610e7b565b9081526040519081900360200190205460ff166107595760405162461bcd60e51b815260206004820152601e60248201527f656e6372797074696f6e206b657920646f6573206e6f7420657869737473000060448201526064016103af565b5f8181526004602052604090206107708382610f0a565b506005555050565b610780610ae5565b600155565b5f610791600554610b11565b905090565b61079e610ae5565b6001600160a01b0383165f90815260076020908152604080832085845290915290205460ff166107e05760405162461bcd60e51b81526004016103af90610fe4565b6001600160a01b0383165f90815260086020908152604080832085845290915290205460ff166108875760405162461bcd60e51b815260206004820152604660248201527f54686520676976656e2072657175657374657220262049442068617665206e6f60448201527f7420726571756573746564207468652067656e6572616c2064656372797074696064820152656f6e206b657960d01b608482015260a4016103af565b6001600160a01b0383165f908152600a60209081526040808320858452909152902080546108b490610e86565b1590506109295760405162461bcd60e51b815260206004820152603a60248201527f44656372797074696f6e206b657920666f722074686520676976656e2072657160448201527f756573746572202620494420616c72656164792065786973747300000000000060648201526084016103af565b6001600160a01b0383165f908152600a6020908152604080832085845290915290206109558282610f0a565b50505050565b335f90815260076020908152604080832084845290915290205460ff166109c45760405162461bcd60e51b815260206004820152601960248201527f476976656e204944206973206e6f74207265717565737465640000000000000060448201526064016103af565b335f90815260086020908152604080832084845290915290205460ff1615610a465760405162461bcd60e51b815260206004820152602f60248201527f416c726561647920726571756573742064656372797074696f6e206b6579206660448201526e1bdc881d1a194819da5d995b881251608a1b60648201526084016103af565b335f818152600860209081526040808320858452825291829020805460ff1916600117905590518381527f901589c3a1797e9706a6e47144e3ef3ef75e1f57718e89f6036c98ee6a6754f7910161052e565b5f610aa282610b11565b92915050565b610ab0610ae5565b6001600160a01b038116610ad957604051631e4fbdf760e01b81525f60048201526024016103af565b610ae281610b67565b50565b5f546001600160a01b0316331461056d5760405163118cdaa760e01b81523360048201526024016103af565b5f8181526004602052604081208054610b2990610e86565b90505f03610b3857505f919050565b5f82815260046020526040908190209051610b539190611042565b60405180910390209050919050565b919050565b5f80546001600160a01b038381166001600160a01b0319831681178455604051919092169283917f8be0079c531659141344cd1fd0a4f28419497f9722a3daafe3b4186f6b6457e09190a35050565b634e487b7160e01b5f52604160045260245ffd5b5f8067ffffffffffffffff841115610be457610be4610bb6565b50604051601f19601f85018116603f0116810181811067ffffffffffffffff82111715610c1357610c13610bb6565b604052838152905080828401851015610c2a575f80fd5b838360208301375f60208583010152509392505050565b5f82601f830112610c50575f80fd5b610c5f83833560208501610bca565b9392505050565b5f60208284031215610c76575f80fd5b813567ffffffffffffffff811115610c8c575f80fd5b610c9884828501610c41565b949350505050565b5f60208284031215610cb0575f80fd5b5035919050565b5f81518084528060208401602086015e5f602082860101526020601f19601f83011685010191505092915050565b602081525f610c5f6020830184610cb7565b80356001600160a01b0381168114610b62575f80fd5b5f8060408385031215610d1e575f80fd5b610d2783610cf7565b946020939093013593505050565b5f60208284031215610d45575f80fd5b610c5f82610cf7565b5f805f60608486031215610d60575f80fd5b610d6984610cf7565b9250602084013567ffffffffffffffff811115610d84575f80fd5b8401601f81018613610d94575f80fd5b610da386823560208401610bca565b93969395505050506040919091013590565b5f805f60608486031215610dc7575f80fd5b833567ffffffffffffffff811115610ddd575f80fd5b610de986828701610c41565b935050602084013567ffffffffffffffff811115610e05575f80fd5b610da386828701610c41565b5f805f60608486031215610e23575f80fd5b610e2c84610cf7565b925060208401359150604084013567ffffffffffffffff811115610e4e575f80fd5b610e5a86828701610c41565b9150509250925092565b5f81518060208401855e5f93019283525090919050565b5f610c5f8284610e64565b600181811c90821680610e9a57607f821691505b602082108103610eb857634e487b7160e01b5f52602260045260245ffd5b50919050565b601f821115610f0557805f5260205f20601f840160051c81016020851015610ee35750805b601f840160051c820191505b81811015610f02575f8155600101610eef565b50505b505050565b815167ffffffffffffffff811115610f2457610f24610bb6565b610f3881610f328454610e86565b84610ebe565b6020601f821160018114610f6a575f8315610f535750848201515b5f19600385901b1c1916600184901b178455610f02565b5f84815260208120601f198516915b82811015610f995787850151825560209485019460019092019101610f79565b5084821015610fb657868401515f19600387901b60f8161c191681555b50505050600190811b01905550565b80820180821115610aa257634e487b7160e01b5f52601160045260245ffd5b602080825260409082018190527f54686520676976656e2072657175657374657220262049442068617665206e6f908201527f7420726571756573746564207468652067656e6572616c206964656e74697479606082015260800190565b5f80835461104f81610e86565b600182168015611066576001811461107b576110a8565b60ff19831686528115158202860193506110a8565b865f5260205f205f5b838110156110a057815488820152600190910190602001611084565b505081860193505b50919594505050505056fea264697066735822122057d7e949ee6d30bf8e26385b553e945fcece2fdc4da0373875fe1e323466d7a164736f6c634300081a0033","linkReferences":{}},"methodIdentifiers":{"addressGeneralID(address)":"64d0f5d0","decryptionKeys(uint256)":"111e512e","encryptionKeyExists(bytes)":"9c533b8a","fids(address,uint256)":"6d4c0212","generalDecryptionKeys(address,uint256)":"80c110e8","generalIDRequested(address,uint256)":"fb42e356","generalKeyRequested(address,uint256)":"3095ffdf","getRandomnessByHeight(uint256)":"ee4d43cf","latestEncryptionKey()":"74236c86","latestRandomness()":"3b5cd3a8","latestRandomnessHashOnly()":"d0d343a7","owner()":"8da5cb5b","renounceOwnership()":"715018a6","requestGeneralDecryptionKey(uint256)":"edf73999","requestGeneralID()":"6702e0f5","setRequestGeneralFee(uint256)":"b09f544a","submitDecryptionKey(bytes,bytes,uint256)":"aa878cf2","submitEncryptionKey(bytes)":"0d006aa2","submitFID(address,string,uint256)":"9cc8c1e8","submitGeneralDecryptionKeys(address,uint256,bytes)":"da538e41","transferOwnership(address)":"f2fde38b"},"id":27}