{"abi":[{"type":"constructor","inputs":[{"name":"_token","type":"address","internalType":"address"}],"stateMutability":"nonpayable"},{"type":"function","name":"lockFunds","inputs":[{"name":"user","type":"address","internalType":"address"},{"name":"amountRaw","type":"uint256","internalType":"uint256"}],"outputs":[],"stateMutability":"nonpayable"},{"type":"function","name":"locked","inputs":[{"name":"","type":"address","internalType":"address"}],"outputs":[{"name":"","type":"uint256","internalType":"uint256"}],"stateMutability":"view"},{"type":"function","name":"manager","inputs":[],"outputs":[{"name":"","type":"address","internalType":"address"}],"stateMutability":"view"},{"type":"function","name":"owner","inputs":[],"outputs":[{"name":"","type":"address","internalType":"address"}],"stateMutability":"view"},{"type":"function","name":"recoverERC20","inputs":[{"name":"_token","type":"address","internalType":"address"},{"name":"amt","type":"uint256","internalType":"uint256"}],"outputs":[],"stateMutability":"nonpayable"},{"type":"function","name":"renounceOwnership","inputs":[],"outputs":[],"stateMutability":"nonpayable"},{"type":"function","name":"setManager","inputs":[{"name":"_manager","type":"address","internalType":"address"}],"outputs":[],"stateMutability":"nonpayable"},{"type":"function","name":"token","inputs":[],"outputs":[{"name":"","type":"address","internalType":"address"}],"stateMutability":"view"},{"type":"function","name":"tokenDecimals","inputs":[],"outputs":[{"name":"","type":"uint8","internalType":"uint8"}],"stateMutability":"view"},{"type":"function","name":"transferFunds","inputs":[{"name":"to","type":"address","internalType":"address"},{"name":"amountRaw","type":"uint256","internalType":"uint256"}],"outputs":[],"stateMutability":"nonpayable"},{"type":"function","name":"transferOwnership","inputs":[{"name":"newOwner","type":"address","internalType":"address"}],"outputs":[],"stateMutability":"nonpayable"},{"type":"function","name":"unlockFunds","inputs":[{"name":"user","type":"address","internalType":"address"},{"name":"amountRaw","type":"uint256","internalType":"uint256"}],"outputs":[],"stateMutability":"nonpayable"},{"type":"event","name":"FundsLocked","inputs":[{"name":"user","type":"address","indexed":true,"internalType":"address"},{"name":"amount","type":"uint256","indexed":false,"internalType":"uint256"}],"anonymous":false},{"type":"event","name":"FundsUnlocked","inputs":[{"name":"user","type":"address","indexed":true,"internalType":"address"},{"name":"amount","type":"uint256","indexed":false,"internalType":"uint256"}],"anonymous":false},{"type":"event","name":"ManagerUpdated","inputs":[{"name":"oldManager","type":"address","indexed":true,"internalType":"address"},{"name":"newManager","type":"address","indexed":true,"internalType":"address"}],"anonymous":false},{"type":"event","name":"OwnershipTransferred","inputs":[{"name":"previousOwner","type":"address","indexed":true,"internalType":"address"},{"name":"newOwner","type":"address","indexed":true,"internalType":"address"}],"anonymous":false},{"type":"error","name":"OwnableInvalidOwner","inputs":[{"name":"owner","type":"address","internalType":"address"}]},{"type":"error","name":"OwnableUnauthorizedAccount","inputs":[{"name":"account","type":"address","internalType":"address"}]},{"type":"error","name":"ReentrancyGuardReentrantCall","inputs":[]},{"type":"error","name":"SafeERC20FailedOperation","inputs":[{"name":"token","type":"address","internalType":"address"}]}],"bytecode":{"object":"0x608060405234801561000f575f80fd5b50604051610a46380380610a4683398101604081905261002e9161018b565b338061005457604051631e4fbdf760e01b81525f60048201526024015b60405180910390fd5b61005d8161013c565b50600180556001600160a01b0381166100a75760405162461bcd60e51b815260206004820152600c60248201526b5a65726f206164647265737360a01b604482015260640161004b565b600280546001600160a01b0319166001600160a01b0383169081179091556040805163313ce56760e01b8152905163313ce567916004808201926020929091908290030181865afa1580156100fe573d5f803e3d5ffd5b505050506040513d601f19601f8201168201806040525081019061012291906101b8565b6005805460ff191660ff92909216919091179055506101d8565b5f80546001600160a01b038381166001600160a01b0319831681178455604051919092169283917f8be0079c531659141344cd1fd0a4f28419497f9722a3daafe3b4186f6b6457e09190a35050565b5f6020828403121561019b575f80fd5b81516001600160a01b03811681146101b1575f80fd5b9392505050565b5f602082840312156101c8575f80fd5b815160ff811681146101b1575f80fd5b610861806101e55f395ff3fe608060405234801561000f575f80fd5b50600436106100b1575f3560e01c80638da5cb5b1161006e5780638da5cb5b14610147578063990dc9db14610157578063cbf9fe5f1461016a578063d0ebdbe714610197578063f2fde38b146101aa578063fc0c546a146101bd575f80fd5b806312e382b4146100b55780633b97e856146100ca578063481c6a75146100ee578063715018a6146101195780638980f11f146101215780638a75eb0414610134575b5f80fd5b6100c86100c336600461077b565b6101d0565b005b6005546100d79060ff1681565b60405160ff90911681526020015b60405180910390f35b600354610101906001600160a01b031681565b6040516001600160a01b0390911681526020016100e5565b6100c861029b565b6100c861012f36600461077b565b6102ae565b6100c861014236600461077b565b6102ec565b5f546001600160a01b0316610101565b6100c861016536600461077b565b610435565b6101896101783660046107a3565b60046020525f908152604090205481565b6040519081526020016100e5565b6100c86101a53660046107a3565b6104c3565b6100c86101b83660046107a3565b610572565b600254610101906001600160a01b031681565b6003546001600160a01b031633146102035760405162461bcd60e51b81526004016101fa906107c3565b60405180910390fd5b61020b6105ac565b600254610223906001600160a01b03168330846105d6565b6001600160a01b0382165f908152600460205260408120805483929061024a9084906107ff565b90915550506040518181526001600160a01b038316907f1423e2a671bcc71c56f3c3cb78e3c96473d3ca5eb061acd0b93d1d0a6617f658906020015b60405180910390a261029760018055565b5050565b6102a3610643565b6102ac5f61066f565b565b6102b6610643565b6102be6105ac565b6102e36102d25f546001600160a01b031690565b6001600160a01b03841690836106be565b61029760018055565b6003546001600160a01b031633146103165760405162461bcd60e51b81526004016101fa906107c3565b61031e6105ac565b6001600160a01b0382166103635760405162461bcd60e51b815260206004820152600c60248201526b5a65726f206164647265737360a01b60448201526064016101fa565b6001600160a01b0382165f908152600460205260409020548111156103b75760405162461bcd60e51b815260206004820152600a602482015269139bdd081b1bd8dad95960b21b60448201526064016101fa565b6001600160a01b0382165f90815260046020526040812080548392906103de908490610818565b90915550506002546103fa906001600160a01b031683836106be565b816001600160a01b03167f7e187bf56d23cc278139f36660c1b9c56739b0518009319e389d2c33f7acc7d38260405161028691815260200190565b6003546001600160a01b0316331461045f5760405162461bcd60e51b81526004016101fa906107c3565b6104676105ac565b6001600160a01b0382166104ac5760405162461bcd60e51b815260206004820152600c60248201526b5a65726f206164647265737360a01b60448201526064016101fa565b6002546102e3906001600160a01b031683836106be565b6104cb610643565b6104d36105ac565b6001600160a01b0381166105185760405162461bcd60e51b815260206004820152600c60248201526b2d32b9379036b0b730b3b2b960a11b60448201526064016101fa565b600380546001600160a01b038381166001600160a01b0319831681179093556040519116919082907fdac3632743b879638fd2d51c4d3c1dd796615b4758a55b50b0c19b971ba9fbc7905f90a35061056f60018055565b50565b61057a610643565b6001600160a01b0381166105a357604051631e4fbdf760e01b81525f60048201526024016101fa565b61056f8161066f565b6002600154036105cf57604051633ee5aeb560e01b815260040160405180910390fd5b6002600155565b6040516001600160a01b03848116602483015283811660448301526064820183905261063d9186918216906323b872dd906084015b604051602081830303815290604052915060e01b6020820180516001600160e01b0383818316178352505050506106f4565b50505050565b5f546001600160a01b031633146102ac5760405163118cdaa760e01b81523360048201526024016101fa565b5f80546001600160a01b038381166001600160a01b0319831681178455604051919092169283917f8be0079c531659141344cd1fd0a4f28419497f9722a3daafe3b4186f6b6457e09190a35050565b6040516001600160a01b038381166024830152604482018390526106ef91859182169063a9059cbb9060640161060b565b505050565b5f8060205f8451602086015f885af180610713576040513d5f823e3d81fd5b50505f513d9150811561072a578060011415610737565b6001600160a01b0384163b155b1561063d57604051635274afe760e01b81526001600160a01b03851660048201526024016101fa565b80356001600160a01b0381168114610776575f80fd5b919050565b5f806040838503121561078c575f80fd5b61079583610760565b946020939093013593505050565b5f602082840312156107b3575f80fd5b6107bc82610760565b9392505050565b6020808252600e908201526d139bdd08185d5d1a1bdc9a5e995960921b604082015260600190565b634e487b7160e01b5f52601160045260245ffd5b80820180821115610812576108126107eb565b92915050565b81810381811115610812576108126107eb56fea264697066735822122072ecf7cc489ce06142305a1b3b80454de37fa80950b41b2ee4d24e0e5be3997e64736f6c634300081a0033","linkReferences":{}},"methodIdentifiers":{"lockFunds(address,uint256)":"12e382b4","locked(address)":"cbf9fe5f","manager()":"481c6a75","owner()":"8da5cb5b","recoverERC20(address,uint256)":"8980f11f","renounceOwnership()":"715018a6","setManager(address)":"d0ebdbe7","token()":"fc0c546a","tokenDecimals()":"3b97e856","transferFunds(address,uint256)":"990dc9db","transferOwnership(address)":"f2fde38b","unlockFunds(address,uint256)":"8a75eb04"},"id":4}