{"abi":[{"type":"constructor","inputs":[{"name":"_token","type":"address","internalType":"address"}],"stateMutability":"nonpayable"},{"type":"function","name":"admin","inputs":[],"outputs":[{"name":"","type":"address","internalType":"address"}],"stateMutability":"view"},{"type":"function","name":"available","inputs":[{"name":"","type":"address","internalType":"address"}],"outputs":[{"name":"","type":"uint256","internalType":"uint256"}],"stateMutability":"view"},{"type":"function","name":"deposit","inputs":[{"name":"amount","type":"uint256","internalType":"uint256"}],"outputs":[],"stateMutability":"nonpayable"},{"type":"function","name":"lockFunds","inputs":[{"name":"user","type":"address","internalType":"address"},{"name":"amount","type":"uint256","internalType":"uint256"}],"outputs":[],"stateMutability":"nonpayable"},{"type":"function","name":"locked","inputs":[{"name":"","type":"address","internalType":"address"}],"outputs":[{"name":"","type":"uint256","internalType":"uint256"}],"stateMutability":"view"},{"type":"function","name":"manager","inputs":[],"outputs":[{"name":"","type":"address","internalType":"address"}],"stateMutability":"view"},{"type":"function","name":"owner","inputs":[],"outputs":[{"name":"","type":"address","internalType":"address"}],"stateMutability":"view"},{"type":"function","name":"renounceOwnership","inputs":[],"outputs":[],"stateMutability":"nonpayable"},{"type":"function","name":"setManager","inputs":[{"name":"_manager","type":"address","internalType":"address"}],"outputs":[],"stateMutability":"nonpayable"},{"type":"function","name":"token","inputs":[],"outputs":[{"name":"","type":"address","internalType":"address"}],"stateMutability":"view"},{"type":"function","name":"tokenDecimals","inputs":[],"outputs":[{"name":"","type":"uint8","internalType":"uint8"}],"stateMutability":"view"},{"type":"function","name":"transfer","inputs":[{"name":"to","type":"address","internalType":"address"},{"name":"amount","type":"uint256","internalType":"uint256"}],"outputs":[],"stateMutability":"nonpayable"},{"type":"function","name":"transferAdmin","inputs":[{"name":"newAdmin","type":"address","internalType":"address"}],"outputs":[],"stateMutability":"nonpayable"},{"type":"function","name":"transferOwnership","inputs":[{"name":"newOwner","type":"address","internalType":"address"}],"outputs":[],"stateMutability":"nonpayable"},{"type":"function","name":"unlockOfferFunds","inputs":[{"name":"user","type":"address","internalType":"address"},{"name":"amount","type":"uint256","internalType":"uint256"}],"outputs":[],"stateMutability":"nonpayable"},{"type":"function","name":"withdraw","inputs":[{"name":"amount","type":"uint256","internalType":"uint256"}],"outputs":[],"stateMutability":"nonpayable"},{"type":"event","name":"AdminTransferred","inputs":[{"name":"oldAdmin","type":"address","indexed":true,"internalType":"address"},{"name":"newAdmin","type":"address","indexed":true,"internalType":"address"}],"anonymous":false},{"type":"event","name":"Deposited","inputs":[{"name":"user","type":"address","indexed":true,"internalType":"address"},{"name":"amount","type":"uint256","indexed":false,"internalType":"uint256"}],"anonymous":false},{"type":"event","name":"FundsLocked","inputs":[{"name":"user","type":"address","indexed":true,"internalType":"address"},{"name":"amount","type":"uint256","indexed":false,"internalType":"uint256"}],"anonymous":false},{"type":"event","name":"FundsUnlocked","inputs":[{"name":"user","type":"address","indexed":true,"internalType":"address"},{"name":"amount","type":"uint256","indexed":false,"internalType":"uint256"}],"anonymous":false},{"type":"event","name":"ManagerUpdated","inputs":[{"name":"oldManager","type":"address","indexed":true,"internalType":"address"},{"name":"newManager","type":"address","indexed":true,"internalType":"address"}],"anonymous":false},{"type":"event","name":"OwnershipTransferred","inputs":[{"name":"previousOwner","type":"address","indexed":true,"internalType":"address"},{"name":"newOwner","type":"address","indexed":true,"internalType":"address"}],"anonymous":false},{"type":"event","name":"Withdrawn","inputs":[{"name":"user","type":"address","indexed":true,"internalType":"address"},{"name":"amount","type":"uint256","indexed":false,"internalType":"uint256"}],"anonymous":false},{"type":"error","name":"OwnableInvalidOwner","inputs":[{"name":"owner","type":"address","internalType":"address"}]},{"type":"error","name":"OwnableUnauthorizedAccount","inputs":[{"name":"account","type":"address","internalType":"address"}]},{"type":"error","name":"ReentrancyGuardReentrantCall","inputs":[]}],"bytecode":{"object":"0x608060405234801561000f575f80fd5b506040516110e03803806110e083398101604081905261002e91610196565b338061005457604051631e4fbdf760e01b81525f60048201526024015b60405180910390fd5b61005d81610147565b50600180556001600160a01b0381166100a75760405162461bcd60e51b815260206004820152600c60248201526b5a65726f206164647265737360a01b604482015260640161004b565b600280546001600160a01b03199081163317909155600380546001600160a01b0384169216821790556040805163313ce56760e01b8152905163313ce567916004808201926020929091908290030181865afa158015610109573d5f803e3d5ffd5b505050506040513d601f19601f8201168201806040525081019061012d91906101c3565b6007805460ff191660ff92909216919091179055506101e3565b5f80546001600160a01b038381166001600160a01b0319831681178455604051919092169283917f8be0079c531659141344cd1fd0a4f28419497f9722a3daafe3b4186f6b6457e09190a35050565b5f602082840312156101a6575f80fd5b81516001600160a01b03811681146101bc575f80fd5b9392505050565b5f602082840312156101d3575f80fd5b815160ff811681146101bc575f80fd5b610ef0806101f05f395ff3fe608060405234801561000f575f80fd5b50600436106100fb575f3560e01c8063a9059cbb11610093578063d0ebdbe711610063578063d0ebdbe714610226578063f2fde38b14610239578063f851a4401461024c578063fc0c546a1461025f575f80fd5b8063a9059cbb146101ce578063b2d81208146101e1578063b6b55f25146101f4578063cbf9fe5f14610207575f80fd5b8063481c6a75116100ce578063481c6a7514610178578063715018a6146101a357806375829def146101ab5780638da5cb5b146101be575f80fd5b806310098ad5146100ff57806312e382b4146101315780632e1a7d4d146101465780633b97e85614610159575b5f80fd5b61011e61010d366004610ca7565b60056020525f908152604090205481565b6040519081526020015b60405180910390f35b61014461013f366004610cc7565b610272565b005b610144610154366004610cef565b610426565b6007546101669060ff1681565b60405160ff9091168152602001610128565b60045461018b906001600160a01b031681565b6040516001600160a01b039091168152602001610128565b61014461059e565b6101446101b9366004610ca7565b6105b1565b5f546001600160a01b031661018b565b6101446101dc366004610cc7565b610697565b6101446101ef366004610cc7565b6107ea565b610144610202366004610cef565b6109a9565b61011e610215366004610ca7565b60066020525f908152604090205481565b610144610234366004610ca7565b610b0b565b610144610247366004610ca7565b610bad565b60025461018b906001600160a01b031681565b60035461018b906001600160a01b031681565b6002546001600160a01b031633148061029557506004546001600160a01b031633145b6102ba5760405162461bcd60e51b81526004016102b190610d06565b60405180910390fd5b6102c2610be7565b5f81116102ff5760405162461bcd60e51b815260206004820152600b60248201526a16995c9bc8185b5bdd5b9d60aa1b60448201526064016102b1565b6003546007545f916001600160a01b0316906323b872dd90859030906103299060ff16600a610e27565b6103339087610e35565b6040516001600160e01b031960e086901b1681526001600160a01b03938416600482015292909116602483015260448201526064016020604051808303815f875af1158015610384573d5f803e3d5ffd5b505050506040513d601f19601f820116820180604052508101906103a89190610e4c565b6001600160a01b0384165f908152600660205260408120805492935084929091906103d4908490610e6b565b90915550506040518281526001600160a01b038416907f1423e2a671bcc71c56f3c3cb78e3c96473d3ca5eb061acd0b93d1d0a6617f658906020015b60405180910390a25061042260018055565b5050565b61042e610be7565b335f9081526005602052604090205481111561047b5760405162461bcd60e51b815260206004820152600c60248201526b125b9cdd59999a58da595b9d60a21b60448201526064016102b1565b335f9081526005602052604081208054839290610499908490610e7e565b90915550506003546007545f916001600160a01b03169063a9059cbb9033906104c69060ff16600a610e27565b6104d09086610e35565b6040516001600160e01b031960e085901b1681526001600160a01b03909216600483015260248201526044016020604051808303815f875af1158015610518573d5f803e3d5ffd5b505050506040513d601f19601f8201168201806040525081019061053c9190610e4c565b90508061055b5760405162461bcd60e51b81526004016102b190610e91565b60405182815233907f7084f5476618d8e60b11ef0d7d3f06914655adb8793e28ff7f018d4c76d505d5906020015b60405180910390a25061059b60018055565b50565b6105a6610c11565b6105af5f610c3d565b565b6002546001600160a01b031633146105f75760405162461bcd60e51b81526020600482015260096024820152682737ba1030b236b4b760b91b60448201526064016102b1565b6001600160a01b03811661063c5760405162461bcd60e51b815260206004820152600c60248201526b5a65726f206164647265737360a01b60448201526064016102b1565b6002546040516001600160a01b038084169216907ff8ccb027dfcd135e000e9d45e6cc2d662578a8825d4c45b5e32e0adf67e79ec6905f90a3600280546001600160a01b0319166001600160a01b0392909216919091179055565b6002546001600160a01b03163314806106ba57506004546001600160a01b031633145b6106d65760405162461bcd60e51b81526004016102b190610d06565b6106de610be7565b6001600160a01b0382166107235760405162461bcd60e51b815260206004820152600c60248201526b5a65726f206164647265737360a01b60448201526064016102b1565b6003546007545f916001600160a01b03169063a9059cbb90859061074b9060ff16600a610e27565b6107559086610e35565b6040516001600160e01b031960e085901b1681526001600160a01b03909216600483015260248201526044016020604051808303815f875af115801561079d573d5f803e3d5ffd5b505050506040513d601f19601f820116820180604052508101906107c19190610e4c565b9050806107e05760405162461bcd60e51b81526004016102b190610e91565b5061042260018055565b6002546001600160a01b031633148061080d57506004546001600160a01b031633145b6108295760405162461bcd60e51b81526004016102b190610d06565b610831610be7565b6001600160a01b0382165f908152600660205260409020548111156108855760405162461bcd60e51b815260206004820152600a602482015269139bdd081b1bd8dad95960b21b60448201526064016102b1565b6001600160a01b0382165f90815260066020526040812080548392906108ac908490610e7e565b90915550506003546007545f916001600160a01b03169063a9059cbb9085906108d99060ff16600a610e27565b6108e39086610e35565b6040516001600160e01b031960e085901b1681526001600160a01b03909216600483015260248201526044016020604051808303815f875af115801561092b573d5f803e3d5ffd5b505050506040513d601f19601f8201168201806040525081019061094f9190610e4c565b90508061096e5760405162461bcd60e51b81526004016102b190610e91565b826001600160a01b03167f7e187bf56d23cc278139f36660c1b9c56739b0518009319e389d2c33f7acc7d38360405161041091815260200190565b6109b1610be7565b5f81116109ee5760405162461bcd60e51b815260206004820152600b60248201526a16995c9bc8185b5bdd5b9d60aa1b60448201526064016102b1565b6003546007545f916001600160a01b0316906323b872dd9033903090610a189060ff16600a610e27565b610a229087610e35565b6040516001600160e01b031960e086901b1681526001600160a01b03938416600482015292909116602483015260448201526064016020604051808303815f875af1158015610a73573d5f803e3d5ffd5b505050506040513d601f19601f82011682018060405250810190610a979190610e4c565b905080610ab65760405162461bcd60e51b81526004016102b190610e91565b335f9081526005602052604081208054849290610ad4908490610e6b565b909155505060405182815233907f2da466a7b24304f47e87fa2e1e5a81b9831ce54fec19055ce277ca2f39ba42c490602001610589565b6002546001600160a01b0316331480610b2e57506004546001600160a01b031633145b610b4a5760405162461bcd60e51b81526004016102b190610d06565b610b52610be7565b6004546040516001600160a01b038084169216907fdac3632743b879638fd2d51c4d3c1dd796615b4758a55b50b0c19b971ba9fbc7905f90a3600480546001600160a01b0319166001600160a01b0383161790556001805550565b610bb5610c11565b6001600160a01b038116610bde57604051631e4fbdf760e01b81525f60048201526024016102b1565b61059b81610c3d565b600260015403610c0a57604051633ee5aeb560e01b815260040160405180910390fd5b6002600155565b5f546001600160a01b031633146105af5760405163118cdaa760e01b81523360048201526024016102b1565b5f80546001600160a01b038381166001600160a01b0319831681178455604051919092169283917f8be0079c531659141344cd1fd0a4f28419497f9722a3daafe3b4186f6b6457e09190a35050565b80356001600160a01b0381168114610ca2575f80fd5b919050565b5f60208284031215610cb7575f80fd5b610cc082610c8c565b9392505050565b5f8060408385031215610cd8575f80fd5b610ce183610c8c565b946020939093013593505050565b5f60208284031215610cff575f80fd5b5035919050565b6020808252600e908201526d139bdd08185d5d1a1bdc9a5e995960921b604082015260600190565b634e487b7160e01b5f52601160045260245ffd5b6001815b6001841115610d7d57808504811115610d6157610d61610d2e565b6001841615610d6f57908102905b60019390931c928002610d46565b935093915050565b5f82610d9357506001610e21565b81610d9f57505f610e21565b8160018114610db55760028114610dbf57610ddb565b6001915050610e21565b60ff841115610dd057610dd0610d2e565b50506001821b610e21565b5060208310610133831016604e8410600b8410161715610dfe575081810a610e21565b610e0a5f198484610d42565b805f1904821115610e1d57610e1d610d2e565b0290505b92915050565b5f610cc060ff841683610d85565b8082028115828204841417610e2157610e21610d2e565b5f60208284031215610e5c575f80fd5b81518015158114610cc0575f80fd5b80820180821115610e2157610e21610d2e565b81810381811115610e2157610e21610d2e565b6020808252600f908201526e151c985b9cd9995c8819985a5b1959608a1b60408201526060019056fea264697066735822122053bf1fb78827da40918bff1168a85223010f87a7bbc7a63a8342ba48a424a97c64736f6c634300081a0033","linkReferences":{}},"methodIdentifiers":{"admin()":"f851a440","available(address)":"10098ad5","deposit(uint256)":"b6b55f25","lockFunds(address,uint256)":"12e382b4","locked(address)":"cbf9fe5f","manager()":"481c6a75","owner()":"8da5cb5b","renounceOwnership()":"715018a6","setManager(address)":"d0ebdbe7","token()":"fc0c546a","tokenDecimals()":"3b97e856","transfer(address,uint256)":"a9059cbb","transferAdmin(address)":"75829def","transferOwnership(address)":"f2fde38b","unlockOfferFunds(address,uint256)":"b2d81208","withdraw(uint256)":"2e1a7d4d"},"id":4}