{"abi":[{"type":"constructor","inputs":[{"name":"_token","type":"address","internalType":"address"}],"stateMutability":"nonpayable"},{"type":"function","name":"lockFunds","inputs":[{"name":"user","type":"address","internalType":"address"},{"name":"amount","type":"uint256","internalType":"uint256"}],"outputs":[],"stateMutability":"nonpayable"},{"type":"function","name":"locked","inputs":[{"name":"","type":"address","internalType":"address"}],"outputs":[{"name":"","type":"uint256","internalType":"uint256"}],"stateMutability":"view"},{"type":"function","name":"manager","inputs":[],"outputs":[{"name":"","type":"address","internalType":"address"}],"stateMutability":"view"},{"type":"function","name":"owner","inputs":[],"outputs":[{"name":"","type":"address","internalType":"address"}],"stateMutability":"view"},{"type":"function","name":"renounceOwnership","inputs":[],"outputs":[],"stateMutability":"nonpayable"},{"type":"function","name":"setManager","inputs":[{"name":"_manager","type":"address","internalType":"address"}],"outputs":[],"stateMutability":"nonpayable"},{"type":"function","name":"token","inputs":[],"outputs":[{"name":"","type":"address","internalType":"address"}],"stateMutability":"view"},{"type":"function","name":"tokenDecimals","inputs":[],"outputs":[{"name":"","type":"uint8","internalType":"uint8"}],"stateMutability":"view"},{"type":"function","name":"transfer","inputs":[{"name":"to","type":"address","internalType":"address"},{"name":"amount","type":"uint256","internalType":"uint256"}],"outputs":[],"stateMutability":"nonpayable"},{"type":"function","name":"transferOwnership","inputs":[{"name":"newOwner","type":"address","internalType":"address"}],"outputs":[],"stateMutability":"nonpayable"},{"type":"function","name":"unlockFunds","inputs":[{"name":"user","type":"address","internalType":"address"},{"name":"amount","type":"uint256","internalType":"uint256"}],"outputs":[],"stateMutability":"nonpayable"},{"type":"event","name":"FundsLocked","inputs":[{"name":"user","type":"address","indexed":true,"internalType":"address"},{"name":"amount","type":"uint256","indexed":false,"internalType":"uint256"}],"anonymous":false},{"type":"event","name":"FundsUnlocked","inputs":[{"name":"user","type":"address","indexed":true,"internalType":"address"},{"name":"amount","type":"uint256","indexed":false,"internalType":"uint256"}],"anonymous":false},{"type":"event","name":"ManagerUpdated","inputs":[{"name":"oldManager","type":"address","indexed":true,"internalType":"address"},{"name":"newManager","type":"address","indexed":true,"internalType":"address"}],"anonymous":false},{"type":"event","name":"OwnershipTransferred","inputs":[{"name":"previousOwner","type":"address","indexed":true,"internalType":"address"},{"name":"newOwner","type":"address","indexed":true,"internalType":"address"}],"anonymous":false},{"type":"error","name":"OwnableInvalidOwner","inputs":[{"name":"owner","type":"address","internalType":"address"}]},{"type":"error","name":"OwnableUnauthorizedAccount","inputs":[{"name":"account","type":"address","internalType":"address"}]},{"type":"error","name":"ReentrancyGuardReentrantCall","inputs":[]}],"bytecode":{"object":"0x608060405234801561000f575f80fd5b50604051610bdb380380610bdb83398101604081905261002e9161018b565b338061005457604051631e4fbdf760e01b81525f60048201526024015b60405180910390fd5b61005d8161013c565b50600180556001600160a01b0381166100a75760405162461bcd60e51b815260206004820152600c60248201526b5a65726f206164647265737360a01b604482015260640161004b565b600280546001600160a01b0319166001600160a01b0383169081179091556040805163313ce56760e01b8152905163313ce567916004808201926020929091908290030181865afa1580156100fe573d5f803e3d5ffd5b505050506040513d601f19601f8201168201806040525081019061012291906101b8565b6005805460ff191660ff92909216919091179055506101d8565b5f80546001600160a01b038381166001600160a01b0319831681178455604051919092169283917f8be0079c531659141344cd1fd0a4f28419497f9722a3daafe3b4186f6b6457e09190a35050565b5f6020828403121561019b575f80fd5b81516001600160a01b03811681146101b1575f80fd5b9392505050565b5f602082840312156101c8575f80fd5b815160ff811681146101b1575f80fd5b6109f6806101e55f395ff3fe608060405234801561000f575f80fd5b50600436106100a6575f3560e01c80638da5cb5b1161006e5780638da5cb5b14610129578063a9059cbb14610139578063cbf9fe5f1461014c578063d0ebdbe714610179578063f2fde38b1461018c578063fc0c546a1461019f575f80fd5b806312e382b4146100aa5780633b97e856146100bf578063481c6a75146100e3578063715018a61461010e5780638a75eb0414610116575b5f80fd5b6100bd6100b83660046107c4565b6101b2565b005b6005546100cc9060ff1681565b60405160ff90911681526020015b60405180910390f35b6003546100f6906001600160a01b031681565b6040516001600160a01b0390911681526020016100da565b6100bd61036b565b6100bd6101243660046107c4565b61037e565b5f546001600160a01b03166100f6565b6100bd6101473660046107c4565b610528565b61016b61015a3660046107ec565b60046020525f908152604090205481565b6040519081526020016100da565b6100bd6101873660046107ec565b610666565b6100bd61019a3660046107ec565b6106ca565b6002546100f6906001600160a01b031681565b6003546001600160a01b031633146101e55760405162461bcd60e51b81526004016101dc9061080c565b60405180910390fd5b6101ed610704565b5f811161022a5760405162461bcd60e51b815260206004820152600b60248201526a16995c9bc8185b5bdd5b9d60aa1b60448201526064016101dc565b6002546005545f916001600160a01b0316906323b872dd90859030906102549060ff16600a61092d565b61025e908761093b565b6040516001600160e01b031960e086901b1681526001600160a01b03938416600482015292909116602483015260448201526064016020604051808303815f875af11580156102af573d5f803e3d5ffd5b505050506040513d601f19601f820116820180604052508101906102d39190610952565b9050806102f25760405162461bcd60e51b81526004016101dc90610971565b6001600160a01b0383165f908152600460205260408120805484929061031990849061099a565b90915550506040518281526001600160a01b038416907f1423e2a671bcc71c56f3c3cb78e3c96473d3ca5eb061acd0b93d1d0a6617f658906020015b60405180910390a25061036760018055565b5050565b61037361072e565b61037c5f61075a565b565b6003546001600160a01b031633146103a85760405162461bcd60e51b81526004016101dc9061080c565b6103b0610704565b6001600160a01b0382165f908152600460205260409020548111156104045760405162461bcd60e51b815260206004820152600a602482015269139bdd081b1bd8dad95960b21b60448201526064016101dc565b6001600160a01b0382165f908152600460205260408120805483929061042b9084906109ad565b90915550506002546005545f916001600160a01b03169063a9059cbb9085906104589060ff16600a61092d565b610462908661093b565b6040516001600160e01b031960e085901b1681526001600160a01b03909216600483015260248201526044016020604051808303815f875af11580156104aa573d5f803e3d5ffd5b505050506040513d601f19601f820116820180604052508101906104ce9190610952565b9050806104ed5760405162461bcd60e51b81526004016101dc90610971565b826001600160a01b03167f7e187bf56d23cc278139f36660c1b9c56739b0518009319e389d2c33f7acc7d38360405161035591815260200190565b6003546001600160a01b031633146105525760405162461bcd60e51b81526004016101dc9061080c565b61055a610704565b6001600160a01b03821661059f5760405162461bcd60e51b815260206004820152600c60248201526b5a65726f206164647265737360a01b60448201526064016101dc565b6002546005545f916001600160a01b03169063a9059cbb9085906105c79060ff16600a61092d565b6105d1908661093b565b6040516001600160e01b031960e085901b1681526001600160a01b03909216600483015260248201526044016020604051808303815f875af1158015610619573d5f803e3d5ffd5b505050506040513d601f19601f8201168201806040525081019061063d9190610952565b90508061065c5760405162461bcd60e51b81526004016101dc90610971565b5061036760018055565b61066e61072e565b610676610704565b600380546001600160a01b0319166001600160a01b03831690811790915560405181907fdac3632743b879638fd2d51c4d3c1dd796615b4758a55b50b0c19b971ba9fbc7905f90a36106c760018055565b50565b6106d261072e565b6001600160a01b0381166106fb57604051631e4fbdf760e01b81525f60048201526024016101dc565b6106c78161075a565b60026001540361072757604051633ee5aeb560e01b815260040160405180910390fd5b6002600155565b5f546001600160a01b0316331461037c5760405163118cdaa760e01b81523360048201526024016101dc565b5f80546001600160a01b038381166001600160a01b0319831681178455604051919092169283917f8be0079c531659141344cd1fd0a4f28419497f9722a3daafe3b4186f6b6457e09190a35050565b80356001600160a01b03811681146107bf575f80fd5b919050565b5f80604083850312156107d5575f80fd5b6107de836107a9565b946020939093013593505050565b5f602082840312156107fc575f80fd5b610805826107a9565b9392505050565b6020808252600e908201526d139bdd08185d5d1a1bdc9a5e995960921b604082015260600190565b634e487b7160e01b5f52601160045260245ffd5b6001815b60018411156108835780850481111561086757610867610834565b600184161561087557908102905b60019390931c92800261084c565b935093915050565b5f8261089957506001610927565b816108a557505f610927565b81600181146108bb57600281146108c5576108e1565b6001915050610927565b60ff8411156108d6576108d6610834565b50506001821b610927565b5060208310610133831016604e8410600b8410161715610904575081810a610927565b6109105f198484610848565b805f190482111561092357610923610834565b0290505b92915050565b5f61080560ff84168361088b565b808202811582820484141761092757610927610834565b5f60208284031215610962575f80fd5b81518015158114610805575f80fd5b6020808252600f908201526e151c985b9cd9995c8819985a5b1959608a1b604082015260600190565b8082018082111561092757610927610834565b818103818111156109275761092761083456fea2646970667358221220e94ab95a192be930344732ef475cdcc6b52126c624b8876cacf2c01f36d7ac1464736f6c634300081a0033","linkReferences":{}},"methodIdentifiers":{"lockFunds(address,uint256)":"12e382b4","locked(address)":"cbf9fe5f","manager()":"481c6a75","owner()":"8da5cb5b","renounceOwnership()":"715018a6","setManager(address)":"d0ebdbe7","token()":"fc0c546a","tokenDecimals()":"3b97e856","transfer(address,uint256)":"a9059cbb","transferOwnership(address)":"f2fde38b","unlockFunds(address,uint256)":"8a75eb04"},"id":4}