{"abi":[{"type":"constructor","inputs":[{"name":"_lendingVault","type":"address","internalType":"address"},{"name":"_auctionEngine","type":"address","internalType":"address"},{"name":"_maxOfferAmount","type":"uint256","internalType":"uint256"}],"stateMutability":"nonpayable"},{"type":"function","name":"auctionEngine","inputs":[],"outputs":[{"name":"","type":"address","internalType":"contract AuctionEngine"}],"stateMutability":"view"},{"type":"function","name":"getOffers","inputs":[],"outputs":[{"name":"","type":"tuple[]","internalType":"struct OfferManager.EncryptedOffer[]","components":[{"name":"submitter","type":"address","internalType":"address"},{"name":"quantity","type":"uint256","internalType":"uint256"},{"name":"encryptedRate","type":"bytes","internalType":"bytes"}]}],"stateMutability":"view"},{"type":"function","name":"lendingVault","inputs":[],"outputs":[{"name":"","type":"address","internalType":"contract LendingVault"}],"stateMutability":"view"},{"type":"function","name":"lockedOfferFunds","inputs":[{"name":"","type":"address","internalType":"address"}],"outputs":[{"name":"","type":"uint256","internalType":"uint256"}],"stateMutability":"view"},{"type":"function","name":"maxOfferAmount","inputs":[],"outputs":[{"name":"","type":"uint256","internalType":"uint256"}],"stateMutability":"view"},{"type":"function","name":"offerSubmitted","inputs":[{"name":"","type":"address","internalType":"address"}],"outputs":[{"name":"","type":"uint256","internalType":"uint256"}],"stateMutability":"view"},{"type":"function","name":"offers","inputs":[{"name":"","type":"uint256","internalType":"uint256"}],"outputs":[{"name":"submitter","type":"address","internalType":"address"},{"name":"quantity","type":"uint256","internalType":"uint256"},{"name":"encryptedRate","type":"bytes","internalType":"bytes"}],"stateMutability":"view"},{"type":"function","name":"owner","inputs":[],"outputs":[{"name":"","type":"address","internalType":"address"}],"stateMutability":"view"},{"type":"function","name":"renounceOwnership","inputs":[],"outputs":[],"stateMutability":"nonpayable"},{"type":"function","name":"submitOffer","inputs":[{"name":"quantity","type":"uint256","internalType":"uint256"},{"name":"encryptedRate","type":"bytes","internalType":"bytes"}],"outputs":[],"stateMutability":"nonpayable"},{"type":"function","name":"transfer","inputs":[{"name":"to","type":"address","internalType":"address"},{"name":"amount","type":"uint256","internalType":"uint256"}],"outputs":[],"stateMutability":"nonpayable"},{"type":"function","name":"transferOwnership","inputs":[{"name":"newOwner","type":"address","internalType":"address"}],"outputs":[],"stateMutability":"nonpayable"},{"type":"function","name":"unlockFunds","inputs":[{"name":"offerer","type":"address","internalType":"address"},{"name":"amount","type":"uint256","internalType":"uint256"}],"outputs":[],"stateMutability":"nonpayable"},{"type":"function","name":"unlockMyOfferFunds","inputs":[],"outputs":[],"stateMutability":"nonpayable"},{"type":"event","name":"OfferForwarded","inputs":[{"name":"user","type":"address","indexed":true,"internalType":"address"},{"name":"qty","type":"uint256","indexed":false,"internalType":"uint256"},{"name":"encryptedRate","type":"bytes","indexed":false,"internalType":"bytes"}],"anonymous":false},{"type":"event","name":"OfferFundsUnlocked","inputs":[{"name":"user","type":"address","indexed":true,"internalType":"address"},{"name":"amount","type":"uint256","indexed":false,"internalType":"uint256"}],"anonymous":false},{"type":"event","name":"OwnershipTransferred","inputs":[{"name":"previousOwner","type":"address","indexed":true,"internalType":"address"},{"name":"newOwner","type":"address","indexed":true,"internalType":"address"}],"anonymous":false},{"type":"error","name":"OwnableInvalidOwner","inputs":[{"name":"owner","type":"address","internalType":"address"}]},{"type":"error","name":"OwnableUnauthorizedAccount","inputs":[{"name":"account","type":"address","internalType":"address"}]},{"type":"error","name":"ReentrancyGuardReentrantCall","inputs":[]}],"bytecode":{"object":"0x608060405234801561000f575f80fd5b5060405161143738038061143783398101604081905261002e9161018e565b338061005457604051631e4fbdf760e01b81525f60048201526024015b60405180910390fd5b61005d81610124565b50600180556001600160a01b0383166100a75760405162461bcd60e51b815260206004820152600c60248201526b5a65726f206164647265737360a01b604482015260640161004b565b6001600160a01b0382166100ec5760405162461bcd60e51b815260206004820152600c60248201526b5a65726f206164647265737360a01b604482015260640161004b565b600580546001600160a01b039485166001600160a01b03199182161790915560068054939094169216919091179091556007556101c7565b5f80546001600160a01b038381166001600160a01b0319831681178455604051919092169283917f8be0079c531659141344cd1fd0a4f28419497f9722a3daafe3b4186f6b6457e09190a35050565b80516001600160a01b0381168114610189575f80fd5b919050565b5f805f606084860312156101a0575f80fd5b6101a984610173565b92506101b760208501610173565b9150604084015190509250925092565b611263806101d45f395ff3fe608060405234801561000f575f80fd5b50600436106100e5575f3560e01c80638da5cb5b11610088578063c0744b5d11610063578063c0744b5d146101ce578063cb8c5a3a146101ed578063e842b0b914610200578063f2fde38b14610213575f80fd5b80638da5cb5b146101a2578063931f446e146101b2578063a9059cbb146101bb575f80fd5b80633f7d3cab116100c35780633f7d3cab1461015b578063715018a6146101655780638a72ea6a1461016d5780638a75eb041461018f575f80fd5b80631a962d29146100e95780631fb321411461011b5780633ee992ee14610146575b5f80fd5b6101086100f7366004610e2f565b60046020525f908152604090205481565b6040519081526020015b60405180910390f35b60065461012e906001600160a01b031681565b6040516001600160a01b039091168152602001610112565b61014e610226565b6040516101129190610e7d565b6101636103ac565b005b610163610616565b61018061017b366004610f0a565b610627565b60405161011293929190610f21565b61016361019d366004610f50565b6106db565b5f546001600160a01b031661012e565b61010860075481565b6101636101c9366004610f50565b6108a9565b6101086101dc366004610e2f565b60036020525f908152604090205481565b60055461012e906001600160a01b031681565b61016361020e366004610f78565b6109af565b610163610221366004610e2f565b610d32565b60605f60085467ffffffffffffffff81111561024457610244610fef565b60405190808252806020026020018201604052801561029057816020015b60408051606080820183525f8083526020830152918101919091528152602001906001900390816102625790505b5090505f5b6008548110156103a6575f818152600260205260409020546001600160a01b03161561039e575f81815260026020818152604092839020835160608101855281546001600160a01b031681526001820154928101929092529182018054919384019161030090611003565b80601f016020809104026020016040519081016040528092919081815260200182805461032c90611003565b80156103775780601f1061034e57610100808354040283529160200191610377565b820191905f5260205f20905b81548152906001019060200180831161035a57829003601f168201915b50505050508152505082828151811061039257610392611035565b60200260200101819052505b600101610295565b50919050565b6103b4610d6f565b60065f9054906101000a90046001600160a01b03166001600160a01b031663dd58302e6040518163ffffffff1660e01b8152600401602060405180830381865afa158015610404573d5f803e3d5ffd5b505050506040513d601f19601f820116820180604052508101906104289190611049565b6104715760405162461bcd60e51b8152602060048201526015602482015274105d58dd1a5bdb881b9bdd0818d85b98d95b1b1959605a1b60448201526064015b60405180910390fd5b335f90815260046020526040902054806104bf5760405162461bcd60e51b815260206004820152600f60248201526e4e6f206c6f636b65642066756e647360881b6044820152606401610468565b335f81815260046020819052604080832092909255600554915163165b024160e31b815290810192909252602482018390526001600160a01b03169063b2d81208906044015f604051808303815f87803b15801561051b575f80fd5b505af115801561052d573d5f803e3d5ffd5b5050604080516060810182525f808252602080830182905283518082018552828152838501523382526003905291822054909350600292506105719060019061107c565b815260208082019290925260409081015f20835181546001600160a01b0319166001600160a01b0390911617815591830151600183015582015160028201906105ba90826110e0565b5050335f8181526003602052604080822091909155519091507fbbafc9867a9495c87a6a19042388213077a9e2d5013d09194e2a1136c56a3c03906106029084815260200190565b60405180910390a25061061460018055565b565b61061e610d99565b6106145f610dc5565b600260208190525f91825260409091208054600182015492820180546001600160a01b0390921693929161065a90611003565b80601f016020809104026020016040519081016040528092919081815260200182805461068690611003565b80156106d15780601f106106a8576101008083540402835291602001916106d1565b820191905f5260205f20905b8154815290600101906020018083116106b457829003601f168201915b5050505050905083565b6006546001600160a01b0316331461072a5760405162461bcd60e51b81526020600482015260126024820152714e6f742061756374696f6e20656e67696e6560701b6044820152606401610468565b610732610d6f565b6001600160a01b0382165f90815260046020526040902054806107895760405162461bcd60e51b815260206004820152600f60248201526e4e6f206c6f636b65642066756e647360881b6044820152606401610468565b808211156107d95760405162461bcd60e51b815260206004820152601960248201527f496e73756666696369656e74206c6f636b65642066756e6473000000000000006044820152606401610468565b6107e3828261107c565b6001600160a01b038481165f8181526004602081905260409182902094909455600554905163165b024160e31b81529384019190915260248301859052169063b2d81208906044015f604051808303815f87803b158015610842575f80fd5b505af1158015610854573d5f803e3d5ffd5b50505050826001600160a01b03167fbbafc9867a9495c87a6a19042388213077a9e2d5013d09194e2a1136c56a3c038360405161089391815260200190565b60405180910390a2506108a560018055565b5050565b6006546001600160a01b031633146108f85760405162461bcd60e51b81526020600482015260126024820152714e6f742061756374696f6e20656e67696e6560701b6044820152606401610468565b610900610d6f565b6001600160a01b0382166109455760405162461bcd60e51b815260206004820152600c60248201526b5a65726f206164647265737360a01b6044820152606401610468565b60055460405163a9059cbb60e01b81526001600160a01b038481166004830152602482018490529091169063a9059cbb906044015f604051808303815f87803b158015610990575f80fd5b505af11580156109a2573d5f803e3d5ffd5b505050506108a560018055565b6109b7610d6f565b6006546040805163fc519f1560e01b815290515f926001600160a01b03169163fc519f159160048083019260209291908290030181865afa1580156109fe573d5f803e3d5ffd5b505050506040513d601f19601f82011682018060405250810190610a2291906111af565b6003811115610a3357610a3361119b565b14610a805760405162461bcd60e51b815260206004820152601a60248201527f41756374696f6e206e6f7420616363657074696e6720626964730000000000006044820152606401610468565b60065f9054906101000a90046001600160a01b03166001600160a01b031663dd58302e6040518163ffffffff1660e01b8152600401602060405180830381865afa158015610ad0573d5f803e3d5ffd5b505050506040513d601f19601f82011682018060405250810190610af49190611049565b15610b355760405162461bcd60e51b8152602060048201526011602482015270105d58dd1a5bdb8818d85b98d95b1b1959607a1b6044820152606401610468565b5f83118015610b4657506007548311155b610b855760405162461bcd60e51b815260206004820152601060248201526f496e76616c6964207175616e7469747960801b6044820152606401610468565b335f9081526004602052604081208054859290610ba39084906111cd565b90915550506005546040516304b8e0ad60e21b8152336004820152602481018590526001600160a01b03909116906312e382b4906044015f604051808303815f87803b158015610bf1575f80fd5b505af1158015610c03573d5f803e3d5ffd5b505050506040518060600160405280336001600160a01b0316815260200184815260200183838080601f0160208091040260200160405190810160405280939291908181526020018383808284375f920182905250939094525050600854815260026020818152604092839020855181546001600160a01b0319166001600160a01b0390911617815590850151600182015591840151919250820190610ca990826110e0565b5050600854610cba915060016111cd565b335f908152600360205260408120919091556008805491610cda836111e0565b9190505550336001600160a01b03167f32027be16632c9474f31814499ade98d63010a1c675f43f06e85216b7cd1a44a848484604051610d1c939291906111f8565b60405180910390a2610d2d60018055565b505050565b610d3a610d99565b6001600160a01b038116610d6357604051631e4fbdf760e01b81525f6004820152602401610468565b610d6c81610dc5565b50565b600260015403610d9257604051633ee5aeb560e01b815260040160405180910390fd5b6002600155565b5f546001600160a01b031633146106145760405163118cdaa760e01b8152336004820152602401610468565b5f80546001600160a01b038381166001600160a01b0319831681178455604051919092169283917f8be0079c531659141344cd1fd0a4f28419497f9722a3daafe3b4186f6b6457e09190a35050565b80356001600160a01b0381168114610e2a575f80fd5b919050565b5f60208284031215610e3f575f80fd5b610e4882610e14565b9392505050565b5f81518084528060208401602086015e5f602082860101526020601f19601f83011685010191505092915050565b5f602082016020835280845180835260408501915060408160051b8601019250602086015f5b82811015610efe57868503603f19018452815180516001600160a01b0316865260208082015190870152604090810151606091870182905290610ee890870182610e4f565b9550506020938401939190910190600101610ea3565b50929695505050505050565b5f60208284031215610f1a575f80fd5b5035919050565b60018060a01b0384168152826020820152606060408201525f610f476060830184610e4f565b95945050505050565b5f8060408385031215610f61575f80fd5b610f6a83610e14565b946020939093013593505050565b5f805f60408486031215610f8a575f80fd5b83359250602084013567ffffffffffffffff811115610fa7575f80fd5b8401601f81018613610fb7575f80fd5b803567ffffffffffffffff811115610fcd575f80fd5b866020828401011115610fde575f80fd5b939660209190910195509293505050565b634e487b7160e01b5f52604160045260245ffd5b600181811c9082168061101757607f821691505b6020821081036103a657634e487b7160e01b5f52602260045260245ffd5b634e487b7160e01b5f52603260045260245ffd5b5f60208284031215611059575f80fd5b81518015158114610e48575f80fd5b634e487b7160e01b5f52601160045260245ffd5b8181038181111561108f5761108f611068565b92915050565b601f821115610d2d57805f5260205f20601f840160051c810160208510156110ba5750805b601f840160051c820191505b818110156110d9575f81556001016110c6565b5050505050565b815167ffffffffffffffff8111156110fa576110fa610fef565b61110e816111088454611003565b84611095565b6020601f821160018114611140575f83156111295750848201515b5f19600385901b1c1916600184901b1784556110d9565b5f84815260208120601f198516915b8281101561116f578785015182556020948501946001909201910161114f565b508482101561118c57868401515f19600387901b60f8161c191681555b50505050600190811b01905550565b634e487b7160e01b5f52602160045260245ffd5b5f602082840312156111bf575f80fd5b815160048110610e48575f80fd5b8082018082111561108f5761108f611068565b5f600182016111f1576111f1611068565b5060010190565b83815260406020820152816040820152818360608301375f818301606090810191909152601f909201601f191601019291505056fea26469706673582212208da67ace2b7fac6051aa140f9f020556ab3ef609f5665d03fad8a562404f596964736f6c634300081a0033","linkReferences":{}},"methodIdentifiers":{"auctionEngine()":"1fb32141","getOffers()":"3ee992ee","lendingVault()":"cb8c5a3a","lockedOfferFunds(address)":"1a962d29","maxOfferAmount()":"931f446e","offerSubmitted(address)":"c0744b5d","offers(uint256)":"8a72ea6a","owner()":"8da5cb5b","renounceOwnership()":"715018a6","submitOffer(uint256,bytes)":"e842b0b9","transfer(address,uint256)":"a9059cbb","transferOwnership(address)":"f2fde38b","unlockFunds(address,uint256)":"8a75eb04","unlockMyOfferFunds()":"3f7d3cab"},"id":6}