{"abi":[{"type":"constructor","inputs":[{"name":"_lendingVault","type":"address","internalType":"address"},{"name":"_auctionEngine","type":"address","internalType":"address"},{"name":"_maxOfferAmount","type":"uint256","internalType":"uint256"},{"name":"_minimumOfferAmount","type":"uint256","internalType":"uint256"},{"name":"_maxNumOffers","type":"uint256","internalType":"uint256"}],"stateMutability":"nonpayable"},{"type":"function","name":"auctionEngine","inputs":[],"outputs":[{"name":"","type":"address","internalType":"contract AuctionEngine"}],"stateMutability":"view"},{"type":"function","name":"getOffers","inputs":[],"outputs":[{"name":"","type":"tuple[]","internalType":"struct OfferManager.EncryptedOffer[]","components":[{"name":"submitter","type":"address","internalType":"address"},{"name":"quantity","type":"uint256","internalType":"uint256"},{"name":"encryptedRate","type":"bytes","internalType":"bytes"}]}],"stateMutability":"view"},{"type":"function","name":"lendingVault","inputs":[],"outputs":[{"name":"","type":"address","internalType":"contract LendingVault"}],"stateMutability":"view"},{"type":"function","name":"lockedOfferFunds","inputs":[{"name":"","type":"address","internalType":"address"}],"outputs":[{"name":"","type":"uint256","internalType":"uint256"}],"stateMutability":"view"},{"type":"function","name":"maxNumOffers","inputs":[],"outputs":[{"name":"","type":"uint256","internalType":"uint256"}],"stateMutability":"view"},{"type":"function","name":"maxOfferAmount","inputs":[],"outputs":[{"name":"","type":"uint256","internalType":"uint256"}],"stateMutability":"view"},{"type":"function","name":"minimumOfferAmount","inputs":[],"outputs":[{"name":"","type":"uint256","internalType":"uint256"}],"stateMutability":"view"},{"type":"function","name":"offerSubmitted","inputs":[{"name":"","type":"address","internalType":"address"}],"outputs":[{"name":"","type":"uint256","internalType":"uint256"}],"stateMutability":"view"},{"type":"function","name":"offers","inputs":[{"name":"","type":"uint256","internalType":"uint256"}],"outputs":[{"name":"submitter","type":"address","internalType":"address"},{"name":"quantity","type":"uint256","internalType":"uint256"},{"name":"encryptedRate","type":"bytes","internalType":"bytes"}],"stateMutability":"view"},{"type":"function","name":"owner","inputs":[],"outputs":[{"name":"","type":"address","internalType":"address"}],"stateMutability":"view"},{"type":"function","name":"removeOffer","inputs":[],"outputs":[],"stateMutability":"nonpayable"},{"type":"function","name":"renounceOwnership","inputs":[],"outputs":[],"stateMutability":"nonpayable"},{"type":"function","name":"submitOffer","inputs":[{"name":"quantity","type":"uint256","internalType":"uint256"},{"name":"encryptedRate","type":"bytes","internalType":"bytes"}],"outputs":[],"stateMutability":"nonpayable"},{"type":"function","name":"transferFunds","inputs":[{"name":"to","type":"address","internalType":"address"},{"name":"amount","type":"uint256","internalType":"uint256"}],"outputs":[],"stateMutability":"nonpayable"},{"type":"function","name":"transferOwnership","inputs":[{"name":"newOwner","type":"address","internalType":"address"}],"outputs":[],"stateMutability":"nonpayable"},{"type":"function","name":"unlockAllOffers","inputs":[],"outputs":[],"stateMutability":"nonpayable"},{"type":"function","name":"unlockFunds","inputs":[{"name":"offerer","type":"address","internalType":"address"},{"name":"amount","type":"uint256","internalType":"uint256"}],"outputs":[],"stateMutability":"nonpayable"},{"type":"event","name":"OfferFundsUnlocked","inputs":[{"name":"user","type":"address","indexed":true,"internalType":"address"},{"name":"amount","type":"uint256","indexed":false,"internalType":"uint256"}],"anonymous":false},{"type":"event","name":"OfferSubmitted","inputs":[{"name":"user","type":"address","indexed":true,"internalType":"address"},{"name":"qty","type":"uint256","indexed":false,"internalType":"uint256"},{"name":"encryptedRate","type":"bytes","indexed":false,"internalType":"bytes"}],"anonymous":false},{"type":"event","name":"OwnershipTransferred","inputs":[{"name":"previousOwner","type":"address","indexed":true,"internalType":"address"},{"name":"newOwner","type":"address","indexed":true,"internalType":"address"}],"anonymous":false},{"type":"error","name":"OwnableInvalidOwner","inputs":[{"name":"owner","type":"address","internalType":"address"}]},{"type":"error","name":"OwnableUnauthorizedAccount","inputs":[{"name":"account","type":"address","internalType":"address"}]},{"type":"error","name":"ReentrancyGuardReentrantCall","inputs":[]}],"bytecode":{"object":"0x608060405234801561000f575f80fd5b50604051611e9e380380611e9e83398101604081905261002e91610285565b338061005457604051631e4fbdf760e01b81525f60048201526024015b60405180910390fd5b61005d8161021b565b50600180556001600160a01b0385166100a75760405162461bcd60e51b815260206004820152600c60248201526b5a65726f206164647265737360a01b604482015260640161004b565b6001600160a01b0384166100ec5760405162461bcd60e51b815260206004820152600c60248201526b5a65726f206164647265737360a01b604482015260640161004b565b5f831161013b5760405162461bcd60e51b815260206004820152601860248201527f496e76616c6964206d6178206f6666657220616d6f756e740000000000000000604482015260640161004b565b5f821161018a5760405162461bcd60e51b815260206004820152601860248201527f496e76616c6964206d696e206f6666657220616d6f756e740000000000000000604482015260640161004b565b828211156101da5760405162461bcd60e51b815260206004820152601c60248201527f4d696e206f6666657220616d6f756e742065786365656473206d617800000000604482015260640161004b565b600580546001600160a01b039687166001600160a01b0319918216179091556006805495909616941693909317909355600755600891909155600b556102cf565b5f80546001600160a01b038381166001600160a01b0319831681178455604051919092169283917f8be0079c531659141344cd1fd0a4f28419497f9722a3daafe3b4186f6b6457e09190a35050565b80516001600160a01b0381168114610280575f80fd5b919050565b5f805f805f60a08688031215610299575f80fd5b6102a28661026a565b94506102b06020870161026a565b6040870151606088015160809098015196999198509695945092505050565b611bc2806102dc5f395ff3fe608060405234801561000f575f80fd5b5060043610610106575f3560e01c80638da5cb5b1161009e578063cb8c5a3a1161006e578063cb8c5a3a14610218578063e842b0b91461022b578063e964dfdc1461023e578063eda2677214610246578063f2fde38b1461024e575f80fd5b80638da5cb5b146101cd578063931f446e146101dd578063990dc9db146101e6578063c0744b5d146101f9575f80fd5b80635b56807c116100d95780635b56807c14610185578063715018a61461018e5780638a72ea6a146101985780638a75eb04146101ba575f80fd5b80631a962d291461010a5780631fb321411461013c578063272c6a88146101675780633ee992ee14610170575b5f80fd5b61012961011836600461171f565b60046020525f908152604090205481565b6040519081526020015b60405180910390f35b60065461014f906001600160a01b031681565b6040516001600160a01b039091168152602001610133565b61012960085481565b610178610261565b604051610133919061176d565b610129600b5481565b6101966103f8565b005b6101ab6101a63660046117fa565b61040b565b60405161013393929190611811565b6101966101c8366004611840565b6104bf565b5f546001600160a01b031661014f565b61012960075481565b6101966101f4366004611840565b610702565b61012961020736600461171f565b60036020525f908152604090205481565b60055461014f906001600160a01b031681565b610196610239366004611868565b610874565b610196610f0b565b610196611202565b61019661025c36600461171f565b6115d8565b60605f600a5467ffffffffffffffff81111561027f5761027f6118df565b6040519080825280602002602001820160405280156102cb57816020015b60408051606080820183525f80835260208301529181019190915281526020019060019003908161029d5790505b5090505f805b6009548110156103f0575f818152600260205260409020546001600160a01b0316156103e8575f81815260026020818152604092839020835160608101855281546001600160a01b031681526001820154928101929092529182018054919384019161033c906118f3565b80601f0160208091040260200160405190810160405280929190818152602001828054610368906118f3565b80156103b35780601f1061038a576101008083540402835291602001916103b3565b820191905f5260205f20905b81548152906001019060200180831161039657829003601f168201915b5050505050815250508383815181106103ce576103ce61192b565b602002602001018190525081806103e490611953565b9250505b6001016102d1565b509092915050565b610400611615565b6104095f611641565b565b600260208190525f91825260409091208054600182015492820180546001600160a01b0390921693929161043e906118f3565b80601f016020809104026020016040519081016040528092919081815260200182805461046a906118f3565b80156104b55780601f1061048c576101008083540402835291602001916104b5565b820191905f5260205f20905b81548152906001019060200180831161049857829003601f168201915b5050505050905083565b6006546001600160a01b031633146104f25760405162461bcd60e51b81526004016104e99061196b565b60405180910390fd5b6104fa611690565b60065f9054906101000a90046001600160a01b03166001600160a01b0316635c975abb6040518163ffffffff1660e01b8152600401602060405180830381865afa15801561054a573d5f803e3d5ffd5b505050506040513d601f19601f8201168201806040525081019061056e9190611997565b1561058b5760405162461bcd60e51b81526004016104e9906119b6565b6001600160a01b0382165f90815260046020526040902054806105e25760405162461bcd60e51b815260206004820152600f60248201526e4e6f206c6f636b65642066756e647360881b60448201526064016104e9565b808211156106325760405162461bcd60e51b815260206004820152601960248201527f496e73756666696369656e74206c6f636b65642066756e64730000000000000060448201526064016104e9565b61063c82826119de565b6001600160a01b038481165f8181526004602081905260409182902094909455600554905163229d7ac160e21b815293840191909152602483018590521690638a75eb04906044015f604051808303815f87803b15801561069b575f80fd5b505af11580156106ad573d5f803e3d5ffd5b50505050826001600160a01b03167fbbafc9867a9495c87a6a19042388213077a9e2d5013d09194e2a1136c56a3c03836040516106ec91815260200190565b60405180910390a2506106fe60018055565b5050565b6006546001600160a01b0316331461072c5760405162461bcd60e51b81526004016104e99061196b565b610734611690565b60065f9054906101000a90046001600160a01b03166001600160a01b0316635c975abb6040518163ffffffff1660e01b8152600401602060405180830381865afa158015610784573d5f803e3d5ffd5b505050506040513d601f19601f820116820180604052508101906107a89190611997565b156107c55760405162461bcd60e51b81526004016104e9906119b6565b6001600160a01b03821661080a5760405162461bcd60e51b815260206004820152600c60248201526b5a65726f206164647265737360a01b60448201526064016104e9565b60055460405163990dc9db60e01b81526001600160a01b038481166004830152602482018490529091169063990dc9db906044015f604051808303815f87803b158015610855575f80fd5b505af1158015610867573d5f803e3d5ffd5b505050506106fe60018055565b61087c611690565b60065f9054906101000a90046001600160a01b03166001600160a01b0316635c975abb6040518163ffffffff1660e01b8152600401602060405180830381865afa1580156108cc573d5f803e3d5ffd5b505050506040513d601f19601f820116820180604052508101906108f09190611997565b1561090d5760405162461bcd60e51b81526004016104e9906119b6565b6006546040805163fc519f1560e01b815290515f926001600160a01b03169163fc519f159160048083019260209291908290030181865afa158015610954573d5f803e3d5ffd5b505050506040513d601f19601f820116820180604052508101906109789190611a0b565b6004811115610989576109896119f7565b146109d65760405162461bcd60e51b815260206004820152601a60248201527f41756374696f6e206e6f7420616363657074696e67206269647300000000000060448201526064016104e9565b60065f9054906101000a90046001600160a01b03166001600160a01b031663dd58302e6040518163ffffffff1660e01b8152600401602060405180830381865afa158015610a26573d5f803e3d5ffd5b505050506040513d601f19601f82011682018060405250810190610a4a9190611997565b15610a8b5760405162461bcd60e51b8152602060048201526011602482015270105d58dd1a5bdb8818d85b98d95b1b1959607a1b60448201526064016104e9565b5f83118015610a9c57506007548311155b8015610aaa57506008548310155b610ae95760405162461bcd60e51b815260206004820152601060248201526f496e76616c6964207175616e7469747960801b60448201526064016104e9565b335f9081526004602052604081205490819003610d0c57600b54600a54610b11906001611a29565b1115610b695760405162461bcd60e51b815260206004820152602160248201527f4d6178696d756d206e756d626572206f66206f666665727320726561636865646044820152601760f91b60648201526084016104e9565b6005546040516304b8e0ad60e21b8152336004820152602481018690526001600160a01b03909116906312e382b4906044015f604051808303815f87803b158015610bb2575f80fd5b505af1158015610bc4573d5f803e3d5ffd5b505050506040518060600160405280336001600160a01b0316815260200185815260200184848080601f0160208091040260200160405190810160405280939291908181526020018383808284375f920182905250939094525050600954815260026020818152604092839020855181546001600160a01b0319166001600160a01b0390911617815590850151600182015591840151919250820190610c6a9082611a87565b5050600954610c7b91506001611a29565b335f90815260036020908152604080832093909355600490529081208590556009805491610ca883611953565b9091555050600a8054905f610cbc83611953565b9190505550336001600160a01b03167f632473c92fb44ed990478e0137c188bdedba8b462807312c843dce32a08e6bc0858585604051610cfe93929190611b42565b60405180910390a250610efd565b83811015610d85575f610d1f82866119de565b6005546040516304b8e0ad60e21b8152336004820152602481018390529192506001600160a01b0316906312e382b4906044015f604051808303815f87803b158015610d69575f80fd5b505af1158015610d7b573d5f803e3d5ffd5b5050505050610dfa565b83811115610dfa575f610d9885836119de565b60055460405163229d7ac160e21b8152336004820152602481018390529192506001600160a01b031690638a75eb04906044015f604051808303815f87803b158015610de2575f80fd5b505af1158015610df4573d5f803e3d5ffd5b50505050505b335f8181526004602090815260409182902087905581516060810183529283528281018790528151601f86018290048202810182018352858152918301919086908690819084018382808284375f9201829052509390945250503381526003602052604081205460029250610e71906001906119de565b815260208082019290925260409081015f20835181546001600160a01b0319166001600160a01b039091161781559183015160018301558201516002820190610eba9082611a87565b50506040513391507f632473c92fb44ed990478e0137c188bdedba8b462807312c843dce32a08e6bc090610ef390879087908790611b42565b60405180910390a2505b610f0660018055565b505050565b6006546001600160a01b03163314610f355760405162461bcd60e51b81526004016104e99061196b565b610f3d611690565b60065f9054906101000a90046001600160a01b03166001600160a01b0316635c975abb6040518163ffffffff1660e01b8152600401602060405180830381865afa158015610f8d573d5f803e3d5ffd5b505050506040513d601f19601f82011682018060405250810190610fb19190611997565b15610fce5760405162461bcd60e51b81526004016104e9906119b6565b5f5b6009548110156111ef575f818152600260208181526040808420815160608101835281546001600160a01b03168152600182015493810193909352928301805492939291840191611020906118f3565b80601f016020809104026020016040519081016040528092919081815260200182805461104c906118f3565b80156110975780601f1061106e57610100808354040283529160200191611097565b820191905f5260205f20905b81548152906001019060200180831161107a57829003601f168201915b5050509190925250508151919250506001600160a01b0316156111e65780516001600160a01b03165f9081526004602052604090205480156111975781516001600160a01b039081165f908152600460208190526040808320929092556005548551925163229d7ac160e21b8152928416918301919091526024820184905290911690638a75eb04906044015f604051808303815f87803b15801561113a575f80fd5b505af115801561114c573d5f803e3d5ffd5b50505050815f01516001600160a01b03167fbbafc9867a9495c87a6a19042388213077a9e2d5013d09194e2a1136c56a3c038260405161118e91815260200190565b60405180910390a25b5f838152600260208190526040822080546001600160a01b03191681556001810183905591906111c9908301826116ba565b505081516001600160a01b03165f90815260036020526040812055505b50600101610fd0565b505f6009819055600a5561040960018055565b61120a611690565b60065f9054906101000a90046001600160a01b03166001600160a01b0316635c975abb6040518163ffffffff1660e01b8152600401602060405180830381865afa15801561125a573d5f803e3d5ffd5b505050506040513d601f19601f8201168201806040525081019061127e9190611997565b1561129b5760405162461bcd60e51b81526004016104e9906119b6565b60065f9054906101000a90046001600160a01b03166001600160a01b031663dd58302e6040518163ffffffff1660e01b8152600401602060405180830381865afa1580156112eb573d5f803e3d5ffd5b505050506040513d601f19601f8201168201806040525081019061130f9190611997565b156113505760405162461bcd60e51b8152602060048201526011602482015270105d58dd1a5bdb8818d85b98d95b1b1959607a1b60448201526064016104e9565b335f908152600360205260409020546113a05760405162461bcd60e51b8152602060048201526012602482015271139bc81bd999995c881cdd589b5a5d1d195960721b60448201526064016104e9565b6006546040805163fc519f1560e01b815290515f926001600160a01b03169163fc519f159160048083019260209291908290030181865afa1580156113e7573d5f803e3d5ffd5b505050506040513d601f19601f8201168201806040525081019061140b9190611a0b565b600481111561141c5761141c6119f7565b1461145f5760405162461bcd60e51b815260206004820152601360248201527221b0b73737ba103932b6b7bb329037b33332b960691b60448201526064016104e9565b335f90815260046020526040902054806114ad5760405162461bcd60e51b815260206004820152600f60248201526e4e6f206c6f636b65642066756e647360881b60448201526064016104e9565b335f81815260046020819052604080832092909255600554915163229d7ac160e21b815290810192909252602482018390526001600160a01b031690638a75eb04906044015f604051808303815f87803b158015611509575f80fd5b505af115801561151b573d5f803e3d5ffd5b5050335f908152600360205260408120546002935090915061153f906001906119de565b815260208101919091526040015f90812080546001600160a01b0319168155600181018290559061157360028301826116ba565b5050335f908152600360205260408120819055600a80549161159483611b77565b909155505060405181815233907fbbafc9867a9495c87a6a19042388213077a9e2d5013d09194e2a1136c56a3c039060200160405180910390a25061040960018055565b6115e0611615565b6001600160a01b03811661160957604051631e4fbdf760e01b81525f60048201526024016104e9565b61161281611641565b50565b5f546001600160a01b031633146104095760405163118cdaa760e01b81523360048201526024016104e9565b5f80546001600160a01b038381166001600160a01b0319831681178455604051919092169283917f8be0079c531659141344cd1fd0a4f28419497f9722a3daafe3b4186f6b6457e09190a35050565b6002600154036116b357604051633ee5aeb560e01b815260040160405180910390fd5b6002600155565b5080546116c6906118f3565b5f825580601f106116d5575050565b601f0160209004905f5260205f209081019061161291905b80821115611700575f81556001016116ed565b5090565b80356001600160a01b038116811461171a575f80fd5b919050565b5f6020828403121561172f575f80fd5b61173882611704565b9392505050565b5f81518084528060208401602086015e5f602082860101526020601f19601f83011685010191505092915050565b5f602082016020835280845180835260408501915060408160051b8601019250602086015f5b828110156117ee57868503603f19018452815180516001600160a01b03168652602080820151908701526040908101516060918701829052906117d89087018261173f565b9550506020938401939190910190600101611793565b50929695505050505050565b5f6020828403121561180a575f80fd5b5035919050565b60018060a01b0384168152826020820152606060408201525f611837606083018461173f565b95945050505050565b5f8060408385031215611851575f80fd5b61185a83611704565b946020939093013593505050565b5f805f6040848603121561187a575f80fd5b83359250602084013567ffffffffffffffff811115611897575f80fd5b8401601f810186136118a7575f80fd5b803567ffffffffffffffff8111156118bd575f80fd5b8660208284010111156118ce575f80fd5b939660209190910195509293505050565b634e487b7160e01b5f52604160045260245ffd5b600181811c9082168061190757607f821691505b60208210810361192557634e487b7160e01b5f52602260045260245ffd5b50919050565b634e487b7160e01b5f52603260045260245ffd5b634e487b7160e01b5f52601160045260245ffd5b5f600182016119645761196461193f565b5060010190565b6020808252601290820152714e6f742061756374696f6e20656e67696e6560701b604082015260600190565b5f602082840312156119a7575f80fd5b81518015158114611738575f80fd5b6020808252600e908201526d105d58dd1a5bdb881c185d5cd95960921b604082015260600190565b818103818111156119f1576119f161193f565b92915050565b634e487b7160e01b5f52602160045260245ffd5b5f60208284031215611a1b575f80fd5b815160058110611738575f80fd5b808201808211156119f1576119f161193f565b601f821115610f0657805f5260205f20601f840160051c81016020851015611a615750805b601f840160051c820191505b81811015611a80575f8155600101611a6d565b5050505050565b815167ffffffffffffffff811115611aa157611aa16118df565b611ab581611aaf84546118f3565b84611a3c565b6020601f821160018114611ae7575f8315611ad05750848201515b5f19600385901b1c1916600184901b178455611a80565b5f84815260208120601f198516915b82811015611b165787850151825560209485019460019092019101611af6565b5084821015611b3357868401515f19600387901b60f8161c191681555b50505050600190811b01905550565b83815260406020820152816040820152818360608301375f818301606090810191909152601f909201601f1916010192915050565b5f81611b8557611b8561193f565b505f19019056fea2646970667358221220d27983c76b286f5d4ea30e2b3d2002c0d695a5fd4cbd2429ec836df254726f7764736f6c634300081a0033","linkReferences":{}},"methodIdentifiers":{"auctionEngine()":"1fb32141","getOffers()":"3ee992ee","lendingVault()":"cb8c5a3a","lockedOfferFunds(address)":"1a962d29","maxNumOffers()":"5b56807c","maxOfferAmount()":"931f446e","minimumOfferAmount()":"272c6a88","offerSubmitted(address)":"c0744b5d","offers(uint256)":"8a72ea6a","owner()":"8da5cb5b","removeOffer()":"eda26772","renounceOwnership()":"715018a6","submitOffer(uint256,bytes)":"e842b0b9","transferFunds(address,uint256)":"990dc9db","transferOwnership(address)":"f2fde38b","unlockAllOffers()":"e964dfdc","unlockFunds(address,uint256)":"8a75eb04"},"id":6}